{"abi":[{"type":"function","name":"UPGRADE_INTERFACE_VERSION","inputs":[],"outputs":[{"name":"","type":"string","internalType":"string"}],"stateMutability":"view"},{"type":"function","name":"allowUser","inputs":[{"name":"_userAddress","type":"address","internalType":"address"}],"outputs":[],"stateMutability":"nonpayable"},{"type":"function","name":"batchAllowUsers","inputs":[{"name":"_userAddresses","type":"address[]","internalType":"address[]"}],"outputs":[],"stateMutability":"nonpayable"},{"type":"function","name":"batchDisallowUsers","inputs":[{"name":"_userAddresses","type":"address[]","internalType":"address[]"}],"outputs":[],"stateMutability":"nonpayable"},{"type":"function","name":"bindCompliance","inputs":[{"name":"_compliance","type":"address","internalType":"address"}],"outputs":[],"stateMutability":"nonpayable"},{"type":"function","name":"canComplianceBind","inputs":[{"name":"","type":"address","internalType":"address"}],"outputs":[{"name":"","type":"bool","internalType":"bool"}],"stateMutability":"view"},{"type":"function","name":"disallowUser","inputs":[{"name":"_userAddress","type":"address","internalType":"address"}],"outputs":[],"stateMutability":"nonpayable"},{"type":"function","name":"initialize","inputs":[],"outputs":[],"stateMutability":"nonpayable"},{"type":"function","name":"isComplianceBound","inputs":[{"name":"_compliance","type":"address","internalType":"address"}],"outputs":[{"name":"","type":"bool","internalType":"bool"}],"stateMutability":"view"},{"type":"function","name":"isPlugAndPlay","inputs":[],"outputs":[{"name":"","type":"bool","internalType":"bool"}],"stateMutability":"pure"},{"type":"function","name":"isUserAllowed","inputs":[{"name":"_compliance","type":"address","internalType":"address"},{"name":"_userAddress","type":"address","internalType":"address"}],"outputs":[{"name":"","type":"bool","internalType":"bool"}],"stateMutability":"view"},{"type":"function","name":"moduleBurnAction","inputs":[{"name":"_from","type":"address","internalType":"address"},{"name":"_value","type":"uint256","internalType":"uint256"}],"outputs":[],"stateMutability":"nonpayable"},{"type":"function","name":"moduleCheck","inputs":[{"name":"_from","type":"address","internalType":"address"},{"name":"_to","type":"address","internalType":"address"},{"name":"","type":"uint256","internalType":"uint256"},{"name":"_compliance","type":"address","internalType":"address"}],"outputs":[{"name":"","type":"bool","internalType":"bool"}],"stateMutability":"view"},{"type":"function","name":"moduleMintAction","inputs":[{"name":"_to","type":"address","internalType":"address"},{"name":"_value","type":"uint256","internalType":"uint256"}],"outputs":[],"stateMutability":"nonpayable"},{"type":"function","name":"moduleTransferAction","inputs":[{"name":"_from","type":"address","internalType":"address"},{"name":"_to","type":"address","internalType":"address"},{"name":"_value","type":"uint256","internalType":"uint256"}],"outputs":[],"stateMutability":"nonpayable"},{"type":"function","name":"name","inputs":[],"outputs":[{"name":"_name","type":"string","internalType":"string"}],"stateMutability":"pure"},{"type":"function","name":"owner","inputs":[],"outputs":[{"name":"","type":"address","internalType":"address"}],"stateMutability":"view"},{"type":"function","name":"proxiableUUID","inputs":[],"outputs":[{"name":"","type":"bytes32","internalType":"bytes32"}],"stateMutability":"view"},{"type":"function","name":"renounceOwnership","inputs":[],"outputs":[],"stateMutability":"nonpayable"},{"type":"function","name":"transferOwnership","inputs":[{"name":"newOwner","type":"address","internalType":"address"}],"outputs":[],"stateMutability":"nonpayable"},{"type":"function","name":"unbindCompliance","inputs":[{"name":"_compliance","type":"address","internalType":"address"}],"outputs":[],"stateMutability":"nonpayable"},{"type":"function","name":"upgradeToAndCall","inputs":[{"name":"newImplementation","type":"address","internalType":"address"},{"name":"data","type":"bytes","internalType":"bytes"}],"outputs":[],"stateMutability":"payable"},{"type":"event","name":"ComplianceBound","inputs":[{"name":"_compliance","type":"address","indexed":true,"internalType":"address"}],"anonymous":false},{"type":"event","name":"ComplianceUnbound","inputs":[{"name":"_compliance","type":"address","indexed":true,"internalType":"address"}],"anonymous":false},{"type":"event","name":"Initialized","inputs":[{"name":"version","type":"uint64","indexed":false,"internalType":"uint64"}],"anonymous":false},{"type":"event","name":"OwnershipTransferred","inputs":[{"name":"previousOwner","type":"address","indexed":true,"internalType":"address"},{"name":"newOwner","type":"address","indexed":true,"internalType":"address"}],"anonymous":false},{"type":"event","name":"Upgraded","inputs":[{"name":"implementation","type":"address","indexed":true,"internalType":"address"}],"anonymous":false},{"type":"event","name":"UserAllowed","inputs":[{"name":"_compliance","type":"address","indexed":false,"internalType":"address"},{"name":"_userAddress","type":"address","indexed":false,"internalType":"address"}],"anonymous":false},{"type":"event","name":"UserDisallowed","inputs":[{"name":"_compliance","type":"address","indexed":false,"internalType":"address"},{"name":"_userAddress","type":"address","indexed":false,"internalType":"address"}],"anonymous":false},{"type":"error","name":"AddressEmptyCode","inputs":[{"name":"target","type":"address","internalType":"address"}]},{"type":"error","name":"ERC1967InvalidImplementation","inputs":[{"name":"implementation","type":"address","internalType":"address"}]},{"type":"error","name":"ERC1967NonPayable","inputs":[]},{"type":"error","name":"FailedCall","inputs":[]},{"type":"error","name":"InvalidInitialization","inputs":[]},{"type":"error","name":"NotInitializing","inputs":[]},{"type":"error","name":"OwnableInvalidOwner","inputs":[{"name":"owner","type":"address","internalType":"address"}]},{"type":"error","name":"OwnableUnauthorizedAccount","inputs":[{"name":"account","type":"address","internalType":"address"}]},{"type":"error","name":"UUPSUnauthorizedCallContext","inputs":[]},{"type":"error","name":"UUPSUnsupportedProxiableUUID","inputs":[{"name":"slot","type":"bytes32","internalType":"bytes32"}]}],"bytecode":{"object":"0x60a060405230608052348015601357600080fd5b506080516115b261003d60003960008181610c8f01528181610cb80152610df901526115b26000f3fe6080604052600436106101355760003560e01c8063715018a6116100ab578063a9fb3b351161006f578063a9fb3b35146103a6578063ad3cb1cc146103ed578063bcc210531461041e578063e6f5e8071461043f578063f104a8c914610219578063f2fde38b1461045357600080fd5b8063715018a6146102f5578063726bb4651461030a578063771c456f1461032a5780638129fc1c1461034a5780638da5cb5b1461035f57600080fd5b8063372491a2116100fd578063372491a2146102195780634a932544146102395780634cf4d295146102595780634f1ef2861461029f57806352d1902d146102b257806358591fb7146102d557600080fd5b8063013b7ce41461013a5780630694a5fb1461016f57806306fdde03146101915780632cb7e1ec146101d957806332bb1f16146101f9575b600080fd5b34801561014657600080fd5b5061015a61015536600461117a565b610473565b60405190151581526020015b60405180910390f35b34801561017b57600080fd5b5061018f61018a3660046111c7565b610504565b005b34801561019d57600080fd5b506040805180820190915260168152755472616e7366657252657374726963744d6f64756c6560501b60208201525b6040516101669190611206565b3480156101e557600080fd5b5061018f6101f4366004611239565b610624565b34801561020557600080fd5b5061018f6102143660046112bd565b610669565b34801561022557600080fd5b5061018f610234366004611371565b61073f565b34801561024557600080fd5b5061018f6102543660046111c7565b610783565b34801561026557600080fd5b5061015a6102743660046111c7565b6001600160a01b0316600090815260008051602061155d833981519152602052604090205460ff1690565b61018f6102ad36600461139b565b6108c6565b3480156102be57600080fd5b506102c76108e5565b604051908152602001610166565b3480156102e157600080fd5b5061018f6102f03660046111c7565b610902565b34801561030157600080fd5b5061018f6109a9565b34801561031657600080fd5b5061018f6103253660046112bd565b6109bd565b34801561033657600080fd5b5061018f6103453660046111c7565b610a96565b34801561035657600080fd5b5061018f610b38565b34801561036b57600080fd5b507f9016d09d72d40fdae2fd8ceac6b6234c7706214fd39c1cd1e609a0528c199300546040516001600160a01b039091168152602001610166565b3480156103b257600080fd5b5061015a6103c1366004611446565b6001600160a01b0391821660009081526020818152604080832093909416825291909152205460ff1690565b3480156103f957600080fd5b506101cc604051806040016040528060058152602001640352e302e360dc1b81525081565b34801561042a57600080fd5b5061015a6104393660046111c7565b50600190565b34801561044b57600080fd5b50600161015a565b34801561045f57600080fd5b5061018f61046e3660046111c7565b610c46565b60006001600160a01b038516158061049257506001600160a01b038416155b1561049f575060016104fc565b6001600160a01b038083166000908152602081815260408083209389168352929052205460ff16156104d3575060016104fc565b506001600160a01b038082166000908152602081815260408083209387168352929052205460ff165b949350505050565b33600090815260008051602061155d833981519152602081905260409091205460ff1661054c5760405162461bcd60e51b815260040161054390611479565b60405180910390fd5b60008051602061155d8339815191526001600160a01b0383166105b15760405162461bcd60e51b815260206004820152601f60248201527f696e76616c696420617267756d656e74202d207a65726f2061646472657373006044820152606401610543565b336001600160a01b038416146105d95760405162461bcd60e51b8152600401610543906114b0565b6001600160a01b038316600081815260208390526040808220805460ff19169055517f408b49d9be1c914c52a0227e18a077e5a892dddf32a26cfa94a5d9708fad77189190a2505050565b33600090815260008051602061155d833981519152602081905260409091205460ff166106635760405162461bcd60e51b815260040161054390611479565b50505050565b33600090815260008051602061155d833981519152602081905260409091205460ff166106a85760405162461bcd60e51b815260040161054390611479565b815160005b818110156106635760008482815181106106c9576106c96114f1565b60209081029190910181015133600081815280845260408082206001600160a01b03851680845290865291819020805460ff191690558051928352938201529092507fe9ab2574b9b111f06f42baaa274030c7228b1dad45b248037101cd11de348240910160405180910390a1506001016106ad565b33600090815260008051602061155d833981519152602081905260409091205460ff1661077e5760405162461bcd60e51b815260040161054390611479565b505050565b60008051602061155d8339815191526001600160a01b0382166107e85760405162461bcd60e51b815260206004820152601f60248201527f696e76616c696420617267756d656e74202d207a65726f2061646472657373006044820152606401610543565b6001600160a01b03821660009081526020829052604090205460ff16156108515760405162461bcd60e51b815260206004820152601860248201527f636f6d706c69616e636520616c726561647920626f756e6400000000000000006044820152606401610543565b336001600160a01b038316146108795760405162461bcd60e51b8152600401610543906114b0565b6001600160a01b038216600081815260208390526040808220805460ff19166001179055517f1f7b76c58fb697eb53c6c7c1becb96911516a136e24d7ced386b2355358b75a39190a25050565b6108ce610c84565b6108d782610d29565b6108e18282610d31565b5050565b60006108ef610dee565b5060008051602061153d83398151915290565b33600090815260008051602061155d833981519152602081905260409091205460ff166109415760405162461bcd60e51b815260040161054390611479565b336000818152602081815260408083206001600160a01b03871680855290835292819020805460ff191690558051938452908301919091527fe9ab2574b9b111f06f42baaa274030c7228b1dad45b248037101cd11de34824091015b60405180910390a15050565b6109b1610e37565b6109bb6000610e92565b565b33600090815260008051602061155d833981519152602081905260409091205460ff166109fc5760405162461bcd60e51b815260040161054390611479565b815160005b81811015610663576000848281518110610a1d57610a1d6114f1565b60209081029190910181015133600081815280845260408082206001600160a01b03851680845290865291819020805460ff191660011790558051928352938201529092507f767240d3c58c1058ed268ca225eb1cc93d85cf46b6e85d8d120b39921475b1c1910160405180910390a150600101610a01565b33600090815260008051602061155d833981519152602081905260409091205460ff16610ad55760405162461bcd60e51b815260040161054390611479565b336000818152602081815260408083206001600160a01b03871680855290835292819020805460ff191660011790558051938452908301919091527f767240d3c58c1058ed268ca225eb1cc93d85cf46b6e85d8d120b39921475b1c1910161099d565b7ff0c57e16840df040f15088dc2f81fe391c3923bec73e23a9662efc9c229c6a008054600160401b810460ff16159067ffffffffffffffff16600081158015610b7e5750825b905060008267ffffffffffffffff166001148015610b9b5750303b155b905081158015610ba9575080155b15610bc75760405163f92ee8a960e01b815260040160405180910390fd5b845467ffffffffffffffff191660011785558315610bf157845460ff60401b1916600160401b1785555b610bf9610f03565b8315610c3f57845460ff60401b19168555604051600181527fc7f505b2f371ae2175ee4913f4499e1f2633a7b5936321eed1cdaeb6115181d29060200160405180910390a15b5050505050565b610c4e610e37565b6001600160a01b038116610c7857604051631e4fbdf760e01b815260006004820152602401610543565b610c8181610e92565b50565b306001600160a01b037f0000000000000000000000000000000000000000000000000000000000000000161480610d0b57507f00000000000000000000000000000000000000000000000000000000000000006001600160a01b0316610cff60008051602061153d833981519152546001600160a01b031690565b6001600160a01b031614155b156109bb5760405163703e46dd60e11b815260040160405180910390fd5b610c81610e37565b816001600160a01b03166352d1902d6040518163ffffffff1660e01b8152600401602060405180830381865afa925050508015610d8b575060408051601f3d908101601f19168201909252610d8891810190611507565b60015b610db357604051634c9c8ce360e01b81526001600160a01b0383166004820152602401610543565b60008051602061153d8339815191528114610de457604051632a87526960e21b815260048101829052602401610543565b61077e8383610f1c565b306001600160a01b037f000000000000000000000000000000000000000000000000000000000000000016146109bb5760405163703e46dd60e11b815260040160405180910390fd5b33610e697f9016d09d72d40fdae2fd8ceac6b6234c7706214fd39c1cd1e609a0528c199300546001600160a01b031690565b6001600160a01b0316146109bb5760405163118cdaa760e01b8152336004820152602401610543565b7f9016d09d72d40fdae2fd8ceac6b6234c7706214fd39c1cd1e609a0528c19930080546001600160a01b031981166001600160a01b03848116918217845560405192169182907f8be0079c531659141344cd1fd0a4f28419497f9722a3daafe3b4186f6b6457e090600090a3505050565b610f0b610f72565b610f1433610fbb565b6109bb610fcc565b610f2582610fd4565b6040516001600160a01b038316907fbc7cd75a20ee27fd9adebab32041f755214dbc6bffa90cc0225b39da2e5c2d3b90600090a2805115610f6a5761077e8282611039565b6108e16110af565b7ff0c57e16840df040f15088dc2f81fe391c3923bec73e23a9662efc9c229c6a0054600160401b900460ff166109bb57604051631afcd79f60e31b815260040160405180910390fd5b610fc3610f72565b610c81816110ce565b6109bb610f72565b806001600160a01b03163b60000361100a57604051634c9c8ce360e01b81526001600160a01b0382166004820152602401610543565b60008051602061153d83398151915280546001600160a01b0319166001600160a01b0392909216919091179055565b6060600080846001600160a01b0316846040516110569190611520565b600060405180830381855af49150503d8060008114611091576040519150601f19603f3d011682016040523d82523d6000602084013e611096565b606091505b50915091506110a68583836110d6565b95945050505050565b34156109bb5760405163b398979f60e01b815260040160405180910390fd5b610c4e610f72565b6060826110eb576110e682611135565b61112e565b815115801561110257506001600160a01b0384163b155b1561112b57604051639996b31560e01b81526001600160a01b0385166004820152602401610543565b50805b9392505050565b8051156111455780518082602001fd5b60405163d6bda27560e01b815260040160405180910390fd5b80356001600160a01b038116811461117557600080fd5b919050565b6000806000806080858703121561119057600080fd5b6111998561115e565b93506111a76020860161115e565b9250604085013591506111bc6060860161115e565b905092959194509250565b6000602082840312156111d957600080fd5b61112e8261115e565b60005b838110156111fd5781810151838201526020016111e5565b50506000910152565b60208152600082518060208401526112258160408501602087016111e2565b601f01601f19169190910160400192915050565b60008060006060848603121561124e57600080fd5b6112578461115e565b92506112656020850161115e565b929592945050506040919091013590565b634e487b7160e01b600052604160045260246000fd5b604051601f8201601f1916810167ffffffffffffffff811182821017156112b5576112b5611276565b604052919050565b6000602082840312156112cf57600080fd5b813567ffffffffffffffff8111156112e657600080fd5b8201601f810184136112f757600080fd5b803567ffffffffffffffff81111561131157611311611276565b8060051b6113216020820161128c565b9182526020818401810192908101908784111561133d57600080fd5b6020850194505b83851015611366576113558561115e565b825260209485019490910190611344565b979650505050505050565b6000806040838503121561138457600080fd5b61138d8361115e565b946020939093013593505050565b600080604083850312156113ae57600080fd5b6113b78361115e565b9150602083013567ffffffffffffffff8111156113d357600080fd5b8301601f810185136113e457600080fd5b803567ffffffffffffffff8111156113fe576113fe611276565b611411601f8201601f191660200161128c565b81815286602083850101111561142657600080fd5b816020840160208301376000602083830101528093505050509250929050565b6000806040838503121561145957600080fd5b6114628361115e565b91506114706020840161115e565b90509250929050565b6020808252601e908201527f6f6e6c7920626f756e6420636f6d706c69616e63652063616e2063616c6c0000604082015260600190565b60208082526021908201527f6f6e6c7920636f6d706c69616e636520636f6e74726163742063616e2063616c6040820152601b60fa1b606082015260800190565b634e487b7160e01b600052603260045260246000fd5b60006020828403121561151957600080fd5b5051919050565b600082516115328184602087016111e2565b919091019291505056fe360894a13ba1a3210667c828492db98dca3e2076cc3735a920a3ca505d382bbcf6cc97de1266c180cd39f3b311632644143ce7873d2927755382ad4b39e8ae00a26469706673582212204d80235ae4b225618604dc80463227de51f0dae5f663013a810de7c8c42576fe64736f6c634300081c0033","linkReferences":{}},"methodIdentifiers":{"UPGRADE_INTERFACE_VERSION()":"ad3cb1cc","allowUser(address)":"771c456f","batchAllowUsers(address[])":"726bb465","batchDisallowUsers(address[])":"32bb1f16","bindCompliance(address)":"4a932544","canComplianceBind(address)":"bcc21053","disallowUser(address)":"58591fb7","initialize()":"8129fc1c","isComplianceBound(address)":"4cf4d295","isPlugAndPlay()":"e6f5e807","isUserAllowed(address,address)":"a9fb3b35","moduleBurnAction(address,uint256)":"372491a2","moduleCheck(address,address,uint256,address)":"013b7ce4","moduleMintAction(address,uint256)":"f104a8c9","moduleTransferAction(address,address,uint256)":"2cb7e1ec","name()":"06fdde03","owner()":"8da5cb5b","proxiableUUID()":"52d1902d","renounceOwnership()":"715018a6","transferOwnership(address)":"f2fde38b","unbindCompliance(address)":"0694a5fb","upgradeToAndCall(address,bytes)":"4f1ef286"},"id":45}