{"abi":[{"type":"function","name":"UPGRADE_INTERFACE_VERSION","inputs":[],"outputs":[{"name":"","type":"string","internalType":"string"}],"stateMutability":"view"},{"type":"function","name":"bindCompliance","inputs":[{"name":"_compliance","type":"address","internalType":"address"}],"outputs":[],"stateMutability":"nonpayable"},{"type":"function","name":"canComplianceBind","inputs":[{"name":"","type":"address","internalType":"address"}],"outputs":[{"name":"","type":"bool","internalType":"bool"}],"stateMutability":"view"},{"type":"function","name":"getSupplyLimit","inputs":[{"name":"_compliance","type":"address","internalType":"address"}],"outputs":[{"name":"","type":"uint256","internalType":"uint256"}],"stateMutability":"view"},{"type":"function","name":"initialize","inputs":[],"outputs":[],"stateMutability":"nonpayable"},{"type":"function","name":"isComplianceBound","inputs":[{"name":"_compliance","type":"address","internalType":"address"}],"outputs":[{"name":"","type":"bool","internalType":"bool"}],"stateMutability":"view"},{"type":"function","name":"isPlugAndPlay","inputs":[],"outputs":[{"name":"","type":"bool","internalType":"bool"}],"stateMutability":"pure"},{"type":"function","name":"moduleBurnAction","inputs":[{"name":"_from","type":"address","internalType":"address"},{"name":"_value","type":"uint256","internalType":"uint256"}],"outputs":[],"stateMutability":"nonpayable"},{"type":"function","name":"moduleCheck","inputs":[{"name":"_from","type":"address","internalType":"address"},{"name":"","type":"address","internalType":"address"},{"name":"_value","type":"uint256","internalType":"uint256"},{"name":"_compliance","type":"address","internalType":"address"}],"outputs":[{"name":"","type":"bool","internalType":"bool"}],"stateMutability":"view"},{"type":"function","name":"moduleMintAction","inputs":[{"name":"_to","type":"address","internalType":"address"},{"name":"_value","type":"uint256","internalType":"uint256"}],"outputs":[],"stateMutability":"nonpayable"},{"type":"function","name":"moduleTransferAction","inputs":[{"name":"_from","type":"address","internalType":"address"},{"name":"_to","type":"address","internalType":"address"},{"name":"_value","type":"uint256","internalType":"uint256"}],"outputs":[],"stateMutability":"nonpayable"},{"type":"function","name":"name","inputs":[],"outputs":[{"name":"_name","type":"string","internalType":"string"}],"stateMutability":"pure"},{"type":"function","name":"owner","inputs":[],"outputs":[{"name":"","type":"address","internalType":"address"}],"stateMutability":"view"},{"type":"function","name":"proxiableUUID","inputs":[],"outputs":[{"name":"","type":"bytes32","internalType":"bytes32"}],"stateMutability":"view"},{"type":"function","name":"renounceOwnership","inputs":[],"outputs":[],"stateMutability":"nonpayable"},{"type":"function","name":"setSupplyLimit","inputs":[{"name":"_limit","type":"uint256","internalType":"uint256"}],"outputs":[],"stateMutability":"nonpayable"},{"type":"function","name":"transferOwnership","inputs":[{"name":"newOwner","type":"address","internalType":"address"}],"outputs":[],"stateMutability":"nonpayable"},{"type":"function","name":"unbindCompliance","inputs":[{"name":"_compliance","type":"address","internalType":"address"}],"outputs":[],"stateMutability":"nonpayable"},{"type":"function","name":"upgradeToAndCall","inputs":[{"name":"newImplementation","type":"address","internalType":"address"},{"name":"data","type":"bytes","internalType":"bytes"}],"outputs":[],"stateMutability":"payable"},{"type":"event","name":"ComplianceBound","inputs":[{"name":"_compliance","type":"address","indexed":true,"internalType":"address"}],"anonymous":false},{"type":"event","name":"ComplianceUnbound","inputs":[{"name":"_compliance","type":"address","indexed":true,"internalType":"address"}],"anonymous":false},{"type":"event","name":"Initialized","inputs":[{"name":"version","type":"uint64","indexed":false,"internalType":"uint64"}],"anonymous":false},{"type":"event","name":"OwnershipTransferred","inputs":[{"name":"previousOwner","type":"address","indexed":true,"internalType":"address"},{"name":"newOwner","type":"address","indexed":true,"internalType":"address"}],"anonymous":false},{"type":"event","name":"SupplyLimitSet","inputs":[{"name":"_compliance","type":"address","indexed":false,"internalType":"address"},{"name":"_limit","type":"uint256","indexed":false,"internalType":"uint256"}],"anonymous":false},{"type":"event","name":"Upgraded","inputs":[{"name":"implementation","type":"address","indexed":true,"internalType":"address"}],"anonymous":false},{"type":"error","name":"AddressEmptyCode","inputs":[{"name":"target","type":"address","internalType":"address"}]},{"type":"error","name":"ERC1967InvalidImplementation","inputs":[{"name":"implementation","type":"address","internalType":"address"}]},{"type":"error","name":"ERC1967NonPayable","inputs":[]},{"type":"error","name":"FailedCall","inputs":[]},{"type":"error","name":"InvalidInitialization","inputs":[]},{"type":"error","name":"NotInitializing","inputs":[]},{"type":"error","name":"OwnableInvalidOwner","inputs":[{"name":"owner","type":"address","internalType":"address"}]},{"type":"error","name":"OwnableUnauthorizedAccount","inputs":[{"name":"account","type":"address","internalType":"address"}]},{"type":"error","name":"UUPSUnauthorizedCallContext","inputs":[]},{"type":"error","name":"UUPSUnsupportedProxiableUUID","inputs":[{"name":"slot","type":"bytes32","internalType":"bytes32"}]}],"bytecode":{"object":"0x60a060405230608052348015601357600080fd5b5060805161129361003d60003960008181610a1d01528181610a460152610b8701526112936000f3fe6080604052600436106101145760003560e01c80634f1ef286116100a0578063ad3cb1cc11610064578063ad3cb1cc14610356578063bcc2105314610387578063e6f5e807146103a8578063f104a8c9146101f3578063f2fde38b146103bc57600080fd5b80634f1ef286146102bd57806352d1902d146102d0578063715018a6146102e55780638129fc1c146102fa5780638da5cb5b1461030f57600080fd5b8063361fab25116100e7578063361fab25146101d3578063372491a2146101f35780634a932544146102135780634ae65b5c146102335780634cf4d2951461027757600080fd5b8063013b7ce4146101195780630694a5fb1461014e57806306fdde03146101705780632cb7e1ec146101b3575b600080fd5b34801561012557600080fd5b50610139610134366004610f03565b6103dc565b60405190151581526020015b60405180910390f35b34801561015a57600080fd5b5061016e610169366004610f56565b6104fe565b005b34801561017c57600080fd5b50604080518082019091526011815270537570706c794c696d69744d6f64756c6560781b60208201525b6040516101459190610f97565b3480156101bf57600080fd5b5061016e6101ce366004610fca565b61061e565b3480156101df57600080fd5b5061016e6101ee36600461100b565b610663565b3480156101ff57600080fd5b5061016e61020e366004611024565b6106ef565b34801561021f57600080fd5b5061016e61022e366004610f56565b610733565b34801561023f57600080fd5b5061026961024e366004610f56565b6001600160a01b031660009081526020819052604090205490565b604051908152602001610145565b34801561028357600080fd5b50610139610292366004610f56565b6001600160a01b0316600090815260008051602061123e833981519152602052604090205460ff1690565b61016e6102cb366004611066565b610876565b3480156102dc57600080fd5b50610269610895565b3480156102f157600080fd5b5061016e6108b2565b34801561030657600080fd5b5061016e6108c6565b34801561031b57600080fd5b507f9016d09d72d40fdae2fd8ceac6b6234c7706214fd39c1cd1e609a0528c199300546040516001600160a01b039091168152602001610145565b34801561036257600080fd5b506101a6604051806040016040528060058152602001640352e302e360dc1b81525081565b34801561039357600080fd5b506101396103a2366004610f56565b50600190565b3480156103b457600080fd5b506001610139565b3480156103c857600080fd5b5061016e6103d7366004610f56565b6109d4565b60006001600160a01b0385161580156104e55750600080836001600160a01b03166001600160a01b031681526020019081526020016000205483836001600160a01b0316636a3edf286040518163ffffffff1660e01b8152600401602060405180830381865afa158015610454573d6000803e3d6000fd5b505050506040513d601f19601f820116820180604052508101906104789190611132565b6001600160a01b03166318160ddd6040518163ffffffff1660e01b8152600401602060405180830381865afa1580156104b5573d6000803e3d6000fd5b505050506040513d601f19601f820116820180604052508101906104d9919061114f565b6104e39190611168565b115b156104f2575060006104f6565b5060015b949350505050565b33600090815260008051602061123e833981519152602081905260409091205460ff166105465760405162461bcd60e51b815260040161053d90611189565b60405180910390fd5b60008051602061123e8339815191526001600160a01b0383166105ab5760405162461bcd60e51b815260206004820152601f60248201527f696e76616c696420617267756d656e74202d207a65726f206164647265737300604482015260640161053d565b336001600160a01b038416146105d35760405162461bcd60e51b815260040161053d906111c0565b6001600160a01b038316600081815260208390526040808220805460ff19169055517f408b49d9be1c914c52a0227e18a077e5a892dddf32a26cfa94a5d9708fad77189190a2505050565b33600090815260008051602061123e833981519152602081905260409091205460ff1661065d5760405162461bcd60e51b815260040161053d90611189565b50505050565b33600090815260008051602061123e833981519152602081905260409091205460ff166106a25760405162461bcd60e51b815260040161053d90611189565b3360008181526020818152604091829020859055815192835282018490527f2f1ac7412e0c36ff7b73f7c4f474022dfa5d3f1c09e3262f63c9eb4627a9f505910160405180910390a15050565b33600090815260008051602061123e833981519152602081905260409091205460ff1661072e5760405162461bcd60e51b815260040161053d90611189565b505050565b60008051602061123e8339815191526001600160a01b0382166107985760405162461bcd60e51b815260206004820152601f60248201527f696e76616c696420617267756d656e74202d207a65726f206164647265737300604482015260640161053d565b6001600160a01b03821660009081526020829052604090205460ff16156108015760405162461bcd60e51b815260206004820152601860248201527f636f6d706c69616e636520616c726561647920626f756e640000000000000000604482015260640161053d565b336001600160a01b038316146108295760405162461bcd60e51b815260040161053d906111c0565b6001600160a01b038216600081815260208390526040808220805460ff19166001179055517f1f7b76c58fb697eb53c6c7c1becb96911516a136e24d7ced386b2355358b75a39190a25050565b61087e610a12565b61088782610ab7565b6108918282610abf565b5050565b600061089f610b7c565b5060008051602061121e83398151915290565b6108ba610bc5565b6108c46000610c20565b565b7ff0c57e16840df040f15088dc2f81fe391c3923bec73e23a9662efc9c229c6a008054600160401b810460ff16159067ffffffffffffffff1660008115801561090c5750825b905060008267ffffffffffffffff1660011480156109295750303b155b905081158015610937575080155b156109555760405163f92ee8a960e01b815260040160405180910390fd5b845467ffffffffffffffff19166001178555831561097f57845460ff60401b1916600160401b1785555b610987610c91565b83156109cd57845460ff60401b19168555604051600181527fc7f505b2f371ae2175ee4913f4499e1f2633a7b5936321eed1cdaeb6115181d29060200160405180910390a15b5050505050565b6109dc610bc5565b6001600160a01b038116610a0657604051631e4fbdf760e01b81526000600482015260240161053d565b610a0f81610c20565b50565b306001600160a01b037f0000000000000000000000000000000000000000000000000000000000000000161480610a9957507f00000000000000000000000000000000000000000000000000000000000000006001600160a01b0316610a8d60008051602061121e833981519152546001600160a01b031690565b6001600160a01b031614155b156108c45760405163703e46dd60e11b815260040160405180910390fd5b610a0f610bc5565b816001600160a01b03166352d1902d6040518163ffffffff1660e01b8152600401602060405180830381865afa925050508015610b19575060408051601f3d908101601f19168201909252610b169181019061114f565b60015b610b4157604051634c9c8ce360e01b81526001600160a01b038316600482015260240161053d565b60008051602061121e8339815191528114610b7257604051632a87526960e21b81526004810182905260240161053d565b61072e8383610caa565b306001600160a01b037f000000000000000000000000000000000000000000000000000000000000000016146108c45760405163703e46dd60e11b815260040160405180910390fd5b33610bf77f9016d09d72d40fdae2fd8ceac6b6234c7706214fd39c1cd1e609a0528c199300546001600160a01b031690565b6001600160a01b0316146108c45760405163118cdaa760e01b815233600482015260240161053d565b7f9016d09d72d40fdae2fd8ceac6b6234c7706214fd39c1cd1e609a0528c19930080546001600160a01b031981166001600160a01b03848116918217845560405192169182907f8be0079c531659141344cd1fd0a4f28419497f9722a3daafe3b4186f6b6457e090600090a3505050565b610c99610d00565b610ca233610d49565b6108c4610d5a565b610cb382610d62565b6040516001600160a01b038316907fbc7cd75a20ee27fd9adebab32041f755214dbc6bffa90cc0225b39da2e5c2d3b90600090a2805115610cf85761072e8282610dc7565b610891610e3f565b7ff0c57e16840df040f15088dc2f81fe391c3923bec73e23a9662efc9c229c6a0054600160401b900460ff166108c457604051631afcd79f60e31b815260040160405180910390fd5b610d51610d00565b610a0f81610e5e565b6108c4610d00565b806001600160a01b03163b600003610d9857604051634c9c8ce360e01b81526001600160a01b038216600482015260240161053d565b60008051602061121e83398151915280546001600160a01b0319166001600160a01b0392909216919091179055565b6060600080846001600160a01b031684604051610de49190611201565b600060405180830381855af49150503d8060008114610e1f576040519150601f19603f3d011682016040523d82523d6000602084013e610e24565b606091505b5091509150610e34858383610e66565b925050505b92915050565b34156108c45760405163b398979f60e01b815260040160405180910390fd5b6109dc610d00565b606082610e7b57610e7682610ec5565b610ebe565b8151158015610e9257506001600160a01b0384163b155b15610ebb57604051639996b31560e01b81526001600160a01b038516600482015260240161053d565b50805b9392505050565b805115610ed55780518082602001fd5b60405163d6bda27560e01b815260040160405180910390fd5b6001600160a01b0381168114610a0f57600080fd5b60008060008060808587031215610f1957600080fd5b8435610f2481610eee565b93506020850135610f3481610eee565b9250604085013591506060850135610f4b81610eee565b939692955090935050565b600060208284031215610f6857600080fd5b8135610ebe81610eee565b60005b83811015610f8e578181015183820152602001610f76565b50506000910152565b6020815260008251806020840152610fb6816040850160208701610f73565b601f01601f19169190910160400192915050565b600080600060608486031215610fdf57600080fd5b8335610fea81610eee565b92506020840135610ffa81610eee565b929592945050506040919091013590565b60006020828403121561101d57600080fd5b5035919050565b6000806040838503121561103757600080fd5b823561104281610eee565b946020939093013593505050565b634e487b7160e01b600052604160045260246000fd5b6000806040838503121561107957600080fd5b823561108481610eee565b9150602083013567ffffffffffffffff8111156110a057600080fd5b8301601f810185136110b157600080fd5b803567ffffffffffffffff8111156110cb576110cb611050565b604051601f8201601f19908116603f0116810167ffffffffffffffff811182821017156110fa576110fa611050565b60405281815282820160200187101561111257600080fd5b816020840160208301376000602083830101528093505050509250929050565b60006020828403121561114457600080fd5b8151610ebe81610eee565b60006020828403121561116157600080fd5b5051919050565b80820180821115610e3957634e487b7160e01b600052601160045260246000fd5b6020808252601e908201527f6f6e6c7920626f756e6420636f6d706c69616e63652063616e2063616c6c0000604082015260600190565b60208082526021908201527f6f6e6c7920636f6d706c69616e636520636f6e74726163742063616e2063616c6040820152601b60fa1b606082015260800190565b60008251611213818460208701610f73565b919091019291505056fe360894a13ba1a3210667c828492db98dca3e2076cc3735a920a3ca505d382bbcf6cc97de1266c180cd39f3b311632644143ce7873d2927755382ad4b39e8ae00a2646970667358221220350a59ee60e33fa22148901c7076d7e3b473df83d47645864f1997fe0a9a93fc64736f6c634300081c0033","linkReferences":{}},"methodIdentifiers":{"UPGRADE_INTERFACE_VERSION()":"ad3cb1cc","bindCompliance(address)":"4a932544","canComplianceBind(address)":"bcc21053","getSupplyLimit(address)":"4ae65b5c","initialize()":"8129fc1c","isComplianceBound(address)":"4cf4d295","isPlugAndPlay()":"e6f5e807","moduleBurnAction(address,uint256)":"372491a2","moduleCheck(address,address,uint256,address)":"013b7ce4","moduleMintAction(address,uint256)":"f104a8c9","moduleTransferAction(address,address,uint256)":"2cb7e1ec","name()":"06fdde03","owner()":"8da5cb5b","proxiableUUID()":"52d1902d","renounceOwnership()":"715018a6","setSupplyLimit(uint256)":"361fab25","transferOwnership(address)":"f2fde38b","unbindCompliance(address)":"0694a5fb","upgradeToAndCall(address,bytes)":"4f1ef286"},"id":40}