{"abi":[{"type":"function","name":"identityRegistry","inputs":[],"outputs":[{"name":"identityRegistry","type":"address","internalType":"address"}],"stateMutability":"view"},{"type":"function","name":"investorCountry","inputs":[{"name":"investor","type":"address","internalType":"address"}],"outputs":[{"name":"country","type":"uint16","internalType":"uint16"}],"stateMutability":"view"},{"type":"function","name":"setInvestorCountry","inputs":[{"name":"country","type":"uint16","internalType":"uint16"}],"outputs":[],"stateMutability":"nonpayable"}],"bytecode":{"object":"0x6080604052348015600f57600080fd5b506101818061001f6000396000f3fe608060405234801561001057600080fd5b50600436106100415760003560e01c8063134e18f4146100465780637e42683b1461006b578063d8bdf4601461009e575b600080fd5b61004e6100d0565b6040516001600160a01b0390911681526020015b60405180910390f35b61008b6100793660046100f7565b50600054600160a01b900461ffff1690565b60405161ffff9091168152602001610062565b6100ce6100ac366004610127565b6000805461ffff909216600160a01b0261ffff60a01b19909216919091179055565b005b600080546001600160a01b0316156100f257506000546001600160a01b031690565b503090565b60006020828403121561010957600080fd5b81356001600160a01b038116811461012057600080fd5b9392505050565b60006020828403121561013957600080fd5b813561ffff8116811461012057600080fdfea2646970667358221220ad820207e7c2e9046dc36dd12c6170df3a3a4f4aec4b9fda381764fd9dca258f64736f6c634300081c0033","linkReferences":{}},"methodIdentifiers":{"identityRegistry()":"134e18f4","investorCountry(address)":"7e42683b","setInvestorCountry(uint16)":"d8bdf460"},"id":4}