{"abi":[{"type":"function","name":"addAgent","inputs":[{"name":"_agent","type":"address","internalType":"address"}],"outputs":[],"stateMutability":"nonpayable"},{"type":"function","name":"addTokenAgent","inputs":[{"name":"_agentAddress","type":"address","internalType":"address"}],"outputs":[],"stateMutability":"nonpayable"},{"type":"function","name":"batchUnWhitelistCountries","inputs":[{"name":"_countries","type":"uint16[]","internalType":"uint16[]"}],"outputs":[],"stateMutability":"nonpayable"},{"type":"function","name":"batchWhitelistCountries","inputs":[{"name":"_countries","type":"uint16[]","internalType":"uint16[]"}],"outputs":[],"stateMutability":"nonpayable"},{"type":"function","name":"bindToken","inputs":[{"name":"_token","type":"address","internalType":"address"}],"outputs":[],"stateMutability":"nonpayable"},{"type":"function","name":"canTransfer","inputs":[{"name":"_from","type":"address","internalType":"address"},{"name":"_to","type":"address","internalType":"address"},{"name":"_value","type":"uint256","internalType":"uint256"}],"outputs":[{"name":"","type":"bool","internalType":"bool"}],"stateMutability":"view"},{"type":"function","name":"complianceCheckOnCountryWhitelisting","inputs":[{"name":"","type":"address","internalType":"address"},{"name":"_to","type":"address","internalType":"address"},{"name":"","type":"uint256","internalType":"uint256"}],"outputs":[{"name":"","type":"bool","internalType":"bool"}],"stateMutability":"view"},{"type":"function","name":"created","inputs":[{"name":"_to","type":"address","internalType":"address"},{"name":"_value","type":"uint256","internalType":"uint256"}],"outputs":[],"stateMutability":"nonpayable"},{"type":"function","name":"destroyed","inputs":[{"name":"_from","type":"address","internalType":"address"},{"name":"_value","type":"uint256","internalType":"uint256"}],"outputs":[],"stateMutability":"nonpayable"},{"type":"function","name":"isAgent","inputs":[{"name":"_agent","type":"address","internalType":"address"}],"outputs":[{"name":"","type":"bool","internalType":"bool"}],"stateMutability":"view"},{"type":"function","name":"isCountryWhitelisted","inputs":[{"name":"_country","type":"uint16","internalType":"uint16"}],"outputs":[{"name":"","type":"bool","internalType":"bool"}],"stateMutability":"view"},{"type":"function","name":"isTokenAgent","inputs":[{"name":"_agentAddress","type":"address","internalType":"address"}],"outputs":[{"name":"","type":"bool","internalType":"bool"}],"stateMutability":"view"},{"type":"function","name":"isTokenBound","inputs":[{"name":"_token","type":"address","internalType":"address"}],"outputs":[{"name":"","type":"bool","internalType":"bool"}],"stateMutability":"view"},{"type":"function","name":"owner","inputs":[],"outputs":[{"name":"","type":"address","internalType":"address"}],"stateMutability":"view"},{"type":"function","name":"removeAgent","inputs":[{"name":"_agent","type":"address","internalType":"address"}],"outputs":[],"stateMutability":"nonpayable"},{"type":"function","name":"removeTokenAgent","inputs":[{"name":"_agentAddress","type":"address","internalType":"address"}],"outputs":[],"stateMutability":"nonpayable"},{"type":"function","name":"renounceOwnership","inputs":[],"outputs":[],"stateMutability":"nonpayable"},{"type":"function","name":"tokenBound","inputs":[],"outputs":[{"name":"","type":"address","internalType":"contract IToken"}],"stateMutability":"view"},{"type":"function","name":"transferOwnership","inputs":[{"name":"newOwner","type":"address","internalType":"address"}],"outputs":[],"stateMutability":"nonpayable"},{"type":"function","name":"transferred","inputs":[{"name":"_from","type":"address","internalType":"address"},{"name":"_to","type":"address","internalType":"address"},{"name":"_value","type":"uint256","internalType":"uint256"}],"outputs":[],"stateMutability":"nonpayable"},{"type":"function","name":"unWhitelistCountry","inputs":[{"name":"_country","type":"uint16","internalType":"uint16"}],"outputs":[],"stateMutability":"nonpayable"},{"type":"function","name":"unbindToken","inputs":[{"name":"_token","type":"address","internalType":"address"}],"outputs":[],"stateMutability":"nonpayable"},{"type":"function","name":"whitelistCountry","inputs":[{"name":"_country","type":"uint16","internalType":"uint16"}],"outputs":[],"stateMutability":"nonpayable"},{"type":"event","name":"AgentAdded","inputs":[{"name":"_agent","type":"address","indexed":true,"internalType":"address"}],"anonymous":false},{"type":"event","name":"AgentRemoved","inputs":[{"name":"_agent","type":"address","indexed":true,"internalType":"address"}],"anonymous":false},{"type":"event","name":"OwnershipTransferred","inputs":[{"name":"previousOwner","type":"address","indexed":true,"internalType":"address"},{"name":"newOwner","type":"address","indexed":true,"internalType":"address"}],"anonymous":false},{"type":"event","name":"TokenAgentAdded","inputs":[{"name":"_agentAddress","type":"address","indexed":false,"internalType":"address"}],"anonymous":false},{"type":"event","name":"TokenAgentRemoved","inputs":[{"name":"_agentAddress","type":"address","indexed":false,"internalType":"address"}],"anonymous":false},{"type":"event","name":"TokenBound","inputs":[{"name":"_token","type":"address","indexed":false,"internalType":"address"}],"anonymous":false},{"type":"event","name":"TokenUnbound","inputs":[{"name":"_token","type":"address","indexed":false,"internalType":"address"}],"anonymous":false},{"type":"event","name":"UnWhitelistedCountry","inputs":[{"name":"_country","type":"uint16","indexed":false,"internalType":"uint16"}],"anonymous":false},{"type":"event","name":"WhitelistedCountry","inputs":[{"name":"_country","type":"uint16","indexed":false,"internalType":"uint16"}],"anonymous":false},{"type":"error","name":"OwnableInvalidOwner","inputs":[{"name":"owner","type":"address","internalType":"address"}]},{"type":"error","name":"OwnableUnauthorizedAccount","inputs":[{"name":"account","type":"address","internalType":"address"}]}],"bytecode":{"object":"0x6080604052348015600f57600080fd5b503380603557604051631e4fbdf760e01b81526000600482015260240160405180910390fd5b603c816041565b506091565b600080546001600160a01b038381166001600160a01b0319831681178455604051919092169283917f8be0079c531659141344cd1fd0a4f28419497f9722a3daafe3b4186f6b6457e09190a35050565b61117b806100a06000396000f3fe608060405234801561001057600080fd5b506004361061014d5760003560e01c80638da5cb5b116100c3578063aee250af1161007c578063aee250af146102b4578063cdde2932146102c7578063e46638e6146102da578063f2fde38b146102ed578063f393cbc214610300578063ff3e69541461031357600080fd5b80638da5cb5b1461021c57806393e62f071461024157806397a6278e1461025457806397eab82b14610267578063993e8b951461028e578063a1b01b4f146102a157600080fd5b806340db3b501161011557806340db3b50146101c85780635f8dead3146101db578063715018a6146101ee57806384e79842146101f65780638baf29b4146102095780638d2ea772146101db57600080fd5b806307e8e344146101525780631ffbb06414610167578063346531fa1461018f5780633b0b83c0146101a25780633ff5aa02146101b5575b600080fd5b610165610160366004610edd565b610326565b005b61017a610175366004610fc2565b610360565b60405190151581526020015b60405180910390f35b61017a61019d366004610fc2565b610373565b61017a6101b0366004610fdf565b61041c565b6101656101c3366004610fc2565b610463565b6101656101d6366004610fc2565b61054d565b6101656101e9366004611020565b61066f565b610165610693565b610165610204366004610fc2565b6106a7565b610165610217366004610fdf565b610747565b6000546001600160a01b03165b6040516001600160a01b039091168152602001610186565b600354610229906001600160a01b031681565b610165610262366004610fc2565b610770565b61017a61027536600461104c565b61ffff1660009081526004602052604090205460ff1690565b61017a61029c366004610fc2565b610810565b6101656102af36600461104c565b610830565b6101656102c2366004610edd565b6108e7565b6101656102d5366004610fc2565b61091d565b61017a6102e8366004610fdf565b6109de565b6101656102fb366004610fc2565b610a01565b61016561030e36600461104c565b610a3f565b610165610321366004610fc2565b610afa565b60005b815181101561035c5761035482828151811061034757610347611069565b6020026020010151610830565b600101610329565b5050565b600061036d600183610bbf565b92915050565b6001600160a01b03811660009081526002602052604081205460ff1615801561040757506003546040516307feec1960e21b81526001600160a01b03848116600483015290911690631ffbb06490602401602060405180830381865afa1580156103e1573d6000803e3d6000fd5b505050506040513d601f19601f82011682018060405250810190610405919061107f565b155b1561041457506000919050565b506001919050565b60008061042884610c42565b90506104478161ffff1660009081526004602052604090205460ff1690565b1561045657600191505061045c565b60009150505b9392505050565b336104766000546001600160a01b031690565b6001600160a01b031614806104a757506003546001600160a01b03161580156104a75750336001600160a01b038216145b6104f85760405162461bcd60e51b815260206004820152601c60248201527f6f6e6c79206f776e6572206f7220746f6b656e2063616e2063616c6c0000000060448201526064015b60405180910390fd5b600380546001600160a01b0319166001600160a01b0383169081179091556040519081527f2de35142b19ed5a07796cf30791959c592018f70b1d2d7c460eef8ffe713692b906020015b60405180910390a150565b336105606000546001600160a01b031690565b6001600160a01b0316148061057d5750336001600160a01b038216145b6105c95760405162461bcd60e51b815260206004820152601c60248201527f6f6e6c79206f776e6572206f7220746f6b656e2063616e2063616c6c0000000060448201526064016104ef565b6003546001600160a01b038281169116146106265760405162461bcd60e51b815260206004820152601760248201527f5468697320746f6b656e206973206e6f7420626f756e6400000000000000000060448201526064016104ef565b600380546001600160a01b03191690556040516001600160a01b03821681527f28a4ca7134a3b3f9aff286e79ad3daadb4a06d1b43d037a3a98bdc074edd9b7a90602001610542565b610677610d1c565b61035c5760405162461bcd60e51b81526004016104ef906110a1565b61069b610d2c565b6106a56000610d59565b565b6106af610d2c565b6001600160a01b0381166107055760405162461bcd60e51b815260206004820152601f60248201527f696e76616c696420617267756d656e74202d207a65726f20616464726573730060448201526064016104ef565b610710600182610da9565b6040516001600160a01b038216907ff68e73cec97f2d70aa641fb26e87a4383686e2efacb648f2165aeb02ac562ec590600090a250565b61074f610d1c565b61076b5760405162461bcd60e51b81526004016104ef906110a1565b505050565b610778610d2c565b6001600160a01b0381166107ce5760405162461bcd60e51b815260206004820152601f60248201527f696e76616c696420617267756d656e74202d207a65726f20616464726573730060448201526064016104ef565b6107d9600182610e25565b6040516001600160a01b038216907fed9c8ad8d5a0a66898ea49d2956929c93ae2e8bd50281b2ed897c5d1a6737e0b90600090a250565b6003546000906001600160a01b0383811691161461041457506000919050565b610838610d2c565b61ffff811660009081526004602052604090205460ff1661089b5760405162461bcd60e51b815260206004820152601760248201527f636f756e747279206e6f742077686974656c697374656400000000000000000060448201526064016104ef565b61ffff8116600081815260046020908152604091829020805460ff1916905590519182527f77bf94f96c0e8d724e02e1c5c7a219b0b078de66c992608a55e755a6384d1ee39101610542565b60005b815181101561035c5761091582828151811061090857610908611069565b6020026020010151610a3f565b6001016108ea565b610925610d2c565b6001600160a01b03811660009081526002602052604090205460ff1661098d5760405162461bcd60e51b815260206004820181905260248201527f54686973204167656e74206973206e6f7420726567697374657265642079657460448201526064016104ef565b6001600160a01b038116600081815260026020908152604091829020805460ff1916905590519182527f6a659bb87bb23efbdc295f8eed8ae8c4379bfb77660ced2ef0f3d7d26b05c6a69101610542565b60006109eb84848461041c565b6109f75750600061045c565b5060019392505050565b610a09610d2c565b6001600160a01b038116610a3357604051631e4fbdf760e01b8152600060048201526024016104ef565b610a3c81610d59565b50565b610a47610d2c565b61ffff811660009081526004602052604090205460ff1615610aab5760405162461bcd60e51b815260206004820152601b60248201527f636f756e74727920616c72656164792077686974656c6973746564000000000060448201526064016104ef565b61ffff8116600081815260046020908152604091829020805460ff1916600117905590519182527fd20535bfd780673cc88887ad4af967343e4e8e088062aa936fea2de79d10de289101610542565b610b02610d2c565b6001600160a01b03811660009081526002602052604090205460ff1615610b6b5760405162461bcd60e51b815260206004820181905260248201527f54686973204167656e7420697320616c7265616479207265676973746572656460448201526064016104ef565b6001600160a01b038116600081815260026020908152604091829020805460ff1916600117905590519182527fd62c45e13ac30396aceb3ad37c89bd1ba9048032fe61679000e92eb93dbfd67d9101610542565b60006001600160a01b038216610c225760405162461bcd60e51b815260206004820152602260248201527f526f6c65733a206163636f756e7420697320746865207a65726f206164647265604482015261737360f01b60648201526084016104ef565b506001600160a01b03166000908152602091909152604090205460ff1690565b600354604080516304d3863d60e21b815290516000926001600160a01b03169163134e18f49160048083019260209291908290030181865afa158015610c8c573d6000803e3d6000fd5b505050506040513d601f19601f82011682018060405250810190610cb0919061110b565b604051637e42683b60e01b81526001600160a01b0384811660048301529190911690637e42683b90602401602060405180830381865afa158015610cf8573d6000803e3d6000fd5b505050506040513d601f19601f8201168201806040525081019061036d9190611128565b6000610d2733610810565b905090565b6000546001600160a01b031633146106a55760405163118cdaa760e01b81523360048201526024016104ef565b600080546001600160a01b038381166001600160a01b0319831681178455604051919092169283917f8be0079c531659141344cd1fd0a4f28419497f9722a3daafe3b4186f6b6457e09190a35050565b610db38282610bbf565b15610e005760405162461bcd60e51b815260206004820152601f60248201527f526f6c65733a206163636f756e7420616c72656164792068617320726f6c650060448201526064016104ef565b6001600160a01b0316600090815260209190915260409020805460ff19166001179055565b610e2f8282610bbf565b610e855760405162461bcd60e51b815260206004820152602160248201527f526f6c65733a206163636f756e7420646f6573206e6f74206861766520726f6c6044820152606560f81b60648201526084016104ef565b6001600160a01b0316600090815260209190915260409020805460ff19169055565b634e487b7160e01b600052604160045260246000fd5b61ffff81168114610a3c57600080fd5b8035610ed881610ebd565b919050565b600060208284031215610eef57600080fd5b813567ffffffffffffffff811115610f0657600080fd5b8201601f81018413610f1757600080fd5b803567ffffffffffffffff811115610f3157610f31610ea7565b8060051b604051601f19603f830116810181811067ffffffffffffffff82111715610f5e57610f5e610ea7565b604052918252602081840181019290810187841115610f7c57600080fd5b6020850194505b83851015610fa257610f9485610ecd565b815260209485019401610f83565b509695505050505050565b6001600160a01b0381168114610a3c57600080fd5b600060208284031215610fd457600080fd5b813561045c81610fad565b600080600060608486031215610ff457600080fd5b8335610fff81610fad565b9250602084013561100f81610fad565b929592945050506040919091013590565b6000806040838503121561103357600080fd5b823561103e81610fad565b946020939093013593505050565b60006020828403121561105e57600080fd5b813561045c81610ebd565b634e487b7160e01b600052603260045260246000fd5b60006020828403121561109157600080fd5b8151801515811461045c57600080fd5b60208082526044908201527f6572726f72203a20746869732061646472657373206973206e6f74206120746f60408201527f6b656e20626f756e6420746f2074686520636f6d706c69616e636520636f6e746060820152631c9858dd60e21b608082015260a00190565b60006020828403121561111d57600080fd5b815161045c81610fad565b60006020828403121561113a57600080fd5b815161045c81610ebd56fea26469706673582212201303c49c035f9681aa5234fef163aa1ca7edba24f7e9f16e7b2d47840b18f1b364736f6c634300081c0033","linkReferences":{}},"methodIdentifiers":{"addAgent(address)":"84e79842","addTokenAgent(address)":"ff3e6954","batchUnWhitelistCountries(uint16[])":"07e8e344","batchWhitelistCountries(uint16[])":"aee250af","bindToken(address)":"3ff5aa02","canTransfer(address,address,uint256)":"e46638e6","complianceCheckOnCountryWhitelisting(address,address,uint256)":"3b0b83c0","created(address,uint256)":"5f8dead3","destroyed(address,uint256)":"8d2ea772","isAgent(address)":"1ffbb064","isCountryWhitelisted(uint16)":"97eab82b","isTokenAgent(address)":"346531fa","isTokenBound(address)":"993e8b95","owner()":"8da5cb5b","removeAgent(address)":"97a6278e","removeTokenAgent(address)":"cdde2932","renounceOwnership()":"715018a6","tokenBound()":"93e62f07","transferOwnership(address)":"f2fde38b","transferred(address,address,uint256)":"8baf29b4","unWhitelistCountry(uint16)":"a1b01b4f","unbindToken(address)":"40db3b50","whitelistCountry(uint16)":"f393cbc2"},"id":23}