{"abi":[{"type":"function","name":"UPGRADE_INTERFACE_VERSION","inputs":[],"outputs":[{"name":"","type":"string","internalType":"string"}],"stateMutability":"view"},{"type":"function","name":"addAllowedCountry","inputs":[{"name":"_country","type":"uint16","internalType":"uint16"}],"outputs":[],"stateMutability":"nonpayable"},{"type":"function","name":"batchAllowCountries","inputs":[{"name":"_countries","type":"uint16[]","internalType":"uint16[]"}],"outputs":[],"stateMutability":"nonpayable"},{"type":"function","name":"batchDisallowCountries","inputs":[{"name":"_countries","type":"uint16[]","internalType":"uint16[]"}],"outputs":[],"stateMutability":"nonpayable"},{"type":"function","name":"bindCompliance","inputs":[{"name":"_compliance","type":"address","internalType":"address"}],"outputs":[],"stateMutability":"nonpayable"},{"type":"function","name":"canComplianceBind","inputs":[{"name":"","type":"address","internalType":"address"}],"outputs":[{"name":"","type":"bool","internalType":"bool"}],"stateMutability":"view"},{"type":"function","name":"initialize","inputs":[],"outputs":[],"stateMutability":"nonpayable"},{"type":"function","name":"isComplianceBound","inputs":[{"name":"_compliance","type":"address","internalType":"address"}],"outputs":[{"name":"","type":"bool","internalType":"bool"}],"stateMutability":"view"},{"type":"function","name":"isCountryAllowed","inputs":[{"name":"_compliance","type":"address","internalType":"address"},{"name":"_country","type":"uint16","internalType":"uint16"}],"outputs":[{"name":"","type":"bool","internalType":"bool"}],"stateMutability":"view"},{"type":"function","name":"isPlugAndPlay","inputs":[],"outputs":[{"name":"","type":"bool","internalType":"bool"}],"stateMutability":"pure"},{"type":"function","name":"moduleBurnAction","inputs":[{"name":"_from","type":"address","internalType":"address"},{"name":"_value","type":"uint256","internalType":"uint256"}],"outputs":[],"stateMutability":"nonpayable"},{"type":"function","name":"moduleCheck","inputs":[{"name":"","type":"address","internalType":"address"},{"name":"_to","type":"address","internalType":"address"},{"name":"","type":"uint256","internalType":"uint256"},{"name":"_compliance","type":"address","internalType":"address"}],"outputs":[{"name":"","type":"bool","internalType":"bool"}],"stateMutability":"view"},{"type":"function","name":"moduleMintAction","inputs":[{"name":"_to","type":"address","internalType":"address"},{"name":"_value","type":"uint256","internalType":"uint256"}],"outputs":[],"stateMutability":"nonpayable"},{"type":"function","name":"moduleTransferAction","inputs":[{"name":"_from","type":"address","internalType":"address"},{"name":"_to","type":"address","internalType":"address"},{"name":"_value","type":"uint256","internalType":"uint256"}],"outputs":[],"stateMutability":"nonpayable"},{"type":"function","name":"name","inputs":[],"outputs":[{"name":"_name","type":"string","internalType":"string"}],"stateMutability":"pure"},{"type":"function","name":"owner","inputs":[],"outputs":[{"name":"","type":"address","internalType":"address"}],"stateMutability":"view"},{"type":"function","name":"proxiableUUID","inputs":[],"outputs":[{"name":"","type":"bytes32","internalType":"bytes32"}],"stateMutability":"view"},{"type":"function","name":"removeAllowedCountry","inputs":[{"name":"_country","type":"uint16","internalType":"uint16"}],"outputs":[],"stateMutability":"nonpayable"},{"type":"function","name":"renounceOwnership","inputs":[],"outputs":[],"stateMutability":"nonpayable"},{"type":"function","name":"transferOwnership","inputs":[{"name":"newOwner","type":"address","internalType":"address"}],"outputs":[],"stateMutability":"nonpayable"},{"type":"function","name":"unbindCompliance","inputs":[{"name":"_compliance","type":"address","internalType":"address"}],"outputs":[],"stateMutability":"nonpayable"},{"type":"function","name":"upgradeToAndCall","inputs":[{"name":"newImplementation","type":"address","internalType":"address"},{"name":"data","type":"bytes","internalType":"bytes"}],"outputs":[],"stateMutability":"payable"},{"type":"event","name":"ComplianceBound","inputs":[{"name":"_compliance","type":"address","indexed":true,"internalType":"address"}],"anonymous":false},{"type":"event","name":"ComplianceUnbound","inputs":[{"name":"_compliance","type":"address","indexed":true,"internalType":"address"}],"anonymous":false},{"type":"event","name":"CountryAllowed","inputs":[{"name":"_compliance","type":"address","indexed":false,"internalType":"address"},{"name":"_country","type":"uint16","indexed":false,"internalType":"uint16"}],"anonymous":false},{"type":"event","name":"CountryUnallowed","inputs":[{"name":"_compliance","type":"address","indexed":false,"internalType":"address"},{"name":"_country","type":"uint16","indexed":false,"internalType":"uint16"}],"anonymous":false},{"type":"event","name":"Initialized","inputs":[{"name":"version","type":"uint64","indexed":false,"internalType":"uint64"}],"anonymous":false},{"type":"event","name":"OwnershipTransferred","inputs":[{"name":"previousOwner","type":"address","indexed":true,"internalType":"address"},{"name":"newOwner","type":"address","indexed":true,"internalType":"address"}],"anonymous":false},{"type":"event","name":"Upgraded","inputs":[{"name":"implementation","type":"address","indexed":true,"internalType":"address"}],"anonymous":false},{"type":"error","name":"AddressEmptyCode","inputs":[{"name":"target","type":"address","internalType":"address"}]},{"type":"error","name":"CountryAlreadyAllowed","inputs":[{"name":"_compliance","type":"address","internalType":"address"},{"name":"_country","type":"uint16","internalType":"uint16"}]},{"type":"error","name":"CountryNotAllowed","inputs":[{"name":"_compliance","type":"address","internalType":"address"},{"name":"_country","type":"uint16","internalType":"uint16"}]},{"type":"error","name":"ERC1967InvalidImplementation","inputs":[{"name":"implementation","type":"address","internalType":"address"}]},{"type":"error","name":"ERC1967NonPayable","inputs":[]},{"type":"error","name":"FailedCall","inputs":[]},{"type":"error","name":"InvalidInitialization","inputs":[]},{"type":"error","name":"NotInitializing","inputs":[]},{"type":"error","name":"OwnableInvalidOwner","inputs":[{"name":"owner","type":"address","internalType":"address"}]},{"type":"error","name":"OwnableUnauthorizedAccount","inputs":[{"name":"account","type":"address","internalType":"address"}]},{"type":"error","name":"UUPSUnauthorizedCallContext","inputs":[]},{"type":"error","name":"UUPSUnsupportedProxiableUUID","inputs":[{"name":"slot","type":"bytes32","internalType":"bytes32"}]}],"bytecode":{"object":"0x60a060405230608052348015601357600080fd5b506080516117bc61003d60003960008181610e5801528181610e810152610fc201526117bc6000f3fe6080604052600436106101355760003560e01c8063715018a6116100ab578063ad3cb1cc1161006f578063ad3cb1cc146103cc578063bcc21053146103fd578063c08e15021461041e578063e6f5e8071461043e578063f104a8c91461023f578063f2fde38b1461045257600080fd5b8063715018a61461031b578063771c5281146103305780638129fc1c14610350578063817544c3146103655780638da5cb5b1461038557600080fd5b8063372491a2116100fd578063372491a21461023f5780634a9325441461025f5780634cf4d2951461027f5780634f1ef286146102c55780634f44425e146102d857806352d1902d146102f857600080fd5b8063013b7ce41461013a5780630694a5fb1461016f57806306fdde03146101915780630f4f0904146101d55780632cb7e1ec1461021f575b600080fd5b34801561014657600080fd5b5061015a610155366004611339565b610472565b60405190151581526020015b60405180910390f35b34801561017b57600080fd5b5061018f61018a36600461138c565b6104b5565b005b34801561019d57600080fd5b50604080518082019091526012815271436f756e747279416c6c6f774d6f64756c6560701b60208201525b60405161016691906113cd565b3480156101e157600080fd5b5061015a6101f0366004611410565b6001600160a01b03821660009081526020818152604080832061ffff8516845290915290205460ff1692915050565b34801561022b57600080fd5b5061018f61023a366004611449565b6105d5565b34801561024b57600080fd5b5061018f61025a36600461148a565b61061a565b34801561026b57600080fd5b5061018f61027a36600461138c565b61065e565b34801561028b57600080fd5b5061015a61029a36600461138c565b6001600160a01b03166000908152600080516020611767833981519152602052604090205460ff1690565b61018f6102d33660046114cc565b6107a1565b3480156102e457600080fd5b5061018f6102f3366004611598565b6107c0565b34801561030457600080fd5b5061030d6108a8565b604051908152602001610166565b34801561032757600080fd5b5061018f6108c5565b34801561033c57600080fd5b5061018f61034b3660046115b5565b6108d9565b34801561035c57600080fd5b5061018f6109e6565b34801561037157600080fd5b5061018f610380366004611598565b610af4565b34801561039157600080fd5b507f9016d09d72d40fdae2fd8ceac6b6234c7706214fd39c1cd1e609a0528c199300546040516001600160a01b039091168152602001610166565b3480156103d857600080fd5b506101c8604051806040016040528060058152602001640352e302e360dc1b81525081565b34801561040957600080fd5b5061015a61041836600461138c565b50600190565b34801561042a57600080fd5b5061018f6104393660046115b5565b610bcc565b34801561044a57600080fd5b50600161015a565b34801561045e57600080fd5b5061018f61046d36600461138c565b610cd7565b60008061047f8386610d15565b6001600160a01b03841660009081526020818152604080832061ffff8516845290915290205490915060ff169695505050505050565b336000908152600080516020611767833981519152602081905260409091205460ff166104fd5760405162461bcd60e51b81526004016104f49061162c565b60405180910390fd5b6000805160206117678339815191526001600160a01b0383166105625760405162461bcd60e51b815260206004820152601f60248201527f696e76616c696420617267756d656e74202d207a65726f20616464726573730060448201526064016104f4565b336001600160a01b0384161461058a5760405162461bcd60e51b81526004016104f490611663565b6001600160a01b038316600081815260208390526040808220805460ff19169055517f408b49d9be1c914c52a0227e18a077e5a892dddf32a26cfa94a5d9708fad77189190a2505050565b336000908152600080516020611767833981519152602081905260409091205460ff166106145760405162461bcd60e51b81526004016104f49061162c565b50505050565b336000908152600080516020611767833981519152602081905260409091205460ff166106595760405162461bcd60e51b81526004016104f49061162c565b505050565b6000805160206117678339815191526001600160a01b0382166106c35760405162461bcd60e51b815260206004820152601f60248201527f696e76616c696420617267756d656e74202d207a65726f20616464726573730060448201526064016104f4565b6001600160a01b03821660009081526020829052604090205460ff161561072c5760405162461bcd60e51b815260206004820152601860248201527f636f6d706c69616e636520616c726561647920626f756e64000000000000000060448201526064016104f4565b336001600160a01b038316146107545760405162461bcd60e51b81526004016104f490611663565b6001600160a01b038216600081815260208390526040808220805460ff19166001179055517f1f7b76c58fb697eb53c6c7c1becb96911516a136e24d7ced386b2355358b75a39190a25050565b6107a9610e4d565b6107b282610ef2565b6107bc8282610efa565b5050565b336000908152600080516020611767833981519152602081905260409091205460ff166107ff5760405162461bcd60e51b81526004016104f49061162c565b3360009081526020818152604080832061ffff8616845290915290205460ff16151560010361084557338260405163af6d613560e01b81526004016104f49291906116a4565b3360008181526020818152604080832061ffff8716845290915290819020805460ff19166001179055517f48c279381632bf87fca2680865a7384b6eb20716fd96b882b305a2198930a0749161089c9185906116a4565b60405180910390a15050565b60006108b2610fb7565b5060008051602061174783398151915290565b6108cd611000565b6108d7600061105b565b565b336000908152600080516020611767833981519152602081905260409091205460ff166109185760405162461bcd60e51b81526004016104f49061162c565b60005b8281101561061457336000908152602081905260408120600191868685818110610947576109476116c1565b905060200201602081019061095c9190611598565b61ffff1681526020810191909152604001600020805460ff19169115159190911790557f48c279381632bf87fca2680865a7384b6eb20716fd96b882b305a2198930a074338585848181106109b3576109b36116c1565b90506020020160208101906109c89190611598565b6040516109d69291906116a4565b60405180910390a160010161091b565b7ff0c57e16840df040f15088dc2f81fe391c3923bec73e23a9662efc9c229c6a008054600160401b810460ff16159067ffffffffffffffff16600081158015610a2c5750825b905060008267ffffffffffffffff166001148015610a495750303b155b905081158015610a57575080155b15610a755760405163f92ee8a960e01b815260040160405180910390fd5b845467ffffffffffffffff191660011785558315610a9f57845460ff60401b1916600160401b1785555b610aa76110cc565b8315610aed57845460ff60401b19168555604051600181527fc7f505b2f371ae2175ee4913f4499e1f2633a7b5936321eed1cdaeb6115181d29060200160405180910390a15b5050505050565b336000908152600080516020611767833981519152602081905260409091205460ff16610b335760405162461bcd60e51b81526004016104f49061162c565b3360009081526020818152604080832061ffff8616845290915281205460ff1615159003610b7857338260405163236a687560e11b81526004016104f49291906116a4565b3360008181526020818152604080832061ffff8716845290915290819020805460ff19169055517f35c7374bcb82f2355cb703c8ab6162f87fe83b99618bdb78c6d19b07ddf060a29161089c9185906116a4565b336000908152600080516020611767833981519152602081905260409091205460ff16610c0b5760405162461bcd60e51b81526004016104f49061162c565b60005b828110156106145733600090815260208190526040812081868685818110610c3857610c386116c1565b9050602002016020810190610c4d9190611598565b61ffff1681526020810191909152604001600020805460ff19169115159190911790557f35c7374bcb82f2355cb703c8ab6162f87fe83b99618bdb78c6d19b07ddf060a233858584818110610ca457610ca46116c1565b9050602002016020810190610cb99190611598565b604051610cc79291906116a4565b60405180910390a1600101610c0e565b610cdf611000565b6001600160a01b038116610d0957604051631e4fbdf760e01b8152600060048201526024016104f4565b610d128161105b565b50565b6000826001600160a01b0316636a3edf286040518163ffffffff1660e01b8152600401602060405180830381865afa158015610d55573d6000803e3d6000fd5b505050506040513d601f19601f82011682018060405250810190610d7991906116d7565b6001600160a01b031663134e18f46040518163ffffffff1660e01b8152600401602060405180830381865afa158015610db6573d6000803e3d6000fd5b505050506040513d601f19601f82011682018060405250810190610dda91906116d7565b604051637e42683b60e01b81526001600160a01b0384811660048301529190911690637e42683b90602401602060405180830381865afa158015610e22573d6000803e3d6000fd5b505050506040513d601f19601f82011682018060405250810190610e4691906116f4565b9392505050565b306001600160a01b037f0000000000000000000000000000000000000000000000000000000000000000161480610ed457507f00000000000000000000000000000000000000000000000000000000000000006001600160a01b0316610ec8600080516020611747833981519152546001600160a01b031690565b6001600160a01b031614155b156108d75760405163703e46dd60e11b815260040160405180910390fd5b610d12611000565b816001600160a01b03166352d1902d6040518163ffffffff1660e01b8152600401602060405180830381865afa925050508015610f54575060408051601f3d908101601f19168201909252610f5191810190611711565b60015b610f7c57604051634c9c8ce360e01b81526001600160a01b03831660048201526024016104f4565b6000805160206117478339815191528114610fad57604051632a87526960e21b8152600481018290526024016104f4565b61065983836110e5565b306001600160a01b037f000000000000000000000000000000000000000000000000000000000000000016146108d75760405163703e46dd60e11b815260040160405180910390fd5b336110327f9016d09d72d40fdae2fd8ceac6b6234c7706214fd39c1cd1e609a0528c199300546001600160a01b031690565b6001600160a01b0316146108d75760405163118cdaa760e01b81523360048201526024016104f4565b7f9016d09d72d40fdae2fd8ceac6b6234c7706214fd39c1cd1e609a0528c19930080546001600160a01b031981166001600160a01b03848116918217845560405192169182907f8be0079c531659141344cd1fd0a4f28419497f9722a3daafe3b4186f6b6457e090600090a3505050565b6110d461113b565b6110dd33611184565b6108d7611195565b6110ee8261119d565b6040516001600160a01b038316907fbc7cd75a20ee27fd9adebab32041f755214dbc6bffa90cc0225b39da2e5c2d3b90600090a2805115611133576106598282611202565b6107bc611278565b7ff0c57e16840df040f15088dc2f81fe391c3923bec73e23a9662efc9c229c6a0054600160401b900460ff166108d757604051631afcd79f60e31b815260040160405180910390fd5b61118c61113b565b610d1281611297565b6108d761113b565b806001600160a01b03163b6000036111d357604051634c9c8ce360e01b81526001600160a01b03821660048201526024016104f4565b60008051602061174783398151915280546001600160a01b0319166001600160a01b0392909216919091179055565b6060600080846001600160a01b03168460405161121f919061172a565b600060405180830381855af49150503d806000811461125a576040519150601f19603f3d011682016040523d82523d6000602084013e61125f565b606091505b509150915061126f85838361129f565b95945050505050565b34156108d75760405163b398979f60e01b815260040160405180910390fd5b610cdf61113b565b6060826112b4576112af826112fb565b610e46565b81511580156112cb57506001600160a01b0384163b155b156112f457604051639996b31560e01b81526001600160a01b03851660048201526024016104f4565b5092915050565b80511561130b5780518082602001fd5b60405163d6bda27560e01b815260040160405180910390fd5b6001600160a01b0381168114610d1257600080fd5b6000806000806080858703121561134f57600080fd5b843561135a81611324565b9350602085013561136a81611324565b925060408501359150606085013561138181611324565b939692955090935050565b60006020828403121561139e57600080fd5b8135610e4681611324565b60005b838110156113c45781810151838201526020016113ac565b50506000910152565b60208152600082518060208401526113ec8160408501602087016113a9565b601f01601f19169190910160400192915050565b61ffff81168114610d1257600080fd5b6000806040838503121561142357600080fd5b823561142e81611324565b9150602083013561143e81611400565b809150509250929050565b60008060006060848603121561145e57600080fd5b833561146981611324565b9250602084013561147981611324565b929592945050506040919091013590565b6000806040838503121561149d57600080fd5b82356114a881611324565b946020939093013593505050565b634e487b7160e01b600052604160045260246000fd5b600080604083850312156114df57600080fd5b82356114ea81611324565b9150602083013567ffffffffffffffff81111561150657600080fd5b8301601f8101851361151757600080fd5b803567ffffffffffffffff811115611531576115316114b6565b604051601f8201601f19908116603f0116810167ffffffffffffffff81118282101715611560576115606114b6565b60405281815282820160200187101561157857600080fd5b816020840160208301376000602083830101528093505050509250929050565b6000602082840312156115aa57600080fd5b8135610e4681611400565b600080602083850312156115c857600080fd5b823567ffffffffffffffff8111156115df57600080fd5b8301601f810185136115f057600080fd5b803567ffffffffffffffff81111561160757600080fd5b8560208260051b840101111561161c57600080fd5b6020919091019590945092505050565b6020808252601e908201527f6f6e6c7920626f756e6420636f6d706c69616e63652063616e2063616c6c0000604082015260600190565b60208082526021908201527f6f6e6c7920636f6d706c69616e636520636f6e74726163742063616e2063616c6040820152601b60fa1b606082015260800190565b6001600160a01b0392909216825261ffff16602082015260400190565b634e487b7160e01b600052603260045260246000fd5b6000602082840312156116e957600080fd5b8151610e4681611324565b60006020828403121561170657600080fd5b8151610e4681611400565b60006020828403121561172357600080fd5b5051919050565b6000825161173c8184602087016113a9565b919091019291505056fe360894a13ba1a3210667c828492db98dca3e2076cc3735a920a3ca505d382bbcf6cc97de1266c180cd39f3b311632644143ce7873d2927755382ad4b39e8ae00a2646970667358221220c8c9daa247680e50d23b79917b8df506129395ed264dc81f1ae645908fba757464736f6c634300081c0033","linkReferences":{}},"methodIdentifiers":{"UPGRADE_INTERFACE_VERSION()":"ad3cb1cc","addAllowedCountry(uint16)":"4f44425e","batchAllowCountries(uint16[])":"771c5281","batchDisallowCountries(uint16[])":"c08e1502","bindCompliance(address)":"4a932544","canComplianceBind(address)":"bcc21053","initialize()":"8129fc1c","isComplianceBound(address)":"4cf4d295","isCountryAllowed(address,uint16)":"0f4f0904","isPlugAndPlay()":"e6f5e807","moduleBurnAction(address,uint256)":"372491a2","moduleCheck(address,address,uint256,address)":"013b7ce4","moduleMintAction(address,uint256)":"f104a8c9","moduleTransferAction(address,address,uint256)":"2cb7e1ec","name()":"06fdde03","owner()":"8da5cb5b","proxiableUUID()":"52d1902d","removeAllowedCountry(uint16)":"817544c3","renounceOwnership()":"715018a6","transferOwnership(address)":"f2fde38b","unbindCompliance(address)":"0694a5fb","upgradeToAndCall(address,bytes)":"4f1ef286"},"id":34}