{"abi":[{"type":"function","name":"addAgent","inputs":[{"name":"_agent","type":"address","internalType":"address"}],"outputs":[],"stateMutability":"nonpayable"},{"type":"function","name":"addCountryRestriction","inputs":[{"name":"_country","type":"uint16","internalType":"uint16"}],"outputs":[],"stateMutability":"nonpayable"},{"type":"function","name":"addTokenAgent","inputs":[{"name":"_agentAddress","type":"address","internalType":"address"}],"outputs":[],"stateMutability":"nonpayable"},{"type":"function","name":"batchRestrictCountries","inputs":[{"name":"_countries","type":"uint16[]","internalType":"uint16[]"}],"outputs":[],"stateMutability":"nonpayable"},{"type":"function","name":"batchUnrestrictCountries","inputs":[{"name":"_countries","type":"uint16[]","internalType":"uint16[]"}],"outputs":[],"stateMutability":"nonpayable"},{"type":"function","name":"bindToken","inputs":[{"name":"_token","type":"address","internalType":"address"}],"outputs":[],"stateMutability":"nonpayable"},{"type":"function","name":"canTransfer","inputs":[{"name":"_from","type":"address","internalType":"address"},{"name":"_to","type":"address","internalType":"address"},{"name":"_value","type":"uint256","internalType":"uint256"}],"outputs":[{"name":"","type":"bool","internalType":"bool"}],"stateMutability":"view"},{"type":"function","name":"complianceCheckOnCountryRestrictions","inputs":[{"name":"","type":"address","internalType":"address"},{"name":"_to","type":"address","internalType":"address"},{"name":"","type":"uint256","internalType":"uint256"}],"outputs":[{"name":"","type":"bool","internalType":"bool"}],"stateMutability":"view"},{"type":"function","name":"created","inputs":[{"name":"_to","type":"address","internalType":"address"},{"name":"_value","type":"uint256","internalType":"uint256"}],"outputs":[],"stateMutability":"nonpayable"},{"type":"function","name":"destroyed","inputs":[{"name":"_from","type":"address","internalType":"address"},{"name":"_value","type":"uint256","internalType":"uint256"}],"outputs":[],"stateMutability":"nonpayable"},{"type":"function","name":"isAgent","inputs":[{"name":"_agent","type":"address","internalType":"address"}],"outputs":[{"name":"","type":"bool","internalType":"bool"}],"stateMutability":"view"},{"type":"function","name":"isCountryRestricted","inputs":[{"name":"_country","type":"uint16","internalType":"uint16"}],"outputs":[{"name":"","type":"bool","internalType":"bool"}],"stateMutability":"view"},{"type":"function","name":"isTokenAgent","inputs":[{"name":"_agentAddress","type":"address","internalType":"address"}],"outputs":[{"name":"","type":"bool","internalType":"bool"}],"stateMutability":"view"},{"type":"function","name":"isTokenBound","inputs":[{"name":"_token","type":"address","internalType":"address"}],"outputs":[{"name":"","type":"bool","internalType":"bool"}],"stateMutability":"view"},{"type":"function","name":"owner","inputs":[],"outputs":[{"name":"","type":"address","internalType":"address"}],"stateMutability":"view"},{"type":"function","name":"removeAgent","inputs":[{"name":"_agent","type":"address","internalType":"address"}],"outputs":[],"stateMutability":"nonpayable"},{"type":"function","name":"removeCountryRestriction","inputs":[{"name":"_country","type":"uint16","internalType":"uint16"}],"outputs":[],"stateMutability":"nonpayable"},{"type":"function","name":"removeTokenAgent","inputs":[{"name":"_agentAddress","type":"address","internalType":"address"}],"outputs":[],"stateMutability":"nonpayable"},{"type":"function","name":"renounceOwnership","inputs":[],"outputs":[],"stateMutability":"nonpayable"},{"type":"function","name":"tokenBound","inputs":[],"outputs":[{"name":"","type":"address","internalType":"contract IToken"}],"stateMutability":"view"},{"type":"function","name":"transferOwnership","inputs":[{"name":"newOwner","type":"address","internalType":"address"}],"outputs":[],"stateMutability":"nonpayable"},{"type":"function","name":"transferred","inputs":[{"name":"_from","type":"address","internalType":"address"},{"name":"_to","type":"address","internalType":"address"},{"name":"_value","type":"uint256","internalType":"uint256"}],"outputs":[],"stateMutability":"nonpayable"},{"type":"function","name":"unbindToken","inputs":[{"name":"_token","type":"address","internalType":"address"}],"outputs":[],"stateMutability":"nonpayable"},{"type":"event","name":"AddedRestrictedCountry","inputs":[{"name":"_country","type":"uint16","indexed":false,"internalType":"uint16"}],"anonymous":false},{"type":"event","name":"AgentAdded","inputs":[{"name":"_agent","type":"address","indexed":true,"internalType":"address"}],"anonymous":false},{"type":"event","name":"AgentRemoved","inputs":[{"name":"_agent","type":"address","indexed":true,"internalType":"address"}],"anonymous":false},{"type":"event","name":"OwnershipTransferred","inputs":[{"name":"previousOwner","type":"address","indexed":true,"internalType":"address"},{"name":"newOwner","type":"address","indexed":true,"internalType":"address"}],"anonymous":false},{"type":"event","name":"RemovedRestrictedCountry","inputs":[{"name":"_country","type":"uint16","indexed":false,"internalType":"uint16"}],"anonymous":false},{"type":"event","name":"TokenAgentAdded","inputs":[{"name":"_agentAddress","type":"address","indexed":false,"internalType":"address"}],"anonymous":false},{"type":"event","name":"TokenAgentRemoved","inputs":[{"name":"_agentAddress","type":"address","indexed":false,"internalType":"address"}],"anonymous":false},{"type":"event","name":"TokenBound","inputs":[{"name":"_token","type":"address","indexed":false,"internalType":"address"}],"anonymous":false},{"type":"event","name":"TokenUnbound","inputs":[{"name":"_token","type":"address","indexed":false,"internalType":"address"}],"anonymous":false},{"type":"error","name":"OwnableInvalidOwner","inputs":[{"name":"owner","type":"address","internalType":"address"}]},{"type":"error","name":"OwnableUnauthorizedAccount","inputs":[{"name":"account","type":"address","internalType":"address"}]}],"bytecode":{"object":"0x6080604052348015600f57600080fd5b503380603557604051631e4fbdf760e01b81526000600482015260240160405180910390fd5b603c816041565b506091565b600080546001600160a01b038381166001600160a01b0319831681178455604051919092169283917f8be0079c531659141344cd1fd0a4f28419497f9722a3daafe3b4186f6b6457e09190a35050565b611103806100a06000396000f3fe608060405234801561001057600080fd5b506004361061014d5760003560e01c80638d2ea772116100c3578063bdf9a07e1161007c578063bdf9a07e146102b4578063c7a4ecf8146102c7578063cdde2932146102da578063e46638e6146102ed578063f2fde38b14610300578063ff3e69541461031357600080fd5b80638d2ea772146101db5780638da5cb5b1461022f57806393e62f071461025457806397a6278e14610267578063993e8b951461027a578063bc4c85521461028d57600080fd5b806340db3b501161011557806340db3b50146101c85780635f8dead3146101db5780636aae7b26146101ee578063715018a61461020157806384e79842146102095780638baf29b41461021c57600080fd5b80630333ce24146101525780631ffbb06414610167578063249c981d1461018f578063346531fa146101a25780633ff5aa02146101b5575b600080fd5b610165610160366004610ebe565b610326565b005b61017a610175366004610ef0565b6103ed565b60405190151581526020015b60405180910390f35b61016561019d366004610f0d565b610400565b61017a6101b0366004610ef0565b610442565b6101656101c3366004610ef0565b6104eb565b6101656101d6366004610ef0565b6105c9565b6101656101e9366004610f84565b6106eb565b6101656101fc366004610ebe565b610713565b6101656107c3565b610165610217366004610ef0565b6107d7565b61016561022a366004610fb0565b610877565b6000546001600160a01b03165b6040516001600160a01b039091168152602001610186565b60035461023c906001600160a01b031681565b610165610275366004610ef0565b61089b565b61017a610288366004610ef0565b61093b565b61017a61029b366004610ebe565b61ffff1660009081526004602052604090205460ff1690565b6101656102c2366004610f0d565b61095b565b61017a6102d5366004610fb0565b610998565b6101656102e8366004610ef0565b6109df565b61017a6102fb366004610fb0565b610aa0565b61016561030e366004610ef0565b610ac3565b610165610321366004610ef0565b610b01565b61032e610bc6565b61ffff811660009081526004602052604090205460ff16156103975760405162461bcd60e51b815260206004820152601a60248201527f636f756e74727920616c7265616479207265737472696374656400000000000060448201526064015b60405180910390fd5b61ffff8116600081815260046020908152604091829020805460ff1916600117905590519182527f686ddf4acaa296f02dade9efd41d8a09a2eba14d730f9117404e6ffe6b96a01891015b60405180910390a150565b60006103fa600183610bf3565b92915050565b60005b8181101561043d5761043583838381811061042057610420610ff1565b90506020020160208101906101fc9190610ebe565b600101610403565b505050565b6001600160a01b03811660009081526002602052604081205460ff161580156104d657506003546040516307feec1960e21b81526001600160a01b03848116600483015290911690631ffbb06490602401602060405180830381865afa1580156104b0573d6000803e3d6000fd5b505050506040513d601f19601f820116820180604052508101906104d49190611007565b155b156104e357506000919050565b506001919050565b336104fe6000546001600160a01b031690565b6001600160a01b0316148061052f57506003546001600160a01b031615801561052f5750336001600160a01b038216145b61057b5760405162461bcd60e51b815260206004820152601c60248201527f6f6e6c79206f776e6572206f7220746f6b656e2063616e2063616c6c00000000604482015260640161038e565b600380546001600160a01b0319166001600160a01b0383169081179091556040519081527f2de35142b19ed5a07796cf30791959c592018f70b1d2d7c460eef8ffe713692b906020016103e2565b336105dc6000546001600160a01b031690565b6001600160a01b031614806105f95750336001600160a01b038216145b6106455760405162461bcd60e51b815260206004820152601c60248201527f6f6e6c79206f776e6572206f7220746f6b656e2063616e2063616c6c00000000604482015260640161038e565b6003546001600160a01b038281169116146106a25760405162461bcd60e51b815260206004820152601760248201527f5468697320746f6b656e206973206e6f7420626f756e64000000000000000000604482015260640161038e565b600380546001600160a01b03191690556040516001600160a01b03821681527f28a4ca7134a3b3f9aff286e79ad3daadb4a06d1b43d037a3a98bdc074edd9b7a906020016103e2565b6106f3610c76565b61070f5760405162461bcd60e51b815260040161038e90611029565b5050565b61071b610bc6565b61ffff811660009081526004602052604090205460ff166107775760405162461bcd60e51b815260206004820152601660248201527518dbdd5b9d1c9e481b9bdd081c995cdd1c9a58dd195960521b604482015260640161038e565b61ffff8116600081815260046020908152604091829020805460ff1916905590519182527f7dad2e3bc77f5830a7421a19a06cee2e76fcd4bdbe0793f240b3cf094cebcceb91016103e2565b6107cb610bc6565b6107d56000610c86565b565b6107df610bc6565b6001600160a01b0381166108355760405162461bcd60e51b815260206004820152601f60248201527f696e76616c696420617267756d656e74202d207a65726f206164647265737300604482015260640161038e565b610840600182610cd6565b6040516001600160a01b038216907ff68e73cec97f2d70aa641fb26e87a4383686e2efacb648f2165aeb02ac562ec590600090a250565b61087f610c76565b61043d5760405162461bcd60e51b815260040161038e90611029565b6108a3610bc6565b6001600160a01b0381166108f95760405162461bcd60e51b815260206004820152601f60248201527f696e76616c696420617267756d656e74202d207a65726f206164647265737300604482015260640161038e565b610904600182610d52565b6040516001600160a01b038216907fed9c8ad8d5a0a66898ea49d2956929c93ae2e8bd50281b2ed897c5d1a6737e0b90600090a250565b6003546000906001600160a01b038381169116146104e357506000919050565b60005b8181101561043d5761099083838381811061097b5761097b610ff1565b90506020020160208101906101609190610ebe565b60010161095e565b6000806109a484610dd4565b90506109c38161ffff1660009081526004602052604090205460ff1690565b156109d25760009150506109d8565b60019150505b9392505050565b6109e7610bc6565b6001600160a01b03811660009081526002602052604090205460ff16610a4f5760405162461bcd60e51b815260206004820181905260248201527f54686973204167656e74206973206e6f74207265676973746572656420796574604482015260640161038e565b6001600160a01b038116600081815260026020908152604091829020805460ff1916905590519182527f6a659bb87bb23efbdc295f8eed8ae8c4379bfb77660ced2ef0f3d7d26b05c6a691016103e2565b6000610aad848484610998565b610ab9575060006109d8565b5060019392505050565b610acb610bc6565b6001600160a01b038116610af557604051631e4fbdf760e01b81526000600482015260240161038e565b610afe81610c86565b50565b610b09610bc6565b6001600160a01b03811660009081526002602052604090205460ff1615610b725760405162461bcd60e51b815260206004820181905260248201527f54686973204167656e7420697320616c72656164792072656769737465726564604482015260640161038e565b6001600160a01b038116600081815260026020908152604091829020805460ff1916600117905590519182527fd62c45e13ac30396aceb3ad37c89bd1ba9048032fe61679000e92eb93dbfd67d91016103e2565b6000546001600160a01b031633146107d55760405163118cdaa760e01b815233600482015260240161038e565b60006001600160a01b038216610c565760405162461bcd60e51b815260206004820152602260248201527f526f6c65733a206163636f756e7420697320746865207a65726f206164647265604482015261737360f01b606482015260840161038e565b506001600160a01b03166000908152602091909152604090205460ff1690565b6000610c813361093b565b905090565b600080546001600160a01b038381166001600160a01b0319831681178455604051919092169283917f8be0079c531659141344cd1fd0a4f28419497f9722a3daafe3b4186f6b6457e09190a35050565b610ce08282610bf3565b15610d2d5760405162461bcd60e51b815260206004820152601f60248201527f526f6c65733a206163636f756e7420616c72656164792068617320726f6c6500604482015260640161038e565b6001600160a01b0316600090815260209190915260409020805460ff19166001179055565b610d5c8282610bf3565b610db25760405162461bcd60e51b815260206004820152602160248201527f526f6c65733a206163636f756e7420646f6573206e6f74206861766520726f6c6044820152606560f81b606482015260840161038e565b6001600160a01b0316600090815260209190915260409020805460ff19169055565b600354604080516304d3863d60e21b815290516000926001600160a01b03169163134e18f49160048083019260209291908290030181865afa158015610e1e573d6000803e3d6000fd5b505050506040513d601f19601f82011682018060405250810190610e429190611093565b604051637e42683b60e01b81526001600160a01b0384811660048301529190911690637e42683b90602401602060405180830381865afa158015610e8a573d6000803e3d6000fd5b505050506040513d601f19601f820116820180604052508101906103fa91906110b0565b61ffff81168114610afe57600080fd5b600060208284031215610ed057600080fd5b81356109d881610eae565b6001600160a01b0381168114610afe57600080fd5b600060208284031215610f0257600080fd5b81356109d881610edb565b60008060208385031215610f2057600080fd5b823567ffffffffffffffff811115610f3757600080fd5b8301601f81018513610f4857600080fd5b803567ffffffffffffffff811115610f5f57600080fd5b8560208260051b8401011115610f7457600080fd5b6020919091019590945092505050565b60008060408385031215610f9757600080fd5b8235610fa281610edb565b946020939093013593505050565b600080600060608486031215610fc557600080fd5b8335610fd081610edb565b92506020840135610fe081610edb565b929592945050506040919091013590565b634e487b7160e01b600052603260045260246000fd5b60006020828403121561101957600080fd5b815180151581146109d857600080fd5b60208082526044908201527f6572726f72203a20746869732061646472657373206973206e6f74206120746f60408201527f6b656e20626f756e6420746f2074686520636f6d706c69616e636520636f6e746060820152631c9858dd60e21b608082015260a00190565b6000602082840312156110a557600080fd5b81516109d881610edb565b6000602082840312156110c257600080fd5b81516109d881610eae56fea26469706673582212208fefa3ff3f5c423c74c93c53145f19537f3953270cf23aeac19fdfe700ef27c864736f6c634300081c0033","linkReferences":{}},"methodIdentifiers":{"addAgent(address)":"84e79842","addCountryRestriction(uint16)":"0333ce24","addTokenAgent(address)":"ff3e6954","batchRestrictCountries(uint16[])":"bdf9a07e","batchUnrestrictCountries(uint16[])":"249c981d","bindToken(address)":"3ff5aa02","canTransfer(address,address,uint256)":"e46638e6","complianceCheckOnCountryRestrictions(address,address,uint256)":"c7a4ecf8","created(address,uint256)":"5f8dead3","destroyed(address,uint256)":"8d2ea772","isAgent(address)":"1ffbb064","isCountryRestricted(uint16)":"bc4c8552","isTokenAgent(address)":"346531fa","isTokenBound(address)":"993e8b95","owner()":"8da5cb5b","removeAgent(address)":"97a6278e","removeCountryRestriction(uint16)":"6aae7b26","removeTokenAgent(address)":"cdde2932","renounceOwnership()":"715018a6","tokenBound()":"93e62f07","transferOwnership(address)":"f2fde38b","transferred(address,address,uint256)":"8baf29b4","unbindToken(address)":"40db3b50"},"id":22}