{"abi":[{"type":"function","name":"addTrustedIssuer","inputs":[{"name":"_trustedIssuer","type":"address","internalType":"contract IClaimIssuer"},{"name":"_claimTopics","type":"uint256[]","internalType":"uint256[]"}],"outputs":[],"stateMutability":"nonpayable"},{"type":"function","name":"getTrustedIssuerClaimTopics","inputs":[{"name":"_trustedIssuer","type":"address","internalType":"contract IClaimIssuer"}],"outputs":[{"name":"","type":"uint256[]","internalType":"uint256[]"}],"stateMutability":"view"},{"type":"function","name":"getTrustedIssuers","inputs":[],"outputs":[{"name":"","type":"address[]","internalType":"contract IClaimIssuer[]"}],"stateMutability":"view"},{"type":"function","name":"getTrustedIssuersForClaimTopic","inputs":[{"name":"claimTopic","type":"uint256","internalType":"uint256"}],"outputs":[{"name":"","type":"address[]","internalType":"contract IClaimIssuer[]"}],"stateMutability":"view"},{"type":"function","name":"hasClaimTopic","inputs":[{"name":"_issuer","type":"address","internalType":"address"},{"name":"_claimTopic","type":"uint256","internalType":"uint256"}],"outputs":[{"name":"","type":"bool","internalType":"bool"}],"stateMutability":"view"},{"type":"function","name":"init","inputs":[],"outputs":[],"stateMutability":"nonpayable"},{"type":"function","name":"isTrustedIssuer","inputs":[{"name":"_issuer","type":"address","internalType":"address"}],"outputs":[{"name":"","type":"bool","internalType":"bool"}],"stateMutability":"view"},{"type":"function","name":"owner","inputs":[],"outputs":[{"name":"","type":"address","internalType":"address"}],"stateMutability":"view"},{"type":"function","name":"removeTrustedIssuer","inputs":[{"name":"_trustedIssuer","type":"address","internalType":"contract IClaimIssuer"}],"outputs":[],"stateMutability":"nonpayable"},{"type":"function","name":"renounceOwnership","inputs":[],"outputs":[],"stateMutability":"nonpayable"},{"type":"function","name":"transferOwnership","inputs":[{"name":"newOwner","type":"address","internalType":"address"}],"outputs":[],"stateMutability":"nonpayable"},{"type":"function","name":"updateIssuerClaimTopics","inputs":[{"name":"_trustedIssuer","type":"address","internalType":"contract IClaimIssuer"},{"name":"_claimTopics","type":"uint256[]","internalType":"uint256[]"}],"outputs":[],"stateMutability":"nonpayable"},{"type":"event","name":"ClaimTopicsUpdated","inputs":[{"name":"trustedIssuer","type":"address","indexed":true,"internalType":"contract IClaimIssuer"},{"name":"claimTopics","type":"uint256[]","indexed":false,"internalType":"uint256[]"}],"anonymous":false},{"type":"event","name":"Initialized","inputs":[{"name":"version","type":"uint64","indexed":false,"internalType":"uint64"}],"anonymous":false},{"type":"event","name":"OwnershipTransferred","inputs":[{"name":"previousOwner","type":"address","indexed":true,"internalType":"address"},{"name":"newOwner","type":"address","indexed":true,"internalType":"address"}],"anonymous":false},{"type":"event","name":"TrustedIssuerAdded","inputs":[{"name":"trustedIssuer","type":"address","indexed":true,"internalType":"contract IClaimIssuer"},{"name":"claimTopics","type":"uint256[]","indexed":false,"internalType":"uint256[]"}],"anonymous":false},{"type":"event","name":"TrustedIssuerRemoved","inputs":[{"name":"trustedIssuer","type":"address","indexed":true,"internalType":"contract IClaimIssuer"}],"anonymous":false},{"type":"error","name":"InvalidInitialization","inputs":[]},{"type":"error","name":"NotInitializing","inputs":[]},{"type":"error","name":"OwnableInvalidOwner","inputs":[{"name":"owner","type":"address","internalType":"address"}]},{"type":"error","name":"OwnableUnauthorizedAccount","inputs":[{"name":"account","type":"address","internalType":"address"}]}],"bytecode":{"object":"0x6080604052348015600f57600080fd5b506113998061001f6000396000f3fe608060405234801561001057600080fd5b50600436106100b45760003560e01c8063b93d28eb11610071578063b93d28eb1461016b578063c28fb2781461017e578063d9dd24c51461019e578063e1c7392a146101a6578063ef2ed1a4146101ae578063f2fde38b146101c157600080fd5b806304bc7e84146100b957806334a89987146100ce57806352c111d1146100f6578063715018a6146101165780638da5cb5b1461011e5780639f63ea9814610158575b600080fd5b6100cc6100c73660046110ea565b6101d4565b005b6100e16100dc366004611174565b610553565b60405190151581526020015b60405180910390f35b6101096101043660046111a0565b610609565b6040516100ed91906111b9565b6100cc610675565b7f9016d09d72d40fdae2fd8ceac6b6234c7706214fd39c1cd1e609a0528c199300546040516001600160a01b0390911681526020016100ed565b6100cc6101663660046110ea565b610689565b6100cc610179366004611205565b610905565b61019161018c366004611205565b610c7e565b6040516100ed9190611229565b610109610d50565b6100cc610db2565b6100e16101bc366004611205565b610ec1565b6100cc6101cf366004611205565b610eef565b6101dc610f2d565b6001600160a01b03831661020b5760405162461bcd60e51b815260040161020290611261565b60405180910390fd5b6001600160a01b03831660009081526001602052604081205490036102695760405162461bcd60e51b81526020600482015260146024820152732727aa1030903a393ab9ba32b21034b9b9bab2b960611b6044820152606401610202565b600f81111561028a5760405162461bcd60e51b815260040161020290611298565b806102d75760405162461bcd60e51b815260206004820152601c60248201527f636c61696d20746f706963732063616e6e6f7420626520656d707479000000006044820152606401610202565b60005b6001600160a01b038416600090815260016020526040902054811015610476576001600160a01b0384166000908152600160205260408120805483908110610324576103246112dd565b600091825260208083209091015480835260029091526040822054909250905b8181101561046b57600083815260026020526040902080546001600160a01b038916919083908110610378576103786112dd565b6000918252602090912001546001600160a01b0316036104635760008381526002602052604090206103ab6001846112f3565b815481106103bb576103bb6112dd565b60009182526020808320909101548583526002909152604090912080546001600160a01b0390921691839081106103f4576103f46112dd565b600091825260208083209190910180546001600160a01b0319166001600160a01b03949094169390931790925584815260029091526040902080548061043c5761043c611314565b600082815260209020810160001990810180546001600160a01b031916905501905561046b565b600101610344565b5050506001016102da565b506001600160a01b038316600090815260016020526040902061049a90838361105b565b5060005b8181101561050a57600260008484848181106104bc576104bc6112dd565b602090810292909201358352508181019290925260400160009081208054600180820183559183529290912090910180546001600160a01b0319166001600160a01b0387161790550161049e565b50826001600160a01b03167fec753cfc52044f61676f18a11e500093a9f2b1cd5e4942bc476f2b0438159bcf838360405161054692919061132a565b60405180910390a2505050565b6001600160a01b03821660009081526001602090815260408083208054825181850281018501909352808352928492919084908301828280156105b557602002820191906000526020600020905b8154815260200190600101908083116105a1575b5050505050905060005b828110156105fb57848282815181106105da576105da6112dd565b6020026020010151036105f35760019350505050610603565b6001016105bf565b506000925050505b92915050565b60008181526002602090815260409182902080548351818402810184019094528084526060939283018282801561066957602002820191906000526020600020905b81546001600160a01b0316815260019091019060200180831161064b575b50505050509050919050565b61067d610f2d565b6106876000610f88565b565b610691610f2d565b6001600160a01b0383166106b75760405162461bcd60e51b815260040161020290611261565b6001600160a01b0383166000908152600160205260409020541561071d5760405162461bcd60e51b815260206004820152601d60248201527f747275737465642049737375657220616c7265616479206578697374730000006044820152606401610202565b806107765760405162461bcd60e51b8152602060048201526024808201527f7472757374656420636c61696d20746f706963732063616e6e6f7420626520656044820152636d70747960e01b6064820152608401610202565b600f8111156107975760405162461bcd60e51b815260040161020290611298565b6000546032116107fa5760405162461bcd60e51b815260206004820152602860248201527f63616e6e6f742068617665206d6f7265207468616e2035302074727573746564604482015267206973737565727360c01b6064820152608401610202565b60008054600180820183557f290decd9548b62a8d60345a988386fc84ba6bc95484008f6362f93160ef3e56390910180546001600160a01b0319166001600160a01b03871690811790915582526020526040902061085990838361105b565b5060005b818110156108c9576002600084848481811061087b5761087b6112dd565b602090810292909201358352508181019290925260400160009081208054600180820183559183529290912090910180546001600160a01b0319166001600160a01b0387161790550161085d565b50826001600160a01b03167ffedc33fd34859594822c0ff6f3f4f9fc279cc6d5cae53068f706a088e4500872838360405161054692919061132a565b61090d610f2d565b6001600160a01b0381166109335760405162461bcd60e51b815260040161020290611261565b6001600160a01b03811660009081526001602052604081205490036109915760405162461bcd60e51b81526020600482015260146024820152732727aa1030903a393ab9ba32b21034b9b9bab2b960611b6044820152606401610202565b60008054905b81811015610a8457826001600160a01b0316600082815481106109bc576109bc6112dd565b6000918252602090912001546001600160a01b031603610a7c5760006109e36001846112f3565b815481106109f3576109f36112dd565b600091825260208220015481546001600160a01b03909116919083908110610a1d57610a1d6112dd565b6000918252602082200180546001600160a01b0319166001600160a01b039390931692909217909155805480610a5557610a55611314565b600082815260209020810160001990810180546001600160a01b0319169055019055610a84565b600101610997565b5060005b6001600160a01b038316600090815260016020526040902054811015610c24576001600160a01b0383166000908152600160205260408120805483908110610ad257610ad26112dd565b600091825260208083209091015480835260029091526040822054909250905b81811015610c1957600083815260026020526040902080546001600160a01b038816919083908110610b2657610b266112dd565b6000918252602090912001546001600160a01b031603610c11576000838152600260205260409020610b596001846112f3565b81548110610b6957610b696112dd565b60009182526020808320909101548583526002909152604090912080546001600160a01b039092169183908110610ba257610ba26112dd565b600091825260208083209190910180546001600160a01b0319166001600160a01b039490941693909317909255848152600290915260409020805480610bea57610bea611314565b600082815260209020810160001990810180546001600160a01b0319169055019055610c19565b600101610af2565b505050600101610a88565b506001600160a01b0382166000908152600160205260408120610c46916110a6565b6040516001600160a01b038316907f2214ded40113cc3fb63fc206cafee88270b0a903dac7245d54efdde30ebb032190600090a25050565b6001600160a01b03811660009081526001602052604081205460609103610ce75760405162461bcd60e51b815260206004820152601c60248201527f747275737465642049737375657220646f65736e2774206578697374000000006044820152606401610202565b6001600160a01b0382166000908152600160209081526040918290208054835181840281018401909452808452909183018282801561066957602002820191906000526020600020905b815481526020019060010190808311610d315750505050509050919050565b60606000805480602002602001604051908101604052809291908181526020018280548015610da857602002820191906000526020600020905b81546001600160a01b03168152600190910190602001808311610d8a575b5050505050905090565b7ff0c57e16840df040f15088dc2f81fe391c3923bec73e23a9662efc9c229c6a008054600160401b810460ff16159067ffffffffffffffff16600081158015610df85750825b905060008267ffffffffffffffff166001148015610e155750303b155b905081158015610e23575080155b15610e415760405163f92ee8a960e01b815260040160405180910390fd5b845467ffffffffffffffff191660011785558315610e6b57845460ff60401b1916600160401b1785555b610e7433610ff9565b8315610eba57845460ff60401b19168555604051600181527fc7f505b2f371ae2175ee4913f4499e1f2633a7b5936321eed1cdaeb6115181d29060200160405180910390a15b5050505050565b6001600160a01b03811660009081526001602052604081205415610ee757506001919050565b506000919050565b610ef7610f2d565b6001600160a01b038116610f2157604051631e4fbdf760e01b815260006004820152602401610202565b610f2a81610f88565b50565b33610f5f7f9016d09d72d40fdae2fd8ceac6b6234c7706214fd39c1cd1e609a0528c199300546001600160a01b031690565b6001600160a01b0316146106875760405163118cdaa760e01b8152336004820152602401610202565b7f9016d09d72d40fdae2fd8ceac6b6234c7706214fd39c1cd1e609a0528c19930080546001600160a01b031981166001600160a01b03848116918217845560405192169182907f8be0079c531659141344cd1fd0a4f28419497f9722a3daafe3b4186f6b6457e090600090a3505050565b61100161100a565b610f2a81611053565b7ff0c57e16840df040f15088dc2f81fe391c3923bec73e23a9662efc9c229c6a0054600160401b900460ff1661068757604051631afcd79f60e31b815260040160405180910390fd5b610ef761100a565b828054828255906000526020600020908101928215611096579160200282015b8281111561109657823582559160200191906001019061107b565b506110a29291506110c0565b5090565b5080546000825590600052602060002090810190610f2a91905b5b808211156110a257600081556001016110c1565b6001600160a01b0381168114610f2a57600080fd5b6000806000604084860312156110ff57600080fd5b833561110a816110d5565b9250602084013567ffffffffffffffff81111561112657600080fd5b8401601f8101861361113757600080fd5b803567ffffffffffffffff81111561114e57600080fd5b8660208260051b840101111561116357600080fd5b939660209190910195509293505050565b6000806040838503121561118757600080fd5b8235611192816110d5565b946020939093013593505050565b6000602082840312156111b257600080fd5b5035919050565b602080825282518282018190526000918401906040840190835b818110156111fa5783516001600160a01b03168352602093840193909201916001016111d3565b509095945050505050565b60006020828403121561121757600080fd5b8135611222816110d5565b9392505050565b602080825282518282018190526000918401906040840190835b818110156111fa578351835260209384019390920191600101611243565b6020808252601f908201527f696e76616c696420617267756d656e74202d207a65726f206164647265737300604082015260600190565b60208082526025908201527f63616e6e6f742068617665206d6f7265207468616e20313520636c61696d20746040820152646f7069637360d81b606082015260800190565b634e487b7160e01b600052603260045260246000fd5b8181038181111561060357634e487b7160e01b600052601160045260246000fd5b634e487b7160e01b600052603160045260246000fd5b6020808252810182905260006001600160fb1b0383111561134a57600080fd5b8260051b8085604085013791909101604001939250505056fea2646970667358221220a1ff3e29f43efa8974597c818e521577f8676a547f211df6e2b4902b17a2f16f64736f6c634300081c0033","linkReferences":{}},"methodIdentifiers":{"addTrustedIssuer(address,uint256[])":"9f63ea98","getTrustedIssuerClaimTopics(address)":"c28fb278","getTrustedIssuers()":"d9dd24c5","getTrustedIssuersForClaimTopic(uint256)":"52c111d1","hasClaimTopic(address,uint256)":"34a89987","init()":"e1c7392a","isTrustedIssuer(address)":"ef2ed1a4","owner()":"8da5cb5b","removeTrustedIssuer(address)":"b93d28eb","renounceOwnership()":"715018a6","transferOwnership(address)":"f2fde38b","updateIssuerClaimTopics(address,uint256[])":"04bc7e84"},"id":65}