{"abi":[{"type":"function","name":"addAgent","inputs":[{"name":"_agent","type":"address","internalType":"address"}],"outputs":[],"stateMutability":"nonpayable"},{"type":"function","name":"addIdentityToStorage","inputs":[{"name":"_userAddress","type":"address","internalType":"address"},{"name":"_identity","type":"address","internalType":"contract IIdentity"},{"name":"_country","type":"uint16","internalType":"uint16"}],"outputs":[],"stateMutability":"nonpayable"},{"type":"function","name":"bindIdentityRegistry","inputs":[{"name":"_identityRegistry","type":"address","internalType":"address"}],"outputs":[],"stateMutability":"nonpayable"},{"type":"function","name":"init","inputs":[],"outputs":[],"stateMutability":"nonpayable"},{"type":"function","name":"isAgent","inputs":[{"name":"_agent","type":"address","internalType":"address"}],"outputs":[{"name":"","type":"bool","internalType":"bool"}],"stateMutability":"view"},{"type":"function","name":"linkedIdentityRegistries","inputs":[],"outputs":[{"name":"","type":"address[]","internalType":"address[]"}],"stateMutability":"view"},{"type":"function","name":"modifyStoredIdentity","inputs":[{"name":"_userAddress","type":"address","internalType":"address"},{"name":"_identity","type":"address","internalType":"contract IIdentity"}],"outputs":[],"stateMutability":"nonpayable"},{"type":"function","name":"modifyStoredInvestorCountry","inputs":[{"name":"_userAddress","type":"address","internalType":"address"},{"name":"_country","type":"uint16","internalType":"uint16"}],"outputs":[],"stateMutability":"nonpayable"},{"type":"function","name":"owner","inputs":[],"outputs":[{"name":"","type":"address","internalType":"address"}],"stateMutability":"view"},{"type":"function","name":"removeAgent","inputs":[{"name":"_agent","type":"address","internalType":"address"}],"outputs":[],"stateMutability":"nonpayable"},{"type":"function","name":"removeIdentityFromStorage","inputs":[{"name":"_userAddress","type":"address","internalType":"address"}],"outputs":[],"stateMutability":"nonpayable"},{"type":"function","name":"renounceOwnership","inputs":[],"outputs":[],"stateMutability":"nonpayable"},{"type":"function","name":"storedIdentity","inputs":[{"name":"_userAddress","type":"address","internalType":"address"}],"outputs":[{"name":"","type":"address","internalType":"contract IIdentity"}],"stateMutability":"view"},{"type":"function","name":"storedInvestorCountry","inputs":[{"name":"_userAddress","type":"address","internalType":"address"}],"outputs":[{"name":"","type":"uint16","internalType":"uint16"}],"stateMutability":"view"},{"type":"function","name":"transferOwnership","inputs":[{"name":"newOwner","type":"address","internalType":"address"}],"outputs":[],"stateMutability":"nonpayable"},{"type":"function","name":"unbindIdentityRegistry","inputs":[{"name":"_identityRegistry","type":"address","internalType":"address"}],"outputs":[],"stateMutability":"nonpayable"},{"type":"event","name":"AgentAdded","inputs":[{"name":"_agent","type":"address","indexed":true,"internalType":"address"}],"anonymous":false},{"type":"event","name":"AgentRemoved","inputs":[{"name":"_agent","type":"address","indexed":true,"internalType":"address"}],"anonymous":false},{"type":"event","name":"CountryModified","inputs":[{"name":"investorAddress","type":"address","indexed":true,"internalType":"address"},{"name":"country","type":"uint16","indexed":true,"internalType":"uint16"}],"anonymous":false},{"type":"event","name":"IdentityModified","inputs":[{"name":"oldIdentity","type":"address","indexed":true,"internalType":"contract IIdentity"},{"name":"newIdentity","type":"address","indexed":true,"internalType":"contract IIdentity"}],"anonymous":false},{"type":"event","name":"IdentityRegistryBound","inputs":[{"name":"identityRegistry","type":"address","indexed":true,"internalType":"address"}],"anonymous":false},{"type":"event","name":"IdentityRegistryUnbound","inputs":[{"name":"identityRegistry","type":"address","indexed":true,"internalType":"address"}],"anonymous":false},{"type":"event","name":"IdentityStored","inputs":[{"name":"investorAddress","type":"address","indexed":true,"internalType":"address"},{"name":"identity","type":"address","indexed":true,"internalType":"contract IIdentity"}],"anonymous":false},{"type":"event","name":"IdentityUnstored","inputs":[{"name":"investorAddress","type":"address","indexed":true,"internalType":"address"},{"name":"identity","type":"address","indexed":true,"internalType":"contract IIdentity"}],"anonymous":false},{"type":"event","name":"Initialized","inputs":[{"name":"version","type":"uint64","indexed":false,"internalType":"uint64"}],"anonymous":false},{"type":"event","name":"OwnershipTransferred","inputs":[{"name":"previousOwner","type":"address","indexed":true,"internalType":"address"},{"name":"newOwner","type":"address","indexed":true,"internalType":"address"}],"anonymous":false},{"type":"error","name":"InvalidInitialization","inputs":[]},{"type":"error","name":"NotInitializing","inputs":[]},{"type":"error","name":"OwnableInvalidOwner","inputs":[{"name":"owner","type":"address","internalType":"address"}]},{"type":"error","name":"OwnableUnauthorizedAccount","inputs":[{"name":"account","type":"address","internalType":"address"}]}],"bytecode":{"object":"0x6080604052348015600f57600080fd5b5061114b8061001f6000396000f3fe608060405234801561001057600080fd5b50600436106101005760003560e01c806397a6278e11610097578063cf191bcd11610066578063cf191bcd14610279578063e1c7392a1461028c578063e805cf8614610294578063f2fde38b146102a757600080fd5b806397a6278e1461022b5780639f3418d51461023e578063a53410dd14610251578063bf9eb9591461026457600080fd5b80637988d3a5116100d35780637988d3a51461019157806384e79842146101d55780638da5cb5b146101e857806397a012f71461021857600080fd5b80631ffbb06414610105578063690a49f91461012d578063715018a614610142578063727e13bc1461014a575b600080fd5b610118610113366004610ed7565b6102ba565b60405190151581526020015b60405180910390f35b61014061013b366004610ed7565b6102cc565b005b6101406103dd565b61017e610158366004610ed7565b6001600160a01b0316600090815260016020526040902054600160a01b900461ffff1690565b60405161ffff9091168152602001610124565b6101bd61019f366004610ed7565b6001600160a01b039081166000908152600160205260409020541690565b6040516001600160a01b039091168152602001610124565b6101406101e3366004610ed7565b6103f1565b7f9016d09d72d40fdae2fd8ceac6b6234c7706214fd39c1cd1e609a0528c199300546001600160a01b03166101bd565b610140610226366004610ed7565b610461565b610140610239366004610ed7565b610614565b61014061024c366004610f12565b610684565b61014061025f366004610f47565b610769565b61026c61088f565b6040516101249190610f8e565b610140610287366004610ed7565b6108f1565b6101406109cc565b6101406102a2366004610fda565b610adb565b6101406102b5366004610ed7565b610bd5565b60006102c68183610c13565b92915050565b6001600160a01b0381166102fb5760405162461bcd60e51b81526004016102f290611013565b60405180910390fd5b60025461012c1161035c5760405162461bcd60e51b815260206004820152602560248201527f63616e6e6f742062696e64206d6f7265207468616e2033303020495220746f20604482015264312049525360d81b60648201526084016102f2565b610365816103f1565b6002805460018101825560009182527f405787fa12a823e0f2b7631cc41b3ba8828b3321ca811111fa75cd3aa3bb5ace0180546001600160a01b0319166001600160a01b03841690811790915560405190917f500c250171aa20e861b680f93502547b9d436eda7d4c537fc360db6e0c6eedfb91a250565b6103e5610c96565b6103ef6000610cf1565b565b6103f9610c96565b6001600160a01b03811661041f5760405162461bcd60e51b81526004016102f290611013565b61042a600082610d62565b6040516001600160a01b038216907ff68e73cec97f2d70aa641fb26e87a4383686e2efacb648f2165aeb02ac562ec590600090a250565b6001600160a01b0381166104875760405162461bcd60e51b81526004016102f290611013565b6002546104d65760405162461bcd60e51b815260206004820152601f60248201527f6964656e74697479207265676973747279206973206e6f742073746f7265640060448201526064016102f2565b60025460005b818110156105d257826001600160a01b0316600282815481106105015761050161104a565b6000918252602090912001546001600160a01b0316036105ca576002610528600184611060565b815481106105385761053861104a565b600091825260209091200154600280546001600160a01b0390921691839081106105645761056461104a565b9060005260206000200160006101000a8154816001600160a01b0302191690836001600160a01b0316021790555060028054806105a3576105a3611081565b600082815260209020810160001990810180546001600160a01b03191690550190556105d2565b6001016104dc565b506105dc82610614565b6040516001600160a01b038316907f51f353eb5801583fdf2706e43c045b62fdf6b1566820b349390616363ecf72c990600090a25050565b61061c610c96565b6001600160a01b0381166106425760405162461bcd60e51b81526004016102f290611013565b61064d600082610dde565b6040516001600160a01b038216907fed9c8ad8d5a0a66898ea49d2956929c93ae2e8bd50281b2ed897c5d1a6737e0b90600090a250565b61068d336102ba565b6106a95760405162461bcd60e51b81526004016102f290611097565b6001600160a01b0382166106cf5760405162461bcd60e51b81526004016102f290611013565b6001600160a01b03828116600090815260016020526040902054166107065760405162461bcd60e51b81526004016102f2906110e5565b6001600160a01b038216600081815260016020526040808220805461ffff60a01b1916600160a01b61ffff87169081029190911790915590519092917f20965fcdc6eed7ae398065b40ece4e732ba667992ca819fc54e80e9f2047c4cf91a35050565b610772336102ba565b61078e5760405162461bcd60e51b81526004016102f290611097565b6001600160a01b038316158015906107ae57506001600160a01b03821615155b6107ca5760405162461bcd60e51b81526004016102f290611013565b6001600160a01b03838116600090815260016020526040902054161561082b5760405162461bcd60e51b8152602060048201526016602482015275616464726573732073746f72656420616c726561647960501b60448201526064016102f2565b6001600160a01b0383811660008181526001602052604080822080549487166001600160b01b03199095168517600160a01b61ffff881602179055517e30dea7e9c9afaa2e3c9810f2fc9b5181f1bad74ca5a8db85f746a33585e7479190a3505050565b606060028054806020026020016040519081016040528092919081815260200182805480156108e757602002820191906000526020600020905b81546001600160a01b031681526001909101906020018083116108c9575b5050505050905090565b6108fa336102ba565b6109165760405162461bcd60e51b81526004016102f290611097565b6001600160a01b03811661093c5760405162461bcd60e51b81526004016102f290611013565b6001600160a01b03818116600090815260016020526040902054166109735760405162461bcd60e51b81526004016102f2906110e5565b6001600160a01b0380821660008181526001602052604080822080546001600160b01b0319811690915590519316928392917fca6a4c3370b859312246e7f086284076e557997e10d856b716c23ab67067790b91a35050565b7ff0c57e16840df040f15088dc2f81fe391c3923bec73e23a9662efc9c229c6a008054600160401b810460ff16159067ffffffffffffffff16600081158015610a125750825b905060008267ffffffffffffffff166001148015610a2f5750303b155b905081158015610a3d575080155b15610a5b5760405163f92ee8a960e01b815260040160405180910390fd5b845467ffffffffffffffff191660011785558315610a8557845460ff60401b1916600160401b1785555b610a8e33610e60565b8315610ad457845460ff60401b19168555604051600181527fc7f505b2f371ae2175ee4913f4499e1f2633a7b5936321eed1cdaeb6115181d29060200160405180910390a15b5050505050565b610ae4336102ba565b610b005760405162461bcd60e51b81526004016102f290611097565b6001600160a01b03821615801590610b2057506001600160a01b03811615155b610b3c5760405162461bcd60e51b81526004016102f290611013565b6001600160a01b0382811660009081526001602052604090205416610b735760405162461bcd60e51b81526004016102f2906110e5565b6001600160a01b0380831660009081526001602052604080822080548585166001600160a01b031982168117909255915191909316929183917f556ce885dfcea52155c773f1ed2e58781c51945c13030ab8f793c61f51d1b8089190a3505050565b610bdd610c96565b6001600160a01b038116610c0757604051631e4fbdf760e01b8152600060048201526024016102f2565b610c1081610cf1565b50565b60006001600160a01b038216610c765760405162461bcd60e51b815260206004820152602260248201527f526f6c65733a206163636f756e7420697320746865207a65726f206164647265604482015261737360f01b60648201526084016102f2565b506001600160a01b03166000908152602091909152604090205460ff1690565b33610cc87f9016d09d72d40fdae2fd8ceac6b6234c7706214fd39c1cd1e609a0528c199300546001600160a01b031690565b6001600160a01b0316146103ef5760405163118cdaa760e01b81523360048201526024016102f2565b7f9016d09d72d40fdae2fd8ceac6b6234c7706214fd39c1cd1e609a0528c19930080546001600160a01b031981166001600160a01b03848116918217845560405192169182907f8be0079c531659141344cd1fd0a4f28419497f9722a3daafe3b4186f6b6457e090600090a3505050565b610d6c8282610c13565b15610db95760405162461bcd60e51b815260206004820152601f60248201527f526f6c65733a206163636f756e7420616c72656164792068617320726f6c650060448201526064016102f2565b6001600160a01b0316600090815260209190915260409020805460ff19166001179055565b610de88282610c13565b610e3e5760405162461bcd60e51b815260206004820152602160248201527f526f6c65733a206163636f756e7420646f6573206e6f74206861766520726f6c6044820152606560f81b60648201526084016102f2565b6001600160a01b0316600090815260209190915260409020805460ff19169055565b610e68610e71565b610c1081610eba565b7ff0c57e16840df040f15088dc2f81fe391c3923bec73e23a9662efc9c229c6a0054600160401b900460ff166103ef57604051631afcd79f60e31b815260040160405180910390fd5b610bdd610e71565b6001600160a01b0381168114610c1057600080fd5b600060208284031215610ee957600080fd5b8135610ef481610ec2565b9392505050565b803561ffff81168114610f0d57600080fd5b919050565b60008060408385031215610f2557600080fd5b8235610f3081610ec2565b9150610f3e60208401610efb565b90509250929050565b600080600060608486031215610f5c57600080fd5b8335610f6781610ec2565b92506020840135610f7781610ec2565b9150610f8560408501610efb565b90509250925092565b602080825282518282018190526000918401906040840190835b81811015610fcf5783516001600160a01b0316835260209384019390920191600101610fa8565b509095945050505050565b60008060408385031215610fed57600080fd5b8235610ff881610ec2565b9150602083013561100881610ec2565b809150509250929050565b6020808252601f908201527f696e76616c696420617267756d656e74202d207a65726f206164647265737300604082015260600190565b634e487b7160e01b600052603260045260246000fd5b818103818111156102c657634e487b7160e01b600052601160045260246000fd5b634e487b7160e01b600052603160045260246000fd5b6020808252602e908201527f4167656e74526f6c653a2063616c6c657220646f6573206e6f7420686176652060408201526d746865204167656e7420726f6c6560901b606082015260800190565b6020808252601690820152751859191c995cdcc81b9bdd081cdd1bdc9959081e595d60521b60408201526060019056fea26469706673582212206bd8a0dc9f14550d923deff76dbcdb4b78a55c14ef12166256ce7bcfd7bd417864736f6c634300081c0033","linkReferences":{}},"methodIdentifiers":{"addAgent(address)":"84e79842","addIdentityToStorage(address,address,uint16)":"a53410dd","bindIdentityRegistry(address)":"690a49f9","init()":"e1c7392a","isAgent(address)":"1ffbb064","linkedIdentityRegistries()":"bf9eb959","modifyStoredIdentity(address,address)":"e805cf86","modifyStoredInvestorCountry(address,uint16)":"9f3418d5","owner()":"8da5cb5b","removeAgent(address)":"97a6278e","removeIdentityFromStorage(address)":"cf191bcd","renounceOwnership()":"715018a6","storedIdentity(address)":"7988d3a5","storedInvestorCountry(address)":"727e13bc","transferOwnership(address)":"f2fde38b","unbindIdentityRegistry(address)":"97a012f7"},"id":64}