{"abi":[{"type":"function","name":"UPGRADE_INTERFACE_VERSION","inputs":[],"outputs":[{"name":"","type":"string","internalType":"string"}],"stateMutability":"view"},{"type":"function","name":"addExchangeID","inputs":[{"name":"_exchangeID","type":"address","internalType":"address"}],"outputs":[],"stateMutability":"nonpayable"},{"type":"function","name":"bindCompliance","inputs":[{"name":"_compliance","type":"address","internalType":"address"}],"outputs":[],"stateMutability":"nonpayable"},{"type":"function","name":"canComplianceBind","inputs":[{"name":"","type":"address","internalType":"address"}],"outputs":[{"name":"","type":"bool","internalType":"bool"}],"stateMutability":"view"},{"type":"function","name":"getExchangeMonthlyLimit","inputs":[{"name":"compliance","type":"address","internalType":"address"},{"name":"_exchangeID","type":"address","internalType":"address"}],"outputs":[{"name":"","type":"uint256","internalType":"uint256"}],"stateMutability":"view"},{"type":"function","name":"getMonthlyCounter","inputs":[{"name":"compliance","type":"address","internalType":"address"},{"name":"_exchangeID","type":"address","internalType":"address"},{"name":"_investorID","type":"address","internalType":"address"}],"outputs":[{"name":"","type":"uint256","internalType":"uint256"}],"stateMutability":"view"},{"type":"function","name":"getMonthlyTimer","inputs":[{"name":"compliance","type":"address","internalType":"address"},{"name":"_exchangeID","type":"address","internalType":"address"},{"name":"_investorID","type":"address","internalType":"address"}],"outputs":[{"name":"","type":"uint256","internalType":"uint256"}],"stateMutability":"view"},{"type":"function","name":"initialize","inputs":[],"outputs":[],"stateMutability":"nonpayable"},{"type":"function","name":"isComplianceBound","inputs":[{"name":"_compliance","type":"address","internalType":"address"}],"outputs":[{"name":"","type":"bool","internalType":"bool"}],"stateMutability":"view"},{"type":"function","name":"isExchangeID","inputs":[{"name":"_exchangeID","type":"address","internalType":"address"}],"outputs":[{"name":"","type":"bool","internalType":"bool"}],"stateMutability":"view"},{"type":"function","name":"isPlugAndPlay","inputs":[],"outputs":[{"name":"","type":"bool","internalType":"bool"}],"stateMutability":"pure"},{"type":"function","name":"moduleBurnAction","inputs":[{"name":"","type":"address","internalType":"address"},{"name":"","type":"uint256","internalType":"uint256"}],"outputs":[],"stateMutability":"nonpayable"},{"type":"function","name":"moduleCheck","inputs":[{"name":"_from","type":"address","internalType":"address"},{"name":"_to","type":"address","internalType":"address"},{"name":"_value","type":"uint256","internalType":"uint256"},{"name":"_compliance","type":"address","internalType":"address"}],"outputs":[{"name":"","type":"bool","internalType":"bool"}],"stateMutability":"view"},{"type":"function","name":"moduleMintAction","inputs":[{"name":"","type":"address","internalType":"address"},{"name":"","type":"uint256","internalType":"uint256"}],"outputs":[],"stateMutability":"nonpayable"},{"type":"function","name":"moduleTransferAction","inputs":[{"name":"_from","type":"address","internalType":"address"},{"name":"_to","type":"address","internalType":"address"},{"name":"_value","type":"uint256","internalType":"uint256"}],"outputs":[],"stateMutability":"nonpayable"},{"type":"function","name":"name","inputs":[],"outputs":[{"name":"_name","type":"string","internalType":"string"}],"stateMutability":"pure"},{"type":"function","name":"owner","inputs":[],"outputs":[{"name":"","type":"address","internalType":"address"}],"stateMutability":"view"},{"type":"function","name":"proxiableUUID","inputs":[],"outputs":[{"name":"","type":"bytes32","internalType":"bytes32"}],"stateMutability":"view"},{"type":"function","name":"removeExchangeID","inputs":[{"name":"_exchangeID","type":"address","internalType":"address"}],"outputs":[],"stateMutability":"nonpayable"},{"type":"function","name":"renounceOwnership","inputs":[],"outputs":[],"stateMutability":"nonpayable"},{"type":"function","name":"setExchangeMonthlyLimit","inputs":[{"name":"_exchangeID","type":"address","internalType":"address"},{"name":"_newExchangeMonthlyLimit","type":"uint256","internalType":"uint256"}],"outputs":[],"stateMutability":"nonpayable"},{"type":"function","name":"transferOwnership","inputs":[{"name":"newOwner","type":"address","internalType":"address"}],"outputs":[],"stateMutability":"nonpayable"},{"type":"function","name":"unbindCompliance","inputs":[{"name":"_compliance","type":"address","internalType":"address"}],"outputs":[],"stateMutability":"nonpayable"},{"type":"function","name":"upgradeToAndCall","inputs":[{"name":"newImplementation","type":"address","internalType":"address"},{"name":"data","type":"bytes","internalType":"bytes"}],"outputs":[],"stateMutability":"payable"},{"type":"event","name":"ComplianceBound","inputs":[{"name":"_compliance","type":"address","indexed":true,"internalType":"address"}],"anonymous":false},{"type":"event","name":"ComplianceUnbound","inputs":[{"name":"_compliance","type":"address","indexed":true,"internalType":"address"}],"anonymous":false},{"type":"event","name":"ExchangeIDAdded","inputs":[{"name":"_newExchangeID","type":"address","indexed":false,"internalType":"address"}],"anonymous":false},{"type":"event","name":"ExchangeIDRemoved","inputs":[{"name":"_exchangeID","type":"address","indexed":false,"internalType":"address"}],"anonymous":false},{"type":"event","name":"ExchangeMonthlyLimitUpdated","inputs":[{"name":"compliance","type":"address","indexed":true,"internalType":"address"},{"name":"_exchangeID","type":"address","indexed":false,"internalType":"address"},{"name":"_newExchangeMonthlyLimit","type":"uint256","indexed":false,"internalType":"uint256"}],"anonymous":false},{"type":"event","name":"Initialized","inputs":[{"name":"version","type":"uint64","indexed":false,"internalType":"uint64"}],"anonymous":false},{"type":"event","name":"OwnershipTransferred","inputs":[{"name":"previousOwner","type":"address","indexed":true,"internalType":"address"},{"name":"newOwner","type":"address","indexed":true,"internalType":"address"}],"anonymous":false},{"type":"event","name":"Upgraded","inputs":[{"name":"implementation","type":"address","indexed":true,"internalType":"address"}],"anonymous":false},{"type":"error","name":"AddressEmptyCode","inputs":[{"name":"target","type":"address","internalType":"address"}]},{"type":"error","name":"ERC1967InvalidImplementation","inputs":[{"name":"implementation","type":"address","internalType":"address"}]},{"type":"error","name":"ERC1967NonPayable","inputs":[]},{"type":"error","name":"FailedCall","inputs":[]},{"type":"error","name":"InvalidInitialization","inputs":[]},{"type":"error","name":"NotInitializing","inputs":[]},{"type":"error","name":"ONCHAINIDAlreadyTaggedAsExchange","inputs":[{"name":"_exchangeID","type":"address","internalType":"address"}]},{"type":"error","name":"ONCHAINIDNotTaggedAsExchange","inputs":[{"name":"_exchangeID","type":"address","internalType":"address"}]},{"type":"error","name":"OwnableInvalidOwner","inputs":[{"name":"owner","type":"address","internalType":"address"}]},{"type":"error","name":"OwnableUnauthorizedAccount","inputs":[{"name":"account","type":"address","internalType":"address"}]},{"type":"error","name":"UUPSUnauthorizedCallContext","inputs":[]},{"type":"error","name":"UUPSUnsupportedProxiableUUID","inputs":[{"name":"slot","type":"bytes32","internalType":"bytes32"}]}],"bytecode":{"object":"0x60a060405230608052348015601357600080fd5b506080516118fb61003d60003960008181610ffe01528181611027015261116801526118fb6000f3fe60806040526004361061014b5760003560e01c806374436d97116100b6578063c5b999691161006f578063c5b9996914610415578063cafa20d514610435578063d22579fb14610485578063e6f5e807146104a5578063f104a8c914610236578063f2fde38b146104b957600080fd5b806374436d97146103275780638129fc1c146103475780638da5cb5b1461035c578063a9336def146103a3578063ad3cb1cc146103c3578063bcc21053146103f457600080fd5b80634a932544116101085780634a932544146102565780634cf4d295146102765780634f1ef286146102bc57806352d1902d146102cf578063616c6589146102f2578063715018a61461031257600080fd5b8063013b7ce4146101505780630694a5fb1461018557806306fdde03146101a75780632bb5e721146101f65780632cb7e1ec14610216578063372491a214610236575b600080fd5b34801561015c57600080fd5b5061017061016b3660046114de565b6104d9565b60405190151581526020015b60405180910390f35b34801561019157600080fd5b506101a56101a0366004611531565b610611565b005b3480156101b357600080fd5b5060408051808201909152601b81527f45786368616e67654d6f6e74686c794c696d6974734d6f64756c65000000000060208201525b60405161017c9190611572565b34801561020257600080fd5b506101a5610211366004611531565b610731565b34801561022257600080fd5b506101a56102313660046115a5565b6107c6565b34801561024257600080fd5b506101a56102513660046115e6565b610856565b34801561026257600080fd5b506101a5610271366004611531565b61089a565b34801561028257600080fd5b50610170610291366004611531565b6001600160a01b031660009081526000805160206118a6833981519152602052604090205460ff1690565b6101a56102ca366004611628565b6109dd565b3480156102db57600080fd5b506102e46109fc565b60405190815260200161017c565b3480156102fe57600080fd5b506102e461030d3660046116f4565b610a19565b34801561031e57600080fd5b506101a5610a54565b34801561033357600080fd5b506101a5610342366004611531565b610a68565b34801561035357600080fd5b506101a5610af2565b34801561036857600080fd5b507f9016d09d72d40fdae2fd8ceac6b6234c7706214fd39c1cd1e609a0528c199300546040516001600160a01b03909116815260200161017c565b3480156103af57600080fd5b506101a56103be3660046115e6565b610c00565b3480156103cf57600080fd5b506101e9604051806040016040528060058152602001640352e302e360dc1b81525081565b34801561040057600080fd5b5061017061040f366004611531565b50600190565b34801561042157600080fd5b506102e461043036600461173f565b610ca1565b34801561044157600080fd5b506102e46104503660046116f4565b6001600160a01b0392831660009081526001602090815260408083209486168352938152838220929094168152925290205490565b34801561049157600080fd5b506101706104a0366004611531565b610ccc565b3480156104b157600080fd5b506001610170565b3480156104c557600080fd5b506101a56104d4366004611531565b610cea565b60006001600160a01b03851615806104f657506104f68286610d28565b1561050357506001610609565b600061050f8387610df8565b905061051a81610ccc565b15610529576001915050610609565b60006105358487610df8565b905061054081610ccc565b61054f57600192505050610609565b6001600160a01b038085166000908152602081815260408083209385168352929052205485111561058557600092505050610609565b610590848284610f29565b156105a057600192505050610609565b6001600160a01b0384811660008181526020818152604080832086861680855290835281842054948452600183528184209084528252808320948716835293905291909120546105f1908790611778565b111561060257600092505050610609565b6001925050505b949350505050565b3360009081526000805160206118a6833981519152602081905260409091205460ff166106595760405162461bcd60e51b815260040161065090611799565b60405180910390fd5b6000805160206118a68339815191526001600160a01b0383166106be5760405162461bcd60e51b815260206004820152601f60248201527f696e76616c696420617267756d656e74202d207a65726f2061646472657373006044820152606401610650565b336001600160a01b038416146106e65760405162461bcd60e51b8152600401610650906117d0565b6001600160a01b038316600081815260208390526040808220805460ff19169055517f408b49d9be1c914c52a0227e18a077e5a892dddf32a26cfa94a5d9708fad77189190a2505050565b610739610f41565b61074281610ccc565b1561076b576040516345d1498b60e01b81526001600160a01b0382166004820152602401610650565b6001600160a01b038116600081815260026020908152604091829020805460ff1916600117905590519182527fca661533a567195376b79f20fcbcca20e62ceea1d43efacba5f8028329da8e6b91015b60405180910390a150565b3360009081526000805160206118a6833981519152602081905260409091205460ff166108055760405162461bcd60e51b815260040161065090611799565b60006108113386610df8565b9050600061081f3386610df8565b905061082a81610ccc565b801561083d575061083b3387610d28565b155b1561084e5761084e33828487610f9c565b505050505050565b3360009081526000805160206118a6833981519152602081905260409091205460ff166108955760405162461bcd60e51b815260040161065090611799565b505050565b6000805160206118a68339815191526001600160a01b0382166108ff5760405162461bcd60e51b815260206004820152601f60248201527f696e76616c696420617267756d656e74202d207a65726f2061646472657373006044820152606401610650565b6001600160a01b03821660009081526020829052604090205460ff16156109685760405162461bcd60e51b815260206004820152601860248201527f636f6d706c69616e636520616c726561647920626f756e6400000000000000006044820152606401610650565b336001600160a01b038316146109905760405162461bcd60e51b8152600401610650906117d0565b6001600160a01b038216600081815260208390526040808220805460ff19166001179055517f1f7b76c58fb697eb53c6c7c1becb96911516a136e24d7ced386b2355358b75a39190a25050565b6109e5610ff3565b6109ee82611098565b6109f882826110a0565b5050565b6000610a0661115d565b5060008051602061188683398151915290565b6001600160a01b03808416600090815260016020818152604080842087861685528252808420948616845293905291902001545b9392505050565b610a5c610f41565b610a6660006111a6565b565b610a70610f41565b610a7981610ccc565b610aa157604051630120783160e61b81526001600160a01b0382166004820152602401610650565b6001600160a01b038116600081815260026020908152604091829020805460ff1916905590519182527fc59743ca46d36b7cf42c36211a2fbef12e10aec1bfc9d39eccf91b6976a260f591016107bb565b7ff0c57e16840df040f15088dc2f81fe391c3923bec73e23a9662efc9c229c6a008054600160401b810460ff16159067ffffffffffffffff16600081158015610b385750825b905060008267ffffffffffffffff166001148015610b555750303b155b905081158015610b63575080155b15610b815760405163f92ee8a960e01b815260040160405180910390fd5b845467ffffffffffffffff191660011785558315610bab57845460ff60401b1916600160401b1785555b610bb3611217565b8315610bf957845460ff60401b19168555604051600181527fc7f505b2f371ae2175ee4913f4499e1f2633a7b5936321eed1cdaeb6115181d29060200160405180910390a15b5050505050565b3360009081526000805160206118a6833981519152602081905260409091205460ff16610c3f5760405162461bcd60e51b815260040161065090611799565b336000818152602081815260408083206001600160a01b0388168085529083529281902086905580519283529082018590527f14902018104a24b79253a1e29e979c8b957bc80c71b062ca985f879888e6ea1e910160405180910390a2505050565b6001600160a01b03808316600090815260208181526040808320938516835292905220545b92915050565b6001600160a01b031660009081526002602052604090205460ff1690565b610cf2610f41565b6001600160a01b038116610d1c57604051631e4fbdf760e01b815260006004820152602401610650565b610d25816111a6565b50565b6000826001600160a01b0316636a3edf286040518163ffffffff1660e01b8152600401602060405180830381865afa158015610d68573d6000803e3d6000fd5b505050506040513d601f19601f82011682018060405250810190610d8c9190611811565b6040516307feec1960e21b81526001600160a01b0384811660048301529190911690631ffbb06490602401602060405180830381865afa158015610dd4573d6000803e3d6000fd5b505050506040513d601f19601f82011682018060405250810190610a4d919061182e565b6000826001600160a01b0316636a3edf286040518163ffffffff1660e01b8152600401602060405180830381865afa158015610e38573d6000803e3d6000fd5b505050506040513d601f19601f82011682018060405250810190610e5c9190611811565b6001600160a01b031663134e18f46040518163ffffffff1660e01b8152600401602060405180830381865afa158015610e99573d6000803e3d6000fd5b505050506040513d601f19601f82011682018060405250810190610ebd9190611811565b604051633c3ad79560e21b81526001600160a01b038481166004830152919091169063f0eb5e5490602401602060405180830381865afa158015610f05573d6000803e3d6000fd5b505050506040513d601f19601f82011682018060405250810190610a4d9190611811565b600042610f37858585610a19565b1115949350505050565b33610f737f9016d09d72d40fdae2fd8ceac6b6234c7706214fd39c1cd1e609a0528c199300546001600160a01b031690565b6001600160a01b031614610a665760405163118cdaa760e01b8152336004820152602401610650565b610fa7848484611230565b6001600160a01b0380851660009081526001602090815260408083208785168452825280832093861683529290529081208054839290610fe8908490611778565b909155505050505050565b306001600160a01b037f000000000000000000000000000000000000000000000000000000000000000016148061107a57507f00000000000000000000000000000000000000000000000000000000000000006001600160a01b031661106e600080516020611886833981519152546001600160a01b031690565b6001600160a01b031614155b15610a665760405163703e46dd60e11b815260040160405180910390fd5b610d25610f41565b816001600160a01b03166352d1902d6040518163ffffffff1660e01b8152600401602060405180830381865afa9250505080156110fa575060408051601f3d908101601f191682019092526110f791810190611850565b60015b61112257604051634c9c8ce360e01b81526001600160a01b0383166004820152602401610650565b600080516020611886833981519152811461115357604051632a87526960e21b815260048101829052602401610650565b610895838361128a565b306001600160a01b037f00000000000000000000000000000000000000000000000000000000000000001614610a665760405163703e46dd60e11b815260040160405180910390fd5b7f9016d09d72d40fdae2fd8ceac6b6234c7706214fd39c1cd1e609a0528c19930080546001600160a01b031981166001600160a01b03848116918217845560405192169182907f8be0079c531659141344cd1fd0a4f28419497f9722a3daafe3b4186f6b6457e090600090a3505050565b61121f6112e0565b61122833611329565b610a6661133a565b61123b838383610f29565b15610895576001600160a01b0380841660009081526001602090815260408083208685168452825280832093851683529290522061127c4262278d00611778565b600182015560009055505050565b61129382611342565b6040516001600160a01b038316907fbc7cd75a20ee27fd9adebab32041f755214dbc6bffa90cc0225b39da2e5c2d3b90600090a28051156112d85761089582826113a7565b6109f861141d565b7ff0c57e16840df040f15088dc2f81fe391c3923bec73e23a9662efc9c229c6a0054600160401b900460ff16610a6657604051631afcd79f60e31b815260040160405180910390fd5b6113316112e0565b610d258161143c565b610a666112e0565b806001600160a01b03163b60000361137857604051634c9c8ce360e01b81526001600160a01b0382166004820152602401610650565b60008051602061188683398151915280546001600160a01b0319166001600160a01b0392909216919091179055565b6060600080846001600160a01b0316846040516113c49190611869565b600060405180830381855af49150503d80600081146113ff576040519150601f19603f3d011682016040523d82523d6000602084013e611404565b606091505b5091509150611414858383611444565b95945050505050565b3415610a665760405163b398979f60e01b815260040160405180910390fd5b610cf26112e0565b60608261145957611454826114a0565b610a4d565b815115801561147057506001600160a01b0384163b155b1561149957604051639996b31560e01b81526001600160a01b0385166004820152602401610650565b5080610a4d565b8051156114b05780518082602001fd5b60405163d6bda27560e01b815260040160405180910390fd5b6001600160a01b0381168114610d2557600080fd5b600080600080608085870312156114f457600080fd5b84356114ff816114c9565b9350602085013561150f816114c9565b9250604085013591506060850135611526816114c9565b939692955090935050565b60006020828403121561154357600080fd5b8135610a4d816114c9565b60005b83811015611569578181015183820152602001611551565b50506000910152565b602081526000825180602084015261159181604085016020870161154e565b601f01601f19169190910160400192915050565b6000806000606084860312156115ba57600080fd5b83356115c5816114c9565b925060208401356115d5816114c9565b929592945050506040919091013590565b600080604083850312156115f957600080fd5b8235611604816114c9565b946020939093013593505050565b634e487b7160e01b600052604160045260246000fd5b6000806040838503121561163b57600080fd5b8235611646816114c9565b9150602083013567ffffffffffffffff81111561166257600080fd5b8301601f8101851361167357600080fd5b803567ffffffffffffffff81111561168d5761168d611612565b604051601f8201601f19908116603f0116810167ffffffffffffffff811182821017156116bc576116bc611612565b6040528181528282016020018710156116d457600080fd5b816020840160208301376000602083830101528093505050509250929050565b60008060006060848603121561170957600080fd5b8335611714816114c9565b92506020840135611724816114c9565b91506040840135611734816114c9565b809150509250925092565b6000806040838503121561175257600080fd5b823561175d816114c9565b9150602083013561176d816114c9565b809150509250929050565b80820180821115610cc657634e487b7160e01b600052601160045260246000fd5b6020808252601e908201527f6f6e6c7920626f756e6420636f6d706c69616e63652063616e2063616c6c0000604082015260600190565b60208082526021908201527f6f6e6c7920636f6d706c69616e636520636f6e74726163742063616e2063616c6040820152601b60fa1b606082015260800190565b60006020828403121561182357600080fd5b8151610a4d816114c9565b60006020828403121561184057600080fd5b81518015158114610a4d57600080fd5b60006020828403121561186257600080fd5b5051919050565b6000825161187b81846020870161154e565b919091019291505056fe360894a13ba1a3210667c828492db98dca3e2076cc3735a920a3ca505d382bbcf6cc97de1266c180cd39f3b311632644143ce7873d2927755382ad4b39e8ae00a26469706673582212206262ab2363de0f96b212af90216bc51961e87d576f65e1b160df26fd3550af3064736f6c634300081c0033","linkReferences":{}},"methodIdentifiers":{"UPGRADE_INTERFACE_VERSION()":"ad3cb1cc","addExchangeID(address)":"2bb5e721","bindCompliance(address)":"4a932544","canComplianceBind(address)":"bcc21053","getExchangeMonthlyLimit(address,address)":"c5b99969","getMonthlyCounter(address,address,address)":"cafa20d5","getMonthlyTimer(address,address,address)":"616c6589","initialize()":"8129fc1c","isComplianceBound(address)":"4cf4d295","isExchangeID(address)":"d22579fb","isPlugAndPlay()":"e6f5e807","moduleBurnAction(address,uint256)":"372491a2","moduleCheck(address,address,uint256,address)":"013b7ce4","moduleMintAction(address,uint256)":"f104a8c9","moduleTransferAction(address,address,uint256)":"2cb7e1ec","name()":"06fdde03","owner()":"8da5cb5b","proxiableUUID()":"52d1902d","removeExchangeID(address)":"74436d97","renounceOwnership()":"715018a6","setExchangeMonthlyLimit(address,uint256)":"a9336def","transferOwnership(address)":"f2fde38b","unbindCompliance(address)":"0694a5fb","upgradeToAndCall(address,bytes)":"4f1ef286"},"id":36}