{"abi":[{"type":"constructor","inputs":[{"name":"trexFactory","type":"address","internalType":"address"}],"stateMutability":"nonpayable"},{"type":"function","name":"deployIA","inputs":[{"name":"_token","type":"address","internalType":"address"}],"outputs":[{"name":"","type":"address","internalType":"address"}],"stateMutability":"nonpayable"},{"type":"function","name":"deployedByFactory","inputs":[{"name":"_ia","type":"address","internalType":"address"}],"outputs":[{"name":"","type":"bool","internalType":"bool"}],"stateMutability":"view"},{"type":"event","name":"ImplementationAuthorityDeployed","inputs":[{"name":"_ia","type":"address","indexed":true,"internalType":"address"}],"anonymous":false}],"bytecode":{"object":"0x6080604052348015600f57600080fd5b50604051612bb4380380612bb4833981016040819052602c916050565b600080546001600160a01b0319166001600160a01b0392909216919091179055607e565b600060208284031215606157600080fd5b81516001600160a01b0381168114607757600080fd5b9392505050565b612b278061008d6000396000f3fe608060405234801561001057600080fd5b50600436106100365760003560e01c806352f1431b1461003b578063de87aeeb1461006b575b600080fd5b61004e61004936600461051f565b6100a7565b6040516001600160a01b0390911681526020015b60405180910390f35b61009761007936600461051f565b6001600160a01b031660009081526001602052604090205460ff1690565b6040519015158152602001610062565b6000805460408051632d5f118760e01b8152905133926001600160a01b031691632d5f11879160048083019260209291908290030181865afa1580156100f1573d6000803e3d6000fd5b505050506040513d601f19601f820116820180604052508101906101159190610543565b6001600160a01b03161461016f5760405162461bcd60e51b815260206004820152601c60248201527f6f6e6c79207265666572656e63652049412063616e206465706c6f7900000000604482015260640160405180910390fd5b600080336001600160a01b0316632c5d4f8e6040518163ffffffff1660e01b8152600401602060405180830381865afa1580156101b0573d6000803e3d6000fd5b505050506040513d601f19601f820116820180604052508101906101d49190610543565b306040516101e1906104fa565b92151583526001600160a01b039182166020840152166040820152606001604051809103906000f08015801561021b573d6000803e3d6000fd5b509050806001600160a01b0316630f3ca8ca336001600160a01b031663fabec44a6040518163ffffffff1660e01b8152600401606060405180830381865afa15801561026b573d6000803e3d6000fd5b505050506040513d601f19601f8201168201806040525081019061028f9190610576565b604080516001600160e01b031960e085901b168152825160ff908116600483015260208401518116602483015292909101519091166044820152606401600060405180830381600087803b1580156102e657600080fd5b505af11580156102fa573d6000803e3d6000fd5b50505050806001600160a01b031663f38d2491336001600160a01b031663fabec44a6040518163ffffffff1660e01b8152600401606060405180830381865afa15801561034b573d6000803e3d6000fd5b505050506040513d601f19601f8201168201806040525081019061036f9190610576565b604080516001600160e01b031960e085901b168152825160ff908116600483015260208401518116602483015292909101519091166044820152606401600060405180830381600087803b1580156103c657600080fd5b505af11580156103da573d6000803e3d6000fd5b50505050806001600160a01b031663f2fde38b846001600160a01b0316638da5cb5b6040518163ffffffff1660e01b8152600401602060405180830381865afa15801561042b573d6000803e3d6000fd5b505050506040513d601f19601f8201168201806040525081019061044f9190610543565b6040516001600160e01b031960e084901b1681526001600160a01b039091166004820152602401600060405180830381600087803b15801561049057600080fd5b505af11580156104a4573d6000803e3d6000fd5b505050506001600160a01b0381166000818152600160208190526040808320805460ff1916909217909155517f37ea3036943d4133847a61180abdc134103db7e6a69cf0c4e2dbbda8827b0d909190a292915050565b6124ff806105f383390190565b6001600160a01b038116811461051c57600080fd5b50565b60006020828403121561053157600080fd5b813561053c81610507565b9392505050565b60006020828403121561055557600080fd5b815161053c81610507565b805160ff8116811461057157600080fd5b919050565b6000606082840312801561058957600080fd5b506040516060810167ffffffffffffffff811182821017156105bb57634e487b7160e01b600052604160045260246000fd5b6040526105c783610560565b81526105d560208401610560565b60208201526105e660408401610560565b6040820152939250505056fe608060405234801561001057600080fd5b506040516124ff3803806124ff83398101604081905261002f91610191565b338061005557604051631e4fbdf760e01b81526000600482015260240160405180910390fd5b61005e81610125565b50600380546001600160a81b031916841515610100600160a81b03198116919091176101006001600160a01b0386811691820292909217909355600480546001600160a01b0319169185169190911790556040805191825260208201929092527f2a6aba4ff896a38777fb29a590abf5d340a4ba64314bcadf68be9c3ee92b485a910160405180910390a16040516001600160a01b038216907f5fb25b36f93b3d8443f7502abdc1157f581f15db724459ffb2800fce6132a00890600090a25050506101db565b600080546001600160a01b038381166001600160a01b0319831681178455604051919092169283917f8be0079c531659141344cd1fd0a4f28419497f9722a3daafe3b4186f6b6457e09190a35050565b80516001600160a01b038116811461018c57600080fd5b919050565b6000806000606084860312156101a657600080fd5b835180151581146101b657600080fd5b92506101c460208501610175565b91506101d260408501610175565b90509250925092565b612315806101ea6000396000f3fe608060405234801561001057600080fd5b50600436106101375760003560e01c80637f82a5e7116100b8578063cd24be221161007c578063cd24be2214610295578063cf49020e1461029d578063f2fde38b146102b0578063f38d2491146102c3578063fabec44a146102d6578063fedcc0521461035557600080fd5b80637f82a5e7146101e85780638da5cb5b146101fb5780639585548a1461020c5780639e3e7bb91461021f578063afce4bea1461022757600080fd5b80636df23789116100ff5780636df23789146101aa5780636ff6e83f146101bd578063709bc7f3146101c5578063715018a6146101cd57806371673bd0146101d557600080fd5b80630f3ca8ca1461013c5780631320a65a146101515780631ee9ce8b1461016c5780632c5d4f8e1461018c57806361f89825146101a2575b600080fd5b61014f61014a366004611d38565b61035d565b005b60035460ff1660405190151581526020015b60405180910390f35b6101746105e6565b6040516001600160a01b039091168152602001610163565b60035461010090046001600160a01b0316610174565b610174610648565b61014f6101b8366004611d80565b6106aa565b6101746107d4565b610174610836565b61014f610895565b61014f6101e3366004611d9d565b6108a9565b61014f6101f6366004611dde565b6108c0565b6000546001600160a01b0316610174565b61014f61021a366004611d9d565b6114f1565b61017461177d565b61023a610235366004611d38565b6117df565b604051610163919081516001600160a01b03908116825260208084015182169083015260408084015182169083015260608084015182169083015260808084015182169083015260a092830151169181019190915260c00190565b610174611897565b61014f6102ab366004611d80565b611915565b61014f6102be366004611d80565b611a3d565b61014f6102d1366004611d38565b611a7b565b6103296040805160608101825260008082526020820181905291810191909152506040805160608101825260015460ff808216835261010082048116602084015262010000909104169181019190915290565b60408051825160ff90811682526020808501518216908301529282015190921690820152606001610163565b610174611bf1565b60035460ff16156103bf5760405162461bcd60e51b815260206004820152602160248201527f63616e6e6f742063616c6c206f6e207265666572656e636520636f6e747261636044820152601d60fa1b60648201526084015b60405180910390fd5b60006002816103db6103d636869003860186611e5d565b611c53565b81526020810191909152604001600020546001600160a01b0316146104425760405162461bcd60e51b815260206004820152601760248201527f76657273696f6e206665746368656420616c726561647900000000000000000060448201526064016103b6565b61044a611897565b6001600160a01b031663afce4bea826040518263ffffffff1660e01b81526004016104759190611eb3565b60c060405180830381865afa158015610492573d6000803e3d6000fd5b505050506040513d601f19601f820116820180604052508101906104b69190611efb565b600260006104cc6103d636869003860186611e5d565b815260208082019290925260409081016000908120845181546001600160a01b03199081166001600160a01b039283161783559486015160018301805487169183169190911790559285015160028083018054871692861692909217909155606086015160038301805487169186169190911790556080860151600483018054871691861691909117905560a090950151600590910180549094169216919091179091556105826103d636859003850185611e5d565b815260200190815260200160002060405161059d9190611fb6565b6040518091039020816040516105b39190612046565b604051908190038120907f5846080f2085e3dfad8cb250efdba145f8982d2e81ba7f74478da7fab659322b90600090a350565b6040805160608101825260015460ff8082168352610100820481166020840152620100009091041691810191909152600090600290829061062690611c53565b81526020810191909152604001600020600201546001600160a01b0316919050565b6040805160608101825260015460ff8082168352610100820481166020840152620100009091041691810191909152600090600290829061068890611c53565b81526020810191909152604001600020600501546001600160a01b0316919050565b6106b2611ca3565b60035460ff1680156107365750306001600160a01b0316816001600160a01b0316632d5f11876040518163ffffffff1660e01b8152600401602060405180830381865afa158015610707573d6000803e3d6000fd5b505050506040513d601f19601f8201168201806040525081019061072b919061208d565b6001600160a01b0316145b6107825760405162461bcd60e51b815260206004820181905260248201527f6f6e6c79207265666572656e636520636f6e74726163742063616e2063616c6c60448201526064016103b6565b60038054610100600160a81b0319166101006001600160a01b038416908102919091179091556040517ff068c7797c3b666af662a0e2f018804080dc37610a1b82b55006872b06d30ef590600090a250565b6040805160608101825260015460ff8082168352610100820481166020840152620100009091041691810191909152600090600290829061081490611c53565b81526020810191909152604001600020600101546001600160a01b0316919050565b6040805160608101825260015460ff8082168352610100820481166020840152620100009091041691810191909152600090600290829061087690611c53565b81526020810191909152604001600020546001600160a01b0316919050565b61089d611ca3565b6108a76000611cd0565b565b6108b382826114f1565b6108bc82611a7b565b5050565b6001600160a01b0382166109165760405162461bcd60e51b815260206004820152601f60248201527f696e76616c696420617267756d656e74202d207a65726f20616464726573730060448201526064016103b6565b6001600160a01b038116158015610930575060035460ff16155b156109905760405162461bcd60e51b815260206004820152602a60248201527f6f6e6c79207265666572656e636520636f6e74726163742063616e206465706c6044820152696f79206e65772049417360b01b60648201526084016103b6565b6000826001600160a01b031663134e18f46040518163ffffffff1660e01b8152600401602060405180830381865afa1580156109d0573d6000803e3d6000fd5b505050506040513d601f19601f820116820180604052508101906109f4919061208d565b90506000836001600160a01b0316636290865d6040518163ffffffff1660e01b8152600401602060405180830381865afa158015610a36573d6000803e3d6000fd5b505050506040513d601f19601f82011682018060405250810190610a5a919061208d565b90506000826001600160a01b031663f11abfd86040518163ffffffff1660e01b8152600401602060405180830381865afa158015610a9c573d6000803e3d6000fd5b505050506040513d601f19601f82011682018060405250810190610ac0919061208d565b90506000836001600160a01b0316633b3e12f46040518163ffffffff1660e01b8152600401602060405180830381865afa158015610b02573d6000803e3d6000fd5b505050506040513d601f19601f82011682018060405250810190610b26919061208d565b90506000846001600160a01b031663b4f3fcb76040518163ffffffff1660e01b8152600401602060405180830381865afa158015610b68573d6000803e3d6000fd5b505050506040513d601f19601f82011682018060405250810190610b8c919061208d565b9050336001600160a01b0316876001600160a01b0316638da5cb5b6040518163ffffffff1660e01b8152600401602060405180830381865afa158015610bd6573d6000803e3d6000fd5b505050506040513d601f19601f82011682018060405250810190610bfa919061208d565b6001600160a01b0316141580610c835750336001600160a01b0316856001600160a01b0316638da5cb5b6040518163ffffffff1660e01b8152600401602060405180830381865afa158015610c53573d6000803e3d6000fd5b505050506040513d601f19601f82011682018060405250810190610c77919061208d565b6001600160a01b031614155b80610d015750336001600160a01b0316846001600160a01b0316638da5cb5b6040518163ffffffff1660e01b8152600401602060405180830381865afa158015610cd1573d6000803e3d6000fd5b505050506040513d601f19601f82011682018060405250810190610cf5919061208d565b6001600160a01b031614155b80610d7f5750336001600160a01b0316836001600160a01b0316638da5cb5b6040518163ffffffff1660e01b8152600401602060405180830381865afa158015610d4f573d6000803e3d6000fd5b505050506040513d601f19601f82011682018060405250810190610d73919061208d565b6001600160a01b031614155b80610dfd5750336001600160a01b0316826001600160a01b0316638da5cb5b6040518163ffffffff1660e01b8152600401602060405180830381865afa158015610dcd573d6000803e3d6000fd5b505050506040513d601f19601f82011682018060405250810190610df1919061208d565b6001600160a01b031614155b80610e7b5750336001600160a01b0316816001600160a01b0316638da5cb5b6040518163ffffffff1660e01b8152600401602060405180830381865afa158015610e4b573d6000803e3d6000fd5b505050506040513d601f19601f82011682018060405250810190610e6f919061208d565b6001600160a01b031614155b15610edb5760405162461bcd60e51b815260206004820152602a60248201527f63616c6c6572204e4f54206f776e6572206f6620616c6c20636f6e74726163746044820152691cc81a5b5c1858dd195960b21b60648201526084016103b6565b6001600160a01b038616610f6257600480546040516352f1431b60e01b81526001600160a01b038a8116938201939093529116906352f1431b906024016020604051808303816000875af1158015610f37573d6000803e3d6000fd5b505050506040513d601f19601f82011682018060405250810190610f5b919061208d565b955061120b565b6040805160608101825260015460ff8082168352610100820481166020840152620100009091041691810191909152610f9a90611c53565b610fff876001600160a01b031663fabec44a6040518163ffffffff1660e01b8152600401606060405180830381865afa158015610fdb573d6000803e3d6000fd5b505050506040513d601f19601f820116820180604052508101906103d691906120aa565b146110675760405162461bcd60e51b815260206004820152603260248201527f76657273696f6e206f66206e65772049412068617320746f206265207468652060448201527173616d652061732063757272656e7420494160701b60648201526084016103b6565b856001600160a01b0316631320a65a6040518163ffffffff1660e01b8152600401602060405180830381865afa1580156110a5573d6000803e3d6000fd5b505050506040513d601f19601f820116820180604052508101906110c991906120f4565b80156110ee57506110d8611897565b6001600160a01b0316866001600160a01b031614155b1561113b5760405162461bcd60e51b815260206004820181905260248201527f6e6577204941206973204e4f54207265666572656e636520636f6e747261637460448201526064016103b6565b6004805460405163de87aeeb60e01b81526001600160a01b038981169382019390935291169063de87aeeb90602401602060405180830381865afa158015611187573d6000803e3d6000fd5b505050506040513d601f19601f820116820180604052508101906111ab91906120f4565b1580156111d157506111bb611897565b6001600160a01b0316866001600160a01b031614155b1561120b5760405162461bcd60e51b815260206004820152600a602482015269696e76616c696420494160b01b60448201526064016103b6565b6040516392dd9d6560e01b81526001600160a01b0387811660048301528816906392dd9d6590602401600060405180830381600087803b15801561124e57600080fd5b505af1158015611262573d6000803e3d6000fd5b50506040516392dd9d6560e01b81526001600160a01b038981166004830152881692506392dd9d659150602401600060405180830381600087803b1580156112a957600080fd5b505af11580156112bd573d6000803e3d6000fd5b50506040516392dd9d6560e01b81526001600160a01b038981166004830152871692506392dd9d659150602401600060405180830381600087803b15801561130457600080fd5b505af1158015611318573d6000803e3d6000fd5b50506040516392dd9d6560e01b81526001600160a01b038981166004830152851692506392dd9d659150602401600060405180830381600087803b15801561135f57600080fd5b505af1158015611373573d6000803e3d6000fd5b50506040516392dd9d6560e01b81526001600160a01b038981166004830152841692506392dd9d659150602401600060405180830381600087803b1580156113ba57600080fd5b505af11580156113ce573d6000803e3d6000fd5b50505050306001600160a01b0316836001600160a01b0316632d5f11876040518163ffffffff1660e01b8152600401602060405180830381865afa15801561141a573d6000803e3d6000fd5b505050506040513d601f19601f8201168201806040525081019061143e919061208d565b6001600160a01b0316036114a8576040516392dd9d6560e01b81526001600160a01b0387811660048301528416906392dd9d6590602401600060405180830381600087803b15801561148f57600080fd5b505af11580156114a3573d6000803e3d6000fd5b505050505b856001600160a01b0316876001600160a01b03167ff79ab4f8584958d3168dac16d1d96119f728316536f50639339b4202837051c860405160405180910390a350505050505050565b6114f9611ca3565b60035460ff1661155c5760405162461bcd60e51b815260206004820152602860248201527f4f4e4c59207265666572656e636520636f6e74726163742063616e206164642060448201526776657273696f6e7360c01b60648201526084016103b6565b60006002816115736103d636879003870187611e5d565b81526020810191909152604001600020546001600160a01b0316146115d35760405162461bcd60e51b815260206004820152601660248201527576657273696f6e20616c72656164792065786973747360501b60448201526064016103b6565b60006115e56040830160208401611d80565b6001600160a01b031614158015611615575060006116096060830160408401611d80565b6001600160a01b031614155b801561163a5750600061162e6080830160608401611d80565b6001600160a01b031614155b801561165f5750600061165360c0830160a08401611d80565b6001600160a01b031614155b80156116845750600061167860a0830160808401611d80565b6001600160a01b031614155b80156116a65750600061169a6020830183611d80565b6001600160a01b031614155b6116f25760405162461bcd60e51b815260206004820152601f60248201527f696e76616c696420617267756d656e74202d207a65726f20616464726573730060448201526064016103b6565b80600260006117096103d636879003870187611e5d565b815260200190815260200160002081816117239190612136565b50506040516117339082906121dc565b6040518091039020826040516117499190612046565b604051908190038120907faecad55510e8cbc2b82b73c5c6d78c169403cb719460198f517d41cf7700b71b90600090a35050565b6040805160608101825260015460ff808216835261010082048116602084015262010000909104169181019190915260009060029082906117bd90611c53565b81526020810191909152604001600020600301546001600160a01b0316919050565b6040805160c081018252600080825260208201819052918101829052606081018290526080810182905260a0810191909152600260006118276103d636869003860186611e5d565b81526020808201929092526040908101600020815160c08101835281546001600160a01b039081168252600183015481169482019490945260028201548416928101929092526003810154831660608301526004810154831660808301526005015490911660a082015292915050565b6000600360019054906101000a90046001600160a01b03166001600160a01b0316632d5f11876040518163ffffffff1660e01b8152600401602060405180830381865afa1580156118ec573d6000803e3d6000fd5b505050506040513d601f19601f82011682018060405250810190611910919061208d565b905090565b61191d611ca3565b60035460ff1680156119a7575060035460408051632d5f118760e01b81529051309261010090046001600160a01b031691632d5f11879160048083019260209291908290030181865afa158015611978573d6000803e3d6000fd5b505050506040513d601f19601f8201168201806040525081019061199c919061208d565b6001600160a01b0316145b6119f35760405162461bcd60e51b815260206004820181905260248201527f6f6e6c79207265666572656e636520636f6e74726163742063616e2063616c6c60448201526064016103b6565b600480546001600160a01b0319166001600160a01b0383169081179091556040517f5fb25b36f93b3d8443f7502abdc1157f581f15db724459ffb2800fce6132a00890600090a250565b611a45611ca3565b6001600160a01b038116611a6f57604051631e4fbdf760e01b8152600060048201526024016103b6565b611a7881611cd0565b50565b611a83611ca3565b6040805160608101825260015460ff8082168352610100820481166020840152620100009091041691810191909152611abb90611c53565b611acd6103d636849003840184611e5d565b03611b135760405162461bcd60e51b815260206004820152601660248201527576657273696f6e20616c726561647920696e2075736560501b60448201526064016103b6565b6000600281611b2a6103d636869003860186611e5d565b81526020810191909152604001600020546001600160a01b031603611ba15760405162461bcd60e51b815260206004820152602760248201527f696e76616c696420617267756d656e74202d206e6f6e206578697374696e67206044820152663b32b939b4b7b760c91b60648201526084016103b6565b806001611bae8282612272565b5050604051611bbe908290612046565b604051908190038120907f0a46bc1766225d5a82bc50155575dc428902e93470e34ceaf7e0faae128fe0ab90600090a250565b6040805160608101825260015460ff80821683526101008204811660208401526201000090910416918101919091526000906002908290611c3190611c53565b81526020810191909152604001600020600401546001600160a01b0316919050565b805160208083015160409384015184516001600160f81b031960f895861b81168286015292851b83166021820152931b166022830152825180830360030181526023909201909252805191012090565b6000546001600160a01b031633146108a75760405163118cdaa760e01b81523360048201526024016103b6565b600080546001600160a01b038381166001600160a01b0319831681178455604051919092169283917f8be0079c531659141344cd1fd0a4f28419497f9722a3daafe3b4186f6b6457e09190a35050565b600060608284031215611d3257600080fd5b50919050565b600060608284031215611d4a57600080fd5b611d548383611d20565b9392505050565b6001600160a01b0381168114611a7857600080fd5b8035611d7b81611d5b565b919050565b600060208284031215611d9257600080fd5b8135611d5481611d5b565b600080828403610120811215611db257600080fd5b611dbc8585611d20565b925060c0605f1982011215611dd057600080fd5b506060830190509250929050565b60008060408385031215611df157600080fd5b8235611dfc81611d5b565b91506020830135611e0c81611d5b565b809150509250929050565b6040516060810167ffffffffffffffff81118282101715611e4857634e487b7160e01b600052604160045260246000fd5b60405290565b60ff81168114611a7857600080fd5b60006060828403128015611e7057600080fd5b50611e79611e17565b8235611e8481611e4e565b81526020830135611e9481611e4e565b60208201526040830135611ea781611e4e565b60408201529392505050565b606081018235611ec281611e4e565b60ff1682526020830135611ed581611e4e565b60ff1660208301526040830135611eeb81611e4e565b60ff811660408401525092915050565b600060c0828403128015611f0e57600080fd5b5060405160c0810167ffffffffffffffff81118282101715611f4057634e487b7160e01b600052604160045260246000fd5b6040528251611f4e81611d5b565b81526020830151611f5e81611d5b565b60208201526040830151611f7181611d5b565b60408201526060830151611f8481611d5b565b60608201526080830151611f9781611d5b565b608082015260a0830151611faa81611d5b565b60a08201529392505050565b81546001600160a01b03908116825260018301548116602083015260028301548116604083015260038301541660608201818152600484015460009290608085019061203690612023908390612012906001600160a01b031690565b6001600160a01b0316815260200190565b60058801546001600160a01b0316612012565b5050505060c08201905092915050565b6000823561205381611e4e565b60ff168252602083013561206681611e4e565b60ff166020830152604083013561207c81611e4e565b60ff16604083015250606001919050565b60006020828403121561209f57600080fd5b8151611d5481611d5b565b600060608284031280156120bd57600080fd5b506120c6611e17565b82516120d181611e4e565b815260208301516120e181611e4e565b60208201526040830151611ea781611e4e565b60006020828403121561210657600080fd5b81518015158114611d5457600080fd5b80546001600160a01b0319166001600160a01b0392909216919091179055565b813561214181611d5b565b61214b8183612116565b50602082013561215a81611d5b565b6121678160018401612116565b50604082013561217681611d5b565b6121838160028401612116565b50606082013561219281611d5b565b61219f8160038401612116565b5060808201356121ae81611d5b565b6121bb8160048401612116565b5060a08201356121ca81611d5b565b6121d78160058401612116565b505050565b600082356121e981611d5b565b6001600160a01b03168252602083013561220281611d5b565b6001600160a01b03166020830152604083013561221e81611d5b565b6001600160a01b03166040830152606083013561223a81611d5b565b6001600160a01b0381166060840190815260808085019061203690612266908390612012908a01611d70565b61201260a08901611d70565b813561227d81611e4e565b60ff8116905081548160ff198216178355602084013561229c81611e4e565b61ff008160081b169050808361ffff1984161717845560408501356122c081611e4e565b62ff00008160101b168462ffffff19851617831717855550505050505056fea26469706673582212202859e3154573b05d0f0c87a60e7212a702c464a47dcc4a0a45afe7c6b860eac764736f6c634300081c0033a264697066735822122046b496e799a3d43dae2539f120245e788bcf6353db6d041ae2eea3e40562bfa064736f6c634300081c0033","linkReferences":{}},"methodIdentifiers":{"deployIA(address)":"52f1431b","deployedByFactory(address)":"de87aeeb"},"id":57}