{"abi":[{"type":"function","name":"UPGRADE_INTERFACE_VERSION","inputs":[],"outputs":[{"name":"","type":"string","internalType":"string"}],"stateMutability":"view"},{"type":"function","name":"approveTransfer","inputs":[{"name":"_from","type":"address","internalType":"address"},{"name":"_to","type":"address","internalType":"address"},{"name":"_amount","type":"uint256","internalType":"uint256"}],"outputs":[],"stateMutability":"nonpayable"},{"type":"function","name":"batchApproveTransfers","inputs":[{"name":"_from","type":"address[]","internalType":"address[]"},{"name":"_to","type":"address[]","internalType":"address[]"},{"name":"_amount","type":"uint256[]","internalType":"uint256[]"}],"outputs":[],"stateMutability":"nonpayable"},{"type":"function","name":"batchUnApproveTransfers","inputs":[{"name":"_from","type":"address[]","internalType":"address[]"},{"name":"_to","type":"address[]","internalType":"address[]"},{"name":"_amount","type":"uint256[]","internalType":"uint256[]"}],"outputs":[],"stateMutability":"nonpayable"},{"type":"function","name":"bindCompliance","inputs":[{"name":"_compliance","type":"address","internalType":"address"}],"outputs":[],"stateMutability":"nonpayable"},{"type":"function","name":"calculateTransferHash","inputs":[{"name":"_from","type":"address","internalType":"address"},{"name":"_to","type":"address","internalType":"address"},{"name":"_amount","type":"uint256","internalType":"uint256"},{"name":"_token","type":"address","internalType":"address"}],"outputs":[{"name":"","type":"bytes32","internalType":"bytes32"}],"stateMutability":"pure"},{"type":"function","name":"canComplianceBind","inputs":[{"name":"","type":"address","internalType":"address"}],"outputs":[{"name":"","type":"bool","internalType":"bool"}],"stateMutability":"view"},{"type":"function","name":"getTransferApprovals","inputs":[{"name":"_compliance","type":"address","internalType":"address"},{"name":"_transferHash","type":"bytes32","internalType":"bytes32"}],"outputs":[{"name":"","type":"uint256","internalType":"uint256"}],"stateMutability":"view"},{"type":"function","name":"initialize","inputs":[],"outputs":[],"stateMutability":"nonpayable"},{"type":"function","name":"isComplianceBound","inputs":[{"name":"_compliance","type":"address","internalType":"address"}],"outputs":[{"name":"","type":"bool","internalType":"bool"}],"stateMutability":"view"},{"type":"function","name":"isPlugAndPlay","inputs":[],"outputs":[{"name":"","type":"bool","internalType":"bool"}],"stateMutability":"pure"},{"type":"function","name":"isTransferApproved","inputs":[{"name":"_compliance","type":"address","internalType":"address"},{"name":"_transferHash","type":"bytes32","internalType":"bytes32"}],"outputs":[{"name":"","type":"bool","internalType":"bool"}],"stateMutability":"view"},{"type":"function","name":"moduleBurnAction","inputs":[{"name":"_from","type":"address","internalType":"address"},{"name":"_value","type":"uint256","internalType":"uint256"}],"outputs":[],"stateMutability":"nonpayable"},{"type":"function","name":"moduleCheck","inputs":[{"name":"_from","type":"address","internalType":"address"},{"name":"_to","type":"address","internalType":"address"},{"name":"_value","type":"uint256","internalType":"uint256"},{"name":"_compliance","type":"address","internalType":"address"}],"outputs":[{"name":"","type":"bool","internalType":"bool"}],"stateMutability":"view"},{"type":"function","name":"moduleMintAction","inputs":[{"name":"_to","type":"address","internalType":"address"},{"name":"_value","type":"uint256","internalType":"uint256"}],"outputs":[],"stateMutability":"nonpayable"},{"type":"function","name":"moduleTransferAction","inputs":[{"name":"_from","type":"address","internalType":"address"},{"name":"_to","type":"address","internalType":"address"},{"name":"_value","type":"uint256","internalType":"uint256"}],"outputs":[],"stateMutability":"nonpayable"},{"type":"function","name":"name","inputs":[],"outputs":[{"name":"_name","type":"string","internalType":"string"}],"stateMutability":"pure"},{"type":"function","name":"owner","inputs":[],"outputs":[{"name":"","type":"address","internalType":"address"}],"stateMutability":"view"},{"type":"function","name":"proxiableUUID","inputs":[],"outputs":[{"name":"","type":"bytes32","internalType":"bytes32"}],"stateMutability":"view"},{"type":"function","name":"renounceOwnership","inputs":[],"outputs":[],"stateMutability":"nonpayable"},{"type":"function","name":"transferOwnership","inputs":[{"name":"newOwner","type":"address","internalType":"address"}],"outputs":[],"stateMutability":"nonpayable"},{"type":"function","name":"unApproveTransfer","inputs":[{"name":"_from","type":"address","internalType":"address"},{"name":"_to","type":"address","internalType":"address"},{"name":"_amount","type":"uint256","internalType":"uint256"}],"outputs":[],"stateMutability":"nonpayable"},{"type":"function","name":"unbindCompliance","inputs":[{"name":"_compliance","type":"address","internalType":"address"}],"outputs":[],"stateMutability":"nonpayable"},{"type":"function","name":"upgradeToAndCall","inputs":[{"name":"newImplementation","type":"address","internalType":"address"},{"name":"data","type":"bytes","internalType":"bytes"}],"outputs":[],"stateMutability":"payable"},{"type":"event","name":"ApprovalRemoved","inputs":[{"name":"_from","type":"address","indexed":false,"internalType":"address"},{"name":"_to","type":"address","indexed":false,"internalType":"address"},{"name":"_amount","type":"uint256","indexed":false,"internalType":"uint256"},{"name":"_token","type":"address","indexed":false,"internalType":"address"}],"anonymous":false},{"type":"event","name":"ComplianceBound","inputs":[{"name":"_compliance","type":"address","indexed":true,"internalType":"address"}],"anonymous":false},{"type":"event","name":"ComplianceUnbound","inputs":[{"name":"_compliance","type":"address","indexed":true,"internalType":"address"}],"anonymous":false},{"type":"event","name":"Initialized","inputs":[{"name":"version","type":"uint64","indexed":false,"internalType":"uint64"}],"anonymous":false},{"type":"event","name":"OwnershipTransferred","inputs":[{"name":"previousOwner","type":"address","indexed":true,"internalType":"address"},{"name":"newOwner","type":"address","indexed":true,"internalType":"address"}],"anonymous":false},{"type":"event","name":"TransferApproved","inputs":[{"name":"_from","type":"address","indexed":false,"internalType":"address"},{"name":"_to","type":"address","indexed":false,"internalType":"address"},{"name":"_amount","type":"uint256","indexed":false,"internalType":"uint256"},{"name":"_token","type":"address","indexed":false,"internalType":"address"}],"anonymous":false},{"type":"event","name":"Upgraded","inputs":[{"name":"implementation","type":"address","indexed":true,"internalType":"address"}],"anonymous":false},{"type":"error","name":"AddressEmptyCode","inputs":[{"name":"target","type":"address","internalType":"address"}]},{"type":"error","name":"ERC1967InvalidImplementation","inputs":[{"name":"implementation","type":"address","internalType":"address"}]},{"type":"error","name":"ERC1967NonPayable","inputs":[]},{"type":"error","name":"FailedCall","inputs":[]},{"type":"error","name":"InvalidInitialization","inputs":[]},{"type":"error","name":"NotInitializing","inputs":[]},{"type":"error","name":"OwnableInvalidOwner","inputs":[{"name":"owner","type":"address","internalType":"address"}]},{"type":"error","name":"OwnableUnauthorizedAccount","inputs":[{"name":"account","type":"address","internalType":"address"}]},{"type":"error","name":"UUPSUnauthorizedCallContext","inputs":[]},{"type":"error","name":"UUPSUnsupportedProxiableUUID","inputs":[{"name":"slot","type":"bytes32","internalType":"bytes32"}]}],"bytecode":{"object":"0x60a060405230608052348015601357600080fd5b506080516118cb61003d60003960008181610f4301528181610f6c01526110ad01526118cb6000f3fe60806040526004361061014b5760003560e01c80638129fc1c116100b6578063bdf5a4151161006f578063bdf5a4151461045c578063e2cb5c341461049d578063e6f5e807146104bd578063f104a8c9146102ab578063f2fde38b146104d1578063f3850dbf146104f157600080fd5b80638129fc1c1461036e57806382580805146103835780638da5cb5b146103a357806393386519146103ea578063ad3cb1cc1461040a578063bcc210531461043b57600080fd5b8063372491a211610108578063372491a2146102ab5780634a932544146102cb5780634cf4d295146102eb5780634f1ef2861461033157806352d1902d14610344578063715018a61461035957600080fd5b8063013b7ce4146101505780630694a5fb1461018557806306fdde03146101a75780631c7a1793146101f6578063202a6376146102165780632cb7e1ec1461028b575b600080fd5b34801561015c57600080fd5b5061017061016b366004611427565b610511565b60405190151581526020015b60405180910390f35b34801561019157600080fd5b506101a56101a036600461147a565b610592565b005b3480156101b357600080fd5b5060408051808201909152601981527f436f6e646974696f6e616c5472616e736665724d6f64756c650000000000000060208201525b60405161017c91906114bb565b34801561020257600080fd5b506101a56102113660046114ee565b6106b2565b34801561022257600080fd5b5061027d610231366004611427565b604080516001600160a01b0395861660208083019190915294861681830152606081019390935293166080808301919091528351808303909101815260a0909101909252815191012090565b60405190815260200161017c565b34801561029757600080fd5b506101a56102a63660046114ee565b610877565b3480156102b757600080fd5b506101a56102c636600461152f565b610948565b3480156102d757600080fd5b506101a56102e636600461147a565b61098c565b3480156102f757600080fd5b5061017061030636600461147a565b6001600160a01b03166000908152600080516020611876833981519152602052604090205460ff1690565b6101a561033f366004611571565b610acf565b34801561035057600080fd5b5061027d610aee565b34801561036557600080fd5b506101a5610b0b565b34801561037a57600080fd5b506101a5610b1f565b34801561038f57600080fd5b506101a561039e3660046114ee565b610c22565b3480156103af57600080fd5b507f9016d09d72d40fdae2fd8ceac6b6234c7706214fd39c1cd1e609a0528c199300546040516001600160a01b03909116815260200161017c565b3480156103f657600080fd5b5061017061040536600461152f565b610d35565b34801561041657600080fd5b506101e9604051806040016040528060058152602001640352e302e360dc1b81525081565b34801561044757600080fd5b5061017061045636600461147a565b50600190565b34801561046857600080fd5b5061027d61047736600461152f565b6001600160a01b0391909116600090815260208181526040808320938352929052205490565b3480156104a957600080fd5b506101a56104b8366004611689565b610d6e565b3480156104c957600080fd5b506001610170565b3480156104dd57600080fd5b506101a56104ec36600461147a565b610e39565b3480156104fd57600080fd5b506101a561050c366004611689565b610e77565b60008061057c868686866001600160a01b0316636a3edf286040518163ffffffff1660e01b8152600401602060405180830381865afa158015610558573d6000803e3d6000fd5b505050506040513d601f19601f82011682018060405250810190610231919061172f565b90506105888382610d35565b9695505050505050565b336000908152600080516020611876833981519152602081905260409091205460ff166105da5760405162461bcd60e51b81526004016105d19061174c565b60405180910390fd5b6000805160206118768339815191526001600160a01b03831661063f5760405162461bcd60e51b815260206004820152601f60248201527f696e76616c696420617267756d656e74202d207a65726f20616464726573730060448201526064016105d1565b336001600160a01b038416146106675760405162461bcd60e51b81526004016105d190611783565b6001600160a01b038316600081815260208390526040808220805460ff19169055517f408b49d9be1c914c52a0227e18a077e5a892dddf32a26cfa94a5d9708fad77189190a2505050565b336000908152600080516020611876833981519152602081905260409091205460ff166106f15760405162461bcd60e51b81526004016105d19061174c565b6000610737858585336001600160a01b0316636a3edf286040518163ffffffff1660e01b8152600401602060405180830381865afa158015610558573d6000803e3d6000fd5b3360009081526020818152604080832084845290915290205490915061078e5760405162461bcd60e51b815260206004820152600c60248201526b1b9bdd08185c1c1c9bdd995960a21b60448201526064016105d1565b3360009081526020818152604080832084845290915281208054916107b2836117da565b91905055507f611476e33c1d844d9fa71ba7de6e7130e18b22971d28580fd76321e4af696356858585336001600160a01b0316636a3edf286040518163ffffffff1660e01b8152600401602060405180830381865afa158015610819573d6000803e3d6000fd5b505050506040513d601f19601f8201168201806040525081019061083d919061172f565b604080516001600160a01b039586168152938516602085015283019190915290911660608201526080015b60405180910390a15050505050565b336000908152600080516020611876833981519152602081905260409091205460ff166108b65760405162461bcd60e51b81526004016105d19061174c565b60006108fc858585336001600160a01b0316636a3edf286040518163ffffffff1660e01b8152600401602060405180830381865afa158015610558573d6000803e3d6000fd5b3360009081526020818152604080832084845290915290205490915015610941573360009081526020818152604080832084845290915281208054916107b2836117da565b5050505050565b336000908152600080516020611876833981519152602081905260409091205460ff166109875760405162461bcd60e51b81526004016105d19061174c565b505050565b6000805160206118768339815191526001600160a01b0382166109f15760405162461bcd60e51b815260206004820152601f60248201527f696e76616c696420617267756d656e74202d207a65726f20616464726573730060448201526064016105d1565b6001600160a01b03821660009081526020829052604090205460ff1615610a5a5760405162461bcd60e51b815260206004820152601860248201527f636f6d706c69616e636520616c726561647920626f756e64000000000000000060448201526064016105d1565b336001600160a01b03831614610a825760405162461bcd60e51b81526004016105d190611783565b6001600160a01b038216600081815260208390526040808220805460ff19166001179055517f1f7b76c58fb697eb53c6c7c1becb96911516a136e24d7ced386b2355358b75a39190a25050565b610ad7610f38565b610ae082610fdd565b610aea8282610fe5565b5050565b6000610af86110a2565b5060008051602061185683398151915290565b610b136110eb565b610b1d6000611146565b565b7ff0c57e16840df040f15088dc2f81fe391c3923bec73e23a9662efc9c229c6a008054600160401b810460ff16159067ffffffffffffffff16600081158015610b655750825b905060008267ffffffffffffffff166001148015610b825750303b155b905081158015610b90575080155b15610bae5760405163f92ee8a960e01b815260040160405180910390fd5b845467ffffffffffffffff191660011785558315610bd857845460ff60401b1916600160401b1785555b610be06111b7565b831561094157845460ff60401b19168555604051600181527fc7f505b2f371ae2175ee4913f4499e1f2633a7b5936321eed1cdaeb6115181d290602001610868565b336000908152600080516020611876833981519152602081905260409091205460ff16610c615760405162461bcd60e51b81526004016105d19061174c565b6000610ca7858585336001600160a01b0316636a3edf286040518163ffffffff1660e01b8152600401602060405180830381865afa158015610558573d6000803e3d6000fd5b336000908152602081815260408083208484529091528120805492935090610cce836117f1565b91905055507f776c895685d60b5ac3aa2c3381ed2b021825c000fbb0d8ff1359636700aa1651858585336001600160a01b0316636a3edf286040518163ffffffff1660e01b8152600401602060405180830381865afa158015610819573d6000803e3d6000fd5b6001600160a01b03821660009081526020818152604080832084845290915281205415610d6457506001610d68565b5060005b92915050565b336000908152600080516020611876833981519152602081905260409091205460ff16610dad5760405162461bcd60e51b81526004016105d19061174c565b60005b86811015610e2f57610e27888883818110610dcd57610dcd61180a565b9050602002016020810190610de2919061147a565b878784818110610df457610df461180a565b9050602002016020810190610e09919061147a565b868685818110610e1b57610e1b61180a565b905060200201356106b2565b600101610db0565b5050505050505050565b610e416110eb565b6001600160a01b038116610e6b57604051631e4fbdf760e01b8152600060048201526024016105d1565b610e7481611146565b50565b336000908152600080516020611876833981519152602081905260409091205460ff16610eb65760405162461bcd60e51b81526004016105d19061174c565b60005b86811015610e2f57610f30888883818110610ed657610ed661180a565b9050602002016020810190610eeb919061147a565b878784818110610efd57610efd61180a565b9050602002016020810190610f12919061147a565b868685818110610f2457610f2461180a565b90506020020135610c22565b600101610eb9565b306001600160a01b037f0000000000000000000000000000000000000000000000000000000000000000161480610fbf57507f00000000000000000000000000000000000000000000000000000000000000006001600160a01b0316610fb3600080516020611856833981519152546001600160a01b031690565b6001600160a01b031614155b15610b1d5760405163703e46dd60e11b815260040160405180910390fd5b610e746110eb565b816001600160a01b03166352d1902d6040518163ffffffff1660e01b8152600401602060405180830381865afa92505050801561103f575060408051601f3d908101601f1916820190925261103c91810190611820565b60015b61106757604051634c9c8ce360e01b81526001600160a01b03831660048201526024016105d1565b600080516020611856833981519152811461109857604051632a87526960e21b8152600481018290526024016105d1565b61098783836111d0565b306001600160a01b037f00000000000000000000000000000000000000000000000000000000000000001614610b1d5760405163703e46dd60e11b815260040160405180910390fd5b3361111d7f9016d09d72d40fdae2fd8ceac6b6234c7706214fd39c1cd1e609a0528c199300546001600160a01b031690565b6001600160a01b031614610b1d5760405163118cdaa760e01b81523360048201526024016105d1565b7f9016d09d72d40fdae2fd8ceac6b6234c7706214fd39c1cd1e609a0528c19930080546001600160a01b031981166001600160a01b03848116918217845560405192169182907f8be0079c531659141344cd1fd0a4f28419497f9722a3daafe3b4186f6b6457e090600090a3505050565b6111bf611226565b6111c83361126f565b610b1d611280565b6111d982611288565b6040516001600160a01b038316907fbc7cd75a20ee27fd9adebab32041f755214dbc6bffa90cc0225b39da2e5c2d3b90600090a280511561121e5761098782826112ed565b610aea611363565b7ff0c57e16840df040f15088dc2f81fe391c3923bec73e23a9662efc9c229c6a0054600160401b900460ff16610b1d57604051631afcd79f60e31b815260040160405180910390fd5b611277611226565b610e7481611382565b610b1d611226565b806001600160a01b03163b6000036112be57604051634c9c8ce360e01b81526001600160a01b03821660048201526024016105d1565b60008051602061185683398151915280546001600160a01b0319166001600160a01b0392909216919091179055565b6060600080846001600160a01b03168460405161130a9190611839565b600060405180830381855af49150503d8060008114611345576040519150601f19603f3d011682016040523d82523d6000602084013e61134a565b606091505b509150915061135a85838361138a565b95945050505050565b3415610b1d5760405163b398979f60e01b815260040160405180910390fd5b610e41611226565b60608261139f5761139a826113e9565b6113e2565b81511580156113b657506001600160a01b0384163b155b156113df57604051639996b31560e01b81526001600160a01b03851660048201526024016105d1565b50805b9392505050565b8051156113f95780518082602001fd5b60405163d6bda27560e01b815260040160405180910390fd5b6001600160a01b0381168114610e7457600080fd5b6000806000806080858703121561143d57600080fd5b843561144881611412565b9350602085013561145881611412565b925060408501359150606085013561146f81611412565b939692955090935050565b60006020828403121561148c57600080fd5b81356113e281611412565b60005b838110156114b257818101518382015260200161149a565b50506000910152565b60208152600082518060208401526114da816040850160208701611497565b601f01601f19169190910160400192915050565b60008060006060848603121561150357600080fd5b833561150e81611412565b9250602084013561151e81611412565b929592945050506040919091013590565b6000806040838503121561154257600080fd5b823561154d81611412565b946020939093013593505050565b634e487b7160e01b600052604160045260246000fd5b6000806040838503121561158457600080fd5b823561158f81611412565b9150602083013567ffffffffffffffff8111156115ab57600080fd5b8301601f810185136115bc57600080fd5b803567ffffffffffffffff8111156115d6576115d661155b565b604051601f8201601f19908116603f0116810167ffffffffffffffff811182821017156116055761160561155b565b60405281815282820160200187101561161d57600080fd5b816020840160208301376000602083830101528093505050509250929050565b60008083601f84011261164f57600080fd5b50813567ffffffffffffffff81111561166757600080fd5b6020830191508360208260051b850101111561168257600080fd5b9250929050565b600080600080600080606087890312156116a257600080fd5b863567ffffffffffffffff8111156116b957600080fd5b6116c589828a0161163d565b909750955050602087013567ffffffffffffffff8111156116e557600080fd5b6116f189828a0161163d565b909550935050604087013567ffffffffffffffff81111561171157600080fd5b61171d89828a0161163d565b979a9699509497509295939492505050565b60006020828403121561174157600080fd5b81516113e281611412565b6020808252601e908201527f6f6e6c7920626f756e6420636f6d706c69616e63652063616e2063616c6c0000604082015260600190565b60208082526021908201527f6f6e6c7920636f6d706c69616e636520636f6e74726163742063616e2063616c6040820152601b60fa1b606082015260800190565b634e487b7160e01b600052601160045260246000fd5b6000816117e9576117e96117c4565b506000190190565b600060018201611803576118036117c4565b5060010190565b634e487b7160e01b600052603260045260246000fd5b60006020828403121561183257600080fd5b5051919050565b6000825161184b818460208701611497565b919091019291505056fe360894a13ba1a3210667c828492db98dca3e2076cc3735a920a3ca505d382bbcf6cc97de1266c180cd39f3b311632644143ce7873d2927755382ad4b39e8ae00a2646970667358221220c0a7a546dae5bb6b9dc73615b236ded7415aa2409eeea6ad2726063c0773a6c064736f6c634300081c0033","linkReferences":{}},"methodIdentifiers":{"UPGRADE_INTERFACE_VERSION()":"ad3cb1cc","approveTransfer(address,address,uint256)":"82580805","batchApproveTransfers(address[],address[],uint256[])":"f3850dbf","batchUnApproveTransfers(address[],address[],uint256[])":"e2cb5c34","bindCompliance(address)":"4a932544","calculateTransferHash(address,address,uint256,address)":"202a6376","canComplianceBind(address)":"bcc21053","getTransferApprovals(address,bytes32)":"bdf5a415","initialize()":"8129fc1c","isComplianceBound(address)":"4cf4d295","isPlugAndPlay()":"e6f5e807","isTransferApproved(address,bytes32)":"93386519","moduleBurnAction(address,uint256)":"372491a2","moduleCheck(address,address,uint256,address)":"013b7ce4","moduleMintAction(address,uint256)":"f104a8c9","moduleTransferAction(address,address,uint256)":"2cb7e1ec","name()":"06fdde03","owner()":"8da5cb5b","proxiableUUID()":"52d1902d","renounceOwnership()":"715018a6","transferOwnership(address)":"f2fde38b","unApproveTransfer(address,address,uint256)":"1c7a1793","unbindCompliance(address)":"0694a5fb","upgradeToAndCall(address,bytes)":"4f1ef286"},"id":33}