{"abi":[{"type":"function","name":"addAgent","inputs":[{"name":"_agent","type":"address","internalType":"address"}],"outputs":[],"stateMutability":"nonpayable"},{"type":"function","name":"batchRegisterIdentity","inputs":[{"name":"_userAddresses","type":"address[]","internalType":"address[]"},{"name":"_identities","type":"address[]","internalType":"contract IIdentity[]"},{"name":"_countries","type":"uint16[]","internalType":"uint16[]"}],"outputs":[],"stateMutability":"nonpayable"},{"type":"function","name":"contains","inputs":[{"name":"_userAddress","type":"address","internalType":"address"}],"outputs":[{"name":"","type":"bool","internalType":"bool"}],"stateMutability":"view"},{"type":"function","name":"deleteIdentity","inputs":[{"name":"_userAddress","type":"address","internalType":"address"}],"outputs":[],"stateMutability":"nonpayable"},{"type":"function","name":"identity","inputs":[{"name":"_userAddress","type":"address","internalType":"address"}],"outputs":[{"name":"","type":"address","internalType":"contract IIdentity"}],"stateMutability":"view"},{"type":"function","name":"identityStorage","inputs":[],"outputs":[{"name":"","type":"address","internalType":"contract IIdentityRegistryStorage"}],"stateMutability":"view"},{"type":"function","name":"init","inputs":[{"name":"_trustedIssuersRegistry","type":"address","internalType":"address"},{"name":"_claimTopicsRegistry","type":"address","internalType":"address"},{"name":"_identityStorage","type":"address","internalType":"address"}],"outputs":[],"stateMutability":"nonpayable"},{"type":"function","name":"investorCountry","inputs":[{"name":"_userAddress","type":"address","internalType":"address"}],"outputs":[{"name":"","type":"uint16","internalType":"uint16"}],"stateMutability":"view"},{"type":"function","name":"isAgent","inputs":[{"name":"_agent","type":"address","internalType":"address"}],"outputs":[{"name":"","type":"bool","internalType":"bool"}],"stateMutability":"view"},{"type":"function","name":"isVerified","inputs":[{"name":"_userAddress","type":"address","internalType":"address"}],"outputs":[{"name":"","type":"bool","internalType":"bool"}],"stateMutability":"view"},{"type":"function","name":"issuersRegistry","inputs":[],"outputs":[{"name":"","type":"address","internalType":"contract ITrustedIssuersRegistry"}],"stateMutability":"view"},{"type":"function","name":"owner","inputs":[],"outputs":[{"name":"","type":"address","internalType":"address"}],"stateMutability":"view"},{"type":"function","name":"registerIdentity","inputs":[{"name":"_userAddress","type":"address","internalType":"address"},{"name":"_identity","type":"address","internalType":"contract IIdentity"},{"name":"_country","type":"uint16","internalType":"uint16"}],"outputs":[],"stateMutability":"nonpayable"},{"type":"function","name":"removeAgent","inputs":[{"name":"_agent","type":"address","internalType":"address"}],"outputs":[],"stateMutability":"nonpayable"},{"type":"function","name":"renounceOwnership","inputs":[],"outputs":[],"stateMutability":"nonpayable"},{"type":"function","name":"setClaimTopicsRegistry","inputs":[{"name":"_claimTopicsRegistry","type":"address","internalType":"address"}],"outputs":[],"stateMutability":"nonpayable"},{"type":"function","name":"setIdentityRegistryStorage","inputs":[{"name":"_identityRegistryStorage","type":"address","internalType":"address"}],"outputs":[],"stateMutability":"nonpayable"},{"type":"function","name":"setTrustedIssuersRegistry","inputs":[{"name":"_trustedIssuersRegistry","type":"address","internalType":"address"}],"outputs":[],"stateMutability":"nonpayable"},{"type":"function","name":"topicsRegistry","inputs":[],"outputs":[{"name":"","type":"address","internalType":"contract IClaimTopicsRegistry"}],"stateMutability":"view"},{"type":"function","name":"transferOwnership","inputs":[{"name":"newOwner","type":"address","internalType":"address"}],"outputs":[],"stateMutability":"nonpayable"},{"type":"function","name":"updateCountry","inputs":[{"name":"_userAddress","type":"address","internalType":"address"},{"name":"_country","type":"uint16","internalType":"uint16"}],"outputs":[],"stateMutability":"nonpayable"},{"type":"function","name":"updateIdentity","inputs":[{"name":"_userAddress","type":"address","internalType":"address"},{"name":"_identity","type":"address","internalType":"contract IIdentity"}],"outputs":[],"stateMutability":"nonpayable"},{"type":"event","name":"AgentAdded","inputs":[{"name":"_agent","type":"address","indexed":true,"internalType":"address"}],"anonymous":false},{"type":"event","name":"AgentRemoved","inputs":[{"name":"_agent","type":"address","indexed":true,"internalType":"address"}],"anonymous":false},{"type":"event","name":"ClaimTopicsRegistrySet","inputs":[{"name":"claimTopicsRegistry","type":"address","indexed":true,"internalType":"address"}],"anonymous":false},{"type":"event","name":"CountryUpdated","inputs":[{"name":"investorAddress","type":"address","indexed":true,"internalType":"address"},{"name":"country","type":"uint16","indexed":true,"internalType":"uint16"}],"anonymous":false},{"type":"event","name":"IdentityRegistered","inputs":[{"name":"investorAddress","type":"address","indexed":true,"internalType":"address"},{"name":"identity","type":"address","indexed":true,"internalType":"contract IIdentity"}],"anonymous":false},{"type":"event","name":"IdentityRemoved","inputs":[{"name":"investorAddress","type":"address","indexed":true,"internalType":"address"},{"name":"identity","type":"address","indexed":true,"internalType":"contract IIdentity"}],"anonymous":false},{"type":"event","name":"IdentityStorageSet","inputs":[{"name":"identityStorage","type":"address","indexed":true,"internalType":"address"}],"anonymous":false},{"type":"event","name":"IdentityUpdated","inputs":[{"name":"oldIdentity","type":"address","indexed":true,"internalType":"contract IIdentity"},{"name":"newIdentity","type":"address","indexed":true,"internalType":"contract IIdentity"}],"anonymous":false},{"type":"event","name":"Initialized","inputs":[{"name":"version","type":"uint64","indexed":false,"internalType":"uint64"}],"anonymous":false},{"type":"event","name":"OwnershipTransferred","inputs":[{"name":"previousOwner","type":"address","indexed":true,"internalType":"address"},{"name":"newOwner","type":"address","indexed":true,"internalType":"address"}],"anonymous":false},{"type":"event","name":"TrustedIssuersRegistrySet","inputs":[{"name":"trustedIssuersRegistry","type":"address","indexed":true,"internalType":"address"}],"anonymous":false},{"type":"error","name":"InvalidInitialization","inputs":[]},{"type":"error","name":"NotInitializing","inputs":[]},{"type":"error","name":"OwnableInvalidOwner","inputs":[{"name":"owner","type":"address","internalType":"address"}]},{"type":"error","name":"OwnableUnauthorizedAccount","inputs":[{"name":"account","type":"address","internalType":"address"}]}],"bytecode":{"object":"0x6080604052348015600f57600080fd5b50611ac08061001f6000396000f3fe608060405234801561001057600080fd5b50600436106101425760003560e01c806384e79842116100b8578063b4f3fcb71161007c578063b4f3fcb7146102c5578063b9209e33146102d6578063e744d789146102e9578063f0eb5e54146102fc578063f11abfd81461030f578063f2fde38b1461032057600080fd5b806384e79842146102495780638da5cb5b1461025c5780638e098ca11461028c57806397a6278e1461029f578063a8d29d1d146102b257600080fd5b8063454a03e01161010a578063454a03e0146101cf5780635dbe47e8146101e2578063653dc9f1146101f5578063670af6a914610208578063715018a61461021b5780637e42683b1461022357600080fd5b8063184b9559146101475780631ffbb0641461015c57806326d941ae146101845780633b239a7f146101975780633b3e12f4146101aa575b600080fd5b61015a6101553660046113b7565b610333565b005b61016f61016a366004611402565b610568565b60405190151581526020015b60405180910390f35b61015a610192366004611402565b61057a565b61015a6101a5366004611436565b6105cc565b6001546001600160a01b03165b6040516001600160a01b03909116815260200161017b565b61015a6101dd36600461146f565b610698565b61016f6101f0366004611402565b61076b565b61015a6102033660046114fa565b610795565b61015a610216366004611402565b610829565b61015a61087b565b610236610231366004611402565b61088f565b60405161ffff909116815260200161017b565b61015a610257366004611402565b6108fe565b7f9016d09d72d40fdae2fd8ceac6b6234c7706214fd39c1cd1e609a0528c199300546001600160a01b03166101b7565b61015a61029a36600461159d565b61096e565b61015a6102ad366004611402565b610a44565b61015a6102c0366004611402565b610ab4565b6002546001600160a01b03166101b7565b61016f6102e4366004611402565b610b81565b61015a6102f7366004611402565b610ff4565b6101b761030a366004611402565b611046565b6003546001600160a01b03166101b7565b61015a61032e366004611402565b6110b5565b7ff0c57e16840df040f15088dc2f81fe391c3923bec73e23a9662efc9c229c6a008054600160401b810460ff1615906001600160401b03166000811580156103785750825b90506000826001600160401b031660011480156103945750303b155b9050811580156103a2575080155b156103c05760405163f92ee8a960e01b815260040160405180910390fd5b845467ffffffffffffffff1916600117855583156103ea57845460ff60401b1916600160401b1785555b6001600160a01b0388161580159061040a57506001600160a01b03871615155b801561041e57506001600160a01b03861615155b6104435760405162461bcd60e51b815260040161043a906115cb565b60405180910390fd5b600180546001600160a01b03808a166001600160a01b03199283168117909355600280548c831690841617905560038054918a16919092161790556040517f7170bf15b246e880b2369cd7c67d057760d8a35149e8c64dde91efa22bcc76d090600090a26040516001600160a01b038916907f1b98cb79e6f73020175fe87333f1b91ad6a881519c0afe30340c2599b2b4bde090600090a26040516001600160a01b038716907f2fa8b95c1db7afe99e3398f3792f008135cedc1fa26b0bb2ecd2352cd166d53c90600090a2610518336110f3565b831561055e57845460ff60401b19168555604051600181527fc7f505b2f371ae2175ee4913f4499e1f2633a7b5936321eed1cdaeb6115181d29060200160405180910390a15b5050505050505050565b60006105748183611104565b92915050565b610582611187565b600380546001600160a01b0319166001600160a01b0383169081179091556040517f2fa8b95c1db7afe99e3398f3792f008135cedc1fa26b0bb2ecd2352cd166d53c90600090a250565b6105d533610568565b6105f15760405162461bcd60e51b815260040161043a90611602565b600354604051639f3418d560e01b81526001600160a01b03848116600483015261ffff8416602483015290911690639f3418d590604401600060405180830381600087803b15801561064257600080fd5b505af1158015610656573d6000803e3d6000fd5b505060405161ffff841692506001600160a01b03851691507f04ed3b726495c2dca1ff1215d9ca54e1a4030abb5e82b0f6ce55702416cee85390600090a35050565b6106a133610568565b6106bd5760405162461bcd60e51b815260040161043a90611602565b60035460405163a53410dd60e01b81526001600160a01b038581166004830152848116602483015261ffff841660448301529091169063a53410dd90606401600060405180830381600087803b15801561071657600080fd5b505af115801561072a573d6000803e3d6000fd5b50506040516001600160a01b038086169350861691507f6ae73635c50d24a45af6fbd5e016ac4bed179addbc8bf24e04ff0fcc6d33af1990600090a3505050565b60008061077783611046565b6001600160a01b03160361078d57506000919050565b506001919050565b60005b85811015610820576108188787838181106107b5576107b5611650565b90506020020160208101906107ca9190611402565b8686848181106107dc576107dc611650565b90506020020160208101906107f19190611402565b85858581811061080357610803611650565b90506020020160208101906101dd9190611666565b600101610798565b50505050505050565b610831611187565b600180546001600160a01b0319166001600160a01b0383169081179091556040517f7170bf15b246e880b2369cd7c67d057760d8a35149e8c64dde91efa22bcc76d090600090a250565b610883611187565b61088d60006111e2565b565b600354604051631c9f84ef60e21b81526001600160a01b038381166004830152600092169063727e13bc90602401602060405180830381865afa1580156108da573d6000803e3d6000fd5b505050506040513d601f19601f820116820180604052508101906105749190611683565b610906611187565b6001600160a01b03811661092c5760405162461bcd60e51b815260040161043a906115cb565b610937600082611253565b6040516001600160a01b038216907ff68e73cec97f2d70aa641fb26e87a4383686e2efacb648f2165aeb02ac562ec590600090a250565b61097733610568565b6109935760405162461bcd60e51b815260040161043a90611602565b600061099e83611046565b600354604051637402e7c360e11b81526001600160a01b038681166004830152858116602483015292935091169063e805cf8690604401600060405180830381600087803b1580156109ef57600080fd5b505af1158015610a03573d6000803e3d6000fd5b50506040516001600160a01b038086169350841691507fe98082932c8056a0f514da9104e4a66bc2cbaef102ad59d90c4b24220ebf601090600090a3505050565b610a4c611187565b6001600160a01b038116610a725760405162461bcd60e51b815260040161043a906115cb565b610a7d6000826112cf565b6040516001600160a01b038216907fed9c8ad8d5a0a66898ea49d2956929c93ae2e8bd50281b2ed897c5d1a6737e0b90600090a250565b610abd33610568565b610ad95760405162461bcd60e51b815260040161043a90611602565b6000610ae482611046565b60035460405163cf191bcd60e01b81526001600160a01b03858116600483015292935091169063cf191bcd90602401600060405180830381600087803b158015610b2d57600080fd5b505af1158015610b41573d6000803e3d6000fd5b50506040516001600160a01b038085169350851691507f59d6590e225b81befe259af056324092801080acbb7feab310eb34678871f32790600090a35050565b600080610b8d83611046565b6001600160a01b031603610ba357506000919050565b600154604080516337c2758160e21b815290516000926001600160a01b03169163df09d60491600480830192869291908290030181865afa158015610bec573d6000803e3d6000fd5b505050506040513d6000823e601f3d908101601f19168201604052610c149190810190611709565b90508051600003610c285750600192915050565b600080600060608060005b8651811015610fe55760025487516000916001600160a01b0316906352c111d1908a9085908110610c6657610c66611650565b60200260200101516040518263ffffffff1660e01b8152600401610c8c91815260200190565b600060405180830381865afa158015610ca9573d6000803e3d6000fd5b505050506040513d6000823e601f3d908101601f19168201604052610cd191908101906117a3565b90508051600003610cec575060009998505050505050505050565b600081516001600160401b03811115610d0757610d076116a0565b604051908082528060200260200182016040528015610d30578160200160208202803683370190505b50905060005b8251811015610dd357828181518110610d5157610d51611650565b60200260200101518a8581518110610d6b57610d6b611650565b6020026020010151604051602001610d989291906001600160a01b03929092168252602082015260400190565b60405160208183030381529060405280519060200120828281518110610dc057610dc0611650565b6020908102919091010152600101610d36565b5060005b8151811015610fda57610de98c611046565b6001600160a01b031663c9100bcb838381518110610e0957610e09611650565b60200260200101516040518263ffffffff1660e01b8152600401610e2f91815260200190565b600060405180830381865afa158015610e4c573d6000803e3d6000fd5b505050506040513d6000823e601f3d908101601f19168201604052610e7491908101906118cd565b508e51949d50929b50909950975095508a9085908110610e9657610e96611650565b60200260200101518903610fa257866001600160a01b031663c0969a6e610ebc8e611046565b8c8781518110610ece57610ece611650565b602002602001015189896040518563ffffffff1660e01b8152600401610ef794939291906119c5565b602060405180830381865afa925050508015610f30575060408051601f3d908101601f19168201909252610f2d91810190611a09565b60015b610f5f5760018251610f429190611a41565b8103610f5a575060009b9a5050505050505050505050565b610fc8565b8015610f6a57825191505b80158015610f84575060018351610f819190611a41565b82145b15610f9c575060009c9b505050505050505050505050565b50610fc8565b60018251610fb09190611a41565b8103610fc8575060009b9a5050505050505050505050565b80610fd281611a54565b915050610dd7565b505050600101610c33565b50600198975050505050505050565b610ffc611187565b600280546001600160a01b0319166001600160a01b0383169081179091556040517f1b98cb79e6f73020175fe87333f1b91ad6a881519c0afe30340c2599b2b4bde090600090a250565b600354604051637988d3a560e01b81526001600160a01b0383811660048301526000921690637988d3a590602401602060405180830381865afa158015611091573d6000803e3d6000fd5b505050506040513d601f19601f820116820180604052508101906105749190611a6d565b6110bd611187565b6001600160a01b0381166110e757604051631e4fbdf760e01b81526000600482015260240161043a565b6110f0816111e2565b50565b6110fb611351565b6110f08161139a565b60006001600160a01b0382166111675760405162461bcd60e51b815260206004820152602260248201527f526f6c65733a206163636f756e7420697320746865207a65726f206164647265604482015261737360f01b606482015260840161043a565b506001600160a01b03166000908152602091909152604090205460ff1690565b336111b97f9016d09d72d40fdae2fd8ceac6b6234c7706214fd39c1cd1e609a0528c199300546001600160a01b031690565b6001600160a01b03161461088d5760405163118cdaa760e01b815233600482015260240161043a565b7f9016d09d72d40fdae2fd8ceac6b6234c7706214fd39c1cd1e609a0528c19930080546001600160a01b031981166001600160a01b03848116918217845560405192169182907f8be0079c531659141344cd1fd0a4f28419497f9722a3daafe3b4186f6b6457e090600090a3505050565b61125d8282611104565b156112aa5760405162461bcd60e51b815260206004820152601f60248201527f526f6c65733a206163636f756e7420616c72656164792068617320726f6c6500604482015260640161043a565b6001600160a01b0316600090815260209190915260409020805460ff19166001179055565b6112d98282611104565b61132f5760405162461bcd60e51b815260206004820152602160248201527f526f6c65733a206163636f756e7420646f6573206e6f74206861766520726f6c6044820152606560f81b606482015260840161043a565b6001600160a01b0316600090815260209190915260409020805460ff19169055565b7ff0c57e16840df040f15088dc2f81fe391c3923bec73e23a9662efc9c229c6a0054600160401b900460ff1661088d57604051631afcd79f60e31b815260040160405180910390fd5b6110bd611351565b6001600160a01b03811681146110f057600080fd5b6000806000606084860312156113cc57600080fd5b83356113d7816113a2565b925060208401356113e7816113a2565b915060408401356113f7816113a2565b809150509250925092565b60006020828403121561141457600080fd5b813561141f816113a2565b9392505050565b61ffff811681146110f057600080fd5b6000806040838503121561144957600080fd5b8235611454816113a2565b9150602083013561146481611426565b809150509250929050565b60008060006060848603121561148457600080fd5b833561148f816113a2565b9250602084013561149f816113a2565b915060408401356113f781611426565b60008083601f8401126114c157600080fd5b5081356001600160401b038111156114d857600080fd5b6020830191508360208260051b85010111156114f357600080fd5b9250929050565b6000806000806000806060878903121561151357600080fd5b86356001600160401b0381111561152957600080fd5b61153589828a016114af565b90975095505060208701356001600160401b0381111561155457600080fd5b61156089828a016114af565b90955093505060408701356001600160401b0381111561157f57600080fd5b61158b89828a016114af565b979a9699509497509295939492505050565b600080604083850312156115b057600080fd5b82356115bb816113a2565b91506020830135611464816113a2565b6020808252601f908201527f696e76616c696420617267756d656e74202d207a65726f206164647265737300604082015260600190565b6020808252602e908201527f4167656e74526f6c653a2063616c6c657220646f6573206e6f7420686176652060408201526d746865204167656e7420726f6c6560901b606082015260800190565b634e487b7160e01b600052603260045260246000fd5b60006020828403121561167857600080fd5b813561141f81611426565b60006020828403121561169557600080fd5b815161141f81611426565b634e487b7160e01b600052604160045260246000fd5b604051601f8201601f191681016001600160401b03811182821017156116de576116de6116a0565b604052919050565b60006001600160401b038211156116ff576116ff6116a0565b5060051b60200190565b60006020828403121561171b57600080fd5b81516001600160401b0381111561173157600080fd5b8201601f8101841361174257600080fd5b8051611755611750826116e6565b6116b6565b8082825260208201915060208360051b85010192508683111561177757600080fd5b6020840193505b8284101561179957835182526020938401939091019061177e565b9695505050505050565b6000602082840312156117b557600080fd5b81516001600160401b038111156117cb57600080fd5b8201601f810184136117dc57600080fd5b80516117ea611750826116e6565b8082825260208201915060208360051b85010192508683111561180c57600080fd5b6020840193505b82841015611799578351611826816113a2565b825260209384019390910190611813565b60005b8381101561185257818101518382015260200161183a565b50506000910152565b6000806001600160401b03841115611875576118756116a0565b50601f8301601f191660200161188a816116b6565b91505082815283838301111561189f57600080fd5b61141f836020830184611837565b600082601f8301126118be57600080fd5b61141f8383516020850161185b565b60008060008060008060c087890312156118e657600080fd5b8651602088015160408901519197509550611900816113a2565b60608801519094506001600160401b0381111561191c57600080fd5b61192889828a016118ad565b93505060808701516001600160401b0381111561194457600080fd5b61195089828a016118ad565b92505060a08701516001600160401b0381111561196c57600080fd5b8701601f8101891361197d57600080fd5b61198c8982516020840161185b565b9150509295509295509295565b600081518084526119b1816020860160208601611837565b601f01601f19169290920160200192915050565b60018060a01b03851681528360208201526080604082015260006119ec6080830185611999565b82810360608401526119fe8185611999565b979650505050505050565b600060208284031215611a1b57600080fd5b8151801515811461141f57600080fd5b634e487b7160e01b600052601160045260246000fd5b8181038181111561057457610574611a2b565b600060018201611a6657611a66611a2b565b5060010190565b600060208284031215611a7f57600080fd5b815161141f816113a256fea2646970667358221220eff92a836dca4b3e72c568fb84d790a6f519ec6963571402a2284ca45ab1841c64736f6c634300081c0033","linkReferences":{}},"methodIdentifiers":{"addAgent(address)":"84e79842","batchRegisterIdentity(address[],address[],uint16[])":"653dc9f1","contains(address)":"5dbe47e8","deleteIdentity(address)":"a8d29d1d","identity(address)":"f0eb5e54","identityStorage()":"f11abfd8","init(address,address,address)":"184b9559","investorCountry(address)":"7e42683b","isAgent(address)":"1ffbb064","isVerified(address)":"b9209e33","issuersRegistry()":"b4f3fcb7","owner()":"8da5cb5b","registerIdentity(address,address,uint16)":"454a03e0","removeAgent(address)":"97a6278e","renounceOwnership()":"715018a6","setClaimTopicsRegistry(address)":"670af6a9","setIdentityRegistryStorage(address)":"26d941ae","setTrustedIssuersRegistry(address)":"e744d789","topicsRegistry()":"3b3e12f4","transferOwnership(address)":"f2fde38b","updateCountry(address,uint16)":"3b239a7f","updateIdentity(address,address)":"8e098ca1"},"id":63}