{"abi":[{"type":"constructor","inputs":[],"stateMutability":"nonpayable"},{"type":"function","name":"approveTransfer","inputs":[{"name":"transferID","type":"bytes32","internalType":"bytes32"}],"outputs":[],"stateMutability":"nonpayable"},{"type":"function","name":"calculateTransferID","inputs":[{"name":"_nonce","type":"uint256","internalType":"uint256"},{"name":"_sender","type":"address","internalType":"address"},{"name":"_recipient","type":"address","internalType":"address"},{"name":"_amount","type":"uint256","internalType":"uint256"}],"outputs":[{"name":"","type":"bytes32","internalType":"bytes32"}],"stateMutability":"pure"},{"type":"function","name":"cancelTransfer","inputs":[{"name":"transferID","type":"bytes32","internalType":"bytes32"}],"outputs":[],"stateMutability":"nonpayable"},{"type":"function","name":"delegateApproveTransfer","inputs":[{"name":"transferID","type":"bytes32","internalType":"bytes32"},{"name":"signatures","type":"tuple[]","internalType":"struct IDVATransferManager.Signature[]","components":[{"name":"v","type":"uint8","internalType":"uint8"},{"name":"r","type":"bytes32","internalType":"bytes32"},{"name":"s","type":"bytes32","internalType":"bytes32"}]}],"outputs":[],"stateMutability":"nonpayable"},{"type":"function","name":"getApprovalCriteria","inputs":[{"name":"tokenAddress","type":"address","internalType":"address"}],"outputs":[{"name":"","type":"tuple","internalType":"struct IDVATransferManager.ApprovalCriteria","components":[{"name":"includeRecipientApprover","type":"bool","internalType":"bool"},{"name":"includeAgentApprover","type":"bool","internalType":"bool"},{"name":"sequentialApproval","type":"bool","internalType":"bool"},{"name":"additionalApprovers","type":"address[]","internalType":"address[]"},{"name":"hash","type":"bytes32","internalType":"bytes32"}]}],"stateMutability":"view"},{"type":"function","name":"getNextApprover","inputs":[{"name":"transferID","type":"bytes32","internalType":"bytes32"}],"outputs":[{"name":"nextApprover","type":"address","internalType":"address"},{"name":"anyTokenAgent","type":"bool","internalType":"bool"}],"stateMutability":"view"},{"type":"function","name":"getNextTxNonce","inputs":[],"outputs":[{"name":"","type":"uint256","internalType":"uint256"}],"stateMutability":"view"},{"type":"function","name":"getTransfer","inputs":[{"name":"transferID","type":"bytes32","internalType":"bytes32"}],"outputs":[{"name":"","type":"tuple","internalType":"struct IDVATransferManager.Transfer","components":[{"name":"tokenAddress","type":"address","internalType":"address"},{"name":"sender","type":"address","internalType":"address"},{"name":"recipient","type":"address","internalType":"address"},{"name":"amount","type":"uint256","internalType":"uint256"},{"name":"status","type":"uint8","internalType":"enum IDVATransferManager.TransferStatus"},{"name":"approvers","type":"tuple[]","internalType":"struct IDVATransferManager.Approver[]","components":[{"name":"wallet","type":"address","internalType":"address"},{"name":"anyTokenAgent","type":"bool","internalType":"bool"},{"name":"approved","type":"bool","internalType":"bool"}]},{"name":"approvalCriteriaHash","type":"bytes32","internalType":"bytes32"}]}],"stateMutability":"view"},{"type":"function","name":"initiateTransfer","inputs":[{"name":"tokenAddress","type":"address","internalType":"address"},{"name":"recipient","type":"address","internalType":"address"},{"name":"amount","type":"uint256","internalType":"uint256"}],"outputs":[],"stateMutability":"nonpayable"},{"type":"function","name":"name","inputs":[],"outputs":[{"name":"_name","type":"string","internalType":"string"}],"stateMutability":"pure"},{"type":"function","name":"rejectTransfer","inputs":[{"name":"transferID","type":"bytes32","internalType":"bytes32"}],"outputs":[],"stateMutability":"nonpayable"},{"type":"function","name":"setApprovalCriteria","inputs":[{"name":"tokenAddress","type":"address","internalType":"address"},{"name":"includeRecipientApprover","type":"bool","internalType":"bool"},{"name":"includeAgentApprover","type":"bool","internalType":"bool"},{"name":"sequentialApproval","type":"bool","internalType":"bool"},{"name":"additionalApprovers","type":"address[]","internalType":"address[]"}],"outputs":[],"stateMutability":"nonpayable"},{"type":"event","name":"ApprovalCriteriaSet","inputs":[{"name":"tokenAddress","type":"address","indexed":false,"internalType":"address"},{"name":"includeRecipientApprover","type":"bool","indexed":false,"internalType":"bool"},{"name":"includeAgentApprover","type":"bool","indexed":false,"internalType":"bool"},{"name":"sequentialApproval","type":"bool","indexed":false,"internalType":"bool"},{"name":"additionalApprovers","type":"address[]","indexed":false,"internalType":"address[]"},{"name":"hash","type":"bytes32","indexed":false,"internalType":"bytes32"}],"anonymous":false},{"type":"event","name":"TransferApprovalStateReset","inputs":[{"name":"transferID","type":"bytes32","indexed":false,"internalType":"bytes32"},{"name":"approvalCriteriaHash","type":"bytes32","indexed":false,"internalType":"bytes32"}],"anonymous":false},{"type":"event","name":"TransferApproved","inputs":[{"name":"transferID","type":"bytes32","indexed":false,"internalType":"bytes32"},{"name":"approver","type":"address","indexed":false,"internalType":"address"}],"anonymous":false},{"type":"event","name":"TransferCancelled","inputs":[{"name":"transferID","type":"bytes32","indexed":false,"internalType":"bytes32"}],"anonymous":false},{"type":"event","name":"TransferCompleted","inputs":[{"name":"transferID","type":"bytes32","indexed":false,"internalType":"bytes32"},{"name":"tokenAddress","type":"address","indexed":false,"internalType":"address"},{"name":"sender","type":"address","indexed":false,"internalType":"address"},{"name":"recipient","type":"address","indexed":false,"internalType":"address"},{"name":"amount","type":"uint256","indexed":false,"internalType":"uint256"}],"anonymous":false},{"type":"event","name":"TransferInitiated","inputs":[{"name":"transferID","type":"bytes32","indexed":false,"internalType":"bytes32"},{"name":"tokenAddress","type":"address","indexed":false,"internalType":"address"},{"name":"sender","type":"address","indexed":false,"internalType":"address"},{"name":"recipient","type":"address","indexed":false,"internalType":"address"},{"name":"amount","type":"uint256","indexed":false,"internalType":"uint256"},{"name":"approvalCriteriaHash","type":"bytes32","indexed":false,"internalType":"bytes32"}],"anonymous":false},{"type":"event","name":"TransferRejected","inputs":[{"name":"transferID","type":"bytes32","indexed":false,"internalType":"bytes32"},{"name":"rejectedBy","type":"address","indexed":false,"internalType":"address"}],"anonymous":false},{"type":"error","name":"ApprovalsMustBeSequential","inputs":[{"name":"_transferID","type":"bytes32","internalType":"bytes32"}]},{"type":"error","name":"ApproverNotFound","inputs":[{"name":"_transferID","type":"bytes32","internalType":"bytes32"},{"name":"_approver","type":"address","internalType":"address"}]},{"type":"error","name":"DVAManagerIsNotVerifiedForTheToken","inputs":[{"name":"_tokenAddress","type":"address","internalType":"address"}]},{"type":"error","name":"InvalidTransferID","inputs":[{"name":"_transferID","type":"bytes32","internalType":"bytes32"}]},{"type":"error","name":"OnlyTokenAgentCanCall","inputs":[{"name":"_tokenAddress","type":"address","internalType":"address"}]},{"type":"error","name":"OnlyTransferSenderCanCall","inputs":[{"name":"_transferID","type":"bytes32","internalType":"bytes32"}]},{"type":"error","name":"RecipientIsNotVerified","inputs":[{"name":"_tokenAddress","type":"address","internalType":"address"},{"name":"_recipient","type":"address","internalType":"address"}]},{"type":"error","name":"SignaturesCanNotBeEmpty","inputs":[{"name":"_transferID","type":"bytes32","internalType":"bytes32"}]},{"type":"error","name":"TokenIsNotRegistered","inputs":[{"name":"_tokenAddress","type":"address","internalType":"address"}]},{"type":"error","name":"TransferIsNotInPendingStatus","inputs":[{"name":"_transferID","type":"bytes32","internalType":"bytes32"}]}],"bytecode":{"object":"0x6080604052348015600f57600080fd5b5060006002556123ce806100246000396000f3fe608060405234801561001057600080fd5b50600436106100b45760003560e01c8063b329bf5c11610071578063b329bf5c14610170578063ba33984a14610183578063bc0755e114610196578063c341a1c2146101a9578063c38756cc146101bc578063dd1db9cf146101ee57600080fd5b806306fdde03146100b9578063260958a5146100f65780636e710bf3146101165780637087dbf91461012b5780637fbeb89c1461013d57806390906f9d14610150575b600080fd5b6040805180820182526012815271222b20aa3930b739b332b926b0b730b3b2b960711b602082015290516100ed9190611d46565b60405180910390f35b610109610104366004611d94565b610201565b6040516100ed9190611e47565b610129610124366004611f84565b610389565b005b6002545b6040519081526020016100ed565b61012961014b366004611d94565b61062a565b61016361015e366004612075565b610a43565b6040516100ed91906120d4565b61012961017e366004611d94565b610b53565b610129610191366004611d94565b610ccc565b6101296101a436600461212a565b610d10565b61012f6101b736600461216b565b611078565b6101cf6101ca366004611d94565b6110d4565b604080516001600160a01b0390931683529015156020830152016100ed565b6101296101fc3660046121b3565b611193565b6040805160e08101825260008082526020820181905291810182905260608082018390526080820183905260a082015260c08101919091526000828152600160208181526040808420815160e08101835281546001600160a01b0390811682529482015485169381019390935260028101549093169082015260038083015460608301526004830154919291608084019160ff909116908111156102a7576102a7611dad565b60038111156102b8576102b8611dad565b815260200160058201805480602002602001604051908101604052809291908181526020016000905b8282101561033c57600084815260209081902060408051606081018252918501546001600160a01b038116835260ff600160a01b82048116151584860152600160a81b909104161515908201528252600190920191016102e1565b505050908252506006919091015460209091015280519091506001600160a01b03166103835760405163026c8dbb60e11b8152600481018490526024015b60405180910390fd5b92915050565b6040516307feec1960e21b81523360048201526001600160a01b03861690631ffbb06490602401602060405180830381865afa1580156103cd573d6000803e3d6000fd5b505050506040513d601f19601f820116820180604052508101906103f19190612294565b61041957604051636d0fd92960e01b81526001600160a01b038616600482015260240161037a565b846001600160a01b031663134e18f46040518163ffffffff1660e01b8152600401602060405180830381865afa158015610457573d6000803e3d6000fd5b505050506040513d601f19601f8201168201806040525081019061047b91906122b1565b60405163b9209e3360e01b81523060048201526001600160a01b03919091169063b9209e3390602401602060405180830381865afa1580156104c1573d6000803e3d6000fd5b505050506040513d601f19601f820116820180604052508101906104e59190612294565b61050d576040516379a7abb760e01b81526001600160a01b038616600482015260240161037a565b60008585858460405160200161052694939291906122ce565b60408051601f19818403018152828252805160209182012060a084018352881515845287151584830190815287151585850190815260608601888152608087018490526001600160a01b038d1660009081528086529590952086518154935192511515620100000262ff0000199315156101000261ff00199215159290921661ffff19909516949094171791909116919091178155925180519195506105d3926001850192910190611c8c565b50608082015181600201559050507f690b0e7ac1907911c2428d54c3bdcaccd20f5c78b030cb2f008a75e590e99ac286868686868660405161061a9695949392919061230c565b60405180910390a1505050505050565b600061063582611311565b90506106418282611386565b1561064a575050565b80546001600160a01b0316600090815260208181526040808320815160a081018352815460ff80821615158352610100820481161515838701526201000090910416151581840152600182018054845181870281018701909552808552869592946060860193909291908301828280156106ed57602002820191906000526020600020905b81546001600160a01b031681526001909101906020018083116106cf575b50505050508152602001600282015481525050905060005b60058401548110156108da5760008460050182815481106107285761072861235b565b60009182526020909120018054909150600160a81b900460ff161561074d57506108d2565b6040805160e08101825286546001600160a01b039081168252600188015481166020830152600288015416918101919091526003808701546060830152600487015461089b92918891608084019160ff909116908111156107b0576107b0611dad565b60038111156107c1576107c1611dad565b815260200160058201805480602002602001604051908101604052809291908181526020016000905b8282101561084557600084815260209081902060408051606081018252918501546001600160a01b038116835260ff600160a01b82048116151584860152600160a81b909104161515908201528252600190920191016107ea565b50505090825250600691909101546020918201526040805160608101825285546001600160a01b038116825260ff600160a01b82048116151594830194909452600160a81b9004909216151590820152336114bf565b156108aa5760019350506108da565b8260400151156108d05760405163112e219560e31b81526004810187905260240161037a565b505b600101610705565b508161090257604051635788a87b60e01b81526004810185905233602482015260440161037a565b60048301805460ff191660039081179091556040805160e08101825285546001600160a01b03908116825260018701548116602083015260028701541691810191909152818501546060820152610a059185906080830190815260200160058201805480602002602001604051908101604052809291908181526020016000905b828210156109de57600084815260209081902060408051606081018252918501546001600160a01b038116835260ff600160a01b82048116151584860152600160a81b90910416151590820152825260019092019101610983565b505050908252506006919091015460209091015260018501546001600160a01b0316611575565b604080518581523360208201527fa42ddc86614a20e359b00eb1ed42b716b911ca4c69b6af8044306d7de36b35e4910160405180910390a150505050565b6040805160a08101825260008082526020820181905291810182905260608082015260808101919091526001600160a01b038216600090815260208181526040808320815160a081018352815460ff80821615158352610100820481161515838701526201000090910416151581840152600182018054845181870281018701909552808552919492936060860193909290830182828015610b0e57602002820191906000526020600020905b81546001600160a01b03168152600190910190602001808311610af0575b505050918352505060029190910154602090910152608081015190915061038357604051635c1b86b760e11b81526001600160a01b038416600482015260240161037a565b6000610b5e82611311565b60018101549091506001600160a01b03163314610b915760405163a859598f60e01b81526004810183905260240161037a565b60048101805460ff191660029081179091556040805160e08101825283546001600160a01b03908116825260018501548116602083015283850154169181019190915260038301546060820152610c949183906080830190815260200160058201805480602002602001604051908101604052809291908181526020016000905b82821015610c6d57600084815260209081902060408051606081018252918501546001600160a01b038116835260ff600160a01b82048116151584860152600160a81b90910416151590820152825260019092019101610c12565b505050908252506006919091015460209091015260018301546001600160a01b0316611575565b6040518281527f2e936050b1807500251bb54605979b74ee4e0e31a0fcba9f12b51d99496c20fa906020015b60405180910390a15050565b6000610cd782611311565b9050610ce38282611386565b15610cec575050565b6000610cf98383336115f0565b90508015610d0b57610d0b8383611960565b505050565b6001600160a01b038316600090815260208181526040808320815160a081018352815460ff80821615158352610100820481161515838701526201000090910416151581840152600182018054845181870281018701909552808552919492936060860193909290830182828015610db157602002820191906000526020600020905b81546001600160a01b03168152600190910190602001808311610d93575b5050509183525050600291909101546020909101526080810151909150610df657604051635c1b86b760e11b81526001600160a01b038516600482015260240161037a565b6000849050806001600160a01b031663134e18f46040518163ffffffff1660e01b8152600401602060405180830381865afa158015610e39573d6000803e3d6000fd5b505050506040513d601f19601f82011682018060405250810190610e5d91906122b1565b60405163b9209e3360e01b81526001600160a01b038681166004830152919091169063b9209e3390602401602060405180830381865afa158015610ea5573d6000803e3d6000fd5b505050506040513d601f19601f82011682018060405250810190610ec99190612294565b610ef957604051636178e7e560e11b81526001600160a01b0380871660048301528516602482015260440161037a565b6040516323b872dd60e01b8152336004820152306024820152604481018490526001600160a01b038216906323b872dd906064016020604051808303816000875af1158015610f4c573d6000803e3d6000fd5b505050506040513d601f19601f82011682018060405250810190610f709190612294565b506002805460009182610f8283612371565b9190505590506000610f9682338888611078565b600081815260016020819052604090912080546001600160a01b038b81166001600160a01b03199283161783559282018054821633179055600282018054938b1693909116929092179091556003810187905560048101805460ff191690556080860151600682015590915061100c8186611acb565b608085810151604080518581526001600160a01b038c8116602083015233828401528b16606082015292830189905260a0830191909152517f6bb4a01617c492fa626ed5665cf4a461d4c1c6eeb7f3d910b41b47667348882d9181900360c00190a15050505050505050565b600080858585856040516020016110b294939291909384526001600160a01b03928316602085015291166040830152606082015260800190565b60408051808303601f1901815291905280516020909101209695505050505050565b60008060006110e284611311565b905060005b600582015481101561118c578160050181815481106111085761110861235b565b600091825260209091200154600160a81b900460ff16611184578160050181815481106111375761113761235b565b6000918252602090912001546005830180546001600160a01b03909216955090829081106111675761116761235b565b600091825260209091200154600160a01b900460ff16925061118c565b6001016110e7565b5050915091565b80516000036111b857604051631b53ee4d60e01b81526004810183905260240161037a565b60006111c383611311565b90506111cf8382611386565b156111d957505050565b6000611232846040517f19457468657265756d205369676e6564204d6573736167653a0a3332000000006020820152603c8101829052600090605c01604051602081830303815290604052805190602001209050919050565b905060005b835181101561130a5760008482815181106112545761125461235b565b602002602001015190506000600184836000015184602001518560400151604051600081526020016040526040516112a8949392919093845260ff9290921660208401526040830152606082015260800190565b6020604051602081039080840390855afa1580156112ca573d6000803e3d6000fd5b50505060206040510351905060006112e38887846115f0565b905080156112ff576112f58887611960565b5050505050505050565b505050600101611237565b5050505050565b600081815260016020526040812080546001600160a01b031661134a5760405163026c8dbb60e11b81526004810184905260240161037a565b6000600482015460ff16600381111561136557611365611dad565b146103835760405163aafa536960e01b81526004810184905260240161037a565b80546001600160a01b0316600090815260208181526040808320815160a081018352815460ff808216151583526101008204811615158387015262010000909104161515818401526001820180548451818702810187019095528085528695929460608601939092919083018282801561142957602002820191906000526020600020905b81546001600160a01b0316815260019091019060200180831161140b575b5050505050815260200160028201548152505090508060800151836006015403611457576000915050610383565b611465600584016000611cf1565b61146f8382611acb565b6080810151600684018190556040805186815260208101929092527fb96b527e72b94fc460a27b6679a9f99a936d3e470a8666177a51e5b7652428b3910160405180910390a15060019392505050565b6000816001600160a01b031683600001516001600160a01b0316148061156d5750826020015180156114f9575082516001600160a01b0316155b801561156d575083516040516307feec1960e21b81526001600160a01b03848116600483015290911690631ffbb06490602401602060405180830381865afa158015611549573d6000803e3d6000fd5b505050506040513d601f19601f8201168201806040525081019061156d9190612294565b949350505050565b8151606083015160405163a9059cbb60e01b81526001600160a01b038481166004830152602482019290925291169063a9059cbb906044016020604051808303816000875af11580156115cc573d6000803e3d6000fd5b505050506040513d601f19601f82011682018060405250810190610d0b9190612294565b81546001600160a01b0316600090815260208181526040808320815160a081018352815460ff80821615158352610100820481161515838701526201000090910416151581840152600182018054845181870281018701909552808552869586958695936060860193919290919083018282801561169757602002820191906000526020600020905b81546001600160a01b03168152600190910190602001808311611679575b50505050508152602001600282015481525050905060005b60058701548110156119245760008760050182815481106116d2576116d261235b565b60009182526020909120018054909150600160a81b900460ff16156116f7575061191c565b8415611710578361170781612371565b94505050611924565b6040805160e08101825289546001600160a01b03908116825260018b01548116602083015260028b015416918101919091526003808a0154606083015260048a015461185e92918b91608084019160ff9091169081111561177357611773611dad565b600381111561178457611784611dad565b815260200160058201805480602002602001604051908101604052809291908181526020016000905b8282101561180857600084815260209081902060408051606081018252918501546001600160a01b038116835260ff600160a01b82048116151584860152600160a81b909104161515908201528252600190920191016117ad565b50505090825250600691909101546020918201526040805160608101825285546001600160a01b038116825260ff600160a01b82048116151594830194909452600160a81b9004909216151590820152896114bf565b156118e757805460ff60a81b198116600160a81b178255600195506001600160a01b03166118a05780546001600160a01b0319166001600160a01b0388161781555b604080518a81526001600160a01b03891660208201527fbe292cd4d4b5b62de3d9d1c3884be547205570b87a04717068601ba0c765eb79910160405180910390a15061191c565b82604001511561190d5760405163112e219560e31b8152600481018a905260240161037a565b8361191781612371565b945050505b6001016116af565b508261195557604051635788a87b60e01b8152600481018890526001600160a01b038616602482015260440161037a565b501595945050505050565b60048101805460ff191660019081179091556040805160e08101825283546001600160a01b03908116825283850154811660208301526002850154169181019190915260038301546060820152611a639183906080830190815260200160058201805480602002602001604051908101604052809291908181526020016000905b82821015611a3c57600084815260209081902060408051606081018252918501546001600160a01b038116835260ff600160a01b82048116151584860152600160a81b909104161515908201528252600190920191016119e1565b505050908252506006919091015460209091015260028301546001600160a01b0316611575565b8054600182015460028301546003840154604080518781526001600160a01b039586166020820152938516908401529216606082015260808101919091527fede11861efc96225b5c38ea18f4f95678cd9a04edd36b31e24b257c5b91f3bed9060a001610cc0565b805115611b55576040805160608101825260028401546001600160a01b0390811682526000602080840182815294840182815260058801805460018101825590845291909220935193018054945191511515600160a81b0260ff60a81b19921515600160a01b026001600160a81b0319909616949093169390931793909317929092169190911790555b806020015115611bd35760408051606081018252600080825260016020808401828152948401838152600588018054938401815584529220925192018054935191511515600160a81b0260ff60a81b19921515600160a01b026001600160a81b03199095166001600160a01b03949094169390931793909317161790555b60005b816060015151811015610d0b5782600501604051806060016040528084606001518481518110611c0857611c0861235b565b6020908102919091018101516001600160a01b03908116835260008383018190526040938401819052855460018181018855968252908390208551910180549386015195909401511515600160a81b0260ff60a81b19951515600160a01b026001600160a81b03199094169190921617919091179290921691909117905501611bd6565b828054828255906000526020600020908101928215611ce1579160200282015b82811115611ce157825182546001600160a01b0319166001600160a01b03909116178255602090920191600190910190611cac565b50611ced929150611d12565b5090565b5080546000825590600052602060002090810190611d0f9190611d27565b50565b5b80821115611ced5760008155600101611d13565b5b80821115611ced5780546001600160b01b0319168155600101611d28565b602081526000825180602084015260005b81811015611d745760208186018101516040868401015201611d57565b506000604082850101526040601f19601f83011684010191505092915050565b600060208284031215611da657600080fd5b5035919050565b634e487b7160e01b600052602160045260246000fd5b60048110611de157634e487b7160e01b600052602160045260246000fd5b9052565b600081518084526020840193506020830160005b82811015611e3d57815180516001600160a01b0316875260208082015115158189015260409182015115159188019190915260609096019590910190600101611df9565b5093949350505050565b6020815260018060a01b03825116602082015260018060a01b03602083015116604082015260018060a01b0360408301511660608201526060820151608082015260006080830151611e9c60a0840182611dc3565b5060a083015160e060c0840152611eb7610100840182611de5565b905060c084015160e08401528091505092915050565b6001600160a01b0381168114611d0f57600080fd5b8015158114611d0f57600080fd5b634e487b7160e01b600052604160045260246000fd5b6040516060810167ffffffffffffffff81118282101715611f2957611f29611ef0565b60405290565b604051601f8201601f1916810167ffffffffffffffff81118282101715611f5857611f58611ef0565b604052919050565b600067ffffffffffffffff821115611f7a57611f7a611ef0565b5060051b60200190565b600080600080600060a08688031215611f9c57600080fd5b8535611fa781611ecd565b94506020860135611fb781611ee2565b93506040860135611fc781611ee2565b92506060860135611fd781611ee2565b9150608086013567ffffffffffffffff811115611ff357600080fd5b8601601f8101881361200457600080fd5b803561201761201282611f60565b611f2f565b8082825260208201915060208360051b85010192508a83111561203957600080fd5b6020840193505b8284101561206457833561205381611ecd565b825260209384019390910190612040565b809450505050509295509295909350565b60006020828403121561208757600080fd5b813561209281611ecd565b9392505050565b600081518084526020840193506020830160005b82811015611e3d5781516001600160a01b03168652602095860195909101906001016120ad565b602081528151151560208201526020820151151560408201526040820151151560608201526000606083015160a0608084015261211460c0840182612099565b9050608084015160a08401528091505092915050565b60008060006060848603121561213f57600080fd5b833561214a81611ecd565b9250602084013561215a81611ecd565b929592945050506040919091013590565b6000806000806080858703121561218157600080fd5b84359350602085013561219381611ecd565b925060408501356121a381611ecd565b9396929550929360600135925050565b600080604083850312156121c657600080fd5b82359150602083013567ffffffffffffffff8111156121e457600080fd5b8301601f810185136121f557600080fd5b803561220361201282611f60565b8082825260208201915060206060840285010192508783111561222557600080fd5b6020840193505b82841015612286576060848903121561224457600080fd5b61224c611f06565b843560ff8116811461225d57600080fd5b81526020858101358183015260408087013590830152908352606090940193919091019061222c565b809450505050509250929050565b6000602082840312156122a657600080fd5b815161209281611ee2565b6000602082840312156122c357600080fd5b815161209281611ecd565b6001600160a01b03851681528315156020820152821515604082015260806060820181905260009061230290830184612099565b9695505050505050565b6001600160a01b038716815285151560208201528415156040820152831515606082015260c06080820181905260009061234890830185612099565b90508260a0830152979650505050505050565b634e487b7160e01b600052603260045260246000fd5b60006001820161239157634e487b7160e01b600052601160045260246000fd5b506001019056fea26469706673582212206a727e6e92d938c777ec74c3e1205fff595558209d88c5425a0ae0743b0ecc3964736f6c634300081c0033","linkReferences":{}},"methodIdentifiers":{"approveTransfer(bytes32)":"ba33984a","calculateTransferID(uint256,address,address,uint256)":"c341a1c2","cancelTransfer(bytes32)":"b329bf5c","delegateApproveTransfer(bytes32,(uint8,bytes32,bytes32)[])":"dd1db9cf","getApprovalCriteria(address)":"90906f9d","getNextApprover(bytes32)":"c38756cc","getNextTxNonce()":"7087dbf9","getTransfer(bytes32)":"260958a5","initiateTransfer(address,address,uint256)":"bc0755e1","name()":"06fdde03","rejectTransfer(bytes32)":"7fbeb89c","setApprovalCriteria(address,bool,bool,bool,address[])":"6e710bf3"},"id":0}