{"abi":[{"type":"constructor","inputs":[{"name":"implementationAuthority","type":"address","internalType":"address"},{"name":"_identityRegistry","type":"address","internalType":"address"},{"name":"_compliance","type":"address","internalType":"address"},{"name":"_name","type":"string","internalType":"string"},{"name":"_symbol","type":"string","internalType":"string"},{"name":"_decimals","type":"uint8","internalType":"uint8"},{"name":"_onchainID","type":"address","internalType":"address"}],"stateMutability":"nonpayable"},{"type":"fallback","stateMutability":"payable"},{"type":"function","name":"getImplementationAuthority","inputs":[],"outputs":[{"name":"","type":"address","internalType":"address"}],"stateMutability":"view"},{"type":"function","name":"setImplementationAuthority","inputs":[{"name":"_newImplementationAuthority","type":"address","internalType":"address"}],"outputs":[],"stateMutability":"nonpayable"},{"type":"event","name":"ImplementationAuthoritySet","inputs":[{"name":"_implementationAuthority","type":"address","indexed":true,"internalType":"address"}],"anonymous":false},{"type":"event","name":"Initialized","inputs":[{"name":"version","type":"uint64","indexed":false,"internalType":"uint64"}],"anonymous":false},{"type":"error","name":"InvalidInitialization","inputs":[]},{"type":"error","name":"NotInitializing","inputs":[]}],"bytecode":{"object":"0x608060405234801561001057600080fd5b50604051610cc9380380610cc983398101604081905261002f916104af565b6001600160a01b0387161580159061004f57506001600160a01b03861615155b801561006357506001600160a01b03851615155b6100b45760405162461bcd60e51b815260206004820152601f60248201527f696e76616c696420617267756d656e74202d207a65726f20616464726573730060448201526064015b60405180910390fd5b6040516020016100cf90602080825260009082015260400190565b60405160208183030381529060405280519060200120846040516020016100f691906105a0565b6040516020818303038152906040528051906020012014158015610170575060405160200161013090602080825260009082015260400190565b604051602081830303815290604052805190602001208360405160200161015791906105a0565b6040516020818303038152906040528051906020012014155b6101bc5760405162461bcd60e51b815260206004820152601f60248201527f696e76616c696420617267756d656e74202d20656d70747920737472696e670060448201526064016100ab565b60128260ff1611156102105760405162461bcd60e51b815260206004820152601960248201527f646563696d616c73206265747765656e203020616e642031380000000000000060448201526064016100ab565b61022687600080516020610ca983398151915255565b6040516001600160a01b038816907f3b1074392ed8e8424715d0dda2197eede67080b377fc8370e26f3e882207f6b890600090a26000610272600080516020610ca98339815191525490565b6001600160a01b031663709bc7f36040518163ffffffff1660e01b8152600401602060405180830381865afa1580156102af573d6000803e3d6000fd5b505050506040513d601f19601f820116820180604052508101906102d391906105ba565b90506000816001600160a01b03168888888888886040516024016102fc969594939291906105d5565b60408051601f198184030181529181526020820180516001600160e01b0316633e46d86760e21b17905251610331919061063a565b600060405180830381855af49150503d806000811461036c576040519150601f19603f3d011682016040523d82523d6000602084013e610371565b606091505b50509050806103c25760405162461bcd60e51b815260206004820152601660248201527f496e697469616c697a6174696f6e206661696c65642e0000000000000000000060448201526064016100ab565b505050505050505050610656565b80516001600160a01b03811681146103e757600080fd5b919050565b634e487b7160e01b600052604160045260246000fd5b60005b8381101561041d578181015183820152602001610405565b50506000910152565b600082601f83011261043757600080fd5b81516001600160401b03811115610450576104506103ec565b604051601f8201601f19908116603f011681016001600160401b038111828210171561047e5761047e6103ec565b60405281815283820160200185101561049657600080fd5b6104a7826020830160208701610402565b949350505050565b600080600080600080600060e0888a0312156104ca57600080fd5b6104d3886103d0565b96506104e1602089016103d0565b95506104ef604089016103d0565b60608901519095506001600160401b0381111561050b57600080fd5b6105178a828b01610426565b60808a015190955090506001600160401b0381111561053557600080fd5b6105418a828b01610426565b93505060a088015160ff8116811461055857600080fd5b915061056660c089016103d0565b905092959891949750929550565b6000815180845261058c816020860160208601610402565b601f01601f19169290920160200192915050565b6020815260006105b36020830184610574565b9392505050565b6000602082840312156105cc57600080fd5b6105b3826103d0565b6001600160a01b0387811682528616602082015260c06040820181905260009061060190830187610574565b82810360608401526106138187610574565b60ff95909516608084015250506001600160a01b039190911660a090910152949350505050565b6000825161064c818460208701610402565b9190910192915050565b610644806106656000396000f3fe6080604052600436106100295760003560e01c80632d5f1187146100cf57806392dd9d6514610108575b60006100416000805160206105ef8339815191525490565b6001600160a01b031663709bc7f36040518163ffffffff1660e01b8152600401602060405180830381865afa15801561007e573d6000803e3d6000fd5b505050506040513d601f19601f820116820180604052508101906100a291906105ad565b90503660008037600080366000846127105a03f43d806000803e8180156100c857816000f35b816000fd5b005b3480156100db57600080fd5b506000805160206105ef833981519152546040516001600160a01b03909116815260200160405180910390f35b34801561011457600080fd5b506100cd6101233660046105d1565b6000805160206105ef833981519152546001600160a01b0316336001600160a01b0316146101ae5760405162461bcd60e51b815260206004820152602d60248201527f6f6e6c792063757272656e7420696d706c656d656e746174696f6e417574686f60448201526c1c9a5d1e4818d85b8818d85b1b609a1b60648201526084015b60405180910390fd5b6001600160a01b0381166102045760405162461bcd60e51b815260206004820152601f60248201527f696e76616c696420617267756d656e74202d207a65726f20616464726573730060448201526064016101a5565b60006001600160a01b0316816001600160a01b031663709bc7f36040518163ffffffff1660e01b8152600401602060405180830381865afa15801561024d573d6000803e3d6000fd5b505050506040513d601f19601f8201168201806040525081019061027191906105ad565b6001600160a01b0316141580156102fc575060006001600160a01b0316816001600160a01b0316636ff6e83f6040518163ffffffff1660e01b8152600401602060405180830381865afa1580156102cc573d6000803e3d6000fd5b505050506040513d601f19601f820116820180604052508101906102f091906105ad565b6001600160a01b031614155b801561037c575060006001600160a01b0316816001600160a01b0316631ee9ce8b6040518163ffffffff1660e01b8152600401602060405180830381865afa15801561034c573d6000803e3d6000fd5b505050506040513d601f19601f8201168201806040525081019061037091906105ad565b6001600160a01b031614155b80156103fc575060006001600160a01b0316816001600160a01b0316639e3e7bb96040518163ffffffff1660e01b8152600401602060405180830381865afa1580156103cc573d6000803e3d6000fd5b505050506040513d601f19601f820116820180604052508101906103f091906105ad565b6001600160a01b031614155b801561047c575060006001600160a01b0316816001600160a01b03166361f898256040518163ffffffff1660e01b8152600401602060405180830381865afa15801561044c573d6000803e3d6000fd5b505050506040513d601f19601f8201168201806040525081019061047091906105ad565b6001600160a01b031614155b80156104fc575060006001600160a01b0316816001600160a01b031663fedcc0526040518163ffffffff1660e01b8152600401602060405180830381865afa1580156104cc573d6000803e3d6000fd5b505050506040513d601f19601f820116820180604052508101906104f091906105ad565b6001600160a01b031614155b6105485760405162461bcd60e51b815260206004820181905260248201527f696e76616c696420496d706c656d656e746174696f6e20417574686f7269747960448201526064016101a5565b61055e816000805160206105ef83398151915255565b6040516001600160a01b038216907f3b1074392ed8e8424715d0dda2197eede67080b377fc8370e26f3e882207f6b890600090a250565b6001600160a01b03811681146105aa57600080fd5b50565b6000602082840312156105bf57600080fd5b81516105ca81610595565b9392505050565b6000602082840312156105e357600080fd5b81356105ca8161059556fe821f3e4d3d679f19eacc940c87acf846ea6eae24a63058ea750304437a62aafca264697066735822122079347271f2db8ad4483e60f12760a37d145d1b2f8529dc888c5bc9829df2c97564736f6c634300081c0033821f3e4d3d679f19eacc940c87acf846ea6eae24a63058ea750304437a62aafc","linkReferences":{}},"methodIdentifiers":{"getImplementationAuthority()":"2d5f1187","setImplementationAuthority(address)":"92dd9d65"},"id":55}