{"abi":[{"type":"function","name":"addAgent","inputs":[{"name":"_agent","type":"address","internalType":"address"}],"outputs":[],"stateMutability":"nonpayable"},{"type":"function","name":"isAgent","inputs":[{"name":"_agent","type":"address","internalType":"address"}],"outputs":[{"name":"","type":"bool","internalType":"bool"}],"stateMutability":"view"},{"type":"function","name":"owner","inputs":[],"outputs":[{"name":"","type":"address","internalType":"address"}],"stateMutability":"view"},{"type":"function","name":"removeAgent","inputs":[{"name":"_agent","type":"address","internalType":"address"}],"outputs":[],"stateMutability":"nonpayable"},{"type":"function","name":"renounceOwnership","inputs":[],"outputs":[],"stateMutability":"nonpayable"},{"type":"function","name":"transferOwnership","inputs":[{"name":"newOwner","type":"address","internalType":"address"}],"outputs":[],"stateMutability":"nonpayable"},{"type":"event","name":"AgentAdded","inputs":[{"name":"_agent","type":"address","indexed":true,"internalType":"address"}],"anonymous":false},{"type":"event","name":"AgentRemoved","inputs":[{"name":"_agent","type":"address","indexed":true,"internalType":"address"}],"anonymous":false},{"type":"event","name":"OwnershipTransferred","inputs":[{"name":"previousOwner","type":"address","indexed":true,"internalType":"address"},{"name":"newOwner","type":"address","indexed":true,"internalType":"address"}],"anonymous":false}],"bytecode":{"object":"0x6080604052348015600f57600080fd5b506105768061001f6000396000f3fe608060405234801561001057600080fd5b50600436106100625760003560e01c80631ffbb06414610067578063715018a61461008f57806384e79842146100995780638da5cb5b146100ac57806397a6278e146100c7578063f2fde38b146100da575b600080fd5b61007a6100753660046104db565b6100ed565b60405190151581526020015b60405180910390f35b610097610100565b005b6100976100a73660046104db565b61017d565b6033546040516001600160a01b039091168152602001610086565b6100976100d53660046104db565b6101e9565b6100976100e83660046104db565b610255565b60006100fa606583610340565b92915050565b6033546001600160a01b031633146101335760405162461bcd60e51b815260040161012a9061050b565b60405180910390fd5b6033546040516000916001600160a01b0316907f8be0079c531659141344cd1fd0a4f28419497f9722a3daafe3b4186f6b6457e0908390a3603380546001600160a01b0319169055565b6033546001600160a01b031633146101a75760405162461bcd60e51b815260040161012a9061050b565b6101b26065826103c9565b6040516001600160a01b038216907ff68e73cec97f2d70aa641fb26e87a4383686e2efacb648f2165aeb02ac562ec590600090a250565b6033546001600160a01b031633146102135760405162461bcd60e51b815260040161012a9061050b565b61021e606582610453565b6040516001600160a01b038216907fed9c8ad8d5a0a66898ea49d2956929c93ae2e8bd50281b2ed897c5d1a6737e0b90600090a250565b6033546001600160a01b0316331461027f5760405162461bcd60e51b815260040161012a9061050b565b6001600160a01b0381166102e45760405162461bcd60e51b815260206004820152602660248201527f4f776e61626c653a206e6577206f776e657220697320746865207a65726f206160448201526564647265737360d01b606482015260840161012a565b6033546040516001600160a01b038084169216907f8be0079c531659141344cd1fd0a4f28419497f9722a3daafe3b4186f6b6457e090600090a3603380546001600160a01b0319166001600160a01b0392909216919091179055565b60006001600160a01b0382166103a95760405162461bcd60e51b815260206004820152602860248201527f526f6c65734c65676163793a206163636f756e7420697320746865207a65726f604482015267206164647265737360c01b606482015260840161012a565b506001600160a01b03166000908152602091909152604090205460ff1690565b6103d38282610340565b1561042e5760405162461bcd60e51b815260206004820152602560248201527f526f6c65734c65676163793a206163636f756e7420616c72656164792068617360448201526420726f6c6560d81b606482015260840161012a565b6001600160a01b0316600090815260209190915260409020805460ff19166001179055565b61045d8282610340565b6104b95760405162461bcd60e51b815260206004820152602760248201527f526f6c65734c65676163793a206163636f756e7420646f6573206e6f74206861604482015266766520726f6c6560c81b606482015260840161012a565b6001600160a01b0316600090815260209190915260409020805460ff19169055565b6000602082840312156104ed57600080fd5b81356001600160a01b038116811461050457600080fd5b9392505050565b6020808252818101527f4f776e61626c653a2063616c6c6572206973206e6f7420746865206f776e657260408201526060019056fea26469706673582212204e6a9bc4711d0a4d295f1144ea7970405ac80b5ae55beee100e4fac164ef838964736f6c634300081c0033","linkReferences":{}},"methodIdentifiers":{"addAgent(address)":"84e79842","isAgent(address)":"1ffbb064","owner()":"8da5cb5b","removeAgent(address)":"97a6278e","renounceOwnership()":"715018a6","transferOwnership(address)":"f2fde38b"},"id":10}