{"abi":[{"type":"function","name":"addAgent","inputs":[{"name":"_agent","type":"address","internalType":"address"}],"outputs":[],"stateMutability":"nonpayable"},{"type":"function","name":"addAgentOnTokenContract","inputs":[{"name":"_agent","type":"address","internalType":"address"}],"outputs":[],"stateMutability":"nonpayable"},{"type":"function","name":"allowance","inputs":[{"name":"_owner","type":"address","internalType":"address"},{"name":"_spender","type":"address","internalType":"address"}],"outputs":[{"name":"","type":"uint256","internalType":"uint256"}],"stateMutability":"view"},{"type":"function","name":"approve","inputs":[{"name":"_spender","type":"address","internalType":"address"},{"name":"_amount","type":"uint256","internalType":"uint256"}],"outputs":[{"name":"","type":"bool","internalType":"bool"}],"stateMutability":"nonpayable"},{"type":"function","name":"balanceOf","inputs":[{"name":"_userAddress","type":"address","internalType":"address"}],"outputs":[{"name":"","type":"uint256","internalType":"uint256"}],"stateMutability":"view"},{"type":"function","name":"batchBurn","inputs":[{"name":"_userAddresses","type":"address[]","internalType":"address[]"},{"name":"_amounts","type":"uint256[]","internalType":"uint256[]"}],"outputs":[],"stateMutability":"nonpayable"},{"type":"function","name":"batchForcedTransfer","inputs":[{"name":"_fromList","type":"address[]","internalType":"address[]"},{"name":"_toList","type":"address[]","internalType":"address[]"},{"name":"_amounts","type":"uint256[]","internalType":"uint256[]"}],"outputs":[],"stateMutability":"nonpayable"},{"type":"function","name":"batchFreezePartialTokens","inputs":[{"name":"_userAddresses","type":"address[]","internalType":"address[]"},{"name":"_amounts","type":"uint256[]","internalType":"uint256[]"}],"outputs":[],"stateMutability":"nonpayable"},{"type":"function","name":"batchMint","inputs":[{"name":"_toList","type":"address[]","internalType":"address[]"},{"name":"_amounts","type":"uint256[]","internalType":"uint256[]"}],"outputs":[],"stateMutability":"nonpayable"},{"type":"function","name":"batchSetAddressFrozen","inputs":[{"name":"_userAddresses","type":"address[]","internalType":"address[]"},{"name":"_freeze","type":"bool[]","internalType":"bool[]"}],"outputs":[],"stateMutability":"nonpayable"},{"type":"function","name":"batchTransfer","inputs":[{"name":"_toList","type":"address[]","internalType":"address[]"},{"name":"_amounts","type":"uint256[]","internalType":"uint256[]"}],"outputs":[],"stateMutability":"nonpayable"},{"type":"function","name":"batchUnfreezePartialTokens","inputs":[{"name":"_userAddresses","type":"address[]","internalType":"address[]"},{"name":"_amounts","type":"uint256[]","internalType":"uint256[]"}],"outputs":[],"stateMutability":"nonpayable"},{"type":"function","name":"burn","inputs":[{"name":"_userAddress","type":"address","internalType":"address"},{"name":"_amount","type":"uint256","internalType":"uint256"}],"outputs":[],"stateMutability":"nonpayable"},{"type":"function","name":"compliance","inputs":[],"outputs":[{"name":"","type":"address","internalType":"contract IComplianceLegacy"}],"stateMutability":"view"},{"type":"function","name":"decimals","inputs":[],"outputs":[{"name":"","type":"uint8","internalType":"uint8"}],"stateMutability":"view"},{"type":"function","name":"decreaseAllowance","inputs":[{"name":"_spender","type":"address","internalType":"address"},{"name":"_subtractedValue","type":"uint256","internalType":"uint256"}],"outputs":[{"name":"","type":"bool","internalType":"bool"}],"stateMutability":"nonpayable"},{"type":"function","name":"forcedTransfer","inputs":[{"name":"_from","type":"address","internalType":"address"},{"name":"_to","type":"address","internalType":"address"},{"name":"_amount","type":"uint256","internalType":"uint256"}],"outputs":[{"name":"","type":"bool","internalType":"bool"}],"stateMutability":"nonpayable"},{"type":"function","name":"freezePartialTokens","inputs":[{"name":"_userAddress","type":"address","internalType":"address"},{"name":"_amount","type":"uint256","internalType":"uint256"}],"outputs":[],"stateMutability":"nonpayable"},{"type":"function","name":"getFrozenTokens","inputs":[{"name":"_userAddress","type":"address","internalType":"address"}],"outputs":[{"name":"","type":"uint256","internalType":"uint256"}],"stateMutability":"view"},{"type":"function","name":"identityRegistry","inputs":[],"outputs":[{"name":"","type":"address","internalType":"contract IIdentityRegistryLegacy"}],"stateMutability":"view"},{"type":"function","name":"increaseAllowance","inputs":[{"name":"_spender","type":"address","internalType":"address"},{"name":"_addedValue","type":"uint256","internalType":"uint256"}],"outputs":[{"name":"","type":"bool","internalType":"bool"}],"stateMutability":"nonpayable"},{"type":"function","name":"init","inputs":[{"name":"_identityRegistry","type":"address","internalType":"address"},{"name":"_compliance","type":"address","internalType":"address"},{"name":"_name","type":"string","internalType":"string"},{"name":"_symbol","type":"string","internalType":"string"},{"name":"_decimals","type":"uint8","internalType":"uint8"},{"name":"_onchainID","type":"address","internalType":"address"}],"outputs":[],"stateMutability":"nonpayable"},{"type":"function","name":"isAgent","inputs":[{"name":"_agent","type":"address","internalType":"address"}],"outputs":[{"name":"","type":"bool","internalType":"bool"}],"stateMutability":"view"},{"type":"function","name":"isFrozen","inputs":[{"name":"_userAddress","type":"address","internalType":"address"}],"outputs":[{"name":"","type":"bool","internalType":"bool"}],"stateMutability":"view"},{"type":"function","name":"mint","inputs":[{"name":"_to","type":"address","internalType":"address"},{"name":"_amount","type":"uint256","internalType":"uint256"}],"outputs":[],"stateMutability":"nonpayable"},{"type":"function","name":"name","inputs":[],"outputs":[{"name":"","type":"string","internalType":"string"}],"stateMutability":"view"},{"type":"function","name":"onchainID","inputs":[],"outputs":[{"name":"","type":"address","internalType":"address"}],"stateMutability":"view"},{"type":"function","name":"owner","inputs":[],"outputs":[{"name":"","type":"address","internalType":"address"}],"stateMutability":"view"},{"type":"function","name":"pause","inputs":[],"outputs":[],"stateMutability":"nonpayable"},{"type":"function","name":"paused","inputs":[],"outputs":[{"name":"","type":"bool","internalType":"bool"}],"stateMutability":"view"},{"type":"function","name":"recoveryAddress","inputs":[{"name":"_lostWallet","type":"address","internalType":"address"},{"name":"_newWallet","type":"address","internalType":"address"},{"name":"_investorOnchainID","type":"address","internalType":"address"}],"outputs":[{"name":"","type":"bool","internalType":"bool"}],"stateMutability":"nonpayable"},{"type":"function","name":"removeAgent","inputs":[{"name":"_agent","type":"address","internalType":"address"}],"outputs":[],"stateMutability":"nonpayable"},{"type":"function","name":"removeAgentOnTokenContract","inputs":[{"name":"_agent","type":"address","internalType":"address"}],"outputs":[],"stateMutability":"nonpayable"},{"type":"function","name":"renounceOwnership","inputs":[],"outputs":[],"stateMutability":"nonpayable"},{"type":"function","name":"setAddressFrozen","inputs":[{"name":"_userAddress","type":"address","internalType":"address"},{"name":"_freeze","type":"bool","internalType":"bool"}],"outputs":[],"stateMutability":"nonpayable"},{"type":"function","name":"setCompliance","inputs":[{"name":"_compliance","type":"address","internalType":"address"}],"outputs":[],"stateMutability":"nonpayable"},{"type":"function","name":"setIdentityRegistry","inputs":[{"name":"_identityRegistry","type":"address","internalType":"address"}],"outputs":[],"stateMutability":"nonpayable"},{"type":"function","name":"setName","inputs":[{"name":"_name","type":"string","internalType":"string"}],"outputs":[],"stateMutability":"nonpayable"},{"type":"function","name":"setOnchainID","inputs":[{"name":"_onchainID","type":"address","internalType":"address"}],"outputs":[],"stateMutability":"nonpayable"},{"type":"function","name":"setSymbol","inputs":[{"name":"_symbol","type":"string","internalType":"string"}],"outputs":[],"stateMutability":"nonpayable"},{"type":"function","name":"symbol","inputs":[],"outputs":[{"name":"","type":"string","internalType":"string"}],"stateMutability":"view"},{"type":"function","name":"totalSupply","inputs":[],"outputs":[{"name":"","type":"uint256","internalType":"uint256"}],"stateMutability":"view"},{"type":"function","name":"transfer","inputs":[{"name":"_to","type":"address","internalType":"address"},{"name":"_amount","type":"uint256","internalType":"uint256"}],"outputs":[{"name":"","type":"bool","internalType":"bool"}],"stateMutability":"nonpayable"},{"type":"function","name":"transferFrom","inputs":[{"name":"_from","type":"address","internalType":"address"},{"name":"_to","type":"address","internalType":"address"},{"name":"_amount","type":"uint256","internalType":"uint256"}],"outputs":[{"name":"","type":"bool","internalType":"bool"}],"stateMutability":"nonpayable"},{"type":"function","name":"transferOwnership","inputs":[{"name":"newOwner","type":"address","internalType":"address"}],"outputs":[],"stateMutability":"nonpayable"},{"type":"function","name":"transferOwnershipOnTokenContract","inputs":[{"name":"_newOwner","type":"address","internalType":"address"}],"outputs":[],"stateMutability":"nonpayable"},{"type":"function","name":"unfreezePartialTokens","inputs":[{"name":"_userAddress","type":"address","internalType":"address"},{"name":"_amount","type":"uint256","internalType":"uint256"}],"outputs":[],"stateMutability":"nonpayable"},{"type":"function","name":"unpause","inputs":[],"outputs":[],"stateMutability":"nonpayable"},{"type":"function","name":"version","inputs":[],"outputs":[{"name":"","type":"string","internalType":"string"}],"stateMutability":"view"},{"type":"event","name":"AddressFrozen","inputs":[{"name":"_userAddress","type":"address","indexed":true,"internalType":"address"},{"name":"_isFrozen","type":"bool","indexed":true,"internalType":"bool"},{"name":"_owner","type":"address","indexed":true,"internalType":"address"}],"anonymous":false},{"type":"event","name":"AgentAdded","inputs":[{"name":"_agent","type":"address","indexed":true,"internalType":"address"}],"anonymous":false},{"type":"event","name":"AgentRemoved","inputs":[{"name":"_agent","type":"address","indexed":true,"internalType":"address"}],"anonymous":false},{"type":"event","name":"Approval","inputs":[{"name":"owner","type":"address","indexed":true,"internalType":"address"},{"name":"spender","type":"address","indexed":true,"internalType":"address"},{"name":"value","type":"uint256","indexed":false,"internalType":"uint256"}],"anonymous":false},{"type":"event","name":"ComplianceAdded","inputs":[{"name":"_compliance","type":"address","indexed":true,"internalType":"address"}],"anonymous":false},{"type":"event","name":"IdentityRegistryAdded","inputs":[{"name":"_identityRegistry","type":"address","indexed":true,"internalType":"address"}],"anonymous":false},{"type":"event","name":"OwnershipTransferred","inputs":[{"name":"previousOwner","type":"address","indexed":true,"internalType":"address"},{"name":"newOwner","type":"address","indexed":true,"internalType":"address"}],"anonymous":false},{"type":"event","name":"Paused","inputs":[{"name":"_userAddress","type":"address","indexed":false,"internalType":"address"}],"anonymous":false},{"type":"event","name":"RecoverySuccess","inputs":[{"name":"_lostWallet","type":"address","indexed":false,"internalType":"address"},{"name":"_newWallet","type":"address","indexed":false,"internalType":"address"},{"name":"_investorOnchainID","type":"address","indexed":false,"internalType":"address"}],"anonymous":false},{"type":"event","name":"TokensFrozen","inputs":[{"name":"_userAddress","type":"address","indexed":true,"internalType":"address"},{"name":"_amount","type":"uint256","indexed":false,"internalType":"uint256"}],"anonymous":false},{"type":"event","name":"TokensUnfrozen","inputs":[{"name":"_userAddress","type":"address","indexed":true,"internalType":"address"},{"name":"_amount","type":"uint256","indexed":false,"internalType":"uint256"}],"anonymous":false},{"type":"event","name":"Transfer","inputs":[{"name":"from","type":"address","indexed":true,"internalType":"address"},{"name":"to","type":"address","indexed":true,"internalType":"address"},{"name":"value","type":"uint256","indexed":false,"internalType":"uint256"}],"anonymous":false},{"type":"event","name":"Unpaused","inputs":[{"name":"_userAddress","type":"address","indexed":false,"internalType":"address"}],"anonymous":false},{"type":"event","name":"UpdatedTokenInformation","inputs":[{"name":"_newName","type":"string","indexed":false,"internalType":"string"},{"name":"_newSymbol","type":"string","indexed":false,"internalType":"string"},{"name":"_newDecimals","type":"uint8","indexed":false,"internalType":"uint8"},{"name":"_newVersion","type":"string","indexed":false,"internalType":"string"},{"name":"_newOnchainID","type":"address","indexed":false,"internalType":"address"}],"anonymous":false}],"bytecode":{"object":"0x6080604052606e805460ff19169055348015601957600080fd5b50613521806100296000396000f3fe608060405234801561001057600080fd5b50600436106102bb5760003560e01c806370a0823111610182578063a9059cbb116100e9578063cbf3f861116100a2578063f2fde38b1161007c578063f2fde38b1461067e578063f898178914610691578063f91b619c146106a4578063fc7e5fa8146106b757600080fd5b8063cbf3f86114610606578063dd62ed3e14610619578063e58398361461065257600080fd5b8063a9059cbb14610591578063aba63705146105a4578063b422d830146105ba578063b84c8246146105cd578063c47f0027146105e0578063c69c09cf146105f357600080fd5b80639285948a1161013b5780639285948a1461052a57806395d89b411461053d57806397a6278e146105455780639dc29fac146105585780639fc1d0e71461056b578063a457c2d71461057e57600080fd5b806370a08231146104d0578063715018a6146104e35780638456cb59146104eb57806384e79842146104f357806388d695b2146105065780638da5cb5b1461051957600080fd5b80633d1ddc5b1161022657806351411b33116101df57806351411b331461045a57806354fd4d501461046d5780635c975abb1461048e5780635dc7a3cb146104995780636290865d146104ac57806368573107146104bd57600080fd5b80633d1ddc5b146103f35780633f4ba83a1461040657806340c10f191461040e57806342a47abc146104215780634710362d146104345780634a6cc6771461044757600080fd5b80631a7af379116102785780631a7af3791461037f5780631fe56f7d146103925780631ffbb064146103a557806323b872dd146103b8578063313ce567146103cb57806339509351146103e057600080fd5b806306fdde03146102c0578063095ea7b3146102de578063125c4a3314610301578063134e18f414610316578063158b1a571461034057806318160ddd14610377575b600080fd5b6102c86106ca565b6040516102d59190612baa565b60405180910390f35b6102f16102ec366004612bd9565b61075c565b60405190151581526020016102d5565b61031461030f366004612bd9565b610773565b005b606e5461010090046001600160a01b03165b6040516001600160a01b0390911681526020016102d5565b61036961034e366004612c03565b6001600160a01b03166000908152606d602052604090205490565b6040519081526020016102d5565b606854610369565b61031461038d366004612c69565b6108a2565b6103146103a0366004612bd9565b61090d565b6102f16103b3366004612c03565b610a36565b6102f16103c6366004612cd8565b610a43565b606b5460405160ff90911681526020016102d5565b6102f16103ee366004612bd9565b610d4c565b610314610401366004612c03565b610d83565b610314610e3f565b61031461041c366004612bd9565b610eed565b61031461042f366004612d15565b611107565b610314610442366004612c69565b611193565b610314610455366004612c69565b6111ee565b610314610468366004612c03565b611249565b604080518082019091526005815264332e352e3160d81b60208201526102c8565b606e5460ff166102f1565b6103146104a7366004612c03565b61127f565b606f546001600160a01b0316610328565b6103146104cb366004612c69565b611288565b6103696104de366004612c03565b6112e3565b6103146112fe565b610314611372565b610314610501366004612c03565b6113f7565b610314610514366004612c69565b611463565b6033546001600160a01b0316610328565b6102f1610538366004612db8565b6114bf565b6102c861182f565b610314610553366004612c03565b61183e565b610314610566366004612bd9565b6118aa565b6102f1610579366004612cd8565b6119fd565b6102f161058c366004612bd9565b611bda565b6102f161059f366004612bd9565b611c11565b606b5461010090046001600160a01b0316610328565b6103146105c8366004612c03565b611e87565b6103146105db366004612dfb565b611e90565b6103146105ee366004612dfb565b611f3b565b610314610601366004612e7b565b611f72565b610314610614366004612c03565b611fec565b610369610627366004612eb2565b6001600160a01b03918216600090815260676020908152604080832093909416825291909152205490565b6102f1610660366004612c03565b6001600160a01b03166000908152606c602052604090205460ff1690565b61031461068c366004612c03565b612068565b61031461069f366004612c03565b612153565b6103146106b2366004612f88565b6121c7565b6103146106c5366004612c69565b61236f565b6060606980546106d990613038565b80601f016020809104026020016040519081016040528092919081815260200182805461070590613038565b80156107525780601f1061072757610100808354040283529160200191610752565b820191906000526020600020905b81548152906001019060200180831161073557829003601f168201915b5050505050905090565b60006107693384846123ca565b5060015b92915050565b61077c33610a36565b6107a15760405162461bcd60e51b815260040161079890613072565b60405180910390fd5b60006107ac836112e3565b6001600160a01b0384166000908152606d60205260409020549091506107d39083906130d6565b8110156108225760405162461bcd60e51b815260206004820181905260248201527f416d6f756e74206578636565647320617661696c61626c652062616c616e63656044820152606401610798565b6001600160a01b0383166000908152606d60205260409020546108469083906130d6565b6001600160a01b0384166000818152606d6020526040908190209290925590517fa065e63c631c86f1b9f66a4a2f63f2093bf1c2168d23290259dbd969e0222a45906108959085815260200190565b60405180910390a2505050565b60005b83811015610906576108fe8585838181106108c2576108c26130e9565b90506020020160208101906108d79190612c03565b8484848181106108e9576108e96130e9565b905060200201602081019061060191906130ff565b6001016108a5565b5050505050565b61091633610a36565b6109325760405162461bcd60e51b815260040161079890613072565b6001600160a01b0382166000908152606d60205260409020548111156109b75760405162461bcd60e51b815260206004820152603460248201527f416d6f756e742073686f756c64206265206c657373207468616e206f7220657160448201527375616c20746f2066726f7a656e20746f6b656e7360601b6064820152608401610798565b6001600160a01b0382166000908152606d60205260409020546109db90829061311c565b6001600160a01b0383166000818152606d6020526040908190209290925590517f9bed35cb62ad0dba04f9d5bfee4b5bc91443e77da8a65c4c84834c51bb08b0d690610a2a9084815260200190565b60405180910390a25050565b600061076d6065836124ef565b606e5460009060ff1615610a695760405162461bcd60e51b81526004016107989061312f565b6001600160a01b0383166000908152606c602052604090205460ff16158015610aab57506001600160a01b0384166000908152606c602052604090205460ff16155b610aea5760405162461bcd60e51b815260206004820152601060248201526f3bb0b63632ba1034b990333937bd32b760811b6044820152606401610798565b6001600160a01b0384166000908152606d6020526040902054610b0c856112e3565b610b16919061311c565b821115610b5c5760405162461bcd60e51b8152602060048201526014602482015273496e73756666696369656e742042616c616e636560601b6044820152606401610798565b606e5460405163b9209e3360e01b81526001600160a01b0385811660048301526101009092049091169063b9209e3390602401602060405180830381865afa158015610bac573d6000803e3d6000fd5b505050506040513d601f19601f82011682018060405250810190610bd09190613159565b8015610c4c5750606f546040516372331c7360e11b81526001600160a01b039091169063e46638e690610c0b90879087908790600401613176565b602060405180830381865afa158015610c28573d6000803e3d6000fd5b505050506040513d601f19601f82011682018060405250810190610c4c9190613159565b15610d0557606f546040516322ebca6d60e21b81526001600160a01b0390911690638baf29b490610c8590879087908790600401613176565b600060405180830381600087803b158015610c9f57600080fd5b505af1158015610cb3573d6000803e3d6000fd5b50505050610cc2848484612578565b6001600160a01b038416600090815260676020908152604080832033808552925290912054610cfd918691610cf890869061311c565b6123ca565b506001610d45565b60405162461bcd60e51b81526020600482015260156024820152745472616e73666572206e6f7420706f737369626c6560581b6044820152606401610798565b9392505050565b3360008181526067602090815260408083206001600160a01b03871684529091528120549091610769918590610cf89086906130d6565b6033546001600160a01b03163314610dad5760405162461bcd60e51b81526004016107989061319a565b606b80546001600160a01b03808416610100908102610100600160a81b031984168117948590556040805180820182526005815264332e352e3160d81b602082015290517f6a1105ac8148a3c319adbc369f9072573e8a11d3a3d195e067e7c40767ec54d196610e3496606996606a9660ff96871696909216959095179491041690613252565b60405180910390a150565b610e4833610a36565b610e645760405162461bcd60e51b815260040161079890613072565b606e5460ff16610ead5760405162461bcd60e51b815260206004820152601460248201527314185d5cd8589b194e881b9bdd081c185d5cd95960621b6044820152606401610798565b606e805460ff191690556040513381527f5db9ee0a495bf2e6ff9c91a7834c1ba4fdd244a5e8aa4e537bd38aeae4b073aa906020015b60405180910390a1565b610ef633610a36565b610f125760405162461bcd60e51b815260040161079890613072565b606e5460405163b9209e3360e01b81526001600160a01b0384811660048301526101009092049091169063b9209e3390602401602060405180830381865afa158015610f62573d6000803e3d6000fd5b505050506040513d601f19601f82011682018060405250810190610f869190613159565b610fd25760405162461bcd60e51b815260206004820152601960248201527f4964656e74697479206973206e6f742076657269666965642e000000000000006044820152606401610798565b606f546040516372331c7360e11b81526001600160a01b039091169063e46638e69061100690339086908690600401613176565b602060405180830381865afa158015611023573d6000803e3d6000fd5b505050506040513d601f19601f820116820180604052508101906110479190613159565b6110935760405162461bcd60e51b815260206004820152601760248201527f436f6d706c69616e6365206e6f7420666f6c6c6f7765640000000000000000006044820152606401610798565b61109d82826126e6565b606f54604051635f8dead360e01b81526001600160a01b0384811660048301526024820184905290911690635f8dead390604401600060405180830381600087803b1580156110eb57600080fd5b505af11580156110ff573d6000803e3d6000fd5b505050505050565b60005b8581101561118a57611181878783818110611127576111276130e9565b905060200201602081019061113c9190612c03565b86868481811061114e5761114e6130e9565b90506020020160208101906111639190612c03565b858585818110611175576111756130e9565b905060200201356119fd565b5060010161110a565b50505050505050565b60005b83811015610906576111e68585838181106111b3576111b36130e9565b90506020020160208101906111c89190612c03565b8484848181106111da576111da6130e9565b9050602002013561090d565b600101611196565b60005b838110156109065761124185858381811061120e5761120e6130e9565b90506020020160208101906112239190612c03565b848484818110611235576112356130e9565b905060200201356118aa565b6001016111f1565b6033546001600160a01b031633146112735760405162461bcd60e51b81526004016107989061319a565b61127c81612068565b50565b61127c8161183e565b60005b83811015610906576112db8585838181106112a8576112a86130e9565b90506020020160208101906112bd9190612c03565b8484848181106112cf576112cf6130e9565b90506020020135610eed565b60010161128b565b6001600160a01b031660009081526066602052604090205490565b6033546001600160a01b031633146113285760405162461bcd60e51b81526004016107989061319a565b6033546040516000916001600160a01b0316907f8be0079c531659141344cd1fd0a4f28419497f9722a3daafe3b4186f6b6457e0908390a3603380546001600160a01b0319169055565b61137b33610a36565b6113975760405162461bcd60e51b815260040161079890613072565b606e5460ff16156113ba5760405162461bcd60e51b81526004016107989061312f565b606e805460ff191660011790556040513381527f62e78cea01bee320cd4e420270b5ea74000d11b0c9f74754ebdbfc544b05a25890602001610ee3565b6033546001600160a01b031633146114215760405162461bcd60e51b81526004016107989061319a565b61142c6065826127ce565b6040516001600160a01b038216907ff68e73cec97f2d70aa641fb26e87a4383686e2efacb648f2165aeb02ac562ec590600090a250565b60005b83811015610906576114b6858583818110611483576114836130e9565b90506020020160208101906114989190612c03565b8484848181106114aa576114aa6130e9565b90506020020135611c11565b50600101611466565b60006114ca33610a36565b6114e65760405162461bcd60e51b815260040161079890613072565b6114ef846112e3565b6000036115355760405162461bcd60e51b81526020600482015260146024820152733737903a37b5b2b739903a37903932b1b7bb32b960611b6044820152606401610798565b604080516001600160a01b038516602082015283916000910160408051808303601f1901815290829052805160209091012063d202158d60e01b8252600482018190526001602483015291506001600160a01b0383169063d202158d90604401602060405180830381865afa1580156115b2573d6000803e3d6000fd5b505050506040513d601f19601f820116820180604052508101906115d69190613159565b156117ef5760006115e6876112e3565b6001600160a01b038881166000818152606d60205260409081902054606e549151637e42683b60e01b8152600481019390935293945061010090049091169063454a03e090899087908490637e42683b90602401602060405180830381865afa158015611657573d6000803e3d6000fd5b505050506040513d601f19601f8201168201806040525081019061167b91906132af565b6040516001600160e01b031960e086901b1681526001600160a01b03938416600482015292909116602483015261ffff166044820152606401600060405180830381600087803b1580156116ce57600080fd5b505af11580156116e2573d6000803e3d6000fd5b5050606e5460405163a8d29d1d60e01b81526001600160a01b038c81166004830152610100909204909116925063a8d29d1d9150602401600060405180830381600087803b15801561173357600080fd5b505af1158015611747573d6000803e3d6000fd5b505050506117568888846119fd565b508015611767576117678782610773565b6001600160a01b0388166000908152606c602052604090205460ff16151560010361179757611797876001611f72565b604080516001600160a01b038a81168252898116602083015288168183015290517ff0c9129a94f30f1caaceb63e44b9811d0a3edf1d6c23757f346093af5553fed09181900360600190a16001945050505050610d45565b60405162461bcd60e51b81526020600482015260156024820152745265636f76657279206e6f7420706f737369626c6560581b6044820152606401610798565b6060606a80546106d990613038565b6033546001600160a01b031633146118685760405162461bcd60e51b81526004016107989061319a565b611873606582612858565b6040516001600160a01b038216907fed9c8ad8d5a0a66898ea49d2956929c93ae2e8bd50281b2ed897c5d1a6737e0b90600090a250565b6118b333610a36565b6118cf5760405162461bcd60e51b815260040161079890613072565b6001600160a01b0382166000908152606d60205260408120546118f1846112e3565b6118fb919061311c565b905080821115611991576000611911828461311c565b6001600160a01b0385166000908152606d602052604090205490915061193890829061311c565b6001600160a01b0385166000818152606d6020526040908190209290925590517f9bed35cb62ad0dba04f9d5bfee4b5bc91443e77da8a65c4c84834c51bb08b0d6906119879084815260200190565b60405180910390a2505b61199b83836128e0565b606f5460405163469753b960e11b81526001600160a01b0385811660048301526024820185905290911690638d2ea77290604401600060405180830381600087803b1580156119e957600080fd5b505af115801561118a573d6000803e3d6000fd5b6000611a0833610a36565b611a245760405162461bcd60e51b815260040161079890613072565b6001600160a01b0384166000908152606d6020526040812054611a46866112e3565b611a50919061311c565b905080831115611ae6576000611a66828561311c565b6001600160a01b0387166000908152606d6020526040902054909150611a8d90829061311c565b6001600160a01b0387166000818152606d6020526040908190209290925590517f9bed35cb62ad0dba04f9d5bfee4b5bc91443e77da8a65c4c84834c51bb08b0d690611adc9084815260200190565b60405180910390a2505b606e5460405163b9209e3360e01b81526001600160a01b0386811660048301526101009092049091169063b9209e3390602401602060405180830381865afa158015611b36573d6000803e3d6000fd5b505050506040513d601f19601f82011682018060405250810190611b5a9190613159565b15610d0557606f546040516322ebca6d60e21b81526001600160a01b0390911690638baf29b490611b9390889088908890600401613176565b600060405180830381600087803b158015611bad57600080fd5b505af1158015611bc1573d6000803e3d6000fd5b50505050611bd0858585612578565b6001915050610d45565b3360008181526067602090815260408083206001600160a01b03871684529091528120549091610769918590610cf890869061311c565b606e5460009060ff1615611c375760405162461bcd60e51b81526004016107989061312f565b6001600160a01b0383166000908152606c602052604090205460ff16158015611c705750336000908152606c602052604090205460ff16155b611caf5760405162461bcd60e51b815260206004820152601060248201526f3bb0b63632ba1034b990333937bd32b760811b6044820152606401610798565b336000818152606d602052604090205490611cc9906112e3565b611cd3919061311c565b821115611d195760405162461bcd60e51b8152602060048201526014602482015273496e73756666696369656e742042616c616e636560601b6044820152606401610798565b606e5460405163b9209e3360e01b81526001600160a01b0385811660048301526101009092049091169063b9209e3390602401602060405180830381865afa158015611d69573d6000803e3d6000fd5b505050506040513d601f19601f82011682018060405250810190611d8d9190613159565b8015611e095750606f546040516372331c7360e11b81526001600160a01b039091169063e46638e690611dc890339087908790600401613176565b602060405180830381865afa158015611de5573d6000803e3d6000fd5b505050506040513d601f19601f82011682018060405250810190611e099190613159565b15610d0557606f546040516322ebca6d60e21b81526001600160a01b0390911690638baf29b490611e4290339087908790600401613176565b600060405180830381600087803b158015611e5c57600080fd5b505af1158015611e70573d6000803e3d6000fd5b50505050611e7f338484612578565b50600161076d565b61127c816113f7565b6033546001600160a01b03163314611eba5760405162461bcd60e51b81526004016107989061319a565b606a611ec782848361331a565b50606b546040805180820182526005815264332e352e3160d81b602082015290517f6a1105ac8148a3c319adbc369f9072573e8a11d3a3d195e067e7c40767ec54d192611f2f92606992606a9260ff811692916101009091046001600160a01b031690613252565b60405180910390a15050565b6033546001600160a01b03163314611f655760405162461bcd60e51b81526004016107989061319a565b6069611ec782848361331a565b611f7b33610a36565b611f975760405162461bcd60e51b815260040161079890613072565b6001600160a01b0382166000818152606c6020526040808220805460ff19168515159081179091559051339391927f7fa523c84ab8d7fc5b72f08b9e46dbbf10c39e119a075b3e317002d14bc9f43691a45050565b6033546001600160a01b031633146120165760405162461bcd60e51b81526004016107989061319a565b606e8054610100600160a81b0319166101006001600160a01b038416908102919091179091556040517fd2be862d755bca7e0d39772b2cab3a5578da9c285f69199f4c063c2294a7f36c90600090a250565b6033546001600160a01b031633146120925760405162461bcd60e51b81526004016107989061319a565b6001600160a01b0381166120f75760405162461bcd60e51b815260206004820152602660248201527f4f776e61626c653a206e6577206f776e657220697320746865207a65726f206160448201526564647265737360d01b6064820152608401610798565b6033546040516001600160a01b038084169216907f8be0079c531659141344cd1fd0a4f28419497f9722a3daafe3b4186f6b6457e090600090a3603380546001600160a01b0319166001600160a01b0392909216919091179055565b6033546001600160a01b0316331461217d5760405162461bcd60e51b81526004016107989061319a565b606f80546001600160a01b0319166001600160a01b0383169081179091556040517f7f3a888862559648ec01d97deb7b5012bff86dc91e654a1de397170db40e35b690600090a250565b60006121db6033546001600160a01b031690565b6001600160a01b0316146122275760405162461bcd60e51b8152602060048201526013602482015272185b1c9958591e481a5b9a5d1a585b1a5e9959606a1b6044820152606401610798565b606961223385826133d9565b50606a61224084826133d9565b50606b805460ff84166001600160a81b0319909116176101006001600160a01b03848116820292909217909255606e8054610100600160a81b0319169189169283029190911790556040517fd2be862d755bca7e0d39772b2cab3a5578da9c285f69199f4c063c2294a7f36c90600090a2606f80546001600160a01b0319166001600160a01b0387169081179091556040517f7f3a888862559648ec01d97deb7b5012bff86dc91e654a1de397170db40e35b690600090a2606b546040805180820182526005815264332e352e3160d81b602082015290517f6a1105ac8148a3c319adbc369f9072573e8a11d3a3d195e067e7c40767ec54d19261235f92606992606a9260ff811692916101009091046001600160a01b031690613252565b60405180910390a16110ff6129cc565b60005b83811015610906576123c285858381811061238f5761238f6130e9565b90506020020160208101906123a49190612c03565b8484848181106123b6576123b66130e9565b90506020020135610773565b600101612372565b6001600160a01b03831661242c5760405162461bcd60e51b8152602060048201526024808201527f45524332303a20617070726f76652066726f6d20746865207a65726f206164646044820152637265737360e01b6064820152608401610798565b6001600160a01b03821661248d5760405162461bcd60e51b815260206004820152602260248201527f45524332303a20617070726f766520746f20746865207a65726f206164647265604482015261737360f01b6064820152608401610798565b6001600160a01b0383811660008181526067602090815260408083209487168084529482529182902085905590518481527f8c5be1e5ebec7d5bd14f71427d1e84f3dd0314c0f7b2291e5b200ac8c7c3b92591015b60405180910390a3505050565b60006001600160a01b0382166125585760405162461bcd60e51b815260206004820152602860248201527f526f6c65734c65676163793a206163636f756e7420697320746865207a65726f604482015267206164647265737360c01b6064820152608401610798565b506001600160a01b03166000908152602091909152604090205460ff1690565b6001600160a01b0383166125dc5760405162461bcd60e51b815260206004820152602560248201527f45524332303a207472616e736665722066726f6d20746865207a65726f206164604482015264647265737360d81b6064820152608401610798565b6001600160a01b03821661263e5760405162461bcd60e51b815260206004820152602360248201527f45524332303a207472616e7366657220746f20746865207a65726f206164647260448201526265737360e81b6064820152608401610798565b6001600160a01b03831660009081526066602052604090205461266290829061311c565b6001600160a01b0380851660009081526066602052604080822093909355908416815220546126929082906130d6565b6001600160a01b0380841660008181526066602052604090819020939093559151908516907fddf252ad1be2c89b69c2b068fc378daa952ba7f163c4a11628f55a4df523b3ef906124e29085815260200190565b6001600160a01b03821661273c5760405162461bcd60e51b815260206004820152601f60248201527f45524332303a206d696e7420746f20746865207a65726f2061646472657373006044820152606401610798565b8060685461274a91906130d6565b6068556001600160a01b0382166000908152606660205260409020546127719082906130d6565b6001600160a01b0383166000818152606660205260408082209390935591519091907fddf252ad1be2c89b69c2b068fc378daa952ba7f163c4a11628f55a4df523b3ef906127c29085815260200190565b60405180910390a35050565b6127d882826124ef565b156128335760405162461bcd60e51b815260206004820152602560248201527f526f6c65734c65676163793a206163636f756e7420616c72656164792068617360448201526420726f6c6560d81b6064820152608401610798565b6001600160a01b0316600090815260209190915260409020805460ff19166001179055565b61286282826124ef565b6128be5760405162461bcd60e51b815260206004820152602760248201527f526f6c65734c65676163793a206163636f756e7420646f6573206e6f74206861604482015266766520726f6c6560c81b6064820152608401610798565b6001600160a01b0316600090815260209190915260409020805460ff19169055565b6001600160a01b0382166129405760405162461bcd60e51b815260206004820152602160248201527f45524332303a206275726e2066726f6d20746865207a65726f206164647265736044820152607360f81b6064820152608401610798565b6001600160a01b03821660009081526066602052604090205461296490829061311c565b6001600160a01b03831660009081526066602052604090205560685461298b90829061311c565b6068556040518181526000906001600160a01b038416907fddf252ad1be2c89b69c2b068fc378daa952ba7f163c4a11628f55a4df523b3ef906020016127c2565b600054610100900460ff16806129e5575060005460ff16155b612a015760405162461bcd60e51b815260040161079890613497565b600054610100900460ff16158015612a23576000805461ffff19166101011790555b612a2b612a4c565b612a33612ab6565b801561127c576000805461ff001916905550565b505050565b600054610100900460ff1680612a65575060005460ff16155b612a815760405162461bcd60e51b815260040161079890613497565b600054610100900460ff16158015612a33576000805461ffff1916610101179055801561127c576000805461ff001916905550565b600054610100900460ff1680612acf575060005460ff16155b612aeb5760405162461bcd60e51b815260040161079890613497565b600054610100900460ff16158015612b0d576000805461ffff19166101011790555b603380546001600160a01b0319163390811790915560405181906000907f8be0079c531659141344cd1fd0a4f28419497f9722a3daafe3b4186f6b6457e0908290a350801561127c576000805461ff001916905550565b6000815180845260005b81811015612b8a57602081850181015186830182015201612b6e565b506000602082860101526020601f19601f83011685010191505092915050565b602081526000610d456020830184612b64565b80356001600160a01b0381168114612bd457600080fd5b919050565b60008060408385031215612bec57600080fd5b612bf583612bbd565b946020939093013593505050565b600060208284031215612c1557600080fd5b610d4582612bbd565b60008083601f840112612c3057600080fd5b5081356001600160401b03811115612c4757600080fd5b6020830191508360208260051b8501011115612c6257600080fd5b9250929050565b60008060008060408587031215612c7f57600080fd5b84356001600160401b03811115612c9557600080fd5b612ca187828801612c1e565b90955093505060208501356001600160401b03811115612cc057600080fd5b612ccc87828801612c1e565b95989497509550505050565b600080600060608486031215612ced57600080fd5b612cf684612bbd565b9250612d0460208501612bbd565b929592945050506040919091013590565b60008060008060008060608789031215612d2e57600080fd5b86356001600160401b03811115612d4457600080fd5b612d5089828a01612c1e565b90975095505060208701356001600160401b03811115612d6f57600080fd5b612d7b89828a01612c1e565b90955093505060408701356001600160401b03811115612d9a57600080fd5b612da689828a01612c1e565b979a9699509497509295939492505050565b600080600060608486031215612dcd57600080fd5b612dd684612bbd565b9250612de460208501612bbd565b9150612df260408501612bbd565b90509250925092565b60008060208385031215612e0e57600080fd5b82356001600160401b03811115612e2457600080fd5b8301601f81018513612e3557600080fd5b80356001600160401b03811115612e4b57600080fd5b856020828401011115612e5d57600080fd5b6020919091019590945092505050565b801515811461127c57600080fd5b60008060408385031215612e8e57600080fd5b612e9783612bbd565b91506020830135612ea781612e6d565b809150509250929050565b60008060408385031215612ec557600080fd5b612ece83612bbd565b9150612edc60208401612bbd565b90509250929050565b634e487b7160e01b600052604160045260246000fd5b600082601f830112612f0c57600080fd5b81356001600160401b03811115612f2557612f25612ee5565b604051601f8201601f19908116603f011681016001600160401b0381118282101715612f5357612f53612ee5565b604052818152838201602001851015612f6b57600080fd5b816020850160208301376000918101602001919091529392505050565b60008060008060008060c08789031215612fa157600080fd5b612faa87612bbd565b9550612fb860208801612bbd565b945060408701356001600160401b03811115612fd357600080fd5b612fdf89828a01612efb565b94505060608701356001600160401b03811115612ffb57600080fd5b61300789828a01612efb565b935050608087013560ff8116811461301e57600080fd5b915061302c60a08801612bbd565b90509295509295509295565b600181811c9082168061304c57607f821691505b60208210810361306c57634e487b7160e01b600052602260045260246000fd5b50919050565b6020808252602e908201527f4167656e74526f6c653a2063616c6c657220646f6573206e6f7420686176652060408201526d746865204167656e7420726f6c6560901b606082015260800190565b634e487b7160e01b600052601160045260246000fd5b8082018082111561076d5761076d6130c0565b634e487b7160e01b600052603260045260246000fd5b60006020828403121561311157600080fd5b8135610d4581612e6d565b8181038181111561076d5761076d6130c0565b60208082526010908201526f14185d5cd8589b194e881c185d5cd95960821b604082015260600190565b60006020828403121561316b57600080fd5b8151610d4581612e6d565b6001600160a01b039384168152919092166020820152604081019190915260600190565b6020808252818101527f4f776e61626c653a2063616c6c6572206973206e6f7420746865206f776e6572604082015260600190565b600081546131dc81613038565b8085526001821680156131f6576001811461321257613249565b60ff1983166020870152602082151560051b8701019350613249565b84600052602060002060005b838110156132405781546020828a01015260018201915060208101905061321e565b87016020019450505b50505092915050565b60a08152600061326560a08301886131cf565b828103602084015261327781886131cf565b905060ff8616604084015282810360608401526132948186612b64565b91505060018060a01b03831660808301529695505050505050565b6000602082840312156132c157600080fd5b815161ffff81168114610d4557600080fd5b601f821115612a4757806000526020600020601f840160051c810160208510156132fa5750805b601f840160051c820191505b818110156109065760008155600101613306565b6001600160401b0383111561333157613331612ee5565b6133458361333f8354613038565b836132d3565b6000601f84116001811461337957600085156133615750838201355b600019600387901b1c1916600186901b178355610906565b600083815260209020601f19861690835b828110156133aa578685013582556020948501946001909201910161338a565b50868210156133c75760001960f88860031b161c19848701351681555b505060018560011b0183555050505050565b81516001600160401b038111156133f2576133f2612ee5565b613406816134008454613038565b846132d3565b6020601f82116001811461343a57600083156134225750848201515b600019600385901b1c1916600184901b178455610906565b600084815260208120601f198516915b8281101561346a578785015182556020948501946001909201910161344a565b50848210156134885786840151600019600387901b60f8161c191681555b50505050600190811b01905550565b60208082526034908201527f496e697469616c697a61626c654c65676163793a20636f6e747261637420697360408201527308185b1c9958591e481a5b9a5d1a585b1a5e995960621b60608201526080019056fea26469706673582212202a716b1348e781845ca8e8b8a56569ef3bd86a657d422493d61d05d19b39e49264736f6c634300081c0033","linkReferences":{}},"methodIdentifiers":{"addAgent(address)":"84e79842","addAgentOnTokenContract(address)":"b422d830","allowance(address,address)":"dd62ed3e","approve(address,uint256)":"095ea7b3","balanceOf(address)":"70a08231","batchBurn(address[],uint256[])":"4a6cc677","batchForcedTransfer(address[],address[],uint256[])":"42a47abc","batchFreezePartialTokens(address[],uint256[])":"fc7e5fa8","batchMint(address[],uint256[])":"68573107","batchSetAddressFrozen(address[],bool[])":"1a7af379","batchTransfer(address[],uint256[])":"88d695b2","batchUnfreezePartialTokens(address[],uint256[])":"4710362d","burn(address,uint256)":"9dc29fac","compliance()":"6290865d","decimals()":"313ce567","decreaseAllowance(address,uint256)":"a457c2d7","forcedTransfer(address,address,uint256)":"9fc1d0e7","freezePartialTokens(address,uint256)":"125c4a33","getFrozenTokens(address)":"158b1a57","identityRegistry()":"134e18f4","increaseAllowance(address,uint256)":"39509351","init(address,address,string,string,uint8,address)":"f91b619c","isAgent(address)":"1ffbb064","isFrozen(address)":"e5839836","mint(address,uint256)":"40c10f19","name()":"06fdde03","onchainID()":"aba63705","owner()":"8da5cb5b","pause()":"8456cb59","paused()":"5c975abb","recoveryAddress(address,address,address)":"9285948a","removeAgent(address)":"97a6278e","removeAgentOnTokenContract(address)":"5dc7a3cb","renounceOwnership()":"715018a6","setAddressFrozen(address,bool)":"c69c09cf","setCompliance(address)":"f8981789","setIdentityRegistry(address)":"cbf3f861","setName(string)":"c47f0027","setOnchainID(address)":"3d1ddc5b","setSymbol(string)":"b84c8246","symbol()":"95d89b41","totalSupply()":"18160ddd","transfer(address,uint256)":"a9059cbb","transferFrom(address,address,uint256)":"23b872dd","transferOwnership(address)":"f2fde38b","transferOwnershipOnTokenContract(address)":"51411b33","unfreezePartialTokens(address,uint256)":"1fe56f7d","unpause()":"3f4ba83a","version()":"54fd4d50"},"id":10}