{"abi":[{"type":"function","name":"UPGRADE_INTERFACE_VERSION","inputs":[],"outputs":[{"name":"","type":"string","internalType":"string"}],"stateMutability":"view"},{"type":"function","name":"bindCompliance","inputs":[{"name":"_compliance","type":"address","internalType":"address"}],"outputs":[],"stateMutability":"nonpayable"},{"type":"function","name":"canComplianceBind","inputs":[{"name":"_compliance","type":"address","internalType":"address"}],"outputs":[{"name":"","type":"bool","internalType":"bool"}],"stateMutability":"view"},{"type":"function","name":"getFee","inputs":[{"name":"_compliance","type":"address","internalType":"address"}],"outputs":[{"name":"","type":"tuple","internalType":"struct TransferFeesModule.Fee","components":[{"name":"rate","type":"uint256","internalType":"uint256"},{"name":"collector","type":"address","internalType":"address"}]}],"stateMutability":"view"},{"type":"function","name":"initialize","inputs":[],"outputs":[],"stateMutability":"nonpayable"},{"type":"function","name":"isComplianceBound","inputs":[{"name":"_compliance","type":"address","internalType":"address"}],"outputs":[{"name":"","type":"bool","internalType":"bool"}],"stateMutability":"view"},{"type":"function","name":"isPlugAndPlay","inputs":[],"outputs":[{"name":"","type":"bool","internalType":"bool"}],"stateMutability":"pure"},{"type":"function","name":"moduleBurnAction","inputs":[{"name":"_from","type":"address","internalType":"address"},{"name":"_value","type":"uint256","internalType":"uint256"}],"outputs":[],"stateMutability":"nonpayable"},{"type":"function","name":"moduleCheck","inputs":[{"name":"_from","type":"address","internalType":"address"},{"name":"_to","type":"address","internalType":"address"},{"name":"_value","type":"uint256","internalType":"uint256"},{"name":"_compliance","type":"address","internalType":"address"}],"outputs":[{"name":"","type":"bool","internalType":"bool"}],"stateMutability":"view"},{"type":"function","name":"moduleMintAction","inputs":[{"name":"_to","type":"address","internalType":"address"},{"name":"_value","type":"uint256","internalType":"uint256"}],"outputs":[],"stateMutability":"nonpayable"},{"type":"function","name":"moduleTransferAction","inputs":[{"name":"_from","type":"address","internalType":"address"},{"name":"_to","type":"address","internalType":"address"},{"name":"_value","type":"uint256","internalType":"uint256"}],"outputs":[],"stateMutability":"nonpayable"},{"type":"function","name":"name","inputs":[],"outputs":[{"name":"_name","type":"string","internalType":"string"}],"stateMutability":"pure"},{"type":"function","name":"owner","inputs":[],"outputs":[{"name":"","type":"address","internalType":"address"}],"stateMutability":"view"},{"type":"function","name":"proxiableUUID","inputs":[],"outputs":[{"name":"","type":"bytes32","internalType":"bytes32"}],"stateMutability":"view"},{"type":"function","name":"renounceOwnership","inputs":[],"outputs":[],"stateMutability":"nonpayable"},{"type":"function","name":"setFee","inputs":[{"name":"_rate","type":"uint256","internalType":"uint256"},{"name":"_collector","type":"address","internalType":"address"}],"outputs":[],"stateMutability":"nonpayable"},{"type":"function","name":"transferOwnership","inputs":[{"name":"newOwner","type":"address","internalType":"address"}],"outputs":[],"stateMutability":"nonpayable"},{"type":"function","name":"unbindCompliance","inputs":[{"name":"_compliance","type":"address","internalType":"address"}],"outputs":[],"stateMutability":"nonpayable"},{"type":"function","name":"upgradeToAndCall","inputs":[{"name":"newImplementation","type":"address","internalType":"address"},{"name":"data","type":"bytes","internalType":"bytes"}],"outputs":[],"stateMutability":"payable"},{"type":"event","name":"ComplianceBound","inputs":[{"name":"_compliance","type":"address","indexed":true,"internalType":"address"}],"anonymous":false},{"type":"event","name":"ComplianceUnbound","inputs":[{"name":"_compliance","type":"address","indexed":true,"internalType":"address"}],"anonymous":false},{"type":"event","name":"FeeUpdated","inputs":[{"name":"compliance","type":"address","indexed":true,"internalType":"address"},{"name":"_rate","type":"uint256","indexed":false,"internalType":"uint256"},{"name":"_collector","type":"address","indexed":false,"internalType":"address"}],"anonymous":false},{"type":"event","name":"Initialized","inputs":[{"name":"version","type":"uint64","indexed":false,"internalType":"uint64"}],"anonymous":false},{"type":"event","name":"OwnershipTransferred","inputs":[{"name":"previousOwner","type":"address","indexed":true,"internalType":"address"},{"name":"newOwner","type":"address","indexed":true,"internalType":"address"}],"anonymous":false},{"type":"event","name":"Upgraded","inputs":[{"name":"implementation","type":"address","indexed":true,"internalType":"address"}],"anonymous":false},{"type":"error","name":"AddressEmptyCode","inputs":[{"name":"target","type":"address","internalType":"address"}]},{"type":"error","name":"CollectorAddressIsNotVerified","inputs":[{"name":"compliance","type":"address","internalType":"address"},{"name":"collector","type":"address","internalType":"address"}]},{"type":"error","name":"ERC1967InvalidImplementation","inputs":[{"name":"implementation","type":"address","internalType":"address"}]},{"type":"error","name":"ERC1967NonPayable","inputs":[]},{"type":"error","name":"FailedCall","inputs":[]},{"type":"error","name":"FeeRateIsOutOfRange","inputs":[{"name":"compliance","type":"address","internalType":"address"},{"name":"rate","type":"uint256","internalType":"uint256"}]},{"type":"error","name":"InvalidInitialization","inputs":[]},{"type":"error","name":"NotInitializing","inputs":[]},{"type":"error","name":"OwnableInvalidOwner","inputs":[{"name":"owner","type":"address","internalType":"address"}]},{"type":"error","name":"OwnableUnauthorizedAccount","inputs":[{"name":"account","type":"address","internalType":"address"}]},{"type":"error","name":"UUPSUnauthorizedCallContext","inputs":[]},{"type":"error","name":"UUPSUnsupportedProxiableUUID","inputs":[{"name":"slot","type":"bytes32","internalType":"bytes32"}]}],"bytecode":{"object":"0x60a060405230608052348015601357600080fd5b5060805161181261003d60003960008181610f4201528181610f6b01526110ac01526118126000f3fe6080604052600436106101145760003560e01c8063715018a6116100a0578063b88c914811610064578063b88c914814610357578063bcc21053146103dc578063e6f5e807146103fc578063f104a8c9146101d9578063f2fde38b1461041057600080fd5b8063715018a6146102955780638129fc1c146102aa5780638da5cb5b146102bf578063ad3cb1cc14610306578063b4f2e8b81461033757600080fd5b8063372491a2116100e7578063372491a2146101d95780634a932544146101f95780634cf4d295146102195780634f1ef2861461025f57806352d1902d1461027257600080fd5b8063013b7ce4146101195780630694a5fb1461015357806306fdde03146101755780632cb7e1ec146101b9575b600080fd5b34801561012557600080fd5b5061013e610134366004611423565b6001949350505050565b60405190151581526020015b60405180910390f35b34801561015f57600080fd5b5061017361016e366004611476565b610430565b005b34801561018157600080fd5b506040805180820190915260128152715472616e73666572466565734d6f64756c6560701b60208201525b60405161014a91906114b7565b3480156101c557600080fd5b506101736101d43660046114ea565b610550565b3480156101e557600080fd5b506101736101f436600461152b565b6107c4565b34801561020557600080fd5b50610173610214366004611476565b610808565b34801561022557600080fd5b5061013e610234366004611476565b6001600160a01b031660009081526000805160206117bd833981519152602052604090205460ff1690565b61017361026d36600461156d565b61094b565b34801561027e57600080fd5b5061028761096a565b60405190815260200161014a565b3480156102a157600080fd5b50610173610987565b3480156102b657600080fd5b5061017361099b565b3480156102cb57600080fd5b507f9016d09d72d40fdae2fd8ceac6b6234c7706214fd39c1cd1e609a0528c199300546040516001600160a01b03909116815260200161014a565b34801561031257600080fd5b506101ac604051806040016040528060058152602001640352e302e360dc1b81525081565b34801561034357600080fd5b50610173610352366004611639565b610aa9565b34801561036357600080fd5b506103b8610372366004611476565b604080518082018252600080825260209182018190526001600160a01b039384168152808252829020825180840190935280548352600101549092169181019190915290565b60408051825181526020928301516001600160a01b0316928101929092520161014a565b3480156103e857600080fd5b5061013e6103f7366004611476565b610ce8565b34801561040857600080fd5b50600061013e565b34801561041c57600080fd5b5061017361042b366004611476565b610dbf565b3360009081526000805160206117bd833981519152602081905260409091205460ff166104785760405162461bcd60e51b815260040161046f90611669565b60405180910390fd5b6000805160206117bd8339815191526001600160a01b0383166104dd5760405162461bcd60e51b815260206004820152601f60248201527f696e76616c696420617267756d656e74202d207a65726f206164647265737300604482015260640161046f565b336001600160a01b038416146105055760405162461bcd60e51b815260040161046f906116a0565b6001600160a01b038316600081815260208390526040808220805460ff19169055517f408b49d9be1c914c52a0227e18a077e5a892dddf32a26cfa94a5d9708fad77189190a2505050565b3360009081526000805160206117bd833981519152602081905260409091205460ff1661058f5760405162461bcd60e51b815260040161046f90611669565b600061059b3386610dfd565b905060006105a93386610dfd565b9050806001600160a01b0316826001600160a01b0316036105cb5750506107be565b3360009081526020818152604091829020825180840190935280548084526001909101546001600160a01b0316918301919091521580610620575080602001516001600160a01b0316876001600160a01b0316145b80610640575080602001516001600160a01b0316866001600160a01b0316145b1561064d575050506107be565b80516000906127109061066090886116e1565b61066a9190611706565b90508060000361067d57505050506107be565b6000336001600160a01b0316636a3edf286040518163ffffffff1660e01b8152600401602060405180830381865afa1580156106bd573d6000803e3d6000fd5b505050506040513d601f19601f820116820180604052508101906106e19190611728565b6020840151604051639fc1d0e760e01b81526001600160a01b038b8116600483015291821660248201526044810185905291925060009190831690639fc1d0e7906064016020604051808303816000875af1158015610744573d6000803e3d6000fd5b505050506040513d601f19601f820116820180604052508101906107689190611745565b9050806107b75760405162461bcd60e51b815260206004820152601e60248201527f7472616e736665722066656520636f6c6c656374696f6e206661696c65640000604482015260640161046f565b5050505050505b50505050565b3360009081526000805160206117bd833981519152602081905260409091205460ff166108035760405162461bcd60e51b815260040161046f90611669565b505050565b6000805160206117bd8339815191526001600160a01b03821661086d5760405162461bcd60e51b815260206004820152601f60248201527f696e76616c696420617267756d656e74202d207a65726f206164647265737300604482015260640161046f565b6001600160a01b03821660009081526020829052604090205460ff16156108d65760405162461bcd60e51b815260206004820152601860248201527f636f6d706c69616e636520616c726561647920626f756e640000000000000000604482015260640161046f565b336001600160a01b038316146108fe5760405162461bcd60e51b815260040161046f906116a0565b6001600160a01b038216600081815260208390526040808220805460ff19166001179055517f1f7b76c58fb697eb53c6c7c1becb96911516a136e24d7ced386b2355358b75a39190a25050565b610953610f37565b61095c82610fdc565b6109668282610fe4565b5050565b60006109746110a1565b5060008051602061179d83398151915290565b61098f6110ea565b6109996000611145565b565b7ff0c57e16840df040f15088dc2f81fe391c3923bec73e23a9662efc9c229c6a008054600160401b810460ff16159067ffffffffffffffff166000811580156109e15750825b905060008267ffffffffffffffff1660011480156109fe5750303b155b905081158015610a0c575080155b15610a2a5760405163f92ee8a960e01b815260040160405180910390fd5b845467ffffffffffffffff191660011785558315610a5457845460ff60401b1916600160401b1785555b610a5c6111b6565b8315610aa257845460ff60401b19168555604051600181527fc7f505b2f371ae2175ee4913f4499e1f2633a7b5936321eed1cdaeb6115181d29060200160405180910390a15b5050505050565b3360009081526000805160206117bd833981519152602081905260409091205460ff16610ae85760405162461bcd60e51b815260040161046f90611669565b6000336001600160a01b0316636a3edf286040518163ffffffff1660e01b8152600401602060405180830381865afa158015610b28573d6000803e3d6000fd5b505050506040513d601f19601f82011682018060405250810190610b4c9190611728565b9050612710841115610b7a57604051630e33b43d60e01b81523360048201526024810185905260440161046f565b6000816001600160a01b031663134e18f46040518163ffffffff1660e01b8152600401602060405180830381865afa158015610bba573d6000803e3d6000fd5b505050506040513d601f19601f82011682018060405250810190610bde9190611728565b60405163b9209e3360e01b81526001600160a01b0386811660048301529192509082169063b9209e3390602401602060405180830381865afa158015610c28573d6000803e3d6000fd5b505050506040513d601f19601f82011682018060405250810190610c4c9190611745565b610c7a57604051639bca970d60e01b81523360048201526001600160a01b038516602482015260440161046f565b336000818152602081815260409182902088815560010180546001600160a01b0319166001600160a01b0389169081179091558251898152918201527f47b231849a3ba3af6f4ec32a2da80e3106ab81fb5eca9ffde8b33ed2901af2b6910160405180910390a25050505050565b600080826001600160a01b0316636a3edf286040518163ffffffff1660e01b8152600401602060405180830381865afa158015610d29573d6000803e3d6000fd5b505050506040513d601f19601f82011682018060405250810190610d4d9190611728565b6040516307feec1960e21b81523060048201529091506001600160a01b03821690631ffbb06490602401602060405180830381865afa158015610d94573d6000803e3d6000fd5b505050506040513d601f19601f82011682018060405250810190610db89190611745565b9392505050565b610dc76110ea565b6001600160a01b038116610df157604051631e4fbdf760e01b81526000600482015260240161046f565b610dfa81611145565b50565b6000826001600160a01b0316636a3edf286040518163ffffffff1660e01b8152600401602060405180830381865afa158015610e3d573d6000803e3d6000fd5b505050506040513d601f19601f82011682018060405250810190610e619190611728565b6001600160a01b031663134e18f46040518163ffffffff1660e01b8152600401602060405180830381865afa158015610e9e573d6000803e3d6000fd5b505050506040513d601f19601f82011682018060405250810190610ec29190611728565b604051633c3ad79560e21b81526001600160a01b038481166004830152919091169063f0eb5e5490602401602060405180830381865afa158015610f0a573d6000803e3d6000fd5b505050506040513d601f19601f82011682018060405250810190610f2e9190611728565b90505b92915050565b306001600160a01b037f0000000000000000000000000000000000000000000000000000000000000000161480610fbe57507f00000000000000000000000000000000000000000000000000000000000000006001600160a01b0316610fb260008051602061179d833981519152546001600160a01b031690565b6001600160a01b031614155b156109995760405163703e46dd60e11b815260040160405180910390fd5b610dfa6110ea565b816001600160a01b03166352d1902d6040518163ffffffff1660e01b8152600401602060405180830381865afa92505050801561103e575060408051601f3d908101601f1916820190925261103b91810190611767565b60015b61106657604051634c9c8ce360e01b81526001600160a01b038316600482015260240161046f565b60008051602061179d833981519152811461109757604051632a87526960e21b81526004810182905260240161046f565b61080383836111cf565b306001600160a01b037f000000000000000000000000000000000000000000000000000000000000000016146109995760405163703e46dd60e11b815260040160405180910390fd5b3361111c7f9016d09d72d40fdae2fd8ceac6b6234c7706214fd39c1cd1e609a0528c199300546001600160a01b031690565b6001600160a01b0316146109995760405163118cdaa760e01b815233600482015260240161046f565b7f9016d09d72d40fdae2fd8ceac6b6234c7706214fd39c1cd1e609a0528c19930080546001600160a01b031981166001600160a01b03848116918217845560405192169182907f8be0079c531659141344cd1fd0a4f28419497f9722a3daafe3b4186f6b6457e090600090a3505050565b6111be611225565b6111c73361126e565b61099961127f565b6111d882611287565b6040516001600160a01b038316907fbc7cd75a20ee27fd9adebab32041f755214dbc6bffa90cc0225b39da2e5c2d3b90600090a280511561121d5761080382826112ec565b610966611362565b7ff0c57e16840df040f15088dc2f81fe391c3923bec73e23a9662efc9c229c6a0054600160401b900460ff1661099957604051631afcd79f60e31b815260040160405180910390fd5b611276611225565b610dfa81611381565b610999611225565b806001600160a01b03163b6000036112bd57604051634c9c8ce360e01b81526001600160a01b038216600482015260240161046f565b60008051602061179d83398151915280546001600160a01b0319166001600160a01b0392909216919091179055565b6060600080846001600160a01b0316846040516113099190611780565b600060405180830381855af49150503d8060008114611344576040519150601f19603f3d011682016040523d82523d6000602084013e611349565b606091505b5091509150611359858383611389565b95945050505050565b34156109995760405163b398979f60e01b815260040160405180910390fd5b610dc7611225565b60608261139e57611399826113e5565b610db8565b81511580156113b557506001600160a01b0384163b155b156113de57604051639996b31560e01b81526001600160a01b038516600482015260240161046f565b5092915050565b8051156113f55780518082602001fd5b60405163d6bda27560e01b815260040160405180910390fd5b6001600160a01b0381168114610dfa57600080fd5b6000806000806080858703121561143957600080fd5b84356114448161140e565b935060208501356114548161140e565b925060408501359150606085013561146b8161140e565b939692955090935050565b60006020828403121561148857600080fd5b8135610db88161140e565b60005b838110156114ae578181015183820152602001611496565b50506000910152565b60208152600082518060208401526114d6816040850160208701611493565b601f01601f19169190910160400192915050565b6000806000606084860312156114ff57600080fd5b833561150a8161140e565b9250602084013561151a8161140e565b929592945050506040919091013590565b6000806040838503121561153e57600080fd5b82356115498161140e565b946020939093013593505050565b634e487b7160e01b600052604160045260246000fd5b6000806040838503121561158057600080fd5b823561158b8161140e565b9150602083013567ffffffffffffffff8111156115a757600080fd5b8301601f810185136115b857600080fd5b803567ffffffffffffffff8111156115d2576115d2611557565b604051601f8201601f19908116603f0116810167ffffffffffffffff8111828210171561160157611601611557565b60405281815282820160200187101561161957600080fd5b816020840160208301376000602083830101528093505050509250929050565b6000806040838503121561164c57600080fd5b82359150602083013561165e8161140e565b809150509250929050565b6020808252601e908201527f6f6e6c7920626f756e6420636f6d706c69616e63652063616e2063616c6c0000604082015260600190565b60208082526021908201527f6f6e6c7920636f6d706c69616e636520636f6e74726163742063616e2063616c6040820152601b60fa1b606082015260800190565b8082028115828204841417610f3157634e487b7160e01b600052601160045260246000fd5b60008261172357634e487b7160e01b600052601260045260246000fd5b500490565b60006020828403121561173a57600080fd5b8151610db88161140e565b60006020828403121561175757600080fd5b81518015158114610db857600080fd5b60006020828403121561177957600080fd5b5051919050565b60008251611792818460208701611493565b919091019291505056fe360894a13ba1a3210667c828492db98dca3e2076cc3735a920a3ca505d382bbcf6cc97de1266c180cd39f3b311632644143ce7873d2927755382ad4b39e8ae00a264697066735822122032f873d93793fb29a7d3994606dcffd6238c3dd27b4e7008548e3bcf2cbf2f1464736f6c634300081c0033","linkReferences":{}},"methodIdentifiers":{"UPGRADE_INTERFACE_VERSION()":"ad3cb1cc","bindCompliance(address)":"4a932544","canComplianceBind(address)":"bcc21053","getFee(address)":"b88c9148","initialize()":"8129fc1c","isComplianceBound(address)":"4cf4d295","isPlugAndPlay()":"e6f5e807","moduleBurnAction(address,uint256)":"372491a2","moduleCheck(address,address,uint256,address)":"013b7ce4","moduleMintAction(address,uint256)":"f104a8c9","moduleTransferAction(address,address,uint256)":"2cb7e1ec","name()":"06fdde03","owner()":"8da5cb5b","proxiableUUID()":"52d1902d","renounceOwnership()":"715018a6","setFee(uint256,address)":"b4f2e8b8","transferOwnership(address)":"f2fde38b","unbindCompliance(address)":"0694a5fb","upgradeToAndCall(address,bytes)":"4f1ef286"},"id":44}