{"abi":[{"type":"constructor","inputs":[{"name":"implementationAuthority_","type":"address","internalType":"address"},{"name":"idFactory_","type":"address","internalType":"address"}],"stateMutability":"nonpayable"},{"type":"function","name":"deployTREXSuite","inputs":[{"name":"_salt","type":"string","internalType":"string"},{"name":"_tokenDetails","type":"tuple","internalType":"struct ITREXFactory.TokenDetails","components":[{"name":"owner","type":"address","internalType":"address"},{"name":"name","type":"string","internalType":"string"},{"name":"symbol","type":"string","internalType":"string"},{"name":"decimals","type":"uint8","internalType":"uint8"},{"name":"irs","type":"address","internalType":"address"},{"name":"ONCHAINID","type":"address","internalType":"address"},{"name":"irAgents","type":"address[]","internalType":"address[]"},{"name":"tokenAgents","type":"address[]","internalType":"address[]"},{"name":"complianceModules","type":"address[]","internalType":"address[]"},{"name":"complianceSettings","type":"bytes[]","internalType":"bytes[]"}]},{"name":"_claimDetails","type":"tuple","internalType":"struct ITREXFactory.ClaimDetails","components":[{"name":"claimTopics","type":"uint256[]","internalType":"uint256[]"},{"name":"issuers","type":"address[]","internalType":"address[]"},{"name":"issuerClaims","type":"uint256[][]","internalType":"uint256[][]"}]}],"outputs":[],"stateMutability":"nonpayable"},{"type":"function","name":"getIdFactory","inputs":[],"outputs":[{"name":"","type":"address","internalType":"address"}],"stateMutability":"view"},{"type":"function","name":"getImplementationAuthority","inputs":[],"outputs":[{"name":"","type":"address","internalType":"address"}],"stateMutability":"view"},{"type":"function","name":"getToken","inputs":[{"name":"_salt","type":"string","internalType":"string"}],"outputs":[{"name":"","type":"address","internalType":"address"}],"stateMutability":"view"},{"type":"function","name":"owner","inputs":[],"outputs":[{"name":"","type":"address","internalType":"address"}],"stateMutability":"view"},{"type":"function","name":"recoverContractOwnership","inputs":[{"name":"_contract","type":"address","internalType":"address"},{"name":"_newOwner","type":"address","internalType":"address"}],"outputs":[],"stateMutability":"nonpayable"},{"type":"function","name":"renounceOwnership","inputs":[],"outputs":[],"stateMutability":"nonpayable"},{"type":"function","name":"setIdFactory","inputs":[{"name":"idFactory_","type":"address","internalType":"address"}],"outputs":[],"stateMutability":"nonpayable"},{"type":"function","name":"setImplementationAuthority","inputs":[{"name":"implementationAuthority_","type":"address","internalType":"address"}],"outputs":[],"stateMutability":"nonpayable"},{"type":"function","name":"tokenDeployed","inputs":[{"name":"","type":"string","internalType":"string"}],"outputs":[{"name":"","type":"address","internalType":"address"}],"stateMutability":"view"},{"type":"function","name":"transferOwnership","inputs":[{"name":"newOwner","type":"address","internalType":"address"}],"outputs":[],"stateMutability":"nonpayable"},{"type":"event","name":"Deployed","inputs":[{"name":"_addr","type":"address","indexed":true,"internalType":"address"}],"anonymous":false},{"type":"event","name":"IdFactorySet","inputs":[{"name":"_idFactory","type":"address","indexed":false,"internalType":"address"}],"anonymous":false},{"type":"event","name":"ImplementationAuthoritySet","inputs":[{"name":"_implementationAuthority","type":"address","indexed":false,"internalType":"address"}],"anonymous":false},{"type":"event","name":"OwnershipTransferred","inputs":[{"name":"previousOwner","type":"address","indexed":true,"internalType":"address"},{"name":"newOwner","type":"address","indexed":true,"internalType":"address"}],"anonymous":false},{"type":"event","name":"TREXSuiteDeployed","inputs":[{"name":"_token","type":"address","indexed":true,"internalType":"address"},{"name":"_ir","type":"address","indexed":false,"internalType":"address"},{"name":"_irs","type":"address","indexed":false,"internalType":"address"},{"name":"_tir","type":"address","indexed":false,"internalType":"address"},{"name":"_ctr","type":"address","indexed":false,"internalType":"address"},{"name":"_mc","type":"address","indexed":false,"internalType":"address"},{"name":"_salt","type":"string","indexed":true,"internalType":"string"}],"anonymous":false},{"type":"error","name":"OwnableInvalidOwner","inputs":[{"name":"owner","type":"address","internalType":"address"}]},{"type":"error","name":"OwnableUnauthorizedAccount","inputs":[{"name":"account","type":"address","internalType":"address"}]}],"bytecode":{"object":"0x608060405234801561001057600080fd5b50604051615f6a380380615f6a83398101604081905261002f916105b7565b338061005657604051631e4fbdf760e01b8152600060048201526024015b60405180910390fd5b61005f81610079565b50610069826100c9565b610072816104c0565b505061060c565b600080546001600160a01b038381166001600160a01b0319831681178455604051919092169283917f8be0079c531659141344cd1fd0a4f28419497f9722a3daafe3b4186f6b6457e09190a35050565b6100d161056c565b6001600160a01b0381166101275760405162461bcd60e51b815260206004820152601f60248201527f696e76616c696420617267756d656e74202d207a65726f206164647265737300604482015260640161004d565b60006001600160a01b0316816001600160a01b031663709bc7f36040518163ffffffff1660e01b8152600401602060405180830381865afa158015610170573d6000803e3d6000fd5b505050506040513d601f19601f8201168201806040525081019061019491906105ea565b6001600160a01b03161415801561021f575060006001600160a01b0316816001600160a01b0316636ff6e83f6040518163ffffffff1660e01b8152600401602060405180830381865afa1580156101ef573d6000803e3d6000fd5b505050506040513d601f19601f8201168201806040525081019061021391906105ea565b6001600160a01b031614155b801561029f575060006001600160a01b0316816001600160a01b0316631ee9ce8b6040518163ffffffff1660e01b8152600401602060405180830381865afa15801561026f573d6000803e3d6000fd5b505050506040513d601f19601f8201168201806040525081019061029391906105ea565b6001600160a01b031614155b801561031f575060006001600160a01b0316816001600160a01b0316639e3e7bb96040518163ffffffff1660e01b8152600401602060405180830381865afa1580156102ef573d6000803e3d6000fd5b505050506040513d601f19601f8201168201806040525081019061031391906105ea565b6001600160a01b031614155b801561039f575060006001600160a01b0316816001600160a01b03166361f898256040518163ffffffff1660e01b8152600401602060405180830381865afa15801561036f573d6000803e3d6000fd5b505050506040513d601f19601f8201168201806040525081019061039391906105ea565b6001600160a01b031614155b801561041f575060006001600160a01b0316816001600160a01b031663fedcc0526040518163ffffffff1660e01b8152600401602060405180830381865afa1580156103ef573d6000803e3d6000fd5b505050506040513d601f19601f8201168201806040525081019061041391906105ea565b6001600160a01b031614155b61046b5760405162461bcd60e51b815260206004820181905260248201527f696e76616c696420496d706c656d656e746174696f6e20417574686f72697479604482015260640161004d565b600180546001600160a01b0319166001600160a01b0383169081179091556040519081527f3b1074392ed8e8424715d0dda2197eede67080b377fc8370e26f3e882207f6b8906020015b60405180910390a150565b6104c861056c565b6001600160a01b03811661051e5760405162461bcd60e51b815260206004820152601f60248201527f696e76616c696420617267756d656e74202d207a65726f206164647265737300604482015260640161004d565b600280546001600160a01b0319166001600160a01b0383169081179091556040519081527fae81f4fee1b2d830e39ae449967642aaa0e5a1771aa200d0a50853010992242c906020016104b5565b6000546001600160a01b031633146105995760405163118cdaa760e01b815233600482015260240161004d565b565b80516001600160a01b03811681146105b257600080fd5b919050565b600080604083850312156105ca57600080fd5b6105d38361059b565b91506105e16020840161059b565b90509250929050565b6000602082840312156105fc57600080fd5b6106058261059b565b9392505050565b61594f8061061b6000396000f3fe608060405234801561001057600080fd5b50600436106100a95760003560e01c806392dd9d651161007157806392dd9d6514610116578063c1733f6814610129578063ccd41cce1461013c578063cf753d371461014f578063f2fde38b14610162578063fb88d79c1461017557600080fd5b80632d5f1187146100ae57806350b01838146100d75780635f2773a5146100ec578063715018a6146100fd5780638da5cb5b14610105575b600080fd5b6001546001600160a01b03165b6040516001600160a01b03909116815260200160405180910390f35b6100ea6100e5366004611964565b6101a9565b005b6002546001600160a01b03166100bb565b6100ea610210565b6000546001600160a01b03166100bb565b6100ea61012436600461199d565b610224565b6100bb6101373660046119c1565b610620565b6100ea61014a36600461199d565b610655565b6100ea61015d366004611ada565b610701565b6100ea61017036600461199d565b6115c5565b6100bb610183366004611b7b565b80516020818301810180516003825292820191909301209152546001600160a01b031681565b6101b1611603565b60405163f2fde38b60e01b81526001600160a01b03828116600483015283169063f2fde38b90602401600060405180830381600087803b1580156101f457600080fd5b505af1158015610208573d6000803e3d6000fd5b505050505050565b610218611603565b6102226000611630565b565b61022c611603565b6001600160a01b0381166102875760405162461bcd60e51b815260206004820152601f60248201527f696e76616c696420617267756d656e74202d207a65726f20616464726573730060448201526064015b60405180910390fd5b60006001600160a01b0316816001600160a01b031663709bc7f36040518163ffffffff1660e01b8152600401602060405180830381865afa1580156102d0573d6000803e3d6000fd5b505050506040513d601f19601f820116820180604052508101906102f49190611bb8565b6001600160a01b03161415801561037f575060006001600160a01b0316816001600160a01b0316636ff6e83f6040518163ffffffff1660e01b8152600401602060405180830381865afa15801561034f573d6000803e3d6000fd5b505050506040513d601f19601f820116820180604052508101906103739190611bb8565b6001600160a01b031614155b80156103ff575060006001600160a01b0316816001600160a01b0316631ee9ce8b6040518163ffffffff1660e01b8152600401602060405180830381865afa1580156103cf573d6000803e3d6000fd5b505050506040513d601f19601f820116820180604052508101906103f39190611bb8565b6001600160a01b031614155b801561047f575060006001600160a01b0316816001600160a01b0316639e3e7bb96040518163ffffffff1660e01b8152600401602060405180830381865afa15801561044f573d6000803e3d6000fd5b505050506040513d601f19601f820116820180604052508101906104739190611bb8565b6001600160a01b031614155b80156104ff575060006001600160a01b0316816001600160a01b03166361f898256040518163ffffffff1660e01b8152600401602060405180830381865afa1580156104cf573d6000803e3d6000fd5b505050506040513d601f19601f820116820180604052508101906104f39190611bb8565b6001600160a01b031614155b801561057f575060006001600160a01b0316816001600160a01b031663fedcc0526040518163ffffffff1660e01b8152600401602060405180830381865afa15801561054f573d6000803e3d6000fd5b505050506040513d601f19601f820116820180604052508101906105739190611bb8565b6001600160a01b031614155b6105cb5760405162461bcd60e51b815260206004820181905260248201527f696e76616c696420496d706c656d656e746174696f6e20417574686f72697479604482015260640161027e565b600180546001600160a01b0319166001600160a01b0383169081179091556040519081527f3b1074392ed8e8424715d0dda2197eede67080b377fc8370e26f3e882207f6b8906020015b60405180910390a150565b600060038383604051610634929190611bd5565b908152604051908190036020019020546001600160a01b0316905092915050565b61065d611603565b6001600160a01b0381166106b35760405162461bcd60e51b815260206004820152601f60248201527f696e76616c696420617267756d656e74202d207a65726f206164647265737300604482015260640161027e565b600280546001600160a01b0319166001600160a01b0383169081179091556040519081527fae81f4fee1b2d830e39ae449967642aaa0e5a1771aa200d0a50853010992242c90602001610615565b610709611603565b60006001600160a01b03166003846040516107249190611c09565b908152604051908190036020019020546001600160a01b0316146107835760405162461bcd60e51b81526020600482015260166024820152751d1bdad95b88185b1c9958591e4819195c1b1bde595960521b604482015260640161027e565b6107906040820182611c25565b905061079f6020830183611c25565b9050146107ee5760405162461bcd60e51b815260206004820152601760248201527f636c61696d207061747465726e206e6f742076616c6964000000000000000000604482015260640161027e565b60056107fd6020830183611c25565b905011156108575760405162461bcd60e51b815260206004820152602160248201527f6d6178203520636c61696d2069737375657273206174206465706c6f796d656e6044820152601d60fa1b606482015260840161027e565b60056108638280611c25565b905011156108b35760405162461bcd60e51b815260206004820181905260248201527f6d6178203520636c61696d20746f70696373206174206465706c6f796d656e74604482015260640161027e565b60056108c260c0840184611c25565b9050111580156108e1575060056108dc60e0840184611c25565b905011155b61092d5760405162461bcd60e51b815260206004820152601a60248201527f6d61782035206167656e7473206174206465706c6f796d656e74000000000000604482015260640161027e565b601e61093d610100840184611c25565b905011156109995760405162461bcd60e51b815260206004820152602360248201527f6d6178203330206d6f64756c6520616374696f6e73206174206465706c6f796d604482015262195b9d60ea1b606482015260840161027e565b6109a7610120830183611c25565b90506109b7610100840184611c25565b90501015610a075760405162461bcd60e51b815260206004820152601a60248201527f696e76616c696420636f6d706c69616e6365207061747465726e000000000000604482015260640161027e565b600154600090610a219085906001600160a01b0316611680565b600154909150600090610a3e9086906001600160a01b0316611709565b600154909150600090610a5b9087906001600160a01b031661171c565b9050600080610a7060a088016080890161199d565b6001600160a01b031603610a9c57600154610a959088906001600160a01b031661172f565b9050610aaf565b610aac60a087016080880161199d565b90505b600154600090610acc9089906001600160a01b0316878786611742565b600154909150600090610bb4908a906001600160a01b03168487610af360208e018e611c76565b8080601f016020809104026020016040519081016040528093929190818152602001838380828437600081840152601f19601f820116905080830192505050505050508d8060400190610b469190611c76565b8080601f016020809104026020016040519081016040528093929190818152602001838380828437600081840152601f19601f820116905080830192505050505050508e6060016020810190610b9c9190611cbd565b8f60a0016020810190610baf919061199d565b6117e3565b90506000610bc860c08a0160a08b0161199d565b6001600160a01b031603610cbb576002546000906001600160a01b0316633d56ff6683610bf860208d018d61199d565b8d6040518463ffffffff1660e01b8152600401610c1793929190611d0c565b6020604051808303816000875af1158015610c36573d6000803e3d6000fd5b505050506040513d601f19601f82011682018060405250810190610c5a9190611bb8565b604051633d1ddc5b60e01b81526001600160a01b03808316600483015291925090831690633d1ddc5b90602401600060405180830381600087803b158015610ca157600080fd5b505af1158015610cb5573d6000803e3d6000fd5b50505050505b60005b610cc88880611c25565b9050811015610d5d576001600160a01b03861663c7b22551610cea8a80611c25565b84818110610cfa57610cfa611d41565b905060200201356040518263ffffffff1660e01b8152600401610d1f91815260200190565b600060405180830381600087803b158015610d3957600080fd5b505af1158015610d4d573d6000803e3d6000fd5b505060019092019150610cbe9050565b5060005b610d6e6020890189611c25565b9050811015610e43576001600160a01b038716639f63ea98610d9360208b018b611c25565b84818110610da357610da3611d41565b9050602002016020810190610db8919061199d565b610dc560408c018c611c25565b85818110610dd557610dd5611d41565b9050602002810190610de79190611c25565b6040518463ffffffff1660e01b8152600401610e0593929190611d57565b600060405180830381600087803b158015610e1f57600080fd5b505af1158015610e33573d6000803e3d6000fd5b505060019092019150610d619050565b5060405163690a49f960e01b81526001600160a01b03838116600483015284169063690a49f990602401600060405180830381600087803b158015610e8757600080fd5b505af1158015610e9b573d6000803e3d6000fd5b5050604051634273cc2160e11b81526001600160a01b038481166004830152851692506384e798429150602401600060405180830381600087803b158015610ee257600080fd5b505af1158015610ef6573d6000803e3d6000fd5b5050505060005b610f0a60c08a018a611c25565b9050811015610fb9576001600160a01b0383166384e79842610f2f60c08c018c611c25565b84818110610f3f57610f3f611d41565b9050602002016020810190610f54919061199d565b6040516001600160e01b031960e084901b1681526001600160a01b039091166004820152602401600060405180830381600087803b158015610f9557600080fd5b505af1158015610fa9573d6000803e3d6000fd5b505060019092019150610efd9050565b5060005b610fca60e08a018a611c25565b9050811015611079576001600160a01b0382166384e79842610fef60e08c018c611c25565b84818110610fff57610fff611d41565b9050602002016020810190611014919061199d565b6040516001600160e01b031960e084901b1681526001600160a01b039091166004820152602401600060405180830381600087803b15801561105557600080fd5b505af1158015611069573d6000803e3d6000fd5b505060019092019150610fbd9050565b5060005b61108b6101008a018a611c25565b90508110156112c0576001600160a01b03851663a446d49f6110b16101008c018c611c25565b848181106110c1576110c1611d41565b90506020020160208101906110d6919061199d565b6040516001600160e01b031960e084901b1681526001600160a01b039091166004820152602401602060405180830381865afa15801561111a573d6000803e3d6000fd5b505050506040513d601f19601f8201168201806040525081019061113e9190611da1565b6111de576001600160a01b038516631ed86f1961115f6101008c018c611c25565b8481811061116f5761116f611d41565b9050602002016020810190611184919061199d565b6040516001600160e01b031960e084901b1681526001600160a01b039091166004820152602401600060405180830381600087803b1580156111c557600080fd5b505af11580156111d9573d6000803e3d6000fd5b505050505b6111ec6101208a018a611c25565b90508110156112b8576001600160a01b03851663efb22d336112126101208c018c611c25565b8481811061122257611222611d41565b90506020028101906112349190611c76565b6112426101008e018e611c25565b8681811061125257611252611d41565b9050602002016020810190611267919061199d565b6040518463ffffffff1660e01b815260040161128593929190611dc3565b600060405180830381600087803b15801561129f57600080fd5b505af11580156112b3573d6000803e3d6000fd5b505050505b60010161107d565b508060038a6040516112d29190611c09565b9081526040516020918190038201902080546001600160a01b0319166001600160a01b039384161790559082169063f2fde38b90611312908b018b61199d565b6040516001600160e01b031960e084901b1681526001600160a01b039091166004820152602401600060405180830381600087803b15801561135357600080fd5b505af1158015611367573d6000803e3d6000fd5b5050506001600160a01b038316905063f2fde38b61138860208b018b61199d565b6040516001600160e01b031960e084901b1681526001600160a01b039091166004820152602401600060405180830381600087803b1580156113c957600080fd5b505af11580156113dd573d6000803e3d6000fd5b5050506001600160a01b038716905063f2fde38b6113fe60208b018b61199d565b6040516001600160e01b031960e084901b1681526001600160a01b039091166004820152602401600060405180830381600087803b15801561143f57600080fd5b505af1158015611453573d6000803e3d6000fd5b5050506001600160a01b038616905063f2fde38b61147460208b018b61199d565b6040516001600160e01b031960e084901b1681526001600160a01b039091166004820152602401600060405180830381600087803b1580156114b557600080fd5b505af11580156114c9573d6000803e3d6000fd5b5050506001600160a01b038516905063f2fde38b6114ea60208b018b61199d565b6040516001600160e01b031960e084901b1681526001600160a01b039091166004820152602401600060405180830381600087803b15801561152b57600080fd5b505af115801561153f573d6000803e3d6000fd5b50505050886040516115519190611c09565b604080519182900382206001600160a01b0385811684528681166020850152898116848401528881166060850152878116608085015291519092918416917f057adae5fa3e9caa8a0d584edff60f61558d33f073412ec2d66d558b739e0a41919081900360a00190a3505050505050505050565b6115cd611603565b6001600160a01b0381166115f757604051631e4fbdf760e01b81526000600482015260240161027e565b61160081611630565b50565b6000546001600160a01b031633146102225760405163118cdaa760e01b815233600482015260240161027e565b600080546001600160a01b038381166001600160a01b0319831681178455604051919092169283917f8be0079c531659141344cd1fd0a4f28419497f9722a3daafe3b4186f6b6457e09190a35050565b6000806040518060200161169390611901565b601f1982820381018352601f9091011660408181526001600160a01b0386166020830152919250600091016040516020818303038152906040529050600082826040516020016116e4929190611e04565b60405160208183030381529060405290506116ff868261187c565b9695505050505050565b600080604051806020016116939061190e565b600080604051806020016116939061191b565b6000806040518060200161169390611928565b6000806040518060200161175590611935565b601f1982820381018352601f9091011660408181526001600160a01b03898116602084015288811682840152878116606084015286166080808401919091528151808403909101815260a083019091529192506000906117bb908490849060c001611e04565b60405160208183030381529060405290506117d6898261187c565b9998505050505050505050565b600080604051806020016117f690611942565b6020820181038252601f19601f82011660405250905060008989898989898960405160200161182b9796959493929190611e33565b604051602081830303815290604052905060008282604051602001611851929190611e04565b604051602081830303815290604052905061186c8c8261187c565b9c9b505050505050505050505050565b600080836040516020016118909190611c09565b60405160208183030381529060405280519060200120905060008360200184518381836000f592505050803b6118c557600080fd5b6040516001600160a01b038216907ff40fcec21964ffb566044d083b4073f29f7f7929110ea19e1b3ebe375d89055e90600090a2949350505050565b6108fc80611ea283390190565b6108fc8061279e83390190565b6108fc8061309a83390190565b6108fc8061399683390190565b6109bf8061429283390190565b610cc980614c5183390190565b6001600160a01b038116811461160057600080fd5b6000806040838503121561197757600080fd5b82356119828161194f565b915060208301356119928161194f565b809150509250929050565b6000602082840312156119af57600080fd5b81356119ba8161194f565b9392505050565b600080602083850312156119d457600080fd5b823567ffffffffffffffff8111156119eb57600080fd5b8301601f810185136119fc57600080fd5b803567ffffffffffffffff811115611a1357600080fd5b856020828401011115611a2557600080fd5b6020919091019590945092505050565b634e487b7160e01b600052604160045260246000fd5b600082601f830112611a5c57600080fd5b813567ffffffffffffffff811115611a7657611a76611a35565b604051601f8201601f19908116603f0116810167ffffffffffffffff81118282101715611aa557611aa5611a35565b604052818152838201602001851015611abd57600080fd5b816020850160208301376000918101602001919091529392505050565b600080600060608486031215611aef57600080fd5b833567ffffffffffffffff811115611b0657600080fd5b611b1286828701611a4b565b935050602084013567ffffffffffffffff811115611b2f57600080fd5b84016101408187031215611b4257600080fd5b9150604084013567ffffffffffffffff811115611b5e57600080fd5b840160608187031215611b7057600080fd5b809150509250925092565b600060208284031215611b8d57600080fd5b813567ffffffffffffffff811115611ba457600080fd5b611bb084828501611a4b565b949350505050565b600060208284031215611bca57600080fd5b81516119ba8161194f565b8183823760009101908152919050565b60005b83811015611c00578181015183820152602001611be8565b50506000910152565b60008251611c1b818460208701611be5565b9190910192915050565b6000808335601e19843603018112611c3c57600080fd5b83018035915067ffffffffffffffff821115611c5757600080fd5b6020019150600581901b3603821315611c6f57600080fd5b9250929050565b6000808335601e19843603018112611c8d57600080fd5b83018035915067ffffffffffffffff821115611ca857600080fd5b602001915036819003821315611c6f57600080fd5b600060208284031215611ccf57600080fd5b813560ff811681146119ba57600080fd5b60008151808452611cf8816020860160208601611be5565b601f01601f19169290920160200192915050565b6001600160a01b03848116825283166020820152606060408201819052600090611d3890830184611ce0565b95945050505050565b634e487b7160e01b600052603260045260246000fd5b6001600160a01b0384168152604060208201819052810182905260006001600160fb1b03831115611d8757600080fd5b8260051b8085606085013791909101606001949350505050565b600060208284031215611db357600080fd5b815180151581146119ba57600080fd5b6040815282604082015282846060830137600060608483018101919091526001600160a01b03929092166020820152601f909201601f191690910101919050565b60008351611e16818460208801611be5565b835190830190611e2a818360208801611be5565b01949350505050565b6001600160a01b03888116825287811660208301528616604082015260e060608201819052600090611e6790830187611ce0565b8281036080840152611e798187611ce0565b60ff9590951660a084015250506001600160a01b039190911660c0909101529594505050505056fe608060405234801561001057600080fd5b506040516108fc3803806108fc83398101604081905261002f9161022a565b6001600160a01b03811661008a5760405162461bcd60e51b815260206004820152601f60248201527f696e76616c696420617267756d656e74202d207a65726f20616464726573730060448201526064015b60405180910390fd5b6100a0816000805160206108dc83398151915255565b6040516001600160a01b038216907f3b1074392ed8e8424715d0dda2197eede67080b377fc8370e26f3e882207f6b890600090a260006100ec6000805160206108dc8339815191525490565b6001600160a01b031663fedcc0526040518163ffffffff1660e01b8152600401602060405180830381865afa158015610129573d6000803e3d6000fd5b505050506040513d601f19601f8201168201806040525081019061014d919061022a565b60408051600481526024810182526020810180516001600160e01b03166370e39c9560e11b17905290519192506000916001600160a01b038416916101919161025a565b600060405180830381855af49150503d80600081146101cc576040519150601f19603f3d011682016040523d82523d6000602084013e6101d1565b606091505b50509050806102225760405162461bcd60e51b815260206004820152601660248201527f496e697469616c697a6174696f6e206661696c65642e000000000000000000006044820152606401610081565b505050610289565b60006020828403121561023c57600080fd5b81516001600160a01b038116811461025357600080fd5b9392505050565b6000825160005b8181101561027b5760208186018101518583015201610261565b506000920191825250919050565b610644806102986000396000f3fe6080604052600436106100295760003560e01c80632d5f1187146100cf57806392dd9d6514610108575b60006100416000805160206105ef8339815191525490565b6001600160a01b031663fedcc0526040518163ffffffff1660e01b8152600401602060405180830381865afa15801561007e573d6000803e3d6000fd5b505050506040513d601f19601f820116820180604052508101906100a291906105ad565b90503660008037600080366000846127105a03f43d806000803e8180156100c857816000f35b816000fd5b005b3480156100db57600080fd5b506000805160206105ef833981519152546040516001600160a01b03909116815260200160405180910390f35b34801561011457600080fd5b506100cd6101233660046105d1565b6000805160206105ef833981519152546001600160a01b0316336001600160a01b0316146101ae5760405162461bcd60e51b815260206004820152602d60248201527f6f6e6c792063757272656e7420696d706c656d656e746174696f6e417574686f60448201526c1c9a5d1e4818d85b8818d85b1b609a1b60648201526084015b60405180910390fd5b6001600160a01b0381166102045760405162461bcd60e51b815260206004820152601f60248201527f696e76616c696420617267756d656e74202d207a65726f20616464726573730060448201526064016101a5565b60006001600160a01b0316816001600160a01b031663709bc7f36040518163ffffffff1660e01b8152600401602060405180830381865afa15801561024d573d6000803e3d6000fd5b505050506040513d601f19601f8201168201806040525081019061027191906105ad565b6001600160a01b0316141580156102fc575060006001600160a01b0316816001600160a01b0316636ff6e83f6040518163ffffffff1660e01b8152600401602060405180830381865afa1580156102cc573d6000803e3d6000fd5b505050506040513d601f19601f820116820180604052508101906102f091906105ad565b6001600160a01b031614155b801561037c575060006001600160a01b0316816001600160a01b0316631ee9ce8b6040518163ffffffff1660e01b8152600401602060405180830381865afa15801561034c573d6000803e3d6000fd5b505050506040513d601f19601f8201168201806040525081019061037091906105ad565b6001600160a01b031614155b80156103fc575060006001600160a01b0316816001600160a01b0316639e3e7bb96040518163ffffffff1660e01b8152600401602060405180830381865afa1580156103cc573d6000803e3d6000fd5b505050506040513d601f19601f820116820180604052508101906103f091906105ad565b6001600160a01b031614155b801561047c575060006001600160a01b0316816001600160a01b03166361f898256040518163ffffffff1660e01b8152600401602060405180830381865afa15801561044c573d6000803e3d6000fd5b505050506040513d601f19601f8201168201806040525081019061047091906105ad565b6001600160a01b031614155b80156104fc575060006001600160a01b0316816001600160a01b031663fedcc0526040518163ffffffff1660e01b8152600401602060405180830381865afa1580156104cc573d6000803e3d6000fd5b505050506040513d601f19601f820116820180604052508101906104f091906105ad565b6001600160a01b031614155b6105485760405162461bcd60e51b815260206004820181905260248201527f696e76616c696420496d706c656d656e746174696f6e20417574686f7269747960448201526064016101a5565b61055e816000805160206105ef83398151915255565b6040516001600160a01b038216907f3b1074392ed8e8424715d0dda2197eede67080b377fc8370e26f3e882207f6b890600090a250565b6001600160a01b03811681146105aa57600080fd5b50565b6000602082840312156105bf57600080fd5b81516105ca81610595565b9392505050565b6000602082840312156105e357600080fd5b81356105ca8161059556fe821f3e4d3d679f19eacc940c87acf846ea6eae24a63058ea750304437a62aafca2646970667358221220de6801911c196473603a07b386f606b2151bc8283bd7090f239f23043b7d57e164736f6c634300081c0033821f3e4d3d679f19eacc940c87acf846ea6eae24a63058ea750304437a62aafc608060405234801561001057600080fd5b506040516108fc3803806108fc83398101604081905261002f9161022a565b6001600160a01b03811661008a5760405162461bcd60e51b815260206004820152601f60248201527f696e76616c696420617267756d656e74202d207a65726f20616464726573730060448201526064015b60405180910390fd5b6100a0816000805160206108dc83398151915255565b6040516001600160a01b038216907f3b1074392ed8e8424715d0dda2197eede67080b377fc8370e26f3e882207f6b890600090a260006100ec6000805160206108dc8339815191525490565b6001600160a01b0316636ff6e83f6040518163ffffffff1660e01b8152600401602060405180830381865afa158015610129573d6000803e3d6000fd5b505050506040513d601f19601f8201168201806040525081019061014d919061022a565b60408051600481526024810182526020810180516001600160e01b03166370e39c9560e11b17905290519192506000916001600160a01b038416916101919161025a565b600060405180830381855af49150503d80600081146101cc576040519150601f19603f3d011682016040523d82523d6000602084013e6101d1565b606091505b50509050806102225760405162461bcd60e51b815260206004820152601660248201527f496e697469616c697a6174696f6e206661696c65642e000000000000000000006044820152606401610081565b505050610289565b60006020828403121561023c57600080fd5b81516001600160a01b038116811461025357600080fd5b9392505050565b6000825160005b8181101561027b5760208186018101518583015201610261565b506000920191825250919050565b610644806102986000396000f3fe6080604052600436106100295760003560e01c80632d5f1187146100cf57806392dd9d6514610108575b60006100416000805160206105ef8339815191525490565b6001600160a01b0316636ff6e83f6040518163ffffffff1660e01b8152600401602060405180830381865afa15801561007e573d6000803e3d6000fd5b505050506040513d601f19601f820116820180604052508101906100a291906105ad565b90503660008037600080366000846127105a03f43d806000803e8180156100c857816000f35b816000fd5b005b3480156100db57600080fd5b506000805160206105ef833981519152546040516001600160a01b03909116815260200160405180910390f35b34801561011457600080fd5b506100cd6101233660046105d1565b6000805160206105ef833981519152546001600160a01b0316336001600160a01b0316146101ae5760405162461bcd60e51b815260206004820152602d60248201527f6f6e6c792063757272656e7420696d706c656d656e746174696f6e417574686f60448201526c1c9a5d1e4818d85b8818d85b1b609a1b60648201526084015b60405180910390fd5b6001600160a01b0381166102045760405162461bcd60e51b815260206004820152601f60248201527f696e76616c696420617267756d656e74202d207a65726f20616464726573730060448201526064016101a5565b60006001600160a01b0316816001600160a01b031663709bc7f36040518163ffffffff1660e01b8152600401602060405180830381865afa15801561024d573d6000803e3d6000fd5b505050506040513d601f19601f8201168201806040525081019061027191906105ad565b6001600160a01b0316141580156102fc575060006001600160a01b0316816001600160a01b0316636ff6e83f6040518163ffffffff1660e01b8152600401602060405180830381865afa1580156102cc573d6000803e3d6000fd5b505050506040513d601f19601f820116820180604052508101906102f091906105ad565b6001600160a01b031614155b801561037c575060006001600160a01b0316816001600160a01b0316631ee9ce8b6040518163ffffffff1660e01b8152600401602060405180830381865afa15801561034c573d6000803e3d6000fd5b505050506040513d601f19601f8201168201806040525081019061037091906105ad565b6001600160a01b031614155b80156103fc575060006001600160a01b0316816001600160a01b0316639e3e7bb96040518163ffffffff1660e01b8152600401602060405180830381865afa1580156103cc573d6000803e3d6000fd5b505050506040513d601f19601f820116820180604052508101906103f091906105ad565b6001600160a01b031614155b801561047c575060006001600160a01b0316816001600160a01b03166361f898256040518163ffffffff1660e01b8152600401602060405180830381865afa15801561044c573d6000803e3d6000fd5b505050506040513d601f19601f8201168201806040525081019061047091906105ad565b6001600160a01b031614155b80156104fc575060006001600160a01b0316816001600160a01b031663fedcc0526040518163ffffffff1660e01b8152600401602060405180830381865afa1580156104cc573d6000803e3d6000fd5b505050506040513d601f19601f820116820180604052508101906104f091906105ad565b6001600160a01b031614155b6105485760405162461bcd60e51b815260206004820181905260248201527f696e76616c696420496d706c656d656e746174696f6e20417574686f7269747960448201526064016101a5565b61055e816000805160206105ef83398151915255565b6040516001600160a01b038216907f3b1074392ed8e8424715d0dda2197eede67080b377fc8370e26f3e882207f6b890600090a250565b6001600160a01b03811681146105aa57600080fd5b50565b6000602082840312156105bf57600080fd5b81516105ca81610595565b9392505050565b6000602082840312156105e357600080fd5b81356105ca8161059556fe821f3e4d3d679f19eacc940c87acf846ea6eae24a63058ea750304437a62aafca2646970667358221220600ebb5db773a3394e5c0df956ce6b913f3f99db3abbf9f0429922fe908856b564736f6c634300081c0033821f3e4d3d679f19eacc940c87acf846ea6eae24a63058ea750304437a62aafc608060405234801561001057600080fd5b506040516108fc3803806108fc83398101604081905261002f9161022a565b6001600160a01b03811661008a5760405162461bcd60e51b815260206004820152601f60248201527f696e76616c696420617267756d656e74202d207a65726f20616464726573730060448201526064015b60405180910390fd5b6100a0816000805160206108dc83398151915255565b6040516001600160a01b038216907f3b1074392ed8e8424715d0dda2197eede67080b377fc8370e26f3e882207f6b890600090a260006100ec6000805160206108dc8339815191525490565b6001600160a01b03166361f898256040518163ffffffff1660e01b8152600401602060405180830381865afa158015610129573d6000803e3d6000fd5b505050506040513d601f19601f8201168201806040525081019061014d919061022a565b60408051600481526024810182526020810180516001600160e01b03166370e39c9560e11b17905290519192506000916001600160a01b038416916101919161025a565b600060405180830381855af49150503d80600081146101cc576040519150601f19603f3d011682016040523d82523d6000602084013e6101d1565b606091505b50509050806102225760405162461bcd60e51b815260206004820152601660248201527f496e697469616c697a6174696f6e206661696c65642e000000000000000000006044820152606401610081565b505050610289565b60006020828403121561023c57600080fd5b81516001600160a01b038116811461025357600080fd5b9392505050565b6000825160005b8181101561027b5760208186018101518583015201610261565b506000920191825250919050565b610644806102986000396000f3fe6080604052600436106100295760003560e01c80632d5f1187146100cf57806392dd9d6514610108575b60006100416000805160206105ef8339815191525490565b6001600160a01b03166361f898256040518163ffffffff1660e01b8152600401602060405180830381865afa15801561007e573d6000803e3d6000fd5b505050506040513d601f19601f820116820180604052508101906100a291906105ad565b90503660008037600080366000846127105a03f43d806000803e8180156100c857816000f35b816000fd5b005b3480156100db57600080fd5b506000805160206105ef833981519152546040516001600160a01b03909116815260200160405180910390f35b34801561011457600080fd5b506100cd6101233660046105d1565b6000805160206105ef833981519152546001600160a01b0316336001600160a01b0316146101ae5760405162461bcd60e51b815260206004820152602d60248201527f6f6e6c792063757272656e7420696d706c656d656e746174696f6e417574686f60448201526c1c9a5d1e4818d85b8818d85b1b609a1b60648201526084015b60405180910390fd5b6001600160a01b0381166102045760405162461bcd60e51b815260206004820152601f60248201527f696e76616c696420617267756d656e74202d207a65726f20616464726573730060448201526064016101a5565b60006001600160a01b0316816001600160a01b031663709bc7f36040518163ffffffff1660e01b8152600401602060405180830381865afa15801561024d573d6000803e3d6000fd5b505050506040513d601f19601f8201168201806040525081019061027191906105ad565b6001600160a01b0316141580156102fc575060006001600160a01b0316816001600160a01b0316636ff6e83f6040518163ffffffff1660e01b8152600401602060405180830381865afa1580156102cc573d6000803e3d6000fd5b505050506040513d601f19601f820116820180604052508101906102f091906105ad565b6001600160a01b031614155b801561037c575060006001600160a01b0316816001600160a01b0316631ee9ce8b6040518163ffffffff1660e01b8152600401602060405180830381865afa15801561034c573d6000803e3d6000fd5b505050506040513d601f19601f8201168201806040525081019061037091906105ad565b6001600160a01b031614155b80156103fc575060006001600160a01b0316816001600160a01b0316639e3e7bb96040518163ffffffff1660e01b8152600401602060405180830381865afa1580156103cc573d6000803e3d6000fd5b505050506040513d601f19601f820116820180604052508101906103f091906105ad565b6001600160a01b031614155b801561047c575060006001600160a01b0316816001600160a01b03166361f898256040518163ffffffff1660e01b8152600401602060405180830381865afa15801561044c573d6000803e3d6000fd5b505050506040513d601f19601f8201168201806040525081019061047091906105ad565b6001600160a01b031614155b80156104fc575060006001600160a01b0316816001600160a01b031663fedcc0526040518163ffffffff1660e01b8152600401602060405180830381865afa1580156104cc573d6000803e3d6000fd5b505050506040513d601f19601f820116820180604052508101906104f091906105ad565b6001600160a01b031614155b6105485760405162461bcd60e51b815260206004820181905260248201527f696e76616c696420496d706c656d656e746174696f6e20417574686f7269747960448201526064016101a5565b61055e816000805160206105ef83398151915255565b6040516001600160a01b038216907f3b1074392ed8e8424715d0dda2197eede67080b377fc8370e26f3e882207f6b890600090a250565b6001600160a01b03811681146105aa57600080fd5b50565b6000602082840312156105bf57600080fd5b81516105ca81610595565b9392505050565b6000602082840312156105e357600080fd5b81356105ca8161059556fe821f3e4d3d679f19eacc940c87acf846ea6eae24a63058ea750304437a62aafca264697066735822122012404ee9cdbed75a94f7a459683de44906a57a3aef34d839c3e03a7f82bf43fd64736f6c634300081c0033821f3e4d3d679f19eacc940c87acf846ea6eae24a63058ea750304437a62aafc608060405234801561001057600080fd5b506040516108fc3803806108fc83398101604081905261002f9161022a565b6001600160a01b03811661008a5760405162461bcd60e51b815260206004820152601f60248201527f696e76616c696420617267756d656e74202d207a65726f20616464726573730060448201526064015b60405180910390fd5b6100a0816000805160206108dc83398151915255565b6040516001600160a01b038216907f3b1074392ed8e8424715d0dda2197eede67080b377fc8370e26f3e882207f6b890600090a260006100ec6000805160206108dc8339815191525490565b6001600160a01b0316639e3e7bb96040518163ffffffff1660e01b8152600401602060405180830381865afa158015610129573d6000803e3d6000fd5b505050506040513d601f19601f8201168201806040525081019061014d919061022a565b60408051600481526024810182526020810180516001600160e01b03166370e39c9560e11b17905290519192506000916001600160a01b038416916101919161025a565b600060405180830381855af49150503d80600081146101cc576040519150601f19603f3d011682016040523d82523d6000602084013e6101d1565b606091505b50509050806102225760405162461bcd60e51b815260206004820152601660248201527f496e697469616c697a6174696f6e206661696c65642e000000000000000000006044820152606401610081565b505050610289565b60006020828403121561023c57600080fd5b81516001600160a01b038116811461025357600080fd5b9392505050565b6000825160005b8181101561027b5760208186018101518583015201610261565b506000920191825250919050565b610644806102986000396000f3fe6080604052600436106100295760003560e01c80632d5f1187146100cf57806392dd9d6514610108575b60006100416000805160206105ef8339815191525490565b6001600160a01b0316639e3e7bb96040518163ffffffff1660e01b8152600401602060405180830381865afa15801561007e573d6000803e3d6000fd5b505050506040513d601f19601f820116820180604052508101906100a291906105ad565b90503660008037600080366000846127105a03f43d806000803e8180156100c857816000f35b816000fd5b005b3480156100db57600080fd5b506000805160206105ef833981519152546040516001600160a01b03909116815260200160405180910390f35b34801561011457600080fd5b506100cd6101233660046105d1565b6000805160206105ef833981519152546001600160a01b0316336001600160a01b0316146101ae5760405162461bcd60e51b815260206004820152602d60248201527f6f6e6c792063757272656e7420696d706c656d656e746174696f6e417574686f60448201526c1c9a5d1e4818d85b8818d85b1b609a1b60648201526084015b60405180910390fd5b6001600160a01b0381166102045760405162461bcd60e51b815260206004820152601f60248201527f696e76616c696420617267756d656e74202d207a65726f20616464726573730060448201526064016101a5565b60006001600160a01b0316816001600160a01b031663709bc7f36040518163ffffffff1660e01b8152600401602060405180830381865afa15801561024d573d6000803e3d6000fd5b505050506040513d601f19601f8201168201806040525081019061027191906105ad565b6001600160a01b0316141580156102fc575060006001600160a01b0316816001600160a01b0316636ff6e83f6040518163ffffffff1660e01b8152600401602060405180830381865afa1580156102cc573d6000803e3d6000fd5b505050506040513d601f19601f820116820180604052508101906102f091906105ad565b6001600160a01b031614155b801561037c575060006001600160a01b0316816001600160a01b0316631ee9ce8b6040518163ffffffff1660e01b8152600401602060405180830381865afa15801561034c573d6000803e3d6000fd5b505050506040513d601f19601f8201168201806040525081019061037091906105ad565b6001600160a01b031614155b80156103fc575060006001600160a01b0316816001600160a01b0316639e3e7bb96040518163ffffffff1660e01b8152600401602060405180830381865afa1580156103cc573d6000803e3d6000fd5b505050506040513d601f19601f820116820180604052508101906103f091906105ad565b6001600160a01b031614155b801561047c575060006001600160a01b0316816001600160a01b03166361f898256040518163ffffffff1660e01b8152600401602060405180830381865afa15801561044c573d6000803e3d6000fd5b505050506040513d601f19601f8201168201806040525081019061047091906105ad565b6001600160a01b031614155b80156104fc575060006001600160a01b0316816001600160a01b031663fedcc0526040518163ffffffff1660e01b8152600401602060405180830381865afa1580156104cc573d6000803e3d6000fd5b505050506040513d601f19601f820116820180604052508101906104f091906105ad565b6001600160a01b031614155b6105485760405162461bcd60e51b815260206004820181905260248201527f696e76616c696420496d706c656d656e746174696f6e20417574686f7269747960448201526064016101a5565b61055e816000805160206105ef83398151915255565b6040516001600160a01b038216907f3b1074392ed8e8424715d0dda2197eede67080b377fc8370e26f3e882207f6b890600090a250565b6001600160a01b03811681146105aa57600080fd5b50565b6000602082840312156105bf57600080fd5b81516105ca81610595565b9392505050565b6000602082840312156105e357600080fd5b81356105ca8161059556fe821f3e4d3d679f19eacc940c87acf846ea6eae24a63058ea750304437a62aafca26469706673582212204385c048a7e046851287148ca01c8f02714960d66c7653dac538c0f75792c85e64736f6c634300081c0033821f3e4d3d679f19eacc940c87acf846ea6eae24a63058ea750304437a62aafc608060405234801561001057600080fd5b506040516109bf3803806109bf83398101604081905261002f916102a7565b6001600160a01b0384161580159061004f57506001600160a01b03831615155b801561006357506001600160a01b03821615155b801561007757506001600160a01b03811615155b6100c85760405162461bcd60e51b815260206004820152601f60248201527f696e76616c696420617267756d656e74202d207a65726f20616464726573730060448201526064015b60405180910390fd5b6100de8460008051602061099f83398151915255565b6040516001600160a01b038516907f3b1074392ed8e8424715d0dda2197eede67080b377fc8370e26f3e882207f6b890600090a2600061012a60008051602061099f8339815191525490565b6001600160a01b0316631ee9ce8b6040518163ffffffff1660e01b8152600401602060405180830381865afa158015610167573d6000803e3d6000fd5b505050506040513d601f19601f8201168201806040525081019061018b91906102fb565b6040516001600160a01b0386811660248301528581166044830152848116606483015291925060009183169060840160408051601f198184030181529181526020820180516001600160e01b031663184b955960e01b179052516101ef919061031d565b600060405180830381855af49150503d806000811461022a576040519150601f19603f3d011682016040523d82523d6000602084013e61022f565b606091505b50509050806102805760405162461bcd60e51b815260206004820152601660248201527f496e697469616c697a6174696f6e206661696c65642e0000000000000000000060448201526064016100bf565b50505050505061034c565b80516001600160a01b03811681146102a257600080fd5b919050565b600080600080608085870312156102bd57600080fd5b6102c68561028b565b93506102d46020860161028b565b92506102e26040860161028b565b91506102f06060860161028b565b905092959194509250565b60006020828403121561030d57600080fd5b6103168261028b565b9392505050565b6000825160005b8181101561033e5760208186018101518583015201610324565b506000920191825250919050565b6106448061035b6000396000f3fe6080604052600436106100295760003560e01c80632d5f1187146100cf57806392dd9d6514610108575b60006100416000805160206105ef8339815191525490565b6001600160a01b0316631ee9ce8b6040518163ffffffff1660e01b8152600401602060405180830381865afa15801561007e573d6000803e3d6000fd5b505050506040513d601f19601f820116820180604052508101906100a291906105ad565b90503660008037600080366000846127105a03f43d806000803e8180156100c857816000f35b816000fd5b005b3480156100db57600080fd5b506000805160206105ef833981519152546040516001600160a01b03909116815260200160405180910390f35b34801561011457600080fd5b506100cd6101233660046105d1565b6000805160206105ef833981519152546001600160a01b0316336001600160a01b0316146101ae5760405162461bcd60e51b815260206004820152602d60248201527f6f6e6c792063757272656e7420696d706c656d656e746174696f6e417574686f60448201526c1c9a5d1e4818d85b8818d85b1b609a1b60648201526084015b60405180910390fd5b6001600160a01b0381166102045760405162461bcd60e51b815260206004820152601f60248201527f696e76616c696420617267756d656e74202d207a65726f20616464726573730060448201526064016101a5565b60006001600160a01b0316816001600160a01b031663709bc7f36040518163ffffffff1660e01b8152600401602060405180830381865afa15801561024d573d6000803e3d6000fd5b505050506040513d601f19601f8201168201806040525081019061027191906105ad565b6001600160a01b0316141580156102fc575060006001600160a01b0316816001600160a01b0316636ff6e83f6040518163ffffffff1660e01b8152600401602060405180830381865afa1580156102cc573d6000803e3d6000fd5b505050506040513d601f19601f820116820180604052508101906102f091906105ad565b6001600160a01b031614155b801561037c575060006001600160a01b0316816001600160a01b0316631ee9ce8b6040518163ffffffff1660e01b8152600401602060405180830381865afa15801561034c573d6000803e3d6000fd5b505050506040513d601f19601f8201168201806040525081019061037091906105ad565b6001600160a01b031614155b80156103fc575060006001600160a01b0316816001600160a01b0316639e3e7bb96040518163ffffffff1660e01b8152600401602060405180830381865afa1580156103cc573d6000803e3d6000fd5b505050506040513d601f19601f820116820180604052508101906103f091906105ad565b6001600160a01b031614155b801561047c575060006001600160a01b0316816001600160a01b03166361f898256040518163ffffffff1660e01b8152600401602060405180830381865afa15801561044c573d6000803e3d6000fd5b505050506040513d601f19601f8201168201806040525081019061047091906105ad565b6001600160a01b031614155b80156104fc575060006001600160a01b0316816001600160a01b031663fedcc0526040518163ffffffff1660e01b8152600401602060405180830381865afa1580156104cc573d6000803e3d6000fd5b505050506040513d601f19601f820116820180604052508101906104f091906105ad565b6001600160a01b031614155b6105485760405162461bcd60e51b815260206004820181905260248201527f696e76616c696420496d706c656d656e746174696f6e20417574686f7269747960448201526064016101a5565b61055e816000805160206105ef83398151915255565b6040516001600160a01b038216907f3b1074392ed8e8424715d0dda2197eede67080b377fc8370e26f3e882207f6b890600090a250565b6001600160a01b03811681146105aa57600080fd5b50565b6000602082840312156105bf57600080fd5b81516105ca81610595565b9392505050565b6000602082840312156105e357600080fd5b81356105ca8161059556fe821f3e4d3d679f19eacc940c87acf846ea6eae24a63058ea750304437a62aafca2646970667358221220dd27ea0f4fc506aa9b97c6984884eedc6c88b581ab428624b83c94fd6893dbd464736f6c634300081c0033821f3e4d3d679f19eacc940c87acf846ea6eae24a63058ea750304437a62aafc608060405234801561001057600080fd5b50604051610cc9380380610cc983398101604081905261002f916104af565b6001600160a01b0387161580159061004f57506001600160a01b03861615155b801561006357506001600160a01b03851615155b6100b45760405162461bcd60e51b815260206004820152601f60248201527f696e76616c696420617267756d656e74202d207a65726f20616464726573730060448201526064015b60405180910390fd5b6040516020016100cf90602080825260009082015260400190565b60405160208183030381529060405280519060200120846040516020016100f691906105a0565b6040516020818303038152906040528051906020012014158015610170575060405160200161013090602080825260009082015260400190565b604051602081830303815290604052805190602001208360405160200161015791906105a0565b6040516020818303038152906040528051906020012014155b6101bc5760405162461bcd60e51b815260206004820152601f60248201527f696e76616c696420617267756d656e74202d20656d70747920737472696e670060448201526064016100ab565b60128260ff1611156102105760405162461bcd60e51b815260206004820152601960248201527f646563696d616c73206265747765656e203020616e642031380000000000000060448201526064016100ab565b61022687600080516020610ca983398151915255565b6040516001600160a01b038816907f3b1074392ed8e8424715d0dda2197eede67080b377fc8370e26f3e882207f6b890600090a26000610272600080516020610ca98339815191525490565b6001600160a01b031663709bc7f36040518163ffffffff1660e01b8152600401602060405180830381865afa1580156102af573d6000803e3d6000fd5b505050506040513d601f19601f820116820180604052508101906102d391906105ba565b90506000816001600160a01b03168888888888886040516024016102fc969594939291906105d5565b60408051601f198184030181529181526020820180516001600160e01b0316633e46d86760e21b17905251610331919061063a565b600060405180830381855af49150503d806000811461036c576040519150601f19603f3d011682016040523d82523d6000602084013e610371565b606091505b50509050806103c25760405162461bcd60e51b815260206004820152601660248201527f496e697469616c697a6174696f6e206661696c65642e0000000000000000000060448201526064016100ab565b505050505050505050610656565b80516001600160a01b03811681146103e757600080fd5b919050565b634e487b7160e01b600052604160045260246000fd5b60005b8381101561041d578181015183820152602001610405565b50506000910152565b600082601f83011261043757600080fd5b81516001600160401b03811115610450576104506103ec565b604051601f8201601f19908116603f011681016001600160401b038111828210171561047e5761047e6103ec565b60405281815283820160200185101561049657600080fd5b6104a7826020830160208701610402565b949350505050565b600080600080600080600060e0888a0312156104ca57600080fd5b6104d3886103d0565b96506104e1602089016103d0565b95506104ef604089016103d0565b60608901519095506001600160401b0381111561050b57600080fd5b6105178a828b01610426565b60808a015190955090506001600160401b0381111561053557600080fd5b6105418a828b01610426565b93505060a088015160ff8116811461055857600080fd5b915061056660c089016103d0565b905092959891949750929550565b6000815180845261058c816020860160208601610402565b601f01601f19169290920160200192915050565b6020815260006105b36020830184610574565b9392505050565b6000602082840312156105cc57600080fd5b6105b3826103d0565b6001600160a01b0387811682528616602082015260c06040820181905260009061060190830187610574565b82810360608401526106138187610574565b60ff95909516608084015250506001600160a01b039190911660a090910152949350505050565b6000825161064c818460208701610402565b9190910192915050565b610644806106656000396000f3fe6080604052600436106100295760003560e01c80632d5f1187146100cf57806392dd9d6514610108575b60006100416000805160206105ef8339815191525490565b6001600160a01b031663709bc7f36040518163ffffffff1660e01b8152600401602060405180830381865afa15801561007e573d6000803e3d6000fd5b505050506040513d601f19601f820116820180604052508101906100a291906105ad565b90503660008037600080366000846127105a03f43d806000803e8180156100c857816000f35b816000fd5b005b3480156100db57600080fd5b506000805160206105ef833981519152546040516001600160a01b03909116815260200160405180910390f35b34801561011457600080fd5b506100cd6101233660046105d1565b6000805160206105ef833981519152546001600160a01b0316336001600160a01b0316146101ae5760405162461bcd60e51b815260206004820152602d60248201527f6f6e6c792063757272656e7420696d706c656d656e746174696f6e417574686f60448201526c1c9a5d1e4818d85b8818d85b1b609a1b60648201526084015b60405180910390fd5b6001600160a01b0381166102045760405162461bcd60e51b815260206004820152601f60248201527f696e76616c696420617267756d656e74202d207a65726f20616464726573730060448201526064016101a5565b60006001600160a01b0316816001600160a01b031663709bc7f36040518163ffffffff1660e01b8152600401602060405180830381865afa15801561024d573d6000803e3d6000fd5b505050506040513d601f19601f8201168201806040525081019061027191906105ad565b6001600160a01b0316141580156102fc575060006001600160a01b0316816001600160a01b0316636ff6e83f6040518163ffffffff1660e01b8152600401602060405180830381865afa1580156102cc573d6000803e3d6000fd5b505050506040513d601f19601f820116820180604052508101906102f091906105ad565b6001600160a01b031614155b801561037c575060006001600160a01b0316816001600160a01b0316631ee9ce8b6040518163ffffffff1660e01b8152600401602060405180830381865afa15801561034c573d6000803e3d6000fd5b505050506040513d601f19601f8201168201806040525081019061037091906105ad565b6001600160a01b031614155b80156103fc575060006001600160a01b0316816001600160a01b0316639e3e7bb96040518163ffffffff1660e01b8152600401602060405180830381865afa1580156103cc573d6000803e3d6000fd5b505050506040513d601f19601f820116820180604052508101906103f091906105ad565b6001600160a01b031614155b801561047c575060006001600160a01b0316816001600160a01b03166361f898256040518163ffffffff1660e01b8152600401602060405180830381865afa15801561044c573d6000803e3d6000fd5b505050506040513d601f19601f8201168201806040525081019061047091906105ad565b6001600160a01b031614155b80156104fc575060006001600160a01b0316816001600160a01b031663fedcc0526040518163ffffffff1660e01b8152600401602060405180830381865afa1580156104cc573d6000803e3d6000fd5b505050506040513d601f19601f820116820180604052508101906104f091906105ad565b6001600160a01b031614155b6105485760405162461bcd60e51b815260206004820181905260248201527f696e76616c696420496d706c656d656e746174696f6e20417574686f7269747960448201526064016101a5565b61055e816000805160206105ef83398151915255565b6040516001600160a01b038216907f3b1074392ed8e8424715d0dda2197eede67080b377fc8370e26f3e882207f6b890600090a250565b6001600160a01b03811681146105aa57600080fd5b50565b6000602082840312156105bf57600080fd5b81516105ca81610595565b9392505050565b6000602082840312156105e357600080fd5b81356105ca8161059556fe821f3e4d3d679f19eacc940c87acf846ea6eae24a63058ea750304437a62aafca264697066735822122079347271f2db8ad4483e60f12760a37d145d1b2f8529dc888c5bc9829df2c97564736f6c634300081c0033821f3e4d3d679f19eacc940c87acf846ea6eae24a63058ea750304437a62aafca264697066735822122015bf8dfbc8250d433ec93c36e7e855d551aa28a1afbcda59bf3e3d3c13ec37a564736f6c634300081c0033","linkReferences":{}},"methodIdentifiers":{"deployTREXSuite(string,(address,string,string,uint8,address,address,address[],address[],address[],bytes[]),(uint256[],address[],uint256[][]))":"cf753d37","getIdFactory()":"5f2773a5","getImplementationAuthority()":"2d5f1187","getToken(string)":"c1733f68","owner()":"8da5cb5b","recoverContractOwnership(address,address)":"50b01838","renounceOwnership()":"715018a6","setIdFactory(address)":"ccd41cce","setImplementationAuthority(address)":"92dd9d65","tokenDeployed(string)":"fb88d79c","transferOwnership(address)":"f2fde38b"},"id":48}