{"abi":[{"type":"constructor","inputs":[{"name":"name","type":"string","internalType":"string"},{"name":"symbol","type":"string","internalType":"string"}],"stateMutability":"nonpayable"},{"type":"function","name":"allowance","inputs":[{"name":"owner","type":"address","internalType":"address"},{"name":"spender","type":"address","internalType":"address"}],"outputs":[{"name":"","type":"uint256","internalType":"uint256"}],"stateMutability":"view"},{"type":"function","name":"approve","inputs":[{"name":"spender","type":"address","internalType":"address"},{"name":"value","type":"uint256","internalType":"uint256"}],"outputs":[{"name":"","type":"bool","internalType":"bool"}],"stateMutability":"nonpayable"},{"type":"function","name":"balanceOf","inputs":[{"name":"account","type":"address","internalType":"address"}],"outputs":[{"name":"","type":"uint256","internalType":"uint256"}],"stateMutability":"view"},{"type":"function","name":"decimals","inputs":[],"outputs":[{"name":"","type":"uint8","internalType":"uint8"}],"stateMutability":"view"},{"type":"function","name":"mint","inputs":[{"name":"recipient","type":"address","internalType":"address"},{"name":"amount","type":"uint256","internalType":"uint256"}],"outputs":[],"stateMutability":"nonpayable"},{"type":"function","name":"name","inputs":[],"outputs":[{"name":"","type":"string","internalType":"string"}],"stateMutability":"view"},{"type":"function","name":"owner","inputs":[],"outputs":[{"name":"","type":"address","internalType":"address"}],"stateMutability":"view"},{"type":"function","name":"pause","inputs":[],"outputs":[],"stateMutability":"nonpayable"},{"type":"function","name":"paused","inputs":[],"outputs":[{"name":"","type":"bool","internalType":"bool"}],"stateMutability":"view"},{"type":"function","name":"renounceOwnership","inputs":[],"outputs":[],"stateMutability":"nonpayable"},{"type":"function","name":"symbol","inputs":[],"outputs":[{"name":"","type":"string","internalType":"string"}],"stateMutability":"view"},{"type":"function","name":"totalSupply","inputs":[],"outputs":[{"name":"","type":"uint256","internalType":"uint256"}],"stateMutability":"view"},{"type":"function","name":"transfer","inputs":[{"name":"to","type":"address","internalType":"address"},{"name":"value","type":"uint256","internalType":"uint256"}],"outputs":[{"name":"","type":"bool","internalType":"bool"}],"stateMutability":"nonpayable"},{"type":"function","name":"transferFrom","inputs":[{"name":"from","type":"address","internalType":"address"},{"name":"to","type":"address","internalType":"address"},{"name":"value","type":"uint256","internalType":"uint256"}],"outputs":[{"name":"","type":"bool","internalType":"bool"}],"stateMutability":"nonpayable"},{"type":"function","name":"transferOwnership","inputs":[{"name":"newOwner","type":"address","internalType":"address"}],"outputs":[],"stateMutability":"nonpayable"},{"type":"function","name":"unpause","inputs":[],"outputs":[],"stateMutability":"nonpayable"},{"type":"event","name":"Approval","inputs":[{"name":"owner","type":"address","indexed":true,"internalType":"address"},{"name":"spender","type":"address","indexed":true,"internalType":"address"},{"name":"value","type":"uint256","indexed":false,"internalType":"uint256"}],"anonymous":false},{"type":"event","name":"OwnershipTransferred","inputs":[{"name":"previousOwner","type":"address","indexed":true,"internalType":"address"},{"name":"newOwner","type":"address","indexed":true,"internalType":"address"}],"anonymous":false},{"type":"event","name":"Paused","inputs":[{"name":"account","type":"address","indexed":false,"internalType":"address"}],"anonymous":false},{"type":"event","name":"Transfer","inputs":[{"name":"from","type":"address","indexed":true,"internalType":"address"},{"name":"to","type":"address","indexed":true,"internalType":"address"},{"name":"value","type":"uint256","indexed":false,"internalType":"uint256"}],"anonymous":false},{"type":"event","name":"Unpaused","inputs":[{"name":"account","type":"address","indexed":false,"internalType":"address"}],"anonymous":false},{"type":"error","name":"ERC20InsufficientAllowance","inputs":[{"name":"spender","type":"address","internalType":"address"},{"name":"allowance","type":"uint256","internalType":"uint256"},{"name":"needed","type":"uint256","internalType":"uint256"}]},{"type":"error","name":"ERC20InsufficientBalance","inputs":[{"name":"sender","type":"address","internalType":"address"},{"name":"balance","type":"uint256","internalType":"uint256"},{"name":"needed","type":"uint256","internalType":"uint256"}]},{"type":"error","name":"ERC20InvalidApprover","inputs":[{"name":"approver","type":"address","internalType":"address"}]},{"type":"error","name":"ERC20InvalidReceiver","inputs":[{"name":"receiver","type":"address","internalType":"address"}]},{"type":"error","name":"ERC20InvalidSender","inputs":[{"name":"sender","type":"address","internalType":"address"}]},{"type":"error","name":"ERC20InvalidSpender","inputs":[{"name":"spender","type":"address","internalType":"address"}]},{"type":"error","name":"EnforcedPause","inputs":[]},{"type":"error","name":"ExpectedPause","inputs":[]},{"type":"error","name":"OwnableInvalidOwner","inputs":[{"name":"owner","type":"address","internalType":"address"}]},{"type":"error","name":"OwnableUnauthorizedAccount","inputs":[{"name":"account","type":"address","internalType":"address"}]}],"bytecode":{"object":"0x608060405234801561001057600080fd5b50604051610d6f380380610d6f83398101604081905261002f91610198565b8181338061005757604051631e4fbdf760e01b81526000600482015260240160405180910390fd5b6100608161008f565b50600461006d838261028a565b50600561007a828261028a565b50506006805460ff1916905550610348915050565b600080546001600160a01b038381166001600160a01b0319831681178455604051919092169283917f8be0079c531659141344cd1fd0a4f28419497f9722a3daafe3b4186f6b6457e09190a35050565b634e487b7160e01b600052604160045260246000fd5b600082601f83011261010657600080fd5b81516001600160401b0381111561011f5761011f6100df565b604051601f8201601f19908116603f011681016001600160401b038111828210171561014d5761014d6100df565b60405281815283820160200185101561016557600080fd5b60005b8281101561018457602081860181015183830182015201610168565b506000918101602001919091529392505050565b600080604083850312156101ab57600080fd5b82516001600160401b038111156101c157600080fd5b6101cd858286016100f5565b602085015190935090506001600160401b038111156101eb57600080fd5b6101f7858286016100f5565b9150509250929050565b600181811c9082168061021557607f821691505b60208210810361023557634e487b7160e01b600052602260045260246000fd5b50919050565b601f82111561028557806000526020600020601f840160051c810160208510156102625750805b601f840160051c820191505b81811015610282576000815560010161026e565b50505b505050565b81516001600160401b038111156102a3576102a36100df565b6102b7816102b18454610201565b8461023b565b6020601f8211600181146102eb57600083156102d35750848201515b600019600385901b1c1916600184901b178455610282565b600084815260208120601f198516915b8281101561031b57878501518255602094850194600190920191016102fb565b50848210156103395786840151600019600387901b60f8161c191681555b50505050600190811b01905550565b610a18806103576000396000f3fe608060405234801561001057600080fd5b50600436106101005760003560e01c806370a082311161009757806395d89b411161006657806395d89b41146101f6578063a9059cbb146101fe578063dd62ed3e14610211578063f2fde38b1461024a57600080fd5b806370a08231146101a2578063715018a6146101cb5780638456cb59146101d35780638da5cb5b146101db57600080fd5b8063313ce567116100d3578063313ce5671461016b5780633f4ba83a1461017a57806340c10f19146101845780635c975abb1461019757600080fd5b806306fdde0314610105578063095ea7b31461012357806318160ddd1461014657806323b872dd14610158575b600080fd5b61010d61025d565b60405161011a9190610861565b60405180910390f35b6101366101313660046108cb565b6102ef565b604051901515815260200161011a565b6003545b60405190815260200161011a565b6101366101663660046108f5565b610309565b6040516012815260200161011a565b61018261032d565b005b6101826101923660046108cb565b61033f565b60065460ff16610136565b61014a6101b0366004610932565b6001600160a01b031660009081526001602052604090205490565b610182610355565b610182610367565b6000546040516001600160a01b03909116815260200161011a565b61010d610377565b61013661020c3660046108cb565b610386565b61014a61021f366004610954565b6001600160a01b03918216600090815260026020908152604080832093909416825291909152205490565b610182610258366004610932565b610394565b60606004805461026c90610987565b80601f016020809104026020016040519081016040528092919081815260200182805461029890610987565b80156102e55780601f106102ba576101008083540402835291602001916102e5565b820191906000526020600020905b8154815290600101906020018083116102c857829003601f168201915b5050505050905090565b6000336102fd8185856103d7565b60019150505b92915050565b6000336103178582856103e9565b610322858585610467565b506001949350505050565b6103356104c6565b61033d6104f3565b565b6103476104c6565b6103518282610545565b5050565b61035d6104c6565b61033d600061057b565b61036f6104c6565b61033d6105cb565b60606005805461026c90610987565b6000336102fd818585610467565b61039c6104c6565b6001600160a01b0381166103cb57604051631e4fbdf760e01b8152600060048201526024015b60405180910390fd5b6103d48161057b565b50565b6103e48383836001610608565b505050565b6001600160a01b038381166000908152600260209081526040808320938616835292905220546000198114610461578181101561045257604051637dc7a0d960e11b81526001600160a01b038416600482015260248101829052604481018390526064016103c2565b61046184848484036000610608565b50505050565b6001600160a01b03831661049157604051634b637e8f60e11b8152600060048201526024016103c2565b6001600160a01b0382166104bb5760405163ec442f0560e01b8152600060048201526024016103c2565b6103e48383836106dd565b6000546001600160a01b0316331461033d5760405163118cdaa760e01b81523360048201526024016103c2565b6104fb6106f0565b6006805460ff191690557f5db9ee0a495bf2e6ff9c91a7834c1ba4fdd244a5e8aa4e537bd38aeae4b073aa335b6040516001600160a01b03909116815260200160405180910390a1565b6001600160a01b03821661056f5760405163ec442f0560e01b8152600060048201526024016103c2565b610351600083836106dd565b600080546001600160a01b038381166001600160a01b0319831681178455604051919092169283917f8be0079c531659141344cd1fd0a4f28419497f9722a3daafe3b4186f6b6457e09190a35050565b6105d3610713565b6006805460ff191660011790557f62e78cea01bee320cd4e420270b5ea74000d11b0c9f74754ebdbfc544b05a2586105283390565b6001600160a01b0384166106325760405163e602df0560e01b8152600060048201526024016103c2565b6001600160a01b03831661065c57604051634a1406b160e11b8152600060048201526024016103c2565b6001600160a01b038085166000908152600260209081526040808320938716835292905220829055801561046157826001600160a01b0316846001600160a01b03167f8c5be1e5ebec7d5bd14f71427d1e84f3dd0314c0f7b2291e5b200ac8c7c3b925846040516106cf91815260200190565b60405180910390a350505050565b6106e5610713565b6103e4838383610737565b60065460ff1661033d57604051638dfc202b60e01b815260040160405180910390fd5b60065460ff161561033d5760405163d93c066560e01b815260040160405180910390fd5b6001600160a01b03831661076257806003600082825461075791906109c1565b909155506107d49050565b6001600160a01b038316600090815260016020526040902054818110156107b55760405163391434e360e21b81526001600160a01b038516600482015260248101829052604481018390526064016103c2565b6001600160a01b03841660009081526001602052604090209082900390555b6001600160a01b0382166107f05760038054829003905561080f565b6001600160a01b03821660009081526001602052604090208054820190555b816001600160a01b0316836001600160a01b03167fddf252ad1be2c89b69c2b068fc378daa952ba7f163c4a11628f55a4df523b3ef8360405161085491815260200190565b60405180910390a3505050565b602081526000825180602084015260005b8181101561088f5760208186018101516040868401015201610872565b506000604082850101526040601f19601f83011684010191505092915050565b80356001600160a01b03811681146108c657600080fd5b919050565b600080604083850312156108de57600080fd5b6108e7836108af565b946020939093013593505050565b60008060006060848603121561090a57600080fd5b610913846108af565b9250610921602085016108af565b929592945050506040919091013590565b60006020828403121561094457600080fd5b61094d826108af565b9392505050565b6000806040838503121561096757600080fd5b610970836108af565b915061097e602084016108af565b90509250929050565b600181811c9082168061099b57607f821691505b6020821081036109bb57634e487b7160e01b600052602260045260246000fd5b50919050565b8082018082111561030357634e487b7160e01b600052601160045260246000fdfea26469706673582212202b84c7f99b69daf0c88419c4fc0f160bd9092a360ce14cdcec0d1335f1d8834564736f6c634300081c0033","linkReferences":{}},"methodIdentifiers":{"allowance(address,address)":"dd62ed3e","approve(address,uint256)":"095ea7b3","balanceOf(address)":"70a08231","decimals()":"313ce567","mint(address,uint256)":"40c10f19","name()":"06fdde03","owner()":"8da5cb5b","pause()":"8456cb59","paused()":"5c975abb","renounceOwnership()":"715018a6","symbol()":"95d89b41","totalSupply()":"18160ddd","transfer(address,uint256)":"a9059cbb","transferFrom(address,address,uint256)":"23b872dd","transferOwnership(address)":"f2fde38b","unpause()":"3f4ba83a"},"id":6}