{"abi":[{"type":"function","name":"UPGRADE_INTERFACE_VERSION","inputs":[],"outputs":[{"name":"","type":"string","internalType":"string"}],"stateMutability":"view"},{"type":"function","name":"batchRemoveTimeTransferLimit","inputs":[{"name":"_limitTimes","type":"uint32[]","internalType":"uint32[]"}],"outputs":[],"stateMutability":"nonpayable"},{"type":"function","name":"batchSetTimeTransferLimit","inputs":[{"name":"_limits","type":"tuple[]","internalType":"struct TimeTransfersLimitsModule.Limit[]","components":[{"name":"limitTime","type":"uint32","internalType":"uint32"},{"name":"limitValue","type":"uint256","internalType":"uint256"}]}],"outputs":[],"stateMutability":"nonpayable"},{"type":"function","name":"bindCompliance","inputs":[{"name":"_compliance","type":"address","internalType":"address"}],"outputs":[],"stateMutability":"nonpayable"},{"type":"function","name":"canComplianceBind","inputs":[{"name":"","type":"address","internalType":"address"}],"outputs":[{"name":"","type":"bool","internalType":"bool"}],"stateMutability":"view"},{"type":"function","name":"getTimeTransferLimits","inputs":[{"name":"_compliance","type":"address","internalType":"address"}],"outputs":[{"name":"limits","type":"tuple[]","internalType":"struct TimeTransfersLimitsModule.Limit[]","components":[{"name":"limitTime","type":"uint32","internalType":"uint32"},{"name":"limitValue","type":"uint256","internalType":"uint256"}]}],"stateMutability":"view"},{"type":"function","name":"initialize","inputs":[],"outputs":[],"stateMutability":"nonpayable"},{"type":"function","name":"isComplianceBound","inputs":[{"name":"_compliance","type":"address","internalType":"address"}],"outputs":[{"name":"","type":"bool","internalType":"bool"}],"stateMutability":"view"},{"type":"function","name":"isPlugAndPlay","inputs":[],"outputs":[{"name":"","type":"bool","internalType":"bool"}],"stateMutability":"pure"},{"type":"function","name":"limitValues","inputs":[{"name":"","type":"address","internalType":"address"},{"name":"","type":"uint32","internalType":"uint32"}],"outputs":[{"name":"attributedLimit","type":"bool","internalType":"bool"},{"name":"limitIndex","type":"uint8","internalType":"uint8"}],"stateMutability":"view"},{"type":"function","name":"moduleBurnAction","inputs":[{"name":"_from","type":"address","internalType":"address"},{"name":"_value","type":"uint256","internalType":"uint256"}],"outputs":[],"stateMutability":"nonpayable"},{"type":"function","name":"moduleCheck","inputs":[{"name":"_from","type":"address","internalType":"address"},{"name":"","type":"address","internalType":"address"},{"name":"_value","type":"uint256","internalType":"uint256"},{"name":"_compliance","type":"address","internalType":"address"}],"outputs":[{"name":"","type":"bool","internalType":"bool"}],"stateMutability":"view"},{"type":"function","name":"moduleMintAction","inputs":[{"name":"_to","type":"address","internalType":"address"},{"name":"_value","type":"uint256","internalType":"uint256"}],"outputs":[],"stateMutability":"nonpayable"},{"type":"function","name":"moduleTransferAction","inputs":[{"name":"_from","type":"address","internalType":"address"},{"name":"","type":"address","internalType":"address"},{"name":"_value","type":"uint256","internalType":"uint256"}],"outputs":[],"stateMutability":"nonpayable"},{"type":"function","name":"name","inputs":[],"outputs":[{"name":"_name","type":"string","internalType":"string"}],"stateMutability":"pure"},{"type":"function","name":"owner","inputs":[],"outputs":[{"name":"","type":"address","internalType":"address"}],"stateMutability":"view"},{"type":"function","name":"proxiableUUID","inputs":[],"outputs":[{"name":"","type":"bytes32","internalType":"bytes32"}],"stateMutability":"view"},{"type":"function","name":"removeTimeTransferLimit","inputs":[{"name":"_limitTime","type":"uint32","internalType":"uint32"}],"outputs":[],"stateMutability":"nonpayable"},{"type":"function","name":"renounceOwnership","inputs":[],"outputs":[],"stateMutability":"nonpayable"},{"type":"function","name":"setTimeTransferLimit","inputs":[{"name":"_limit","type":"tuple","internalType":"struct TimeTransfersLimitsModule.Limit","components":[{"name":"limitTime","type":"uint32","internalType":"uint32"},{"name":"limitValue","type":"uint256","internalType":"uint256"}]}],"outputs":[],"stateMutability":"nonpayable"},{"type":"function","name":"transferLimits","inputs":[{"name":"","type":"address","internalType":"address"},{"name":"","type":"uint256","internalType":"uint256"}],"outputs":[{"name":"limitTime","type":"uint32","internalType":"uint32"},{"name":"limitValue","type":"uint256","internalType":"uint256"}],"stateMutability":"view"},{"type":"function","name":"transferOwnership","inputs":[{"name":"newOwner","type":"address","internalType":"address"}],"outputs":[],"stateMutability":"nonpayable"},{"type":"function","name":"unbindCompliance","inputs":[{"name":"_compliance","type":"address","internalType":"address"}],"outputs":[],"stateMutability":"nonpayable"},{"type":"function","name":"upgradeToAndCall","inputs":[{"name":"newImplementation","type":"address","internalType":"address"},{"name":"data","type":"bytes","internalType":"bytes"}],"outputs":[],"stateMutability":"payable"},{"type":"function","name":"usersCounters","inputs":[{"name":"","type":"address","internalType":"address"},{"name":"","type":"address","internalType":"address"},{"name":"","type":"uint32","internalType":"uint32"}],"outputs":[{"name":"value","type":"uint256","internalType":"uint256"},{"name":"timer","type":"uint256","internalType":"uint256"}],"stateMutability":"view"},{"type":"event","name":"ComplianceBound","inputs":[{"name":"_compliance","type":"address","indexed":true,"internalType":"address"}],"anonymous":false},{"type":"event","name":"ComplianceUnbound","inputs":[{"name":"_compliance","type":"address","indexed":true,"internalType":"address"}],"anonymous":false},{"type":"event","name":"Initialized","inputs":[{"name":"version","type":"uint64","indexed":false,"internalType":"uint64"}],"anonymous":false},{"type":"event","name":"OwnershipTransferred","inputs":[{"name":"previousOwner","type":"address","indexed":true,"internalType":"address"},{"name":"newOwner","type":"address","indexed":true,"internalType":"address"}],"anonymous":false},{"type":"event","name":"TimeTransferLimitRemoved","inputs":[{"name":"compliance","type":"address","indexed":true,"internalType":"address"},{"name":"limitTime","type":"uint32","indexed":false,"internalType":"uint32"}],"anonymous":false},{"type":"event","name":"TimeTransferLimitUpdated","inputs":[{"name":"compliance","type":"address","indexed":true,"internalType":"address"},{"name":"limitTime","type":"uint32","indexed":false,"internalType":"uint32"},{"name":"limitValue","type":"uint256","indexed":false,"internalType":"uint256"}],"anonymous":false},{"type":"event","name":"Upgraded","inputs":[{"name":"implementation","type":"address","indexed":true,"internalType":"address"}],"anonymous":false},{"type":"error","name":"AddressEmptyCode","inputs":[{"name":"target","type":"address","internalType":"address"}]},{"type":"error","name":"ERC1967InvalidImplementation","inputs":[{"name":"implementation","type":"address","internalType":"address"}]},{"type":"error","name":"ERC1967NonPayable","inputs":[]},{"type":"error","name":"FailedCall","inputs":[]},{"type":"error","name":"InvalidInitialization","inputs":[]},{"type":"error","name":"LimitTimeNotFound","inputs":[{"name":"compliance","type":"address","internalType":"address"},{"name":"limitTime","type":"uint256","internalType":"uint256"}]},{"type":"error","name":"LimitsArraySizeExceeded","inputs":[{"name":"compliance","type":"address","internalType":"address"},{"name":"arraySize","type":"uint256","internalType":"uint256"}]},{"type":"error","name":"NotInitializing","inputs":[]},{"type":"error","name":"OwnableInvalidOwner","inputs":[{"name":"owner","type":"address","internalType":"address"}]},{"type":"error","name":"OwnableUnauthorizedAccount","inputs":[{"name":"account","type":"address","internalType":"address"}]},{"type":"error","name":"UUPSUnauthorizedCallContext","inputs":[]},{"type":"error","name":"UUPSUnsupportedProxiableUUID","inputs":[{"name":"slot","type":"bytes32","internalType":"bytes32"}]}],"bytecode":{"object":"0x60a060405230608052348015601357600080fd5b506080516120ab61003d6000396000818161155d0152818161158601526116c701526120ab6000f3fe6080604052600436106101665760003560e01c806353ccd57d116100d1578063ad3cb1cc1161008a578063d09b3be011610064578063d09b3be01461052d578063e6f5e8071461054d578063f104a8c9146102e5578063f2fde38b1461056157600080fd5b8063ad3cb1cc146104bb578063bcc21053146104ec578063cee624b21461050d57600080fd5b806353ccd57d146103ce578063715018a61461040a578063777fb3f11461041f5780638129fc1c1461043f5780638da5cb5b1461045457806392d586df1461049b57600080fd5b8063372491a211610123578063372491a2146102e5578063388ebb15146103055780634a932544146103325780634cf4d295146103525780634f1ef2861461039857806352d1902d146103ab57600080fd5b8063013b7ce41461016b5780630694a5fb146101a057806306fdde03146101c2578063189fa403146102115780632cb7e1ec1461026b5780632f6bbc5d1461028b575b600080fd5b34801561017757600080fd5b5061018b610186366004611a9d565b610581565b60405190151581526020015b60405180910390f35b3480156101ac57600080fd5b506101c06101bb366004611af0565b61076c565b005b3480156101ce57600080fd5b5060408051808201909152601981527f54696d655472616e73666572734c696d6974734d6f64756c650000000000000060208201525b6040516101979190611b31565b34801561021d57600080fd5b5061025661022c366004611b76565b60026020908152600093845260408085208252928452828420905282529020805460019091015482565b60408051928352602083019190915201610197565b34801561027757600080fd5b506101c0610286366004611bc1565b61088c565b34801561029757600080fd5b506102cc6102a6366004611c02565b600060208181529281526040808220909352908152205460ff8082169161010090041682565b60408051921515835260ff909116602083015201610197565b3480156102f157600080fd5b506101c0610300366004611c3b565b6108dc565b34801561031157600080fd5b50610325610320366004611af0565b610920565b6040516101979190611c67565b34801561033e57600080fd5b506101c061034d366004611af0565b6109a8565b34801561035e57600080fd5b5061018b61036d366004611af0565b6001600160a01b03166000908152600080516020612056833981519152602052604090205460ff1690565b6101c06103a6366004611cd2565b610aeb565b3480156103b757600080fd5b506103c0610b0a565b604051908152602001610197565b3480156103da57600080fd5b506103ee6103e9366004611c3b565b610b27565b6040805163ffffffff9093168352602083019190915201610197565b34801561041657600080fd5b506101c0610b6a565b34801561042b57600080fd5b506101c061043a366004611d9e565b610b7e565b34801561044b57600080fd5b506101c0610dee565b34801561046057600080fd5b507f9016d09d72d40fdae2fd8ceac6b6234c7706214fd39c1cd1e609a0528c199300546040516001600160a01b039091168152602001610197565b3480156104a757600080fd5b506101c06104b6366004611dbb565b610efc565b3480156104c757600080fd5b50610204604051806040016040528060058152602001640352e302e360dc1b81525081565b3480156104f857600080fd5b5061018b610507366004611af0565b50600190565b34801561051957600080fd5b506101c0610528366004611e32565b610f39565b34801561053957600080fd5b506101c0610548366004611e99565b610f6c565b34801561055957600080fd5b50600161018b565b34801561056d57600080fd5b506101c061057c366004611af0565b6111b6565b60006001600160a01b03851661059957506001610764565b6105a382866111f4565b156105b057506001610764565b60006105bc83876112cd565b905060005b6001600160a01b03841660009081526001602052604090205481101561075d576001600160a01b038416600090815260016020526040902080548290811061060b5761060b611eb4565b90600052602060002090600202016001015485111561062f57600092505050610764565b610686848360016000886001600160a01b03166001600160a01b03168152602001908152602001600020848154811061066a5761066a611eb4565b600091825260209091206002909102015463ffffffff166113fe565b15801561074557506001600160a01b03841660009081526001602052604090208054829081106106b8576106b8611eb4565b600091825260208083206002928302016001908101546001600160a01b0389811680875294845260408087209189168752908452808620948652919092528320805491938993929091908690811061071257610712611eb4565b6000918252602080832060029092029091015463ffffffff1683528201929092526040019020546107439190611ee0565b115b1561075557600092505050610764565b6001016105c1565b5060019150505b949350505050565b336000908152600080516020612056833981519152602081905260409091205460ff166107b45760405162461bcd60e51b81526004016107ab90611ef3565b60405180910390fd5b6000805160206120568339815191526001600160a01b0383166108195760405162461bcd60e51b815260206004820152601f60248201527f696e76616c696420617267756d656e74202d207a65726f20616464726573730060448201526064016107ab565b336001600160a01b038416146108415760405162461bcd60e51b81526004016107ab90611f2a565b6001600160a01b038316600081815260208390526040808220805460ff19169055517f408b49d9be1c914c52a0227e18a077e5a892dddf32a26cfa94a5d9708fad77189190a2505050565b336000908152600080516020612056833981519152602081905260409091205460ff166108cb5760405162461bcd60e51b81526004016107ab90611ef3565b6108d6338584611440565b50505050565b336000908152600080516020612056833981519152602081905260409091205460ff1661091b5760405162461bcd60e51b81526004016107ab90611ef3565b505050565b6001600160a01b0381166000908152600160209081526040808320805482518185028101850190935280835260609492939192909184015b8282101561099d5760008481526020908190206040805180820190915260028502909101805463ffffffff168252600190810154828401529083529092019101610958565b505050509050919050565b6000805160206120568339815191526001600160a01b038216610a0d5760405162461bcd60e51b815260206004820152601f60248201527f696e76616c696420617267756d656e74202d207a65726f20616464726573730060448201526064016107ab565b6001600160a01b03821660009081526020829052604090205460ff1615610a765760405162461bcd60e51b815260206004820152601860248201527f636f6d706c69616e636520616c726561647920626f756e64000000000000000060448201526064016107ab565b336001600160a01b03831614610a9e5760405162461bcd60e51b81526004016107ab90611f2a565b6001600160a01b038216600081815260208390526040808220805460ff19166001179055517f1f7b76c58fb697eb53c6c7c1becb96911516a136e24d7ced386b2355358b75a39190a25050565b610af3611552565b610afc826115f7565b610b0682826115ff565b5050565b6000610b146116bc565b5060008051602061203683398151915290565b60016020528160005260406000208181548110610b4357600080fd5b60009182526020909120600290910201805460019091015463ffffffff9091169250905082565b610b72611705565b610b7c6000611760565b565b336000908152600080516020612056833981519152602081905260409091205460ff16610bbd5760405162461bcd60e51b81526004016107ab90611ef3565b600080805b33600090815260016020526040902054811015610c3357336000908152600160205260409020805463ffffffff8716919083908110610c0357610c03611eb4565b600091825260209091206002909102015463ffffffff1603610c2b5760019250809150610c33565b600101610bc2565b5081610c605760405163201493e360e21b815233600482015263ffffffff851660248201526044016107ab565b33600090815260016020819052604090912054118015610c9c575033600090815260016020819052604090912054610c989190611f6b565b8114155b15610d475733600090815260016020819052604090912080549091610cc091611f6b565b81548110610cd057610cd0611eb4565b906000526020600020906002020160016000336001600160a01b03166001600160a01b031681526020019081526020016000208281548110610d1457610d14611eb4565b600091825260209091208254600290920201805463ffffffff191663ffffffff9092169190911781556001918201549101555b336000908152600160205260409020805480610d6557610d65611f7e565b6000828152602080822060026000199490940193840201805463ffffffff191681556001018290559190925533808352828252604080842063ffffffff891680865290845293819020805461ffff1916905551928352917f44517d80caa322e667548d639479d5f95bb3c39cc0afeed32098066b0b1bedd391015b60405180910390a250505050565b7ff0c57e16840df040f15088dc2f81fe391c3923bec73e23a9662efc9c229c6a008054600160401b810460ff16159067ffffffffffffffff16600081158015610e345750825b905060008267ffffffffffffffff166001148015610e515750303b155b905081158015610e5f575080155b15610e7d5760405163f92ee8a960e01b815260040160405180910390fd5b845467ffffffffffffffff191660011785558315610ea757845460ff60401b1916600160401b1785555b610eaf6117d1565b8315610ef557845460ff60401b19168555604051600181527fc7f505b2f371ae2175ee4913f4499e1f2633a7b5936321eed1cdaeb6115181d29060200160405180910390a15b5050505050565b60005b8181101561091b57610f31838383818110610f1c57610f1c611eb4565b905060200201602081019061043a9190611d9e565b600101610eff565b60005b8181101561091b57610f64838383818110610f5957610f59611eb4565b905060400201610f6c565b600101610f3c565b336000908152600080516020612056833981519152602081905260409091205460ff16610fab5760405162461bcd60e51b81526004016107ab90611ef3565b336000908152602081815260408220908290610fc990860186611d9e565b63ffffffff16815260208082019290925260409081016000908120543382526001909352205460ff909116915081158015611008575060048160ff1610155b15611031576040516382f520a960e01b815233600482015260ff821660248201526044016107ab565b81158015611042575060048160ff16105b156110f05733600090815260016020818152604083208054928301815583529091208591600202016110748282611f94565b50506040805180820182526001815260ff83166020808301919091523360009081528082529283209192906110ab90880188611d9e565b63ffffffff16815260208082019290925260400160002082518154939092015160ff166101000261ff00199215159290921661ffff1990931692909217179055611169565b3360009081526001602090815260408083208383529083208793919290919061111b90850185611d9e565b63ffffffff168152602081019190915260400160002054815461010090910460ff1690811061114c5761114c611eb4565b906000526020600020906002020181816111669190611f94565b50505b337f172f792abfbfd784dac801573197a4dc27fe914e9bb2756ff598a68a359c29c26111986020870187611d9e565b6040805163ffffffff90921682526020808901359083015201610de0565b6111be611705565b6001600160a01b0381166111e857604051631e4fbdf760e01b8152600060048201526024016107ab565b6111f181611760565b50565b6000826001600160a01b0316636a3edf286040518163ffffffff1660e01b8152600401602060405180830381865afa158015611234573d6000803e3d6000fd5b505050506040513d601f19601f820116820180604052508101906112589190611fc1565b6040516307feec1960e21b81526001600160a01b0384811660048301529190911690631ffbb06490602401602060405180830381865afa1580156112a0573d6000803e3d6000fd5b505050506040513d601f19601f820116820180604052508101906112c49190611fde565b90505b92915050565b6000826001600160a01b0316636a3edf286040518163ffffffff1660e01b8152600401602060405180830381865afa15801561130d573d6000803e3d6000fd5b505050506040513d601f19601f820116820180604052508101906113319190611fc1565b6001600160a01b031663134e18f46040518163ffffffff1660e01b8152600401602060405180830381865afa15801561136e573d6000803e3d6000fd5b505050506040513d601f19601f820116820180604052508101906113929190611fc1565b604051633c3ad79560e21b81526001600160a01b038481166004830152919091169063f0eb5e5490602401602060405180830381865afa1580156113da573d6000803e3d6000fd5b505050506040513d601f19601f820116820180604052508101906112c49190611fc1565b6001600160a01b038084166000908152600260209081526040808320938616835292815282822063ffffffff85168352905220600101544210155b9392505050565b600061144c84846112cd565b905060005b6001600160a01b038516600090815260016020526040902054811015610ef5576114c8858360016000896001600160a01b03166001600160a01b0316815260200190815260200160002084815481106114ac576114ac611eb4565b600091825260209091206002909102015463ffffffff166117ea565b6001600160a01b0380861660008181526002602090815260408083209487168352938152838220928252600190529182208054869391908590811061150f5761150f611eb4565b6000918252602080832060029092029091015463ffffffff16835282019290925260400181208054909190611545908490611ee0565b9091555050600101611451565b306001600160a01b037f00000000000000000000000000000000000000000000000000000000000000001614806115d957507f00000000000000000000000000000000000000000000000000000000000000006001600160a01b03166115cd600080516020612036833981519152546001600160a01b031690565b6001600160a01b031614155b15610b7c5760405163703e46dd60e11b815260040160405180910390fd5b6111f1611705565b816001600160a01b03166352d1902d6040518163ffffffff1660e01b8152600401602060405180830381865afa925050508015611659575060408051601f3d908101601f1916820190925261165691810190612000565b60015b61168157604051634c9c8ce360e01b81526001600160a01b03831660048201526024016107ab565b60008051602061203683398151915281146116b257604051632a87526960e21b8152600481018290526024016107ab565b61091b8383611849565b306001600160a01b037f00000000000000000000000000000000000000000000000000000000000000001614610b7c5760405163703e46dd60e11b815260040160405180910390fd5b336117377f9016d09d72d40fdae2fd8ceac6b6234c7706214fd39c1cd1e609a0528c199300546001600160a01b031690565b6001600160a01b031614610b7c5760405163118cdaa760e01b81523360048201526024016107ab565b7f9016d09d72d40fdae2fd8ceac6b6234c7706214fd39c1cd1e609a0528c19930080546001600160a01b031981166001600160a01b03848116918217845560405192169182907f8be0079c531659141344cd1fd0a4f28419497f9722a3daafe3b4186f6b6457e090600090a3505050565b6117d961189f565b6117e2336118e8565b610b7c6118f9565b6117f58383836113fe565b1561091b576001600160a01b038084166000908152600260209081526040808320938616835292815282822063ffffffff851680845291529190209061183b9042611ee0565b600182015560009055505050565b61185282611901565b6040516001600160a01b038316907fbc7cd75a20ee27fd9adebab32041f755214dbc6bffa90cc0225b39da2e5c2d3b90600090a28051156118975761091b8282611966565b610b066119dc565b7ff0c57e16840df040f15088dc2f81fe391c3923bec73e23a9662efc9c229c6a0054600160401b900460ff16610b7c57604051631afcd79f60e31b815260040160405180910390fd5b6118f061189f565b6111f1816119fb565b610b7c61189f565b806001600160a01b03163b60000361193757604051634c9c8ce360e01b81526001600160a01b03821660048201526024016107ab565b60008051602061203683398151915280546001600160a01b0319166001600160a01b0392909216919091179055565b6060600080846001600160a01b0316846040516119839190612019565b600060405180830381855af49150503d80600081146119be576040519150601f19603f3d011682016040523d82523d6000602084013e6119c3565b606091505b50915091506119d3858383611a03565b95945050505050565b3415610b7c5760405163b398979f60e01b815260040160405180910390fd5b6111be61189f565b606082611a1857611a1382611a5f565b611439565b8151158015611a2f57506001600160a01b0384163b155b15611a5857604051639996b31560e01b81526001600160a01b03851660048201526024016107ab565b5080611439565b805115611a6f5780518082602001fd5b60405163d6bda27560e01b815260040160405180910390fd5b6001600160a01b03811681146111f157600080fd5b60008060008060808587031215611ab357600080fd5b8435611abe81611a88565b93506020850135611ace81611a88565b9250604085013591506060850135611ae581611a88565b939692955090935050565b600060208284031215611b0257600080fd5b813561143981611a88565b60005b83811015611b28578181015183820152602001611b10565b50506000910152565b6020815260008251806020840152611b50816040850160208701611b0d565b601f01601f19169190910160400192915050565b63ffffffff811681146111f157600080fd5b600080600060608486031215611b8b57600080fd5b8335611b9681611a88565b92506020840135611ba681611a88565b91506040840135611bb681611b64565b809150509250925092565b600080600060608486031215611bd657600080fd5b8335611be181611a88565b92506020840135611bf181611a88565b929592945050506040919091013590565b60008060408385031215611c1557600080fd5b8235611c2081611a88565b91506020830135611c3081611b64565b809150509250929050565b60008060408385031215611c4e57600080fd5b8235611c5981611a88565b946020939093013593505050565b602080825282518282018190526000918401906040840190835b81811015611cb1578351805163ffffffff1684526020908101518185015290930192604090920191600101611c81565b509095945050505050565b634e487b7160e01b600052604160045260246000fd5b60008060408385031215611ce557600080fd5b8235611cf081611a88565b9150602083013567ffffffffffffffff811115611d0c57600080fd5b8301601f81018513611d1d57600080fd5b803567ffffffffffffffff811115611d3757611d37611cbc565b604051601f8201601f19908116603f0116810167ffffffffffffffff81118282101715611d6657611d66611cbc565b604052818152828201602001871015611d7e57600080fd5b816020840160208301376000602083830101528093505050509250929050565b600060208284031215611db057600080fd5b813561143981611b64565b60008060208385031215611dce57600080fd5b823567ffffffffffffffff811115611de557600080fd5b8301601f81018513611df657600080fd5b803567ffffffffffffffff811115611e0d57600080fd5b8560208260051b8401011115611e2257600080fd5b6020919091019590945092505050565b60008060208385031215611e4557600080fd5b823567ffffffffffffffff811115611e5c57600080fd5b8301601f81018513611e6d57600080fd5b803567ffffffffffffffff811115611e8457600080fd5b8560208260061b8401011115611e2257600080fd5b60006040828403128015611eac57600080fd5b509092915050565b634e487b7160e01b600052603260045260246000fd5b634e487b7160e01b600052601160045260246000fd5b808201808211156112c7576112c7611eca565b6020808252601e908201527f6f6e6c7920626f756e6420636f6d706c69616e63652063616e2063616c6c0000604082015260600190565b60208082526021908201527f6f6e6c7920636f6d706c69616e636520636f6e74726163742063616e2063616c6040820152601b60fa1b606082015260800190565b818103818111156112c7576112c7611eca565b634e487b7160e01b600052603160045260246000fd5b8135611f9f81611b64565b63ffffffff811663ffffffff1983541617825550602082013560018201555050565b600060208284031215611fd357600080fd5b815161143981611a88565b600060208284031215611ff057600080fd5b8151801515811461143957600080fd5b60006020828403121561201257600080fd5b5051919050565b6000825161202b818460208701611b0d565b919091019291505056fe360894a13ba1a3210667c828492db98dca3e2076cc3735a920a3ca505d382bbcf6cc97de1266c180cd39f3b311632644143ce7873d2927755382ad4b39e8ae00a2646970667358221220b1dff16998055b2bd17cd1567c80f7ad32bd9b5ec8ff2a177abb7524d89e0f1764736f6c634300081c0033","linkReferences":{}},"methodIdentifiers":{"UPGRADE_INTERFACE_VERSION()":"ad3cb1cc","batchRemoveTimeTransferLimit(uint32[])":"92d586df","batchSetTimeTransferLimit((uint32,uint256)[])":"cee624b2","bindCompliance(address)":"4a932544","canComplianceBind(address)":"bcc21053","getTimeTransferLimits(address)":"388ebb15","initialize()":"8129fc1c","isComplianceBound(address)":"4cf4d295","isPlugAndPlay()":"e6f5e807","limitValues(address,uint32)":"2f6bbc5d","moduleBurnAction(address,uint256)":"372491a2","moduleCheck(address,address,uint256,address)":"013b7ce4","moduleMintAction(address,uint256)":"f104a8c9","moduleTransferAction(address,address,uint256)":"2cb7e1ec","name()":"06fdde03","owner()":"8da5cb5b","proxiableUUID()":"52d1902d","removeTimeTransferLimit(uint32)":"777fb3f1","renounceOwnership()":"715018a6","setTimeTransferLimit((uint32,uint256))":"d09b3be0","transferLimits(address,uint256)":"53ccd57d","transferOwnership(address)":"f2fde38b","unbindCompliance(address)":"0694a5fb","upgradeToAndCall(address,bytes)":"4f1ef286","usersCounters(address,address,uint32)":"189fa403"},"id":42}