{"abi":[{"type":"function","name":"addAgent","inputs":[{"name":"_agent","type":"address","internalType":"address"}],"outputs":[],"stateMutability":"nonpayable"},{"type":"function","name":"allowance","inputs":[{"name":"owner","type":"address","internalType":"address"},{"name":"spender","type":"address","internalType":"address"}],"outputs":[{"name":"","type":"uint256","internalType":"uint256"}],"stateMutability":"view"},{"type":"function","name":"approve","inputs":[{"name":"spender","type":"address","internalType":"address"},{"name":"value","type":"uint256","internalType":"uint256"}],"outputs":[{"name":"","type":"bool","internalType":"bool"}],"stateMutability":"nonpayable"},{"type":"function","name":"balanceOf","inputs":[{"name":"account","type":"address","internalType":"address"}],"outputs":[{"name":"","type":"uint256","internalType":"uint256"}],"stateMutability":"view"},{"type":"function","name":"batchBurn","inputs":[{"name":"_userAddresses","type":"address[]","internalType":"address[]"},{"name":"_amounts","type":"uint256[]","internalType":"uint256[]"}],"outputs":[],"stateMutability":"nonpayable"},{"type":"function","name":"batchForcedTransfer","inputs":[{"name":"_fromList","type":"address[]","internalType":"address[]"},{"name":"_toList","type":"address[]","internalType":"address[]"},{"name":"_amounts","type":"uint256[]","internalType":"uint256[]"}],"outputs":[],"stateMutability":"nonpayable"},{"type":"function","name":"batchFreezePartialTokens","inputs":[{"name":"_userAddresses","type":"address[]","internalType":"address[]"},{"name":"_amounts","type":"uint256[]","internalType":"uint256[]"}],"outputs":[],"stateMutability":"nonpayable"},{"type":"function","name":"batchMint","inputs":[{"name":"_toList","type":"address[]","internalType":"address[]"},{"name":"_amounts","type":"uint256[]","internalType":"uint256[]"}],"outputs":[],"stateMutability":"nonpayable"},{"type":"function","name":"batchSetAddressFrozen","inputs":[{"name":"_userAddresses","type":"address[]","internalType":"address[]"},{"name":"_freeze","type":"bool[]","internalType":"bool[]"}],"outputs":[],"stateMutability":"nonpayable"},{"type":"function","name":"batchTransfer","inputs":[{"name":"_toList","type":"address[]","internalType":"address[]"},{"name":"_amounts","type":"uint256[]","internalType":"uint256[]"}],"outputs":[],"stateMutability":"nonpayable"},{"type":"function","name":"batchUnfreezePartialTokens","inputs":[{"name":"_userAddresses","type":"address[]","internalType":"address[]"},{"name":"_amounts","type":"uint256[]","internalType":"uint256[]"}],"outputs":[],"stateMutability":"nonpayable"},{"type":"function","name":"burn","inputs":[{"name":"_userAddress","type":"address","internalType":"address"},{"name":"_amount","type":"uint256","internalType":"uint256"}],"outputs":[],"stateMutability":"nonpayable"},{"type":"function","name":"cap","inputs":[],"outputs":[{"name":"","type":"uint256","internalType":"uint256"}],"stateMutability":"view"},{"type":"function","name":"compliance","inputs":[],"outputs":[{"name":"","type":"address","internalType":"contract IModularCompliance"}],"stateMutability":"view"},{"type":"function","name":"decimals","inputs":[],"outputs":[{"name":"","type":"uint8","internalType":"uint8"}],"stateMutability":"view"},{"type":"function","name":"forcedTransfer","inputs":[{"name":"_from","type":"address","internalType":"address"},{"name":"_to","type":"address","internalType":"address"},{"name":"_amount","type":"uint256","internalType":"uint256"}],"outputs":[{"name":"","type":"bool","internalType":"bool"}],"stateMutability":"nonpayable"},{"type":"function","name":"freezePartialTokens","inputs":[{"name":"_userAddress","type":"address","internalType":"address"},{"name":"_amount","type":"uint256","internalType":"uint256"}],"outputs":[],"stateMutability":"nonpayable"},{"type":"function","name":"getFrozenTokens","inputs":[{"name":"_userAddress","type":"address","internalType":"address"}],"outputs":[{"name":"","type":"uint256","internalType":"uint256"}],"stateMutability":"view"},{"type":"function","name":"identityRegistry","inputs":[],"outputs":[{"name":"","type":"address","internalType":"contract IIdentityRegistry"}],"stateMutability":"view"},{"type":"function","name":"isAgent","inputs":[{"name":"_agent","type":"address","internalType":"address"}],"outputs":[{"name":"","type":"bool","internalType":"bool"}],"stateMutability":"view"},{"type":"function","name":"isFrozen","inputs":[{"name":"_userAddress","type":"address","internalType":"address"}],"outputs":[{"name":"","type":"bool","internalType":"bool"}],"stateMutability":"view"},{"type":"function","name":"mint","inputs":[{"name":"_to","type":"address","internalType":"address"},{"name":"_amount","type":"uint256","internalType":"uint256"}],"outputs":[],"stateMutability":"nonpayable"},{"type":"function","name":"name","inputs":[],"outputs":[{"name":"","type":"string","internalType":"string"}],"stateMutability":"view"},{"type":"function","name":"onchainID","inputs":[],"outputs":[{"name":"","type":"address","internalType":"address"}],"stateMutability":"view"},{"type":"function","name":"owner","inputs":[],"outputs":[{"name":"","type":"address","internalType":"address"}],"stateMutability":"view"},{"type":"function","name":"pause","inputs":[],"outputs":[],"stateMutability":"nonpayable"},{"type":"function","name":"paused","inputs":[],"outputs":[{"name":"","type":"bool","internalType":"bool"}],"stateMutability":"view"},{"type":"function","name":"recoveryAddress","inputs":[{"name":"_lostWallet","type":"address","internalType":"address"},{"name":"_newWallet","type":"address","internalType":"address"},{"name":"_investorOnchainID","type":"address","internalType":"address"}],"outputs":[{"name":"","type":"bool","internalType":"bool"}],"stateMutability":"nonpayable"},{"type":"function","name":"removeAgent","inputs":[{"name":"_agent","type":"address","internalType":"address"}],"outputs":[],"stateMutability":"nonpayable"},{"type":"function","name":"renounceOwnership","inputs":[],"outputs":[],"stateMutability":"nonpayable"},{"type":"function","name":"setAddressFrozen","inputs":[{"name":"_userAddress","type":"address","internalType":"address"},{"name":"_freeze","type":"bool","internalType":"bool"}],"outputs":[],"stateMutability":"nonpayable"},{"type":"function","name":"setCompliance","inputs":[{"name":"_compliance","type":"address","internalType":"address"}],"outputs":[],"stateMutability":"nonpayable"},{"type":"function","name":"setIdentityRegistry","inputs":[{"name":"_identityRegistry","type":"address","internalType":"address"}],"outputs":[],"stateMutability":"nonpayable"},{"type":"function","name":"setName","inputs":[{"name":"_name","type":"string","internalType":"string"}],"outputs":[],"stateMutability":"nonpayable"},{"type":"function","name":"setOnchainID","inputs":[{"name":"_onchainID","type":"address","internalType":"address"}],"outputs":[],"stateMutability":"nonpayable"},{"type":"function","name":"setSymbol","inputs":[{"name":"_symbol","type":"string","internalType":"string"}],"outputs":[],"stateMutability":"nonpayable"},{"type":"function","name":"symbol","inputs":[],"outputs":[{"name":"","type":"string","internalType":"string"}],"stateMutability":"view"},{"type":"function","name":"totalSupply","inputs":[],"outputs":[{"name":"","type":"uint256","internalType":"uint256"}],"stateMutability":"view"},{"type":"function","name":"transfer","inputs":[{"name":"_to","type":"address","internalType":"address"},{"name":"_amount","type":"uint256","internalType":"uint256"}],"outputs":[{"name":"","type":"bool","internalType":"bool"}],"stateMutability":"nonpayable"},{"type":"function","name":"transferFrom","inputs":[{"name":"_from","type":"address","internalType":"address"},{"name":"_to","type":"address","internalType":"address"},{"name":"_amount","type":"uint256","internalType":"uint256"}],"outputs":[{"name":"","type":"bool","internalType":"bool"}],"stateMutability":"nonpayable"},{"type":"function","name":"transferOwnership","inputs":[{"name":"newOwner","type":"address","internalType":"address"}],"outputs":[],"stateMutability":"nonpayable"},{"type":"function","name":"unfreezePartialTokens","inputs":[{"name":"_userAddress","type":"address","internalType":"address"},{"name":"_amount","type":"uint256","internalType":"uint256"}],"outputs":[],"stateMutability":"nonpayable"},{"type":"function","name":"unpause","inputs":[],"outputs":[],"stateMutability":"nonpayable"},{"type":"function","name":"version","inputs":[],"outputs":[{"name":"","type":"string","internalType":"string"}],"stateMutability":"pure"},{"type":"event","name":"AddressFrozen","inputs":[{"name":"_userAddress","type":"address","indexed":true,"internalType":"address"},{"name":"_isFrozen","type":"bool","indexed":true,"internalType":"bool"},{"name":"_owner","type":"address","indexed":true,"internalType":"address"}],"anonymous":false},{"type":"event","name":"AgentAdded","inputs":[{"name":"_agent","type":"address","indexed":true,"internalType":"address"}],"anonymous":false},{"type":"event","name":"AgentRemoved","inputs":[{"name":"_agent","type":"address","indexed":true,"internalType":"address"}],"anonymous":false},{"type":"event","name":"Approval","inputs":[{"name":"owner","type":"address","indexed":true,"internalType":"address"},{"name":"spender","type":"address","indexed":true,"internalType":"address"},{"name":"value","type":"uint256","indexed":false,"internalType":"uint256"}],"anonymous":false},{"type":"event","name":"ComplianceAdded","inputs":[{"name":"_compliance","type":"address","indexed":true,"internalType":"address"}],"anonymous":false},{"type":"event","name":"IdentityRegistryAdded","inputs":[{"name":"_identityRegistry","type":"address","indexed":true,"internalType":"address"}],"anonymous":false},{"type":"event","name":"Initialized","inputs":[{"name":"version","type":"uint64","indexed":false,"internalType":"uint64"}],"anonymous":false},{"type":"event","name":"OwnershipTransferred","inputs":[{"name":"previousOwner","type":"address","indexed":true,"internalType":"address"},{"name":"newOwner","type":"address","indexed":true,"internalType":"address"}],"anonymous":false},{"type":"event","name":"Paused","inputs":[{"name":"account","type":"address","indexed":false,"internalType":"address"}],"anonymous":false},{"type":"event","name":"RecoverySuccess","inputs":[{"name":"_lostWallet","type":"address","indexed":true,"internalType":"address"},{"name":"_newWallet","type":"address","indexed":true,"internalType":"address"},{"name":"_investorOnchainID","type":"address","indexed":true,"internalType":"address"}],"anonymous":false},{"type":"event","name":"TokensFrozen","inputs":[{"name":"_userAddress","type":"address","indexed":true,"internalType":"address"},{"name":"_amount","type":"uint256","indexed":false,"internalType":"uint256"}],"anonymous":false},{"type":"event","name":"TokensUnfrozen","inputs":[{"name":"_userAddress","type":"address","indexed":true,"internalType":"address"},{"name":"_amount","type":"uint256","indexed":false,"internalType":"uint256"}],"anonymous":false},{"type":"event","name":"Transfer","inputs":[{"name":"from","type":"address","indexed":true,"internalType":"address"},{"name":"to","type":"address","indexed":true,"internalType":"address"},{"name":"value","type":"uint256","indexed":false,"internalType":"uint256"}],"anonymous":false},{"type":"event","name":"Unpaused","inputs":[{"name":"account","type":"address","indexed":false,"internalType":"address"}],"anonymous":false},{"type":"event","name":"UpdatedTokenInformation","inputs":[{"name":"_newName","type":"string","indexed":true,"internalType":"string"},{"name":"_newSymbol","type":"string","indexed":true,"internalType":"string"},{"name":"_newDecimals","type":"uint8","indexed":false,"internalType":"uint8"},{"name":"_newVersion","type":"string","indexed":false,"internalType":"string"},{"name":"_newOnchainID","type":"address","indexed":true,"internalType":"address"}],"anonymous":false},{"type":"error","name":"ERC20ExceededCap","inputs":[{"name":"increasedSupply","type":"uint256","internalType":"uint256"},{"name":"cap","type":"uint256","internalType":"uint256"}]},{"type":"error","name":"ERC20InsufficientAllowance","inputs":[{"name":"spender","type":"address","internalType":"address"},{"name":"allowance","type":"uint256","internalType":"uint256"},{"name":"needed","type":"uint256","internalType":"uint256"}]},{"type":"error","name":"ERC20InsufficientBalance","inputs":[{"name":"sender","type":"address","internalType":"address"},{"name":"balance","type":"uint256","internalType":"uint256"},{"name":"needed","type":"uint256","internalType":"uint256"}]},{"type":"error","name":"ERC20InvalidApprover","inputs":[{"name":"approver","type":"address","internalType":"address"}]},{"type":"error","name":"ERC20InvalidCap","inputs":[{"name":"cap","type":"uint256","internalType":"uint256"}]},{"type":"error","name":"ERC20InvalidReceiver","inputs":[{"name":"receiver","type":"address","internalType":"address"}]},{"type":"error","name":"ERC20InvalidSender","inputs":[{"name":"sender","type":"address","internalType":"address"}]},{"type":"error","name":"ERC20InvalidSpender","inputs":[{"name":"spender","type":"address","internalType":"address"}]},{"type":"error","name":"EnforcedPause","inputs":[]},{"type":"error","name":"ExpectedPause","inputs":[]},{"type":"error","name":"InvalidInitialization","inputs":[]},{"type":"error","name":"NotInitializing","inputs":[]},{"type":"error","name":"OwnableInvalidOwner","inputs":[{"name":"owner","type":"address","internalType":"address"}]},{"type":"error","name":"OwnableUnauthorizedAccount","inputs":[{"name":"account","type":"address","internalType":"address"}]}],"bytecode":{"object":"0x6080604052348015600f57600080fd5b50612fd08061001f6000396000f3fe608060405234801561001057600080fd5b50600436106102745760003560e01c806370a0823111610151578063a9059cbb116100c3578063cbf3f86111610087578063cbf3f861146105b2578063dd62ed3e146105c5578063e5839836146105d8578063f2fde38b14610604578063f898178914610617578063fc7e5fa81461062a57600080fd5b8063a9059cbb14610555578063aba6370514610568578063b84c824614610579578063c47f00271461058c578063c69c09cf1461059f57600080fd5b80638da5cb5b116101155780638da5cb5b146104d15780639285948a1461050157806395d89b411461051457806397a6278e1461051c5780639dc29fac1461052f5780639fc1d0e71461054257600080fd5b806370a0823114610488578063715018a61461049b5780638456cb59146104a357806384e79842146104ab57806388d695b2146104be57600080fd5b8063355274ea116101ea5780634710362d116101ae5780634710362d146104155780634a6cc6771461042857806354fd4d501461043b5780635c975abb1461045c5780636290865d14610464578063685731071461047557600080fd5b8063355274ea146103ad5780633d1ddc5b146103d45780633f4ba83a146103e757806340c10f19146103ef57806342a47abc1461040257600080fd5b806318160ddd1161023c57806318160ddd1461032b5780631a7af379146103525780631fe56f7d146103655780631ffbb0641461037857806323b872dd1461038b578063313ce5671461039e57600080fd5b806306fdde0314610279578063095ea7b314610297578063125c4a33146102ba578063134e18f4146102cf578063158b1a57146102f4575b600080fd5b61028161063d565b60405161028e919061293a565b60405180910390f35b6102aa6102a5366004612969565b61064c565b604051901515815260200161028e565b6102cd6102c8366004612969565b610666565b005b6004546001600160a01b03165b6040516001600160a01b03909116815260200161028e565b61031d610302366004612993565b6001600160a01b031660009081526003602052604090205490565b60405190815260200161028e565b7f52c63247e1f47db19d5ce0460030c497f067ca4cebf71ba98eeadabe20bace025461031d565b6102cd6103603660046129fa565b610795565b6102cd610373366004612969565b610800565b6102aa610386366004612993565b610929565b6102aa610399366004612a6b565b610935565b6040516012815260200161028e565b7f0f070392f17d5f958cc1ac31867dabecfc5c9758b4a419a200803226d7155d005461031d565b6102cd6103e2366004612993565b610be5565b6102cd610ca1565b6102cd6103fd366004612969565b610cb3565b6102cd610410366004612aa8565b610eca565b6102cd6104233660046129fa565b610f56565b6102cd6104363660046129fa565b610fb1565b604080518082019091526005815264342e312e3360d81b6020820152610281565b6102aa61100c565b6005546001600160a01b03166102dc565b6102cd6104833660046129fa565b611039565b61031d610496366004612993565b611094565b6102cd6110bc565b6102cd6110ce565b6102cd6104b9366004612993565b6110de565b6102cd6104cc3660046129fa565b61117e565b7f9016d09d72d40fdae2fd8ceac6b6234c7706214fd39c1cd1e609a0528c199300546001600160a01b03166102dc565b6102aa61050f366004612b4e565b6111da565b610281611540565b6102cd61052a366004612993565b61154a565b6102cd61053d366004612969565b6115ea565b6102aa610550366004612a6b565b611795565b6102aa610563366004612969565b6119bf565b6001546001600160a01b03166102dc565b6102cd610587366004612ba7565b611c16565b6102cd61059a366004612ba7565b611cf8565b6102cd6105ad366004612c6e565b611d72565b6102cd6105c0366004612993565b611dec565b61031d6105d3366004612ca5565b611e3e565b6102aa6105e6366004612993565b6001600160a01b031660009081526002602052604090205460ff1690565b6102cd610612366004612993565b611e88565b6102cd610625366004612993565b611ec6565b6102cd6106383660046129fa565b611fe0565b606061064761203b565b905090565b60003361065a8185856120fe565b60019150505b92915050565b61066f33610929565b6106945760405162461bcd60e51b815260040161068b90612cd8565b60405180910390fd5b600061069f83611094565b6001600160a01b0384166000908152600360205260409020549091506106c6908390612d3c565b8110156107155760405162461bcd60e51b815260206004820181905260248201527f416d6f756e74206578636565647320617661696c61626c652062616c616e6365604482015260640161068b565b6001600160a01b038316600090815260036020526040902054610739908390612d3c565b6001600160a01b038416600081815260036020526040908190209290925590517fa065e63c631c86f1b9f66a4a2f63f2093bf1c2168d23290259dbd969e0222a45906107889085815260200190565b60405180910390a2505050565b60005b838110156107f9576107f18585838181106107b5576107b5612d4f565b90506020020160208101906107ca9190612993565b8484848181106107dc576107dc612d4f565b90506020020160208101906105ad9190612d65565b600101610798565b5050505050565b61080933610929565b6108255760405162461bcd60e51b815260040161068b90612cd8565b6001600160a01b0382166000908152600360205260409020548111156108aa5760405162461bcd60e51b815260206004820152603460248201527f416d6f756e742073686f756c64206265206c657373207468616e206f7220657160448201527375616c20746f2066726f7a656e20746f6b656e7360601b606482015260840161068b565b6001600160a01b0382166000908152600360205260409020546108ce908290612d82565b6001600160a01b038316600081815260036020526040908190209290925590517f9bed35cb62ad0dba04f9d5bfee4b5bc91443e77da8a65c4c84834c51bb08b0d69061091d9084815260200190565b60405180910390a25050565b60006106608183612110565b600061093f612193565b6001600160a01b03831660009081526002602052604090205460ff1615801561098157506001600160a01b03841660009081526002602052604090205460ff16155b6109c05760405162461bcd60e51b815260206004820152601060248201526f3bb0b63632ba1034b990333937bd32b760811b604482015260640161068b565b6001600160a01b0384166000908152600360205260409020546109e285611094565b6109ec9190612d82565b821115610a325760405162461bcd60e51b8152602060048201526014602482015273496e73756666696369656e742042616c616e636560601b604482015260640161068b565b6004805460405163b9209e3360e01b81526001600160a01b038681169382019390935291169063b9209e3390602401602060405180830381865afa158015610a7e573d6000803e3d6000fd5b505050506040513d601f19601f82011682018060405250810190610aa29190612d95565b8015610b1e57506005546040516372331c7360e11b81526001600160a01b039091169063e46638e690610add90879087908790600401612db2565b602060405180830381865afa158015610afa573d6000803e3d6000fd5b505050506040513d601f19601f82011682018060405250810190610b1e9190612d95565b15610b9e57610b2e8484846121b9565b506005546040516322ebca6d60e21b81526001600160a01b0390911690638baf29b490610b6390879087908790600401612db2565b600060405180830381600087803b158015610b7d57600080fd5b505af1158015610b91573d6000803e3d6000fd5b5050505060019050610bde565b60405162461bcd60e51b81526020600482015260156024820152745472616e73666572206e6f7420706f737369626c6560581b604482015260640161068b565b9392505050565b610bed6121dd565b600180546001600160a01b0319166001600160a01b038316908117909155610c13611540565b604051610c209190612dd6565b6040518091039020610c3061063d565b604051610c3d9190612dd6565b60405180910390207f6a1105ac8148a3c319adbc369f9072573e8a11d3a3d195e067e7c40767ec54d1610c6e601290565b6040805180820182526005815264342e312e3360d81b60208201529051610c96929190612df2565b60405180910390a450565b610ca96121dd565b610cb1612238565b565b610cbc33610929565b610cd85760405162461bcd60e51b815260040161068b90612cd8565b6004805460405163b9209e3360e01b81526001600160a01b038581169382019390935291169063b9209e3390602401602060405180830381865afa158015610d24573d6000803e3d6000fd5b505050506040513d601f19601f82011682018060405250810190610d489190612d95565b610d945760405162461bcd60e51b815260206004820152601960248201527f4964656e74697479206973206e6f742076657269666965642e00000000000000604482015260640161068b565b6005546040516372331c7360e11b81526001600160a01b039091169063e46638e690610dc99060009086908690600401612db2565b602060405180830381865afa158015610de6573d6000803e3d6000fd5b505050506040513d601f19601f82011682018060405250810190610e0a9190612d95565b610e565760405162461bcd60e51b815260206004820152601760248201527f436f6d706c69616e6365206e6f7420666f6c6c6f776564000000000000000000604482015260640161068b565b610e6082826122aa565b600554604051635f8dead360e01b81526001600160a01b0384811660048301526024820184905290911690635f8dead390604401600060405180830381600087803b158015610eae57600080fd5b505af1158015610ec2573d6000803e3d6000fd5b505050505050565b60005b85811015610f4d57610f44878783818110610eea57610eea612d4f565b9050602002016020810190610eff9190612993565b868684818110610f1157610f11612d4f565b9050602002016020810190610f269190612993565b858585818110610f3857610f38612d4f565b90506020020135611795565b50600101610ecd565b50505050505050565b60005b838110156107f957610fa9858583818110610f7657610f76612d4f565b9050602002016020810190610f8b9190612993565b848484818110610f9d57610f9d612d4f565b90506020020135610800565b600101610f59565b60005b838110156107f957611004858583818110610fd157610fd1612d4f565b9050602002016020810190610fe69190612993565b848484818110610ff857610ff8612d4f565b905060200201356115ea565b600101610fb4565b60006106477fcd5ed15c6e187e77e9aee88184c21f4f2182ab5827cb3b7e07fbedcd63f033005460ff1690565b60005b838110156107f95761108c85858381811061105957611059612d4f565b905060200201602081019061106e9190612993565b84848481811061108057611080612d4f565b90506020020135610cb3565b60010161103c565b6001600160a01b03166000908152600080516020612f7b833981519152602052604090205490565b6110c46121dd565b610cb160006122e4565b6110d66121dd565b610cb1612355565b6110e66121dd565b6001600160a01b03811661113c5760405162461bcd60e51b815260206004820152601f60248201527f696e76616c696420617267756d656e74202d207a65726f206164647265737300604482015260640161068b565b6111476000826123b0565b6040516001600160a01b038216907ff68e73cec97f2d70aa641fb26e87a4383686e2efacb648f2165aeb02ac562ec590600090a250565b60005b838110156107f9576111d185858381811061119e5761119e612d4f565b90506020020160208101906111b39190612993565b8484848181106111c5576111c5612d4f565b905060200201356119bf565b50600101611181565b60006111e533610929565b6112015760405162461bcd60e51b815260040161068b90612cd8565b61120a84611094565b6000036112505760405162461bcd60e51b81526020600482015260146024820152733737903a37b5b2b739903a37903932b1b7bb32b960611b604482015260640161068b565b604080516001600160a01b038516602082015283916000910160408051808303601f1901815290829052805160209091012063d202158d60e01b8252600482018190526001602483015291506001600160a01b0383169063d202158d90604401602060405180830381865afa1580156112cd573d6000803e3d6000fd5b505050506040513d601f19601f820116820180604052508101906112f19190612d95565b1561150057600061130187611094565b6001600160a01b038089166000818152600360205260409081902054600480549251637e42683b60e01b8152908101939093529394509091169063454a03e090899087908490637e42683b90602401602060405180830381865afa15801561136d573d6000803e3d6000fd5b505050506040513d601f19601f820116820180604052508101906113919190612e16565b6040516001600160e01b031960e086901b1681526001600160a01b03938416600482015292909116602483015261ffff166044820152606401600060405180830381600087803b1580156113e457600080fd5b505af11580156113f8573d6000803e3d6000fd5b50505050611407888884611795565b508015611418576114188782610666565b6001600160a01b03881660009081526002602052604090205460ff16151560010361144857611448876001611d72565b6004805460405163a8d29d1d60e01b81526001600160a01b038b81169382019390935291169063a8d29d1d90602401600060405180830381600087803b15801561149157600080fd5b505af11580156114a5573d6000803e3d6000fd5b50505050856001600160a01b0316876001600160a01b0316896001600160a01b03167ff0c9129a94f30f1caaceb63e44b9811d0a3edf1d6c23757f346093af5553fed060405160405180910390a46001945050505050610bde565b60405162461bcd60e51b81526020600482015260156024820152745265636f76657279206e6f7420706f737369626c6560581b604482015260640161068b565b606061064761242c565b6115526121dd565b6001600160a01b0381166115a85760405162461bcd60e51b815260206004820152601f60248201527f696e76616c696420617267756d656e74202d207a65726f206164647265737300604482015260640161068b565b6115b360008261246b565b6040516001600160a01b038216907fed9c8ad8d5a0a66898ea49d2956929c93ae2e8bd50281b2ed897c5d1a6737e0b90600090a250565b6115f333610929565b61160f5760405162461bcd60e51b815260040161068b90612cd8565b8061161983611094565b10156116675760405162461bcd60e51b815260206004820152601d60248201527f63616e6e6f74206275726e206d6f7265207468616e2062616c616e6365000000604482015260640161068b565b6001600160a01b03821660009081526003602052604081205461168984611094565b6116939190612d82565b9050808211156117295760006116a98284612d82565b6001600160a01b0385166000908152600360205260409020549091506116d0908290612d82565b6001600160a01b038516600081815260036020526040908190209290925590517f9bed35cb62ad0dba04f9d5bfee4b5bc91443e77da8a65c4c84834c51bb08b0d69061171f9084815260200190565b60405180910390a2505b61173383836124ed565b60055460405163469753b960e11b81526001600160a01b0385811660048301526024820185905290911690638d2ea77290604401600060405180830381600087803b15801561178157600080fd5b505af1158015610f4d573d6000803e3d6000fd5b60006117a033610929565b6117bc5760405162461bcd60e51b815260040161068b90612cd8565b816117c685611094565b101561180d5760405162461bcd60e51b815260206004820152601660248201527573656e6465722062616c616e636520746f6f206c6f7760501b604482015260640161068b565b6001600160a01b03841660009081526003602052604081205461182f86611094565b6118399190612d82565b9050808311156118cf57600061184f8285612d82565b6001600160a01b038716600090815260036020526040902054909150611876908290612d82565b6001600160a01b038716600081815260036020526040908190209290925590517f9bed35cb62ad0dba04f9d5bfee4b5bc91443e77da8a65c4c84834c51bb08b0d6906118c59084815260200190565b60405180910390a2505b6004805460405163b9209e3360e01b81526001600160a01b038781169382019390935291169063b9209e3390602401602060405180830381865afa15801561191b573d6000803e3d6000fd5b505050506040513d601f19601f8201168201806040525081019061193f9190612d95565b15610b9e5761194f858585612523565b6005546040516322ebca6d60e21b81526001600160a01b0390911690638baf29b49061198390889088908890600401612db2565b600060405180830381600087803b15801561199d57600080fd5b505af11580156119b1573d6000803e3d6000fd5b505050506001915050610bde565b60006119c9612193565b6001600160a01b03831660009081526002602052604090205460ff16158015611a0257503360009081526002602052604090205460ff16155b611a415760405162461bcd60e51b815260206004820152601060248201526f3bb0b63632ba1034b990333937bd32b760811b604482015260640161068b565b3360008181526003602052604090205490611a5b90611094565b611a659190612d82565b821115611aab5760405162461bcd60e51b8152602060048201526014602482015273496e73756666696369656e742042616c616e636560601b604482015260640161068b565b6004805460405163b9209e3360e01b81526001600160a01b038681169382019390935291169063b9209e3390602401602060405180830381865afa158015611af7573d6000803e3d6000fd5b505050506040513d601f19601f82011682018060405250810190611b1b9190612d95565b8015611b9757506005546040516372331c7360e11b81526001600160a01b039091169063e46638e690611b5690339087908790600401612db2565b602060405180830381865afa158015611b73573d6000803e3d6000fd5b505050506040513d601f19601f82011682018060405250810190611b979190612d95565b15610b9e57611ba7338484612523565b6005546040516322ebca6d60e21b81526001600160a01b0390911690638baf29b490611bdb90339087908790600401612db2565b600060405180830381600087803b158015611bf557600080fd5b505af1158015611c09573d6000803e3d6000fd5b5050505060019050610660565b611c1e6121dd565b600080516020612f7b8339815191527f52c63247e1f47db19d5ce0460030c497f067ca4cebf71ba98eeadabe20bace04611c588382612ebb565b506001546040516001600160a01b0390911690611c76908490612dd6565b6040518091039020611c8661063d565b604051611c939190612dd6565b60405180910390207f6a1105ac8148a3c319adbc369f9072573e8a11d3a3d195e067e7c40767ec54d1611cc4601290565b6040805180820182526005815264342e312e3360d81b60208201529051611cec929190612df2565b60405180910390a45050565b611d006121dd565b600080516020612f7b8339815191527f52c63247e1f47db19d5ce0460030c497f067ca4cebf71ba98eeadabe20bace03611d3a8382612ebb565b506001546001600160a01b0316611d4f611540565b604051611d5c9190612dd6565b604051809103902083604051611c939190612dd6565b611d7b33610929565b611d975760405162461bcd60e51b815260040161068b90612cd8565b6001600160a01b038216600081815260026020526040808220805460ff19168515159081179091559051339391927f7fa523c84ab8d7fc5b72f08b9e46dbbf10c39e119a075b3e317002d14bc9f43691a45050565b611df46121dd565b600480546001600160a01b0319166001600160a01b0383169081179091556040517fd2be862d755bca7e0d39772b2cab3a5578da9c285f69199f4c063c2294a7f36c90600090a250565b6001600160a01b0391821660009081527f52c63247e1f47db19d5ce0460030c497f067ca4cebf71ba98eeadabe20bace016020908152604080832093909416825291909152205490565b611e906121dd565b6001600160a01b038116611eba57604051631e4fbdf760e01b81526000600482015260240161068b565b611ec3816122e4565b50565b611ece6121dd565b6005546001600160a01b031615611f3d5760055460405163040db3b560e41b81523060048201526001600160a01b03909116906340db3b5090602401600060405180830381600087803b158015611f2457600080fd5b505af1158015611f38573d6000803e3d6000fd5b505050505b600580546001600160a01b0319166001600160a01b038316908117909155604051631ffad50160e11b8152306004820152633ff5aa0290602401600060405180830381600087803b158015611f9157600080fd5b505af1158015611fa5573d6000803e3d6000fd5b50506040516001600160a01b03841692507f7f3a888862559648ec01d97deb7b5012bff86dc91e654a1de397170db40e35b69150600090a250565b60005b838110156107f95761203385858381811061200057612000612d4f565b90506020020160208101906120159190612993565b84848481811061202757612027612d4f565b90506020020135610666565b600101611fe3565b7f52c63247e1f47db19d5ce0460030c497f067ca4cebf71ba98eeadabe20bace038054606091600080516020612f7b8339815191529161207a90612e3a565b80601f01602080910402602001604051908101604052809291908181526020018280546120a690612e3a565b80156120f35780601f106120c8576101008083540402835291602001916120f3565b820191906000526020600020905b8154815290600101906020018083116120d657829003601f168201915b505050505091505090565b61210b8383836001612582565b505050565b60006001600160a01b0382166121735760405162461bcd60e51b815260206004820152602260248201527f526f6c65733a206163636f756e7420697320746865207a65726f206164647265604482015261737360f01b606482015260840161068b565b506001600160a01b03166000908152602091909152604090205460ff1690565b61219b61100c565b15610cb15760405163d93c066560e01b815260040160405180910390fd5b6000336121c7858285612669565b6121d2858585612523565b506001949350505050565b3361220f7f9016d09d72d40fdae2fd8ceac6b6234c7706214fd39c1cd1e609a0528c199300546001600160a01b031690565b6001600160a01b031614610cb15760405163118cdaa760e01b815233600482015260240161068b565b6122406126cf565b7fcd5ed15c6e187e77e9aee88184c21f4f2182ab5827cb3b7e07fbedcd63f03300805460ff191681557f5db9ee0a495bf2e6ff9c91a7834c1ba4fdd244a5e8aa4e537bd38aeae4b073aa335b6040516001600160a01b03909116815260200160405180910390a150565b6001600160a01b0382166122d45760405163ec442f0560e01b81526000600482015260240161068b565b6122e0600083836126f4565b5050565b7f9016d09d72d40fdae2fd8ceac6b6234c7706214fd39c1cd1e609a0528c19930080546001600160a01b031981166001600160a01b03848116918217845560405192169182907f8be0079c531659141344cd1fd0a4f28419497f9722a3daafe3b4186f6b6457e090600090a3505050565b61235d612193565b7fcd5ed15c6e187e77e9aee88184c21f4f2182ab5827cb3b7e07fbedcd63f03300805460ff191660011781557f62e78cea01bee320cd4e420270b5ea74000d11b0c9f74754ebdbfc544b05a2583361228c565b6123ba8282612110565b156124075760405162461bcd60e51b815260206004820152601f60248201527f526f6c65733a206163636f756e7420616c72656164792068617320726f6c6500604482015260640161068b565b6001600160a01b0316600090815260209190915260409020805460ff19166001179055565b7f52c63247e1f47db19d5ce0460030c497f067ca4cebf71ba98eeadabe20bace048054606091600080516020612f7b8339815191529161207a90612e3a565b6124758282612110565b6124cb5760405162461bcd60e51b815260206004820152602160248201527f526f6c65733a206163636f756e7420646f6573206e6f74206861766520726f6c6044820152606560f81b606482015260840161068b565b6001600160a01b0316600090815260209190915260409020805460ff19169055565b6001600160a01b03821661251757604051634b637e8f60e11b81526000600482015260240161068b565b6122e0826000836126f4565b6001600160a01b03831661254d57604051634b637e8f60e11b81526000600482015260240161068b565b6001600160a01b0382166125775760405163ec442f0560e01b81526000600482015260240161068b565b61210b8383836126f4565b600080516020612f7b8339815191526001600160a01b0385166125bb5760405163e602df0560e01b81526000600482015260240161068b565b6001600160a01b0384166125e557604051634a1406b160e11b81526000600482015260240161068b565b6001600160a01b038086166000908152600183016020908152604080832093881683529290522083905581156107f957836001600160a01b0316856001600160a01b03167f8c5be1e5ebec7d5bd14f71427d1e84f3dd0314c0f7b2291e5b200ac8c7c3b9258560405161265a91815260200190565b60405180910390a35050505050565b60006126758484611e3e565b905060001981146126c957818110156126ba57604051637dc7a0d960e11b81526001600160a01b0384166004820152602481018290526044810183905260640161068b565b6126c984848484036000612582565b50505050565b6126d761100c565b610cb157604051638dfc202b60e01b815260040160405180910390fd5b6126fc612193565b61210b83838361270d83838361279e565b6001600160a01b03831661210b5760006127457f0f070392f17d5f958cc1ac31867dabecfc5c9758b4a419a200803226d7155d005490565b905060006127717f52c63247e1f47db19d5ce0460030c497f067ca4cebf71ba98eeadabe20bace025490565b9050818111156107f95760405163279e7e1560e21b8152600481018290526024810183905260440161068b565b6127a6612193565b61210b838383600080516020612f7b8339815191526001600160a01b0384166127e857818160020160008282546127dd9190612d3c565b9091555061285a9050565b6001600160a01b0384166000908152602082905260409020548281101561283b5760405163391434e360e21b81526001600160a01b0386166004820152602481018290526044810184905260640161068b565b6001600160a01b03851660009081526020839052604090209083900390555b6001600160a01b038316612878576002810180548390039055612897565b6001600160a01b03831660009081526020829052604090208054830190555b826001600160a01b0316846001600160a01b03167fddf252ad1be2c89b69c2b068fc378daa952ba7f163c4a11628f55a4df523b3ef846040516128dc91815260200190565b60405180910390a350505050565b60005b838110156129055781810151838201526020016128ed565b50506000910152565b600081518084526129268160208601602086016128ea565b601f01601f19169290920160200192915050565b602081526000610bde602083018461290e565b80356001600160a01b038116811461296457600080fd5b919050565b6000806040838503121561297c57600080fd5b6129858361294d565b946020939093013593505050565b6000602082840312156129a557600080fd5b610bde8261294d565b60008083601f8401126129c057600080fd5b50813567ffffffffffffffff8111156129d857600080fd5b6020830191508360208260051b85010111156129f357600080fd5b9250929050565b60008060008060408587031215612a1057600080fd5b843567ffffffffffffffff811115612a2757600080fd5b612a33878288016129ae565b909550935050602085013567ffffffffffffffff811115612a5357600080fd5b612a5f878288016129ae565b95989497509550505050565b600080600060608486031215612a8057600080fd5b612a898461294d565b9250612a976020850161294d565b929592945050506040919091013590565b60008060008060008060608789031215612ac157600080fd5b863567ffffffffffffffff811115612ad857600080fd5b612ae489828a016129ae565b909750955050602087013567ffffffffffffffff811115612b0457600080fd5b612b1089828a016129ae565b909550935050604087013567ffffffffffffffff811115612b3057600080fd5b612b3c89828a016129ae565b979a9699509497509295939492505050565b600080600060608486031215612b6357600080fd5b612b6c8461294d565b9250612b7a6020850161294d565b9150612b886040850161294d565b90509250925092565b634e487b7160e01b600052604160045260246000fd5b600060208284031215612bb957600080fd5b813567ffffffffffffffff811115612bd057600080fd5b8201601f81018413612be157600080fd5b803567ffffffffffffffff811115612bfb57612bfb612b91565b604051601f8201601f19908116603f0116810167ffffffffffffffff81118282101715612c2a57612c2a612b91565b604052818152828201602001861015612c4257600080fd5b81602084016020830137600091810160200191909152949350505050565b8015158114611ec357600080fd5b60008060408385031215612c8157600080fd5b612c8a8361294d565b91506020830135612c9a81612c60565b809150509250929050565b60008060408385031215612cb857600080fd5b612cc18361294d565b9150612ccf6020840161294d565b90509250929050565b6020808252602e908201527f4167656e74526f6c653a2063616c6c657220646f6573206e6f7420686176652060408201526d746865204167656e7420726f6c6560901b606082015260800190565b634e487b7160e01b600052601160045260246000fd5b8082018082111561066057610660612d26565b634e487b7160e01b600052603260045260246000fd5b600060208284031215612d7757600080fd5b8135610bde81612c60565b8181038181111561066057610660612d26565b600060208284031215612da757600080fd5b8151610bde81612c60565b6001600160a01b039384168152919092166020820152604081019190915260600190565b60008251612de88184602087016128ea565b9190910192915050565b60ff83168152604060208201526000612e0e604083018461290e565b949350505050565b600060208284031215612e2857600080fd5b815161ffff81168114610bde57600080fd5b600181811c90821680612e4e57607f821691505b602082108103612e6e57634e487b7160e01b600052602260045260246000fd5b50919050565b601f82111561210b57806000526020600020601f840160051c81016020851015612e9b5750805b601f840160051c820191505b818110156107f95760008155600101612ea7565b815167ffffffffffffffff811115612ed557612ed5612b91565b612ee981612ee38454612e3a565b84612e74565b6020601f821160018114612f1d5760008315612f055750848201515b600019600385901b1c1916600184901b1784556107f9565b600084815260208120601f198516915b82811015612f4d5787850151825560209485019460019092019101612f2d565b5084821015612f6b5786840151600019600387901b60f8161c191681555b50505050600190811b0190555056fe52c63247e1f47db19d5ce0460030c497f067ca4cebf71ba98eeadabe20bace00a26469706673582212206499bd8bbd9c9474608056b442e99dbcc14e239bf31bd6211c9b0d0730bdc00164736f6c634300081c0033","linkReferences":{}},"methodIdentifiers":{"addAgent(address)":"84e79842","allowance(address,address)":"dd62ed3e","approve(address,uint256)":"095ea7b3","balanceOf(address)":"70a08231","batchBurn(address[],uint256[])":"4a6cc677","batchForcedTransfer(address[],address[],uint256[])":"42a47abc","batchFreezePartialTokens(address[],uint256[])":"fc7e5fa8","batchMint(address[],uint256[])":"68573107","batchSetAddressFrozen(address[],bool[])":"1a7af379","batchTransfer(address[],uint256[])":"88d695b2","batchUnfreezePartialTokens(address[],uint256[])":"4710362d","burn(address,uint256)":"9dc29fac","cap()":"355274ea","compliance()":"6290865d","decimals()":"313ce567","forcedTransfer(address,address,uint256)":"9fc1d0e7","freezePartialTokens(address,uint256)":"125c4a33","getFrozenTokens(address)":"158b1a57","identityRegistry()":"134e18f4","isAgent(address)":"1ffbb064","isFrozen(address)":"e5839836","mint(address,uint256)":"40c10f19","name()":"06fdde03","onchainID()":"aba63705","owner()":"8da5cb5b","pause()":"8456cb59","paused()":"5c975abb","recoveryAddress(address,address,address)":"9285948a","removeAgent(address)":"97a6278e","renounceOwnership()":"715018a6","setAddressFrozen(address,bool)":"c69c09cf","setCompliance(address)":"f8981789","setIdentityRegistry(address)":"cbf3f861","setName(string)":"c47f0027","setOnchainID(address)":"3d1ddc5b","setSymbol(string)":"b84c8246","symbol()":"95d89b41","totalSupply()":"18160ddd","transfer(address,uint256)":"a9059cbb","transferFrom(address,address,uint256)":"23b872dd","transferOwnership(address)":"f2fde38b","unfreezePartialTokens(address,uint256)":"1fe56f7d","unpause()":"3f4ba83a","version()":"54fd4d50"},"id":84}