{"abi":[{"type":"function","name":"UPGRADE_INTERFACE_VERSION","inputs":[],"outputs":[{"name":"","type":"string","internalType":"string"}],"stateMutability":"view"},{"type":"function","name":"addExchangeID","inputs":[{"name":"_exchangeID","type":"address","internalType":"address"}],"outputs":[],"stateMutability":"nonpayable"},{"type":"function","name":"bindCompliance","inputs":[{"name":"_compliance","type":"address","internalType":"address"}],"outputs":[],"stateMutability":"nonpayable"},{"type":"function","name":"canComplianceBind","inputs":[{"name":"","type":"address","internalType":"address"}],"outputs":[{"name":"","type":"bool","internalType":"bool"}],"stateMutability":"view"},{"type":"function","name":"getExchangeCounter","inputs":[{"name":"compliance","type":"address","internalType":"address"},{"name":"_exchangeID","type":"address","internalType":"address"},{"name":"_investorID","type":"address","internalType":"address"},{"name":"_limitTime","type":"uint32","internalType":"uint32"}],"outputs":[{"name":"","type":"tuple","internalType":"struct TimeExchangeLimitsModule.ExchangeTransferCounter","components":[{"name":"value","type":"uint256","internalType":"uint256"},{"name":"timer","type":"uint256","internalType":"uint256"}]}],"stateMutability":"view"},{"type":"function","name":"getExchangeLimits","inputs":[{"name":"compliance","type":"address","internalType":"address"},{"name":"_exchangeID","type":"address","internalType":"address"}],"outputs":[{"name":"","type":"tuple[]","internalType":"struct TimeExchangeLimitsModule.Limit[]","components":[{"name":"limitTime","type":"uint32","internalType":"uint32"},{"name":"limitValue","type":"uint256","internalType":"uint256"}]}],"stateMutability":"view"},{"type":"function","name":"initialize","inputs":[],"outputs":[],"stateMutability":"nonpayable"},{"type":"function","name":"isComplianceBound","inputs":[{"name":"_compliance","type":"address","internalType":"address"}],"outputs":[{"name":"","type":"bool","internalType":"bool"}],"stateMutability":"view"},{"type":"function","name":"isExchangeID","inputs":[{"name":"_exchangeID","type":"address","internalType":"address"}],"outputs":[{"name":"","type":"bool","internalType":"bool"}],"stateMutability":"view"},{"type":"function","name":"isPlugAndPlay","inputs":[],"outputs":[{"name":"","type":"bool","internalType":"bool"}],"stateMutability":"pure"},{"type":"function","name":"moduleBurnAction","inputs":[{"name":"","type":"address","internalType":"address"},{"name":"","type":"uint256","internalType":"uint256"}],"outputs":[],"stateMutability":"nonpayable"},{"type":"function","name":"moduleCheck","inputs":[{"name":"_from","type":"address","internalType":"address"},{"name":"_to","type":"address","internalType":"address"},{"name":"_value","type":"uint256","internalType":"uint256"},{"name":"_compliance","type":"address","internalType":"address"}],"outputs":[{"name":"","type":"bool","internalType":"bool"}],"stateMutability":"view"},{"type":"function","name":"moduleMintAction","inputs":[{"name":"","type":"address","internalType":"address"},{"name":"","type":"uint256","internalType":"uint256"}],"outputs":[],"stateMutability":"nonpayable"},{"type":"function","name":"moduleTransferAction","inputs":[{"name":"_from","type":"address","internalType":"address"},{"name":"_to","type":"address","internalType":"address"},{"name":"_value","type":"uint256","internalType":"uint256"}],"outputs":[],"stateMutability":"nonpayable"},{"type":"function","name":"name","inputs":[],"outputs":[{"name":"_name","type":"string","internalType":"string"}],"stateMutability":"pure"},{"type":"function","name":"owner","inputs":[],"outputs":[{"name":"","type":"address","internalType":"address"}],"stateMutability":"view"},{"type":"function","name":"proxiableUUID","inputs":[],"outputs":[{"name":"","type":"bytes32","internalType":"bytes32"}],"stateMutability":"view"},{"type":"function","name":"removeExchangeID","inputs":[{"name":"_exchangeID","type":"address","internalType":"address"}],"outputs":[],"stateMutability":"nonpayable"},{"type":"function","name":"renounceOwnership","inputs":[],"outputs":[],"stateMutability":"nonpayable"},{"type":"function","name":"setExchangeLimit","inputs":[{"name":"_exchangeID","type":"address","internalType":"address"},{"name":"_limit","type":"tuple","internalType":"struct TimeExchangeLimitsModule.Limit","components":[{"name":"limitTime","type":"uint32","internalType":"uint32"},{"name":"limitValue","type":"uint256","internalType":"uint256"}]}],"outputs":[],"stateMutability":"nonpayable"},{"type":"function","name":"transferOwnership","inputs":[{"name":"newOwner","type":"address","internalType":"address"}],"outputs":[],"stateMutability":"nonpayable"},{"type":"function","name":"unbindCompliance","inputs":[{"name":"_compliance","type":"address","internalType":"address"}],"outputs":[],"stateMutability":"nonpayable"},{"type":"function","name":"upgradeToAndCall","inputs":[{"name":"newImplementation","type":"address","internalType":"address"},{"name":"data","type":"bytes","internalType":"bytes"}],"outputs":[],"stateMutability":"payable"},{"type":"event","name":"ComplianceBound","inputs":[{"name":"_compliance","type":"address","indexed":true,"internalType":"address"}],"anonymous":false},{"type":"event","name":"ComplianceUnbound","inputs":[{"name":"_compliance","type":"address","indexed":true,"internalType":"address"}],"anonymous":false},{"type":"event","name":"ExchangeIDAdded","inputs":[{"name":"_newExchangeID","type":"address","indexed":false,"internalType":"address"}],"anonymous":false},{"type":"event","name":"ExchangeIDRemoved","inputs":[{"name":"_exchangeID","type":"address","indexed":false,"internalType":"address"}],"anonymous":false},{"type":"event","name":"ExchangeLimitUpdated","inputs":[{"name":"compliance","type":"address","indexed":true,"internalType":"address"},{"name":"_exchangeID","type":"address","indexed":false,"internalType":"address"},{"name":"_limitValue","type":"uint256","indexed":false,"internalType":"uint256"},{"name":"_limitTime","type":"uint32","indexed":false,"internalType":"uint32"}],"anonymous":false},{"type":"event","name":"Initialized","inputs":[{"name":"version","type":"uint64","indexed":false,"internalType":"uint64"}],"anonymous":false},{"type":"event","name":"OwnershipTransferred","inputs":[{"name":"previousOwner","type":"address","indexed":true,"internalType":"address"},{"name":"newOwner","type":"address","indexed":true,"internalType":"address"}],"anonymous":false},{"type":"event","name":"Upgraded","inputs":[{"name":"implementation","type":"address","indexed":true,"internalType":"address"}],"anonymous":false},{"type":"error","name":"AddressEmptyCode","inputs":[{"name":"target","type":"address","internalType":"address"}]},{"type":"error","name":"ERC1967InvalidImplementation","inputs":[{"name":"implementation","type":"address","internalType":"address"}]},{"type":"error","name":"ERC1967NonPayable","inputs":[]},{"type":"error","name":"FailedCall","inputs":[]},{"type":"error","name":"InvalidInitialization","inputs":[]},{"type":"error","name":"LimitsArraySizeExceeded","inputs":[{"name":"compliance","type":"address","internalType":"address"},{"name":"arraySize","type":"uint256","internalType":"uint256"}]},{"type":"error","name":"NotInitializing","inputs":[]},{"type":"error","name":"ONCHAINIDAlreadyTaggedAsExchange","inputs":[{"name":"_exchangeID","type":"address","internalType":"address"}]},{"type":"error","name":"ONCHAINIDNotTaggedAsExchange","inputs":[{"name":"_exchangeID","type":"address","internalType":"address"}]},{"type":"error","name":"OwnableInvalidOwner","inputs":[{"name":"owner","type":"address","internalType":"address"}]},{"type":"error","name":"OwnableUnauthorizedAccount","inputs":[{"name":"account","type":"address","internalType":"address"}]},{"type":"error","name":"UUPSUnauthorizedCallContext","inputs":[]},{"type":"error","name":"UUPSUnsupportedProxiableUUID","inputs":[{"name":"slot","type":"bytes32","internalType":"bytes32"}]}],"bytecode":{"object":"0x60a060405230608052348015601357600080fd5b50608051611e3061003d600039600081816114010152818161142a015261156b0152611e306000f3fe6080604052600436106101405760003560e01c806374436d97116100b6578063bcc210531161006f578063bcc2105314610478578063c9d9769a14610499578063d22579fb146104b9578063e6f5e807146104d9578063f104a8c91461022b578063f2fde38b146104ed57600080fd5b806374436d97146102fc5780638129fc1c1461031c5780638da5cb5b14610331578063ac0dde7014610378578063ad3cb1cc146103a5578063b19761a8146103d657600080fd5b8063372491a211610108578063372491a21461022b5780634a9325441461024b5780634cf4d2951461026b5780634f1ef286146102b157806352d1902d146102c4578063715018a6146102e757600080fd5b8063013b7ce4146101455780630694a5fb1461017a57806306fdde031461019c5780632bb5e721146101eb5780632cb7e1ec1461020b575b600080fd5b34801561015157600080fd5b506101656101603660046118f3565b61050d565b60405190151581526020015b60405180910390f35b34801561018657600080fd5b5061019a610195366004611946565b610731565b005b3480156101a857600080fd5b5060408051808201909152601881527f54696d6545786368616e67654c696d6974734d6f64756c65000000000000000060208201525b6040516101719190611987565b3480156101f757600080fd5b5061019a610206366004611946565b610851565b34801561021757600080fd5b5061019a6102263660046119ba565b6108e6565b34801561023757600080fd5b5061019a6102463660046119fb565b610976565b34801561025757600080fd5b5061019a610266366004611946565b6109ba565b34801561027757600080fd5b50610165610286366004611946565b6001600160a01b03166000908152600080516020611ddb833981519152602052604090205460ff1690565b61019a6102bf366004611a6e565b610afd565b3480156102d057600080fd5b506102d9610b1c565b604051908152602001610171565b3480156102f357600080fd5b5061019a610b39565b34801561030857600080fd5b5061019a610317366004611946565b610b4d565b34801561032857600080fd5b5061019a610bd7565b34801561033d57600080fd5b507f9016d09d72d40fdae2fd8ceac6b6234c7706214fd39c1cd1e609a0528c199300546040516001600160a01b039091168152602001610171565b34801561038457600080fd5b50610398610393366004611b1b565b610ce5565b6040516101719190611b54565b3480156103b157600080fd5b506101de604051806040016040528060058152602001640352e302e360dc1b81525081565b3480156103e257600080fd5b5061045d6103f1366004611bc2565b604080518082018252600080825260209182018190526001600160a01b03968716815260028252828120958716815294815281852093909516845291845281832063ffffffff919091168352835290819020815180830190925280548252600101549181019190915290565b60408051825181526020928301519281019290925201610171565b34801561048457600080fd5b50610165610493366004611946565b50600190565b3480156104a557600080fd5b5061019a6104b4366004611c1c565b610d7b565b3480156104c557600080fd5b506101656104d4366004611946565b611000565b3480156104e557600080fd5b506001610165565b3480156104f957600080fd5b5061019a610508366004611946565b61101e565b60006001600160a01b038516158061052a575061052a828661105c565b1561053757506001610729565b60006105438387611133565b905061054e81611000565b1561055d576001915050610729565b60006105698487611133565b905061057481611000565b61058357600192505050610729565b60005b6001600160a01b03808616600090815260016020908152604080832093861683529290522054811015610721576001600160a01b0380861660009081526001602090815260408083209386168352929052208054829081106105ea576105ea611c97565b90600052602060002090600202016001015486111561060f5760009350505050610729565b6001600160a01b038086166000908152600160209081526040808320938616835292905290812080548390811061064857610648611c97565b600091825260209091206002909102015463ffffffff16905061066d86848684611264565b15801561070657506001600160a01b0380871660009081526001602090815260408083209387168352929052208054839081106106ac576106ac611c97565b60009182526020808320600292830201600101546001600160a01b038a81168552928252604080852088851686528352808520938916855292825282842063ffffffff86168552909152912054610704908990611cad565b115b15610718576000945050505050610729565b50600101610586565b506001925050505b949350505050565b336000908152600080516020611ddb833981519152602081905260409091205460ff166107795760405162461bcd60e51b815260040161077090611cce565b60405180910390fd5b600080516020611ddb8339815191526001600160a01b0383166107de5760405162461bcd60e51b815260206004820152601f60248201527f696e76616c696420617267756d656e74202d207a65726f2061646472657373006044820152606401610770565b336001600160a01b038416146108065760405162461bcd60e51b815260040161077090611d05565b6001600160a01b038316600081815260208390526040808220805460ff19169055517f408b49d9be1c914c52a0227e18a077e5a892dddf32a26cfa94a5d9708fad77189190a2505050565b6108596112b0565b61086281611000565b1561088b576040516345d1498b60e01b81526001600160a01b0382166004820152602401610770565b6001600160a01b038116600081815260036020908152604091829020805460ff1916600117905590519182527fca661533a567195376b79f20fcbcca20e62ceea1d43efacba5f8028329da8e6b91015b60405180910390a150565b336000908152600080516020611ddb833981519152602081905260409091205460ff166109255760405162461bcd60e51b815260040161077090611cce565b60006109313386611133565b9050600061093f3386611133565b905061094a81611000565b801561095d575061095b338761105c565b155b1561096e5761096e3382848761130b565b505050505050565b336000908152600080516020611ddb833981519152602081905260409091205460ff166109b55760405162461bcd60e51b815260040161077090611cce565b505050565b600080516020611ddb8339815191526001600160a01b038216610a1f5760405162461bcd60e51b815260206004820152601f60248201527f696e76616c696420617267756d656e74202d207a65726f2061646472657373006044820152606401610770565b6001600160a01b03821660009081526020829052604090205460ff1615610a885760405162461bcd60e51b815260206004820152601860248201527f636f6d706c69616e636520616c726561647920626f756e6400000000000000006044820152606401610770565b336001600160a01b03831614610ab05760405162461bcd60e51b815260040161077090611d05565b6001600160a01b038216600081815260208390526040808220805460ff19166001179055517f1f7b76c58fb697eb53c6c7c1becb96911516a136e24d7ced386b2355358b75a39190a25050565b610b056113f6565b610b0e8261149b565b610b1882826114a3565b5050565b6000610b26611560565b50600080516020611dbb83398151915290565b610b416112b0565b610b4b60006115a9565b565b610b556112b0565b610b5e81611000565b610b8657604051630120783160e61b81526001600160a01b0382166004820152602401610770565b6001600160a01b038116600081815260036020908152604091829020805460ff1916905590519182527fc59743ca46d36b7cf42c36211a2fbef12e10aec1bfc9d39eccf91b6976a260f591016108db565b7ff0c57e16840df040f15088dc2f81fe391c3923bec73e23a9662efc9c229c6a008054600160401b810460ff16159067ffffffffffffffff16600081158015610c1d5750825b905060008267ffffffffffffffff166001148015610c3a5750303b155b905081158015610c48575080155b15610c665760405163f92ee8a960e01b815260040160405180910390fd5b845467ffffffffffffffff191660011785558315610c9057845460ff60401b1916600160401b1785555b610c9861161a565b8315610cde57845460ff60401b19168555604051600181527fc7f505b2f371ae2175ee4913f4499e1f2633a7b5936321eed1cdaeb6115181d29060200160405180910390a15b5050505050565b6001600160a01b0380831660009081526001602090815260408083209385168352928152828220805484518184028101840190955280855260609493919290919084015b82821015610d6e5760008481526020908190206040805180820190915260028502909101805463ffffffff168252600190810154828401529083529092019101610d29565b5050505090505b92915050565b336000908152600080516020611ddb833981519152602081905260409091205460ff16610dba5760405162461bcd60e51b815260040161077090611cce565b336000818152602081815260408083206001600160a01b038816808552908352818420875163ffffffff1685528352818420549484526001835281842090845290915290205460ff9091169081158015610e18575060048160ff1610155b15610e41576040516382f520a960e01b815233600482015260ff82166024820152604401610770565b81158015610e52575060048160ff16105b15610f0a573360008181526001602081815260408084206001600160a01b038b16808652908352818520805480860182559086528386208b51600290920201805463ffffffff191663ffffffff9283161781558b850151908601558251808401845294855260ff8881168686019081529787528685528387209287529184528286208b51909116865290925290922090518154935161ffff1990941690151561ff001916176101009390921692909202179055610fa1565b3360008181526001602090815260408083206001600160a01b038a168085529083528184209484528383528184209084528252808320885163ffffffff1684529091529020548154869291610100900460ff16908110610f6c57610f6c611c97565b6000918252602091829020835160029290920201805463ffffffff191663ffffffff9092169190911781559101516001909101555b6020848101518551604080516001600160a01b038a1681529384019290925263ffffffff169082015233907fbdaa98f5444de6f9849a851f2c112d373c67c253895b3ca2c57204c0f6e1b58c9060600160405180910390a25050505050565b6001600160a01b031660009081526003602052604090205460ff1690565b6110266112b0565b6001600160a01b03811661105057604051631e4fbdf760e01b815260006004820152602401610770565b611059816115a9565b50565b6000826001600160a01b0316636a3edf286040518163ffffffff1660e01b8152600401602060405180830381865afa15801561109c573d6000803e3d6000fd5b505050506040513d601f19601f820116820180604052508101906110c09190611d46565b6040516307feec1960e21b81526001600160a01b0384811660048301529190911690631ffbb06490602401602060405180830381865afa158015611108573d6000803e3d6000fd5b505050506040513d601f19601f8201168201806040525081019061112c9190611d63565b9392505050565b6000826001600160a01b0316636a3edf286040518163ffffffff1660e01b8152600401602060405180830381865afa158015611173573d6000803e3d6000fd5b505050506040513d601f19601f820116820180604052508101906111979190611d46565b6001600160a01b031663134e18f46040518163ffffffff1660e01b8152600401602060405180830381865afa1580156111d4573d6000803e3d6000fd5b505050506040513d601f19601f820116820180604052508101906111f89190611d46565b604051633c3ad79560e21b81526001600160a01b038481166004830152919091169063f0eb5e5490602401602060405180830381865afa158015611240573d6000803e3d6000fd5b505050506040513d601f19601f8201168201806040525081019061112c9190611d46565b6001600160a01b03808516600090815260026020908152604080832087851684528252808320938616835292815282822063ffffffff8516835290522060010154421015949350505050565b336112e27f9016d09d72d40fdae2fd8ceac6b6234c7706214fd39c1cd1e609a0528c199300546001600160a01b031690565b6001600160a01b031614610b4b5760405163118cdaa760e01b8152336004820152602401610770565b60005b6001600160a01b03808616600090815260016020908152604080832093881683529290522054811015610cde576001600160a01b038086166000908152600160209081526040808320938816835292905290812080548390811061137457611374611c97565b600091825260209091206002909102015463ffffffff16905061139986868684611633565b6001600160a01b03808716600090815260026020908152604080832089851684528252808320938816835292815282822063ffffffff85168352905290812080548592906113e8908490611cad565b90915550505060010161130e565b306001600160a01b037f000000000000000000000000000000000000000000000000000000000000000016148061147d57507f00000000000000000000000000000000000000000000000000000000000000006001600160a01b0316611471600080516020611dbb833981519152546001600160a01b031690565b6001600160a01b031614155b15610b4b5760405163703e46dd60e11b815260040160405180910390fd5b6110596112b0565b816001600160a01b03166352d1902d6040518163ffffffff1660e01b8152600401602060405180830381865afa9250505080156114fd575060408051601f3d908101601f191682019092526114fa91810190611d85565b60015b61152557604051634c9c8ce360e01b81526001600160a01b0383166004820152602401610770565b600080516020611dbb833981519152811461155657604051632a87526960e21b815260048101829052602401610770565b6109b5838361169f565b306001600160a01b037f00000000000000000000000000000000000000000000000000000000000000001614610b4b5760405163703e46dd60e11b815260040160405180910390fd5b7f9016d09d72d40fdae2fd8ceac6b6234c7706214fd39c1cd1e609a0528c19930080546001600160a01b031981166001600160a01b03848116918217845560405192169182907f8be0079c531659141344cd1fd0a4f28419497f9722a3daafe3b4186f6b6457e090600090a3505050565b6116226116f5565b61162b3361173e565b610b4b61174f565b61163f84848484611264565b15611699576001600160a01b03808516600090815260026020908152604080832087851684528252808320938616835292815282822063ffffffff851680845291529190209061168f9042611cad565b6001820155600090555b50505050565b6116a882611757565b6040516001600160a01b038316907fbc7cd75a20ee27fd9adebab32041f755214dbc6bffa90cc0225b39da2e5c2d3b90600090a28051156116ed576109b582826117bc565b610b18611832565b7ff0c57e16840df040f15088dc2f81fe391c3923bec73e23a9662efc9c229c6a0054600160401b900460ff16610b4b57604051631afcd79f60e31b815260040160405180910390fd5b6117466116f5565b61105981611851565b610b4b6116f5565b806001600160a01b03163b60000361178d57604051634c9c8ce360e01b81526001600160a01b0382166004820152602401610770565b600080516020611dbb83398151915280546001600160a01b0319166001600160a01b0392909216919091179055565b6060600080846001600160a01b0316846040516117d99190611d9e565b600060405180830381855af49150503d8060008114611814576040519150601f19603f3d011682016040523d82523d6000602084013e611819565b606091505b5091509150611829858383611859565b95945050505050565b3415610b4b5760405163b398979f60e01b815260040160405180910390fd5b6110266116f5565b60608261186e57611869826118b5565b61112c565b815115801561188557506001600160a01b0384163b155b156118ae57604051639996b31560e01b81526001600160a01b0385166004820152602401610770565b5092915050565b8051156118c55780518082602001fd5b60405163d6bda27560e01b815260040160405180910390fd5b6001600160a01b038116811461105957600080fd5b6000806000806080858703121561190957600080fd5b8435611914816118de565b93506020850135611924816118de565b925060408501359150606085013561193b816118de565b939692955090935050565b60006020828403121561195857600080fd5b813561112c816118de565b60005b8381101561197e578181015183820152602001611966565b50506000910152565b60208152600082518060208401526119a6816040850160208701611963565b601f01601f19169190910160400192915050565b6000806000606084860312156119cf57600080fd5b83356119da816118de565b925060208401356119ea816118de565b929592945050506040919091013590565b60008060408385031215611a0e57600080fd5b8235611a19816118de565b946020939093013593505050565b634e487b7160e01b600052604160045260246000fd5b604051601f8201601f1916810167ffffffffffffffff81118282101715611a6657611a66611a27565b604052919050565b60008060408385031215611a8157600080fd5b8235611a8c816118de565b9150602083013567ffffffffffffffff811115611aa857600080fd5b8301601f81018513611ab957600080fd5b803567ffffffffffffffff811115611ad357611ad3611a27565b611ae6601f8201601f1916602001611a3d565b818152866020838501011115611afb57600080fd5b816020840160208301376000602083830101528093505050509250929050565b60008060408385031215611b2e57600080fd5b8235611b39816118de565b91506020830135611b49816118de565b809150509250929050565b602080825282518282018190526000918401906040840190835b81811015611b9e578351805163ffffffff1684526020908101518185015290930192604090920191600101611b6e565b509095945050505050565b803563ffffffff81168114611bbd57600080fd5b919050565b60008060008060808587031215611bd857600080fd5b8435611be3816118de565b93506020850135611bf3816118de565b92506040850135611c03816118de565b9150611c1160608601611ba9565b905092959194509250565b6000808284036060811215611c3057600080fd5b8335611c3b816118de565b92506040601f1982011215611c4f57600080fd5b506040805190810167ffffffffffffffff81118282101715611c7357611c73611a27565b604052611c8260208501611ba9565b81526040939093013560208401525092909150565b634e487b7160e01b600052603260045260246000fd5b80820180821115610d7557634e487b7160e01b600052601160045260246000fd5b6020808252601e908201527f6f6e6c7920626f756e6420636f6d706c69616e63652063616e2063616c6c0000604082015260600190565b60208082526021908201527f6f6e6c7920636f6d706c69616e636520636f6e74726163742063616e2063616c6040820152601b60fa1b606082015260800190565b600060208284031215611d5857600080fd5b815161112c816118de565b600060208284031215611d7557600080fd5b8151801515811461112c57600080fd5b600060208284031215611d9757600080fd5b5051919050565b60008251611db0818460208701611963565b919091019291505056fe360894a13ba1a3210667c828492db98dca3e2076cc3735a920a3ca505d382bbcf6cc97de1266c180cd39f3b311632644143ce7873d2927755382ad4b39e8ae00a2646970667358221220700ea28c0f71c347b085470a01edf6845503ded2d0dba3259129b09144d5d3ad64736f6c634300081c0033","linkReferences":{}},"methodIdentifiers":{"UPGRADE_INTERFACE_VERSION()":"ad3cb1cc","addExchangeID(address)":"2bb5e721","bindCompliance(address)":"4a932544","canComplianceBind(address)":"bcc21053","getExchangeCounter(address,address,address,uint32)":"b19761a8","getExchangeLimits(address,address)":"ac0dde70","initialize()":"8129fc1c","isComplianceBound(address)":"4cf4d295","isExchangeID(address)":"d22579fb","isPlugAndPlay()":"e6f5e807","moduleBurnAction(address,uint256)":"372491a2","moduleCheck(address,address,uint256,address)":"013b7ce4","moduleMintAction(address,uint256)":"f104a8c9","moduleTransferAction(address,address,uint256)":"2cb7e1ec","name()":"06fdde03","owner()":"8da5cb5b","proxiableUUID()":"52d1902d","removeExchangeID(address)":"74436d97","renounceOwnership()":"715018a6","setExchangeLimit(address,(uint32,uint256))":"c9d9769a","transferOwnership(address)":"f2fde38b","unbindCompliance(address)":"0694a5fb","upgradeToAndCall(address,bytes)":"4f1ef286"},"id":41}