{"abi":[{"type":"function","name":"addAgent","inputs":[{"name":"_agent","type":"address","internalType":"address"}],"outputs":[],"stateMutability":"nonpayable"},{"type":"function","name":"addTokenAgent","inputs":[{"name":"_agentAddress","type":"address","internalType":"address"}],"outputs":[],"stateMutability":"nonpayable"},{"type":"function","name":"bindToken","inputs":[{"name":"_token","type":"address","internalType":"address"}],"outputs":[],"stateMutability":"nonpayable"},{"type":"function","name":"canTransfer","inputs":[{"name":"_from","type":"address","internalType":"address"},{"name":"_to","type":"address","internalType":"address"},{"name":"_value","type":"uint256","internalType":"uint256"}],"outputs":[{"name":"","type":"bool","internalType":"bool"}],"stateMutability":"view"},{"type":"function","name":"complianceCheckOnDayMonthLimits","inputs":[{"name":"_from","type":"address","internalType":"address"},{"name":"","type":"address","internalType":"address"},{"name":"_value","type":"uint256","internalType":"uint256"}],"outputs":[{"name":"","type":"bool","internalType":"bool"}],"stateMutability":"view"},{"type":"function","name":"created","inputs":[{"name":"_to","type":"address","internalType":"address"},{"name":"_value","type":"uint256","internalType":"uint256"}],"outputs":[],"stateMutability":"nonpayable"},{"type":"function","name":"dailyLimit","inputs":[],"outputs":[{"name":"","type":"uint256","internalType":"uint256"}],"stateMutability":"view"},{"type":"function","name":"destroyed","inputs":[{"name":"_from","type":"address","internalType":"address"},{"name":"_value","type":"uint256","internalType":"uint256"}],"outputs":[],"stateMutability":"nonpayable"},{"type":"function","name":"isAgent","inputs":[{"name":"_agent","type":"address","internalType":"address"}],"outputs":[{"name":"","type":"bool","internalType":"bool"}],"stateMutability":"view"},{"type":"function","name":"isTokenAgent","inputs":[{"name":"_agentAddress","type":"address","internalType":"address"}],"outputs":[{"name":"","type":"bool","internalType":"bool"}],"stateMutability":"view"},{"type":"function","name":"isTokenBound","inputs":[{"name":"_token","type":"address","internalType":"address"}],"outputs":[{"name":"","type":"bool","internalType":"bool"}],"stateMutability":"view"},{"type":"function","name":"monthlyLimit","inputs":[],"outputs":[{"name":"","type":"uint256","internalType":"uint256"}],"stateMutability":"view"},{"type":"function","name":"owner","inputs":[],"outputs":[{"name":"","type":"address","internalType":"address"}],"stateMutability":"view"},{"type":"function","name":"removeAgent","inputs":[{"name":"_agent","type":"address","internalType":"address"}],"outputs":[],"stateMutability":"nonpayable"},{"type":"function","name":"removeTokenAgent","inputs":[{"name":"_agentAddress","type":"address","internalType":"address"}],"outputs":[],"stateMutability":"nonpayable"},{"type":"function","name":"renounceOwnership","inputs":[],"outputs":[],"stateMutability":"nonpayable"},{"type":"function","name":"setDailyLimit","inputs":[{"name":"_newDailyLimit","type":"uint256","internalType":"uint256"}],"outputs":[],"stateMutability":"nonpayable"},{"type":"function","name":"setMonthlyLimit","inputs":[{"name":"_newMonthlyLimit","type":"uint256","internalType":"uint256"}],"outputs":[],"stateMutability":"nonpayable"},{"type":"function","name":"tokenBound","inputs":[],"outputs":[{"name":"","type":"address","internalType":"contract IToken"}],"stateMutability":"view"},{"type":"function","name":"transferOwnership","inputs":[{"name":"newOwner","type":"address","internalType":"address"}],"outputs":[],"stateMutability":"nonpayable"},{"type":"function","name":"transferred","inputs":[{"name":"_from","type":"address","internalType":"address"},{"name":"_to","type":"address","internalType":"address"},{"name":"_value","type":"uint256","internalType":"uint256"}],"outputs":[],"stateMutability":"nonpayable"},{"type":"function","name":"unbindToken","inputs":[{"name":"_token","type":"address","internalType":"address"}],"outputs":[],"stateMutability":"nonpayable"},{"type":"function","name":"usersCounters","inputs":[{"name":"","type":"address","internalType":"address"}],"outputs":[{"name":"dailyCount","type":"uint256","internalType":"uint256"},{"name":"monthlyCount","type":"uint256","internalType":"uint256"},{"name":"dailyTimer","type":"uint256","internalType":"uint256"},{"name":"monthlyTimer","type":"uint256","internalType":"uint256"}],"stateMutability":"view"},{"type":"event","name":"AgentAdded","inputs":[{"name":"_agent","type":"address","indexed":true,"internalType":"address"}],"anonymous":false},{"type":"event","name":"AgentRemoved","inputs":[{"name":"_agent","type":"address","indexed":true,"internalType":"address"}],"anonymous":false},{"type":"event","name":"DailyLimitUpdated","inputs":[{"name":"_newDailyLimit","type":"uint256","indexed":false,"internalType":"uint256"}],"anonymous":false},{"type":"event","name":"MonthlyLimitUpdated","inputs":[{"name":"_newMonthlyLimit","type":"uint256","indexed":false,"internalType":"uint256"}],"anonymous":false},{"type":"event","name":"OwnershipTransferred","inputs":[{"name":"previousOwner","type":"address","indexed":true,"internalType":"address"},{"name":"newOwner","type":"address","indexed":true,"internalType":"address"}],"anonymous":false},{"type":"event","name":"TokenAgentAdded","inputs":[{"name":"_agentAddress","type":"address","indexed":false,"internalType":"address"}],"anonymous":false},{"type":"event","name":"TokenAgentRemoved","inputs":[{"name":"_agentAddress","type":"address","indexed":false,"internalType":"address"}],"anonymous":false},{"type":"event","name":"TokenBound","inputs":[{"name":"_token","type":"address","indexed":false,"internalType":"address"}],"anonymous":false},{"type":"event","name":"TokenUnbound","inputs":[{"name":"_token","type":"address","indexed":false,"internalType":"address"}],"anonymous":false},{"type":"error","name":"OwnableInvalidOwner","inputs":[{"name":"owner","type":"address","internalType":"address"}]},{"type":"error","name":"OwnableUnauthorizedAccount","inputs":[{"name":"account","type":"address","internalType":"address"}]}],"bytecode":{"object":"0x6080604052348015600f57600080fd5b503380603557604051631e4fbdf760e01b81526000600482015260240160405180910390fd5b603c816041565b506091565b600080546001600160a01b038381166001600160a01b0319831681178455604051919092169283917f8be0079c531659141344cd1fd0a4f28419497f9722a3daafe3b4186f6b6457e09190a35050565b6111bf806100a06000396000f3fe608060405234801561001057600080fd5b506004361061014d5760003560e01c80638baf29b4116100c3578063b20d30a91161007c578063b20d30a9146102dc578063cdde2932146102ef578063e46638e614610302578063f2fde38b14610315578063f3533c3514610328578063ff3e69541461033b57600080fd5b80638baf29b41461026b5780638d2ea772146102345780638da5cb5b1461027e57806393e62f07146102a357806397a6278e146102b6578063993e8b95146102c957600080fd5b806340db3b501161011557806340db3b501461020e5780635786cdd1146102215780635f8dead31461023457806367eeba0c14610247578063715018a61461025057806384e798421461025857600080fd5b80630a6005da146101525780631ffbb0641461016e578063346531fa146101915780633eb33f18146101a45780633ff5aa02146101f9575b600080fd5b61015b60055481565b6040519081526020015b60405180910390f35b61018161017c36600461101c565b61034e565b6040519015158152602001610165565b61018161019f36600461101c565b610361565b6101d96101b236600461101c565b60066020526000908152604090208054600182015460028301546003909301549192909184565b604080519485526020850193909352918301526060820152608001610165565b61020c61020736600461101c565b61040a565b005b61020c61021c36600461101c565b6104f4565b61018161022f366004611039565b610616565b61020c61024236600461107a565b61075b565b61015b60045481565b61020c610783565b61020c61026636600461101c565b610797565b61020c610279366004611039565b610837565b6000546001600160a01b03165b6040516001600160a01b039091168152602001610165565b60035461028b906001600160a01b031681565b61020c6102c436600461101c565b61086b565b6101816102d736600461101c565b61090b565b61020c6102ea3660046110a6565b61092b565b61020c6102fd36600461101c565b610968565b610181610310366004611039565b610a29565b61020c61032336600461101c565b610a4c565b61020c6103363660046110a6565b610a8a565b61020c61034936600461101c565b610ac7565b600061035b600183610b8c565b92915050565b6001600160a01b03811660009081526002602052604081205460ff161580156103f557506003546040516307feec1960e21b81526001600160a01b03848116600483015290911690631ffbb06490602401602060405180830381865afa1580156103cf573d6000803e3d6000fd5b505050506040513d601f19601f820116820180604052508101906103f391906110bf565b155b1561040257506000919050565b506001919050565b3361041d6000546001600160a01b031690565b6001600160a01b0316148061044e57506003546001600160a01b031615801561044e5750336001600160a01b038216145b61049f5760405162461bcd60e51b815260206004820152601c60248201527f6f6e6c79206f776e6572206f7220746f6b656e2063616e2063616c6c0000000060448201526064015b60405180910390fd5b600380546001600160a01b0319166001600160a01b0383169081179091556040519081527f2de35142b19ed5a07796cf30791959c592018f70b1d2d7c460eef8ffe713692b906020015b60405180910390a150565b336105076000546001600160a01b031690565b6001600160a01b031614806105245750336001600160a01b038216145b6105705760405162461bcd60e51b815260206004820152601c60248201527f6f6e6c79206f776e6572206f7220746f6b656e2063616e2063616c6c000000006044820152606401610496565b6003546001600160a01b038281169116146105cd5760405162461bcd60e51b815260206004820152601760248201527f5468697320746f6b656e206973206e6f7420626f756e640000000000000000006044820152606401610496565b600380546001600160a01b03191690556040516001600160a01b03821681527f28a4ca7134a3b3f9aff286e79ad3daadb4a06d1b43d037a3a98bdc074edd9b7a906020016104e9565b60008061062285610c0f565b905061062d85610361565b61074e57600454831115610645576000915050610754565b6001600160a01b038116600090815260066020526040902060020154421080156106c457506004546001600160a01b0382166000908152600660205260409020546106919085906110e1565b11806106c457506005546001600160a01b0382166000908152600660205260409020600101546106c29085906110e1565b115b156106d3576000915050610754565b6001600160a01b038116600090815260066020526040902060020154421015801561072457506005546001600160a01b03821660009081526006602052604090206001015461072290856110e1565b115b1561074e576001600160a01b03166000908152600660205260409020600301544210159050610754565b60019150505b9392505050565b610763610ce9565b61077f5760405162461bcd60e51b815260040161049690611102565b5050565b61078b610cf9565b6107956000610d26565b565b61079f610cf9565b6001600160a01b0381166107f55760405162461bcd60e51b815260206004820152601f60248201527f696e76616c696420617267756d656e74202d207a65726f2061646472657373006044820152606401610496565b610800600182610d76565b6040516001600160a01b038216907ff68e73cec97f2d70aa641fb26e87a4383686e2efacb648f2165aeb02ac562ec590600090a250565b61083f610ce9565b61085b5760405162461bcd60e51b815260040161049690611102565b610866838383610df2565b505050565b610873610cf9565b6001600160a01b0381166108c95760405162461bcd60e51b815260206004820152601f60248201527f696e76616c696420617267756d656e74202d207a65726f2061646472657373006044820152606401610496565b6108d4600182610dfc565b6040516001600160a01b038216907fed9c8ad8d5a0a66898ea49d2956929c93ae2e8bd50281b2ed897c5d1a6737e0b90600090a250565b6003546000906001600160a01b0383811691161461040257506000919050565b610933610cf9565b60048190556040518181527f6cd8635c4285386b9de2e59a4c1eaf32ad41f28ae64c308280217d7af51464e0906020016104e9565b610970610cf9565b6001600160a01b03811660009081526002602052604090205460ff166109d85760405162461bcd60e51b815260206004820181905260248201527f54686973204167656e74206973206e6f742072656769737465726564207965746044820152606401610496565b6001600160a01b038116600081815260026020908152604091829020805460ff1916905590519182527f6a659bb87bb23efbdc295f8eed8ae8c4379bfb77660ced2ef0f3d7d26b05c6a691016104e9565b6000610a36848484610616565b610a4257506000610754565b5060019392505050565b610a54610cf9565b6001600160a01b038116610a7e57604051631e4fbdf760e01b815260006004820152602401610496565b610a8781610d26565b50565b610a92610cf9565b60058190556040518181527fa07146b9a6c51d225299132338965ae84effc4d198b875827574655eb59eb2a8906020016104e9565b610acf610cf9565b6001600160a01b03811660009081526002602052604090205460ff1615610b385760405162461bcd60e51b815260206004820181905260248201527f54686973204167656e7420697320616c726561647920726567697374657265646044820152606401610496565b6001600160a01b038116600081815260026020908152604091829020805460ff1916600117905590519182527fd62c45e13ac30396aceb3ad37c89bd1ba9048032fe61679000e92eb93dbfd67d91016104e9565b60006001600160a01b038216610bef5760405162461bcd60e51b815260206004820152602260248201527f526f6c65733a206163636f756e7420697320746865207a65726f206164647265604482015261737360f01b6064820152608401610496565b506001600160a01b03166000908152602091909152604090205460ff1690565b600354604080516304d3863d60e21b815290516000926001600160a01b03169163134e18f49160048083019260209291908290030181865afa158015610c59573d6000803e3d6000fd5b505050506040513d601f19601f82011682018060405250810190610c7d919061116c565b604051633c3ad79560e21b81526001600160a01b038481166004830152919091169063f0eb5e5490602401602060405180830381865afa158015610cc5573d6000803e3d6000fd5b505050506040513d601f19601f8201168201806040525081019061035b919061116c565b6000610cf43361090b565b905090565b6000546001600160a01b031633146107955760405163118cdaa760e01b8152336004820152602401610496565b600080546001600160a01b038381166001600160a01b0319831681178455604051919092169283917f8be0079c531659141344cd1fd0a4f28419497f9722a3daafe3b4186f6b6457e09190a35050565b610d808282610b8c565b15610dcd5760405162461bcd60e51b815260206004820152601f60248201527f526f6c65733a206163636f756e7420616c72656164792068617320726f6c65006044820152606401610496565b6001600160a01b0316600090815260209190915260409020805460ff19166001179055565b6108668382610e7e565b610e068282610b8c565b610e5c5760405162461bcd60e51b815260206004820152602160248201527f526f6c65733a206163636f756e7420646f6573206e6f74206861766520726f6c6044820152606560f81b6064820152608401610496565b6001600160a01b0316600090815260209190915260409020805460ff19169055565b6000610e8983610c0f565b9050610e9481610f5b565b610e9d81610faf565b6004546001600160a01b038216600090815260066020526040902054610ec49084906110e1565b11610ef7576001600160a01b03811660009081526006602052604081208054849290610ef19084906110e1565b90915550505b6005546001600160a01b038216600090815260066020526040902060010154610f219084906110e1565b11610866576001600160a01b03811660009081526006602052604081206001018054849290610f519084906110e1565b9091555050505050565b6001600160a01b0381166000908152600660205260409020600201544210610a8757610f8a42620151806110e1565b6001600160a01b03821660009081526006602052604081206002810192909255905550565b6001600160a01b0381166000908152600660205260409020600301544210610a8757610fde4262278d006110e1565b6001600160a01b0382166000908152600660205260408120600381019290925560019091015550565b6001600160a01b0381168114610a8757600080fd5b60006020828403121561102e57600080fd5b813561075481611007565b60008060006060848603121561104e57600080fd5b833561105981611007565b9250602084013561106981611007565b929592945050506040919091013590565b6000806040838503121561108d57600080fd5b823561109881611007565b946020939093013593505050565b6000602082840312156110b857600080fd5b5035919050565b6000602082840312156110d157600080fd5b8151801515811461075457600080fd5b8082018082111561035b57634e487b7160e01b600052601160045260246000fd5b60208082526044908201527f6572726f72203a20746869732061646472657373206973206e6f74206120746f60408201527f6b656e20626f756e6420746f2074686520636f6d706c69616e636520636f6e746060820152631c9858dd60e21b608082015260a00190565b60006020828403121561117e57600080fd5b81516107548161100756fea264697066735822122079d72cc1844de15e35f5c2664eb1d2f9735cb03966b4f97b90334c657bb7f6bc64736f6c634300081c0033","linkReferences":{}},"methodIdentifiers":{"addAgent(address)":"84e79842","addTokenAgent(address)":"ff3e6954","bindToken(address)":"3ff5aa02","canTransfer(address,address,uint256)":"e46638e6","complianceCheckOnDayMonthLimits(address,address,uint256)":"5786cdd1","created(address,uint256)":"5f8dead3","dailyLimit()":"67eeba0c","destroyed(address,uint256)":"8d2ea772","isAgent(address)":"1ffbb064","isTokenAgent(address)":"346531fa","isTokenBound(address)":"993e8b95","monthlyLimit()":"0a6005da","owner()":"8da5cb5b","removeAgent(address)":"97a6278e","removeTokenAgent(address)":"cdde2932","renounceOwnership()":"715018a6","setDailyLimit(uint256)":"b20d30a9","setMonthlyLimit(uint256)":"f3533c35","tokenBound()":"93e62f07","transferOwnership(address)":"f2fde38b","transferred(address,address,uint256)":"8baf29b4","unbindToken(address)":"40db3b50","usersCounters(address)":"3eb33f18"},"id":24}