{"abi":[{"type":"function","name":"UPGRADE_INTERFACE_VERSION","inputs":[],"outputs":[{"name":"","type":"string","internalType":"string"}],"stateMutability":"view"},{"type":"function","name":"addCountryRestriction","inputs":[{"name":"_country","type":"uint16","internalType":"uint16"}],"outputs":[],"stateMutability":"nonpayable"},{"type":"function","name":"batchRestrictCountries","inputs":[{"name":"_countries","type":"uint16[]","internalType":"uint16[]"}],"outputs":[],"stateMutability":"nonpayable"},{"type":"function","name":"batchUnrestrictCountries","inputs":[{"name":"_countries","type":"uint16[]","internalType":"uint16[]"}],"outputs":[],"stateMutability":"nonpayable"},{"type":"function","name":"bindCompliance","inputs":[{"name":"_compliance","type":"address","internalType":"address"}],"outputs":[],"stateMutability":"nonpayable"},{"type":"function","name":"canComplianceBind","inputs":[{"name":"","type":"address","internalType":"address"}],"outputs":[{"name":"","type":"bool","internalType":"bool"}],"stateMutability":"view"},{"type":"function","name":"initialize","inputs":[],"outputs":[],"stateMutability":"nonpayable"},{"type":"function","name":"isComplianceBound","inputs":[{"name":"_compliance","type":"address","internalType":"address"}],"outputs":[{"name":"","type":"bool","internalType":"bool"}],"stateMutability":"view"},{"type":"function","name":"isCountryRestricted","inputs":[{"name":"_compliance","type":"address","internalType":"address"},{"name":"_country","type":"uint16","internalType":"uint16"}],"outputs":[{"name":"","type":"bool","internalType":"bool"}],"stateMutability":"view"},{"type":"function","name":"isPlugAndPlay","inputs":[],"outputs":[{"name":"","type":"bool","internalType":"bool"}],"stateMutability":"pure"},{"type":"function","name":"moduleBurnAction","inputs":[{"name":"_from","type":"address","internalType":"address"},{"name":"_value","type":"uint256","internalType":"uint256"}],"outputs":[],"stateMutability":"nonpayable"},{"type":"function","name":"moduleCheck","inputs":[{"name":"","type":"address","internalType":"address"},{"name":"_to","type":"address","internalType":"address"},{"name":"","type":"uint256","internalType":"uint256"},{"name":"_compliance","type":"address","internalType":"address"}],"outputs":[{"name":"","type":"bool","internalType":"bool"}],"stateMutability":"view"},{"type":"function","name":"moduleMintAction","inputs":[{"name":"_to","type":"address","internalType":"address"},{"name":"_value","type":"uint256","internalType":"uint256"}],"outputs":[],"stateMutability":"nonpayable"},{"type":"function","name":"moduleTransferAction","inputs":[{"name":"_from","type":"address","internalType":"address"},{"name":"_to","type":"address","internalType":"address"},{"name":"_value","type":"uint256","internalType":"uint256"}],"outputs":[],"stateMutability":"nonpayable"},{"type":"function","name":"name","inputs":[],"outputs":[{"name":"_name","type":"string","internalType":"string"}],"stateMutability":"pure"},{"type":"function","name":"owner","inputs":[],"outputs":[{"name":"","type":"address","internalType":"address"}],"stateMutability":"view"},{"type":"function","name":"proxiableUUID","inputs":[],"outputs":[{"name":"","type":"bytes32","internalType":"bytes32"}],"stateMutability":"view"},{"type":"function","name":"removeCountryRestriction","inputs":[{"name":"_country","type":"uint16","internalType":"uint16"}],"outputs":[],"stateMutability":"nonpayable"},{"type":"function","name":"renounceOwnership","inputs":[],"outputs":[],"stateMutability":"nonpayable"},{"type":"function","name":"transferOwnership","inputs":[{"name":"newOwner","type":"address","internalType":"address"}],"outputs":[],"stateMutability":"nonpayable"},{"type":"function","name":"unbindCompliance","inputs":[{"name":"_compliance","type":"address","internalType":"address"}],"outputs":[],"stateMutability":"nonpayable"},{"type":"function","name":"upgradeToAndCall","inputs":[{"name":"newImplementation","type":"address","internalType":"address"},{"name":"data","type":"bytes","internalType":"bytes"}],"outputs":[],"stateMutability":"payable"},{"type":"event","name":"AddedRestrictedCountry","inputs":[{"name":"_compliance","type":"address","indexed":true,"internalType":"address"},{"name":"_country","type":"uint16","indexed":false,"internalType":"uint16"}],"anonymous":false},{"type":"event","name":"ComplianceBound","inputs":[{"name":"_compliance","type":"address","indexed":true,"internalType":"address"}],"anonymous":false},{"type":"event","name":"ComplianceUnbound","inputs":[{"name":"_compliance","type":"address","indexed":true,"internalType":"address"}],"anonymous":false},{"type":"event","name":"Initialized","inputs":[{"name":"version","type":"uint64","indexed":false,"internalType":"uint64"}],"anonymous":false},{"type":"event","name":"OwnershipTransferred","inputs":[{"name":"previousOwner","type":"address","indexed":true,"internalType":"address"},{"name":"newOwner","type":"address","indexed":true,"internalType":"address"}],"anonymous":false},{"type":"event","name":"RemovedRestrictedCountry","inputs":[{"name":"_compliance","type":"address","indexed":true,"internalType":"address"},{"name":"_country","type":"uint16","indexed":false,"internalType":"uint16"}],"anonymous":false},{"type":"event","name":"Upgraded","inputs":[{"name":"implementation","type":"address","indexed":true,"internalType":"address"}],"anonymous":false},{"type":"error","name":"AddressEmptyCode","inputs":[{"name":"target","type":"address","internalType":"address"}]},{"type":"error","name":"ERC1967InvalidImplementation","inputs":[{"name":"implementation","type":"address","internalType":"address"}]},{"type":"error","name":"ERC1967NonPayable","inputs":[]},{"type":"error","name":"FailedCall","inputs":[]},{"type":"error","name":"InvalidInitialization","inputs":[]},{"type":"error","name":"NotInitializing","inputs":[]},{"type":"error","name":"OwnableInvalidOwner","inputs":[{"name":"owner","type":"address","internalType":"address"}]},{"type":"error","name":"OwnableUnauthorizedAccount","inputs":[{"name":"account","type":"address","internalType":"address"}]},{"type":"error","name":"UUPSUnauthorizedCallContext","inputs":[]},{"type":"error","name":"UUPSUnsupportedProxiableUUID","inputs":[{"name":"slot","type":"bytes32","internalType":"bytes32"}]}],"bytecode":{"object":"0x60a060405230608052348015601357600080fd5b506080516119f861003d600039600081816110b1015281816110da015261121b01526119f86000f3fe6080604052600436106101355760003560e01c806352d1902d116100ab578063ad3cb1cc1161006f578063ad3cb1cc146103cf578063bcc2105314610400578063bdf9a07e14610421578063e6f5e80714610441578063f104a8c914610282578063f2fde38b1461045557600080fd5b806352d1902d1461031b5780636aae7b261461033e578063715018a61461035e5780638129fc1c146103735780638da5cb5b1461038857600080fd5b80632cb7e1ec116100fd5780632cb7e1ec1461021857806330236f4a14610238578063372491a2146102825780634a932544146102a25780634cf4d295146102c25780634f1ef2861461030857600080fd5b8063013b7ce41461013a5780630333ce241461016f5780630694a5fb1461019157806306fdde03146101b1578063249c981d146101f8575b600080fd5b34801561014657600080fd5b5061015a610155366004611592565b610475565b60405190151581526020015b60405180910390f35b34801561017b57600080fd5b5061018f61018a3660046115f5565b6104cb565b005b34801561019d57600080fd5b5061018f6101ac366004611612565b6105de565b3480156101bd57600080fd5b50604080518082019091526015815274436f756e74727952657374726963744d6f64756c6560581b60208201525b6040516101669190611653565b34801561020457600080fd5b5061018f610213366004611686565b6106f5565b34801561022457600080fd5b5061018f6102333660046116fd565b610904565b34801561024457600080fd5b5061015a61025336600461173e565b6001600160a01b03821660009081526020818152604080832061ffff8516845290915290205460ff1692915050565b34801561028e57600080fd5b5061018f61029d366004611777565b610943565b3480156102ae57600080fd5b5061018f6102bd366004611612565b610987565b3480156102ce57600080fd5b5061015a6102dd366004611612565b6001600160a01b031660009081526000805160206119a3833981519152602052604090205460ff1690565b61018f6103163660046117b9565b610aca565b34801561032757600080fd5b50610330610ae9565b604051908152602001610166565b34801561034a57600080fd5b5061018f6103593660046115f5565b610b06565b34801561036a57600080fd5b5061018f610c02565b34801561037f57600080fd5b5061018f610c16565b34801561039457600080fd5b507f9016d09d72d40fdae2fd8ceac6b6234c7706214fd39c1cd1e609a0528c199300546040516001600160a01b039091168152602001610166565b3480156103db57600080fd5b506101eb604051806040016040528060058152602001640352e302e360dc1b81525081565b34801561040c57600080fd5b5061015a61041b366004611612565b50600190565b34801561042d57600080fd5b5061018f61043c366004611686565b610d24565b34801561044d57600080fd5b50600161015a565b34801561046157600080fd5b5061018f610470366004611612565b610f30565b6000806104828386610f6e565b6001600160a01b03841660009081526020818152604080832061ffff8516845290915290205490915060ff16156104bd5760009150506104c3565b60019150505b949350505050565b3360009081526000805160206119a3833981519152602081905260409091205460ff166105135760405162461bcd60e51b815260040161050a90611885565b60405180910390fd5b3360009081526020818152604080832061ffff8616845290915290205460ff16156105805760405162461bcd60e51b815260206004820152601a60248201527f636f756e74727920616c72656164792072657374726963746564000000000000604482015260640161050a565b3360008181526020818152604080832061ffff871680855290835292819020805460ff19166001179055519182527f5e0addf626d7d7091ab7aebf34682c3203384648734760b24921e31ddcec0bb591015b60405180910390a25050565b3360009081526000805160206119a3833981519152602081905260409091205460ff1661061d5760405162461bcd60e51b815260040161050a90611885565b6000805160206119a38339815191526001600160a01b0383166106825760405162461bcd60e51b815260206004820152601f60248201527f696e76616c696420617267756d656e74202d207a65726f206164647265737300604482015260640161050a565b336001600160a01b038416146106aa5760405162461bcd60e51b815260040161050a906118bc565b6001600160a01b038316600081815260208390526040808220805460ff19169055517f408b49d9be1c914c52a0227e18a077e5a892dddf32a26cfa94a5d9708fad77189190a2505050565b3360009081526000805160206119a3833981519152602081905260409091205460ff166107345760405162461bcd60e51b815260040161050a90611885565b60c382106107995760405162461bcd60e51b815260206004820152602c60248201527f6d6178696d756d203139352063616e20626520756e726573747269637465642060448201526b0d2dc40dedcca40c4c2e8c6d60a31b606482015260840161050a565b60005b828110156108fe57336000908152602081905260408120908585848181106107c6576107c66118fd565b90506020020160208101906107db91906115f5565b61ffff16815260208101919091526040016000205460ff16151560011461083d5760405162461bcd60e51b815260206004820152601660248201527518dbdd5b9d1c9e481b9bdd081c995cdd1c9a58dd195960521b604482015260640161050a565b3360009081526020819052604081208186868581811061085f5761085f6118fd565b905060200201602081019061087491906115f5565b61ffff1681526020810191909152604001600020805460ff1916911515919091179055337ffb8bb575200aa114265a31c7d8ebeb4e395bd3cd9d0914c4bfa2a511d2011a7a8585848181106108cb576108cb6118fd565b90506020020160208101906108e091906115f5565b60405161ffff909116815260200160405180910390a260010161079c565b50505050565b3360009081526000805160206119a3833981519152602081905260409091205460ff166108fe5760405162461bcd60e51b815260040161050a90611885565b3360009081526000805160206119a3833981519152602081905260409091205460ff166109825760405162461bcd60e51b815260040161050a90611885565b505050565b6000805160206119a38339815191526001600160a01b0382166109ec5760405162461bcd60e51b815260206004820152601f60248201527f696e76616c696420617267756d656e74202d207a65726f206164647265737300604482015260640161050a565b6001600160a01b03821660009081526020829052604090205460ff1615610a555760405162461bcd60e51b815260206004820152601860248201527f636f6d706c69616e636520616c726561647920626f756e640000000000000000604482015260640161050a565b336001600160a01b03831614610a7d5760405162461bcd60e51b815260040161050a906118bc565b6001600160a01b038216600081815260208390526040808220805460ff19166001179055517f1f7b76c58fb697eb53c6c7c1becb96911516a136e24d7ced386b2355358b75a39190a25050565b610ad26110a6565b610adb8261114b565b610ae58282611153565b5050565b6000610af3611210565b5060008051602061198383398151915290565b3360009081526000805160206119a3833981519152602081905260409091205460ff16610b455760405162461bcd60e51b815260040161050a90611885565b3360009081526020818152604080832061ffff8616845290915290205460ff161515600114610baf5760405162461bcd60e51b815260206004820152601660248201527518dbdd5b9d1c9e481b9bdd081c995cdd1c9a58dd195960521b604482015260640161050a565b3360008181526020818152604080832061ffff871680855290835292819020805460ff19169055519182527ffb8bb575200aa114265a31c7d8ebeb4e395bd3cd9d0914c4bfa2a511d2011a7a91016105d2565b610c0a611259565b610c1460006112b4565b565b7ff0c57e16840df040f15088dc2f81fe391c3923bec73e23a9662efc9c229c6a008054600160401b810460ff16159067ffffffffffffffff16600081158015610c5c5750825b905060008267ffffffffffffffff166001148015610c795750303b155b905081158015610c87575080155b15610ca55760405163f92ee8a960e01b815260040160405180910390fd5b845467ffffffffffffffff191660011785558315610ccf57845460ff60401b1916600160401b1785555b610cd7611325565b8315610d1d57845460ff60401b19168555604051600181527fc7f505b2f371ae2175ee4913f4499e1f2633a7b5936321eed1cdaeb6115181d29060200160405180910390a15b5050505050565b3360009081526000805160206119a3833981519152602081905260409091205460ff16610d635760405162461bcd60e51b815260040161050a90611885565b60c38210610dc65760405162461bcd60e51b815260206004820152602a60248201527f6d6178696d756d203139352063616e206265207265737472696374656420696e604482015269040dedcca40c4c2e8c6d60b31b606482015260840161050a565b60005b828110156108fe5733600090815260208190526040812090858584818110610df357610df36118fd565b9050602002016020810190610e0891906115f5565b61ffff16815260208101919091526040016000205460ff1615610e6d5760405162461bcd60e51b815260206004820152601a60248201527f636f756e74727920616c72656164792072657374726963746564000000000000604482015260640161050a565b336000908152602081905260408120600191868685818110610e9157610e916118fd565b9050602002016020810190610ea691906115f5565b61ffff1681526020810191909152604001600020805460ff1916911515919091179055337f5e0addf626d7d7091ab7aebf34682c3203384648734760b24921e31ddcec0bb5858584818110610efd57610efd6118fd565b9050602002016020810190610f1291906115f5565b60405161ffff909116815260200160405180910390a2600101610dc9565b610f38611259565b6001600160a01b038116610f6257604051631e4fbdf760e01b81526000600482015260240161050a565b610f6b816112b4565b50565b6000826001600160a01b0316636a3edf286040518163ffffffff1660e01b8152600401602060405180830381865afa158015610fae573d6000803e3d6000fd5b505050506040513d601f19601f82011682018060405250810190610fd29190611913565b6001600160a01b031663134e18f46040518163ffffffff1660e01b8152600401602060405180830381865afa15801561100f573d6000803e3d6000fd5b505050506040513d601f19601f820116820180604052508101906110339190611913565b604051637e42683b60e01b81526001600160a01b0384811660048301529190911690637e42683b90602401602060405180830381865afa15801561107b573d6000803e3d6000fd5b505050506040513d601f19601f8201168201806040525081019061109f9190611930565b9392505050565b306001600160a01b037f000000000000000000000000000000000000000000000000000000000000000016148061112d57507f00000000000000000000000000000000000000000000000000000000000000006001600160a01b0316611121600080516020611983833981519152546001600160a01b031690565b6001600160a01b031614155b15610c145760405163703e46dd60e11b815260040160405180910390fd5b610f6b611259565b816001600160a01b03166352d1902d6040518163ffffffff1660e01b8152600401602060405180830381865afa9250505080156111ad575060408051601f3d908101601f191682019092526111aa9181019061194d565b60015b6111d557604051634c9c8ce360e01b81526001600160a01b038316600482015260240161050a565b600080516020611983833981519152811461120657604051632a87526960e21b81526004810182905260240161050a565b610982838361133e565b306001600160a01b037f00000000000000000000000000000000000000000000000000000000000000001614610c145760405163703e46dd60e11b815260040160405180910390fd5b3361128b7f9016d09d72d40fdae2fd8ceac6b6234c7706214fd39c1cd1e609a0528c199300546001600160a01b031690565b6001600160a01b031614610c145760405163118cdaa760e01b815233600482015260240161050a565b7f9016d09d72d40fdae2fd8ceac6b6234c7706214fd39c1cd1e609a0528c19930080546001600160a01b031981166001600160a01b03848116918217845560405192169182907f8be0079c531659141344cd1fd0a4f28419497f9722a3daafe3b4186f6b6457e090600090a3505050565b61132d611394565b611336336113dd565b610c146113ee565b611347826113f6565b6040516001600160a01b038316907fbc7cd75a20ee27fd9adebab32041f755214dbc6bffa90cc0225b39da2e5c2d3b90600090a280511561138c57610982828261145b565b610ae56114d1565b7ff0c57e16840df040f15088dc2f81fe391c3923bec73e23a9662efc9c229c6a0054600160401b900460ff16610c1457604051631afcd79f60e31b815260040160405180910390fd5b6113e5611394565b610f6b816114f0565b610c14611394565b806001600160a01b03163b60000361142c57604051634c9c8ce360e01b81526001600160a01b038216600482015260240161050a565b60008051602061198383398151915280546001600160a01b0319166001600160a01b0392909216919091179055565b6060600080846001600160a01b0316846040516114789190611966565b600060405180830381855af49150503d80600081146114b3576040519150601f19603f3d011682016040523d82523d6000602084013e6114b8565b606091505b50915091506114c88583836114f8565b95945050505050565b3415610c145760405163b398979f60e01b815260040160405180910390fd5b610f38611394565b60608261150d5761150882611554565b61109f565b815115801561152457506001600160a01b0384163b155b1561154d57604051639996b31560e01b81526001600160a01b038516600482015260240161050a565b5092915050565b8051156115645780518082602001fd5b60405163d6bda27560e01b815260040160405180910390fd5b6001600160a01b0381168114610f6b57600080fd5b600080600080608085870312156115a857600080fd5b84356115b38161157d565b935060208501356115c38161157d565b92506040850135915060608501356115da8161157d565b939692955090935050565b61ffff81168114610f6b57600080fd5b60006020828403121561160757600080fd5b813561109f816115e5565b60006020828403121561162457600080fd5b813561109f8161157d565b60005b8381101561164a578181015183820152602001611632565b50506000910152565b602081526000825180602084015261167281604085016020870161162f565b601f01601f19169190910160400192915050565b6000806020838503121561169957600080fd5b823567ffffffffffffffff8111156116b057600080fd5b8301601f810185136116c157600080fd5b803567ffffffffffffffff8111156116d857600080fd5b8560208260051b84010111156116ed57600080fd5b6020919091019590945092505050565b60008060006060848603121561171257600080fd5b833561171d8161157d565b9250602084013561172d8161157d565b929592945050506040919091013590565b6000806040838503121561175157600080fd5b823561175c8161157d565b9150602083013561176c816115e5565b809150509250929050565b6000806040838503121561178a57600080fd5b82356117958161157d565b946020939093013593505050565b634e487b7160e01b600052604160045260246000fd5b600080604083850312156117cc57600080fd5b82356117d78161157d565b9150602083013567ffffffffffffffff8111156117f357600080fd5b8301601f8101851361180457600080fd5b803567ffffffffffffffff81111561181e5761181e6117a3565b604051601f8201601f19908116603f0116810167ffffffffffffffff8111828210171561184d5761184d6117a3565b60405281815282820160200187101561186557600080fd5b816020840160208301376000602083830101528093505050509250929050565b6020808252601e908201527f6f6e6c7920626f756e6420636f6d706c69616e63652063616e2063616c6c0000604082015260600190565b60208082526021908201527f6f6e6c7920636f6d706c69616e636520636f6e74726163742063616e2063616c6040820152601b60fa1b606082015260800190565b634e487b7160e01b600052603260045260246000fd5b60006020828403121561192557600080fd5b815161109f8161157d565b60006020828403121561194257600080fd5b815161109f816115e5565b60006020828403121561195f57600080fd5b5051919050565b6000825161197881846020870161162f565b919091019291505056fe360894a13ba1a3210667c828492db98dca3e2076cc3735a920a3ca505d382bbcf6cc97de1266c180cd39f3b311632644143ce7873d2927755382ad4b39e8ae00a2646970667358221220fa4450d47938b29f7f1ac2077f7fad0a60b4d22b2ca1548c7bb0c90e3f71e2c864736f6c634300081c0033","linkReferences":{}},"methodIdentifiers":{"UPGRADE_INTERFACE_VERSION()":"ad3cb1cc","addCountryRestriction(uint16)":"0333ce24","batchRestrictCountries(uint16[])":"bdf9a07e","batchUnrestrictCountries(uint16[])":"249c981d","bindCompliance(address)":"4a932544","canComplianceBind(address)":"bcc21053","initialize()":"8129fc1c","isComplianceBound(address)":"4cf4d295","isCountryRestricted(address,uint16)":"30236f4a","isPlugAndPlay()":"e6f5e807","moduleBurnAction(address,uint256)":"372491a2","moduleCheck(address,address,uint256,address)":"013b7ce4","moduleMintAction(address,uint256)":"f104a8c9","moduleTransferAction(address,address,uint256)":"2cb7e1ec","name()":"06fdde03","owner()":"8da5cb5b","proxiableUUID()":"52d1902d","removeCountryRestriction(uint16)":"6aae7b26","renounceOwnership()":"715018a6","transferOwnership(address)":"f2fde38b","unbindCompliance(address)":"0694a5fb","upgradeToAndCall(address,bytes)":"4f1ef286"},"id":35}