{"abi":[{"type":"function","name":"UPGRADE_INTERFACE_VERSION","inputs":[],"outputs":[{"name":"","type":"string","internalType":"string"}],"stateMutability":"view"},{"type":"function","name":"batchListTokens","inputs":[{"name":"_tokenAddresses","type":"address[]","internalType":"address[]"},{"name":"_addressType","type":"uint8","internalType":"enum InvestorAddressType"}],"outputs":[],"stateMutability":"nonpayable"},{"type":"function","name":"batchUnlistTokens","inputs":[{"name":"_tokenAddresses","type":"address[]","internalType":"address[]"},{"name":"_addressType","type":"uint8","internalType":"enum InvestorAddressType"}],"outputs":[],"stateMutability":"nonpayable"},{"type":"function","name":"bindCompliance","inputs":[{"name":"_compliance","type":"address","internalType":"address"}],"outputs":[],"stateMutability":"nonpayable"},{"type":"function","name":"canComplianceBind","inputs":[{"name":"","type":"address","internalType":"address"}],"outputs":[{"name":"","type":"bool","internalType":"bool"}],"stateMutability":"pure"},{"type":"function","name":"configureToken","inputs":[{"name":"_listingType","type":"uint8","internalType":"enum ListingType"}],"outputs":[],"stateMutability":"nonpayable"},{"type":"function","name":"getInvestorListingStatus","inputs":[{"name":"_tokenAddress","type":"address","internalType":"address"},{"name":"_investorAddress","type":"address","internalType":"address"}],"outputs":[{"name":"","type":"bool","internalType":"bool"}],"stateMutability":"view"},{"type":"function","name":"getTokenListingType","inputs":[{"name":"_tokenAddress","type":"address","internalType":"address"}],"outputs":[{"name":"","type":"uint8","internalType":"enum ListingType"}],"stateMutability":"view"},{"type":"function","name":"initialize","inputs":[],"outputs":[],"stateMutability":"nonpayable"},{"type":"function","name":"isComplianceBound","inputs":[{"name":"_compliance","type":"address","internalType":"address"}],"outputs":[{"name":"","type":"bool","internalType":"bool"}],"stateMutability":"view"},{"type":"function","name":"isPlugAndPlay","inputs":[],"outputs":[{"name":"","type":"bool","internalType":"bool"}],"stateMutability":"pure"},{"type":"function","name":"listToken","inputs":[{"name":"_tokenAddress","type":"address","internalType":"address"},{"name":"_addressType","type":"uint8","internalType":"enum InvestorAddressType"}],"outputs":[],"stateMutability":"nonpayable"},{"type":"function","name":"moduleBurnAction","inputs":[{"name":"_from","type":"address","internalType":"address"},{"name":"_value","type":"uint256","internalType":"uint256"}],"outputs":[],"stateMutability":"nonpayable"},{"type":"function","name":"moduleCheck","inputs":[{"name":"","type":"address","internalType":"address"},{"name":"_to","type":"address","internalType":"address"},{"name":"","type":"uint256","internalType":"uint256"},{"name":"_compliance","type":"address","internalType":"address"}],"outputs":[{"name":"","type":"bool","internalType":"bool"}],"stateMutability":"view"},{"type":"function","name":"moduleMintAction","inputs":[{"name":"_to","type":"address","internalType":"address"},{"name":"_value","type":"uint256","internalType":"uint256"}],"outputs":[],"stateMutability":"nonpayable"},{"type":"function","name":"moduleTransferAction","inputs":[{"name":"_from","type":"address","internalType":"address"},{"name":"_to","type":"address","internalType":"address"},{"name":"_value","type":"uint256","internalType":"uint256"}],"outputs":[],"stateMutability":"nonpayable"},{"type":"function","name":"name","inputs":[],"outputs":[{"name":"_name","type":"string","internalType":"string"}],"stateMutability":"pure"},{"type":"function","name":"owner","inputs":[],"outputs":[{"name":"","type":"address","internalType":"address"}],"stateMutability":"view"},{"type":"function","name":"proxiableUUID","inputs":[],"outputs":[{"name":"","type":"bytes32","internalType":"bytes32"}],"stateMutability":"view"},{"type":"function","name":"renounceOwnership","inputs":[],"outputs":[],"stateMutability":"nonpayable"},{"type":"function","name":"transferOwnership","inputs":[{"name":"newOwner","type":"address","internalType":"address"}],"outputs":[],"stateMutability":"nonpayable"},{"type":"function","name":"unbindCompliance","inputs":[{"name":"_compliance","type":"address","internalType":"address"}],"outputs":[],"stateMutability":"nonpayable"},{"type":"function","name":"unlistToken","inputs":[{"name":"_tokenAddress","type":"address","internalType":"address"},{"name":"_addressType","type":"uint8","internalType":"enum InvestorAddressType"}],"outputs":[],"stateMutability":"nonpayable"},{"type":"function","name":"upgradeToAndCall","inputs":[{"name":"newImplementation","type":"address","internalType":"address"},{"name":"data","type":"bytes","internalType":"bytes"}],"outputs":[],"stateMutability":"payable"},{"type":"event","name":"ComplianceBound","inputs":[{"name":"_compliance","type":"address","indexed":true,"internalType":"address"}],"anonymous":false},{"type":"event","name":"ComplianceUnbound","inputs":[{"name":"_compliance","type":"address","indexed":true,"internalType":"address"}],"anonymous":false},{"type":"event","name":"Initialized","inputs":[{"name":"version","type":"uint64","indexed":false,"internalType":"uint64"}],"anonymous":false},{"type":"event","name":"OwnershipTransferred","inputs":[{"name":"previousOwner","type":"address","indexed":true,"internalType":"address"},{"name":"newOwner","type":"address","indexed":true,"internalType":"address"}],"anonymous":false},{"type":"event","name":"TokenListed","inputs":[{"name":"_tokenAddress","type":"address","indexed":false,"internalType":"address"},{"name":"_investorAddress","type":"address","indexed":false,"internalType":"address"}],"anonymous":false},{"type":"event","name":"TokenListingConfigured","inputs":[{"name":"_tokenAddress","type":"address","indexed":false,"internalType":"address"},{"name":"_listingType","type":"uint8","indexed":false,"internalType":"enum ListingType"}],"anonymous":false},{"type":"event","name":"TokenUnlisted","inputs":[{"name":"_tokenAddress","type":"address","indexed":false,"internalType":"address"},{"name":"_investorAddress","type":"address","indexed":false,"internalType":"address"}],"anonymous":false},{"type":"event","name":"Upgraded","inputs":[{"name":"implementation","type":"address","indexed":true,"internalType":"address"}],"anonymous":false},{"type":"error","name":"AddressEmptyCode","inputs":[{"name":"target","type":"address","internalType":"address"}]},{"type":"error","name":"ERC1967InvalidImplementation","inputs":[{"name":"implementation","type":"address","internalType":"address"}]},{"type":"error","name":"ERC1967NonPayable","inputs":[]},{"type":"error","name":"FailedCall","inputs":[]},{"type":"error","name":"IdentityNotFound","inputs":[{"name":"_tokenAddress","type":"address","internalType":"address"},{"name":"_userAddress","type":"address","internalType":"address"}]},{"type":"error","name":"InvalidInitialization","inputs":[]},{"type":"error","name":"InvalidListingTypeForConfiguration","inputs":[{"name":"_listingType","type":"uint8","internalType":"enum ListingType"}]},{"type":"error","name":"NotInitializing","inputs":[]},{"type":"error","name":"OwnableInvalidOwner","inputs":[{"name":"owner","type":"address","internalType":"address"}]},{"type":"error","name":"OwnableUnauthorizedAccount","inputs":[{"name":"account","type":"address","internalType":"address"}]},{"type":"error","name":"TokenAlreadyConfigured","inputs":[{"name":"_tokenAddress","type":"address","internalType":"address"}]},{"type":"error","name":"TokenAlreadyListed","inputs":[{"name":"_tokenAddress","type":"address","internalType":"address"},{"name":"_investorAddress","type":"address","internalType":"address"}]},{"type":"error","name":"TokenIsNotConfigured","inputs":[{"name":"_tokenAddress","type":"address","internalType":"address"}]},{"type":"error","name":"TokenIsNotListed","inputs":[{"name":"_tokenAddress","type":"address","internalType":"address"},{"name":"_investorAddress","type":"address","internalType":"address"}]},{"type":"error","name":"UUPSUnauthorizedCallContext","inputs":[]},{"type":"error","name":"UUPSUnsupportedProxiableUUID","inputs":[{"name":"slot","type":"bytes32","internalType":"bytes32"}]}],"bytecode":{"object":"0x60a060405230608052348015601357600080fd5b506080516119df61003d60003960008181610f9d01528181610fc6015261110701526119df6000f3fe60806040526004361061014b5760003560e01c8063715018a6116100b6578063afb0bd6b1161006f578063afb0bd6b1461043a578063b94ce6741461045a578063bcc210531461047a578063e6f5e8071461049b578063f104a8c914610236578063f2fde38b146104af57600080fd5b8063715018a6146103585780638129fc1c1461036d5780638d904d31146103825780638da5cb5b146103a2578063a599bf18146103e9578063ad3cb1cc1461040957600080fd5b806337298f2a1161010857806337298f2a146102565780634a932544146102765780634cf4d295146102965780634f1ef286146102dc57806352d1902d146102ef5780636ce21a481461031257600080fd5b8063013b7ce4146101505780630694a5fb1461018557806306fdde03146101a75780632cb7e1ec146101f65780633697b04b14610216578063372491a214610236575b600080fd5b34801561015c57600080fd5b5061017061016b3660046114e7565b6104cf565b60405190151581526020015b60405180910390f35b34801561019157600080fd5b506101a56101a036600461153a565b6105db565b005b3480156101b357600080fd5b5060408051808201909152601e81527f546f6b656e4c697374696e675265737472696374696f6e734d6f64756c65000060208201525b60405161017c919061157b565b34801561020257600080fd5b506101a56102113660046115ae565b6106fb565b34801561022257600080fd5b506101706102313660046115ef565b610740565b34801561024257600080fd5b506101a5610251366004611628565b610770565b34801561026257600080fd5b506101a5610271366004611668565b6107b4565b34801561028257600080fd5b506101a561029136600461153a565b6107f7565b3480156102a257600080fd5b506101706102b136600461153a565b6001600160a01b0316600090815260008051602061198a833981519152602052604090205460ff1690565b6101a56102ea366004611704565b61093a565b3480156102fb57600080fd5b50610304610959565b60405190815260200161017c565b34801561031e57600080fd5b5061034b61032d36600461153a565b6001600160a01b031660009081526020819052604090205460ff1690565b60405161017c9190611808565b34801561036457600080fd5b506101a5610976565b34801561037957600080fd5b506101a561098a565b34801561038e57600080fd5b506101a561039d366004611816565b610a98565b3480156103ae57600080fd5b507f9016d09d72d40fdae2fd8ceac6b6234c7706214fd39c1cd1e609a0528c199300546040516001600160a01b03909116815260200161017c565b3480156103f557600080fd5b506101a5610404366004611668565b610b6e565b34801561041557600080fd5b506101e9604051806040016040528060058152602001640352e302e360dc1b81525081565b34801561044657600080fd5b506101a5610455366004611816565b610bb1565b34801561046657600080fd5b506101a561047536600461184b565b610cd9565b34801561048657600080fd5b5061017061049536600461153a565b50600190565b3480156104a757600080fd5b506001610170565b3480156104bb57600080fd5b506101a56104ca36600461153a565b610e19565b60006001600160a01b0384166104e7575060016105d3565b60006104f283610e57565b6001600160a01b03811660009081526020819052604081205491925060ff90911690816002811115610526576105266117d0565b03610536576001925050506105d3565b6001600160a01b038083166000908152600160209081526040808320938a1683529290529081205460ff16806105a857506001600160a01b03831660009081526001602052604081209061058a858a610ebb565b6001600160a01b0316815260208101919091526040016000205460ff165b905060028260028111156105be576105be6117d0565b036105ce571592506105d3915050565b925050505b949350505050565b33600090815260008051602061198a833981519152602081905260409091205460ff166106235760405162461bcd60e51b815260040161061a9061186c565b60405180910390fd5b60008051602061198a8339815191526001600160a01b0383166106885760405162461bcd60e51b815260206004820152601f60248201527f696e76616c696420617267756d656e74202d207a65726f206164647265737300604482015260640161061a565b336001600160a01b038416146106b05760405162461bcd60e51b815260040161061a906118a3565b6001600160a01b038316600081815260208390526040808220805460ff19169055517f408b49d9be1c914c52a0227e18a077e5a892dddf32a26cfa94a5d9708fad77189190a2505050565b33600090815260008051602061198a833981519152602081905260409091205460ff1661073a5760405162461bcd60e51b815260040161061a9061186c565b50505050565b6001600160a01b0380831660009081526001602090815260408083209385168352929052205460ff165b92915050565b33600090815260008051602061198a833981519152602081905260409091205460ff166107af5760405162461bcd60e51b815260040161061a9061186c565b505050565b60005b8281101561073a576107ef8484838181106107d4576107d46118e4565b90506020020160208101906107e9919061153a565b83610bb1565b6001016107b7565b60008051602061198a8339815191526001600160a01b03821661085c5760405162461bcd60e51b815260206004820152601f60248201527f696e76616c696420617267756d656e74202d207a65726f206164647265737300604482015260640161061a565b6001600160a01b03821660009081526020829052604090205460ff16156108c55760405162461bcd60e51b815260206004820152601860248201527f636f6d706c69616e636520616c726561647920626f756e640000000000000000604482015260640161061a565b336001600160a01b038316146108ed5760405162461bcd60e51b815260040161061a906118a3565b6001600160a01b038216600081815260208390526040808220805460ff19166001179055517f1f7b76c58fb697eb53c6c7c1becb96911516a136e24d7ced386b2355358b75a39190a25050565b610942610f92565b61094b82611037565b610955828261103f565b5050565b60006109636110fc565b5060008051602061196a83398151915290565b61097e611145565b61098860006111a0565b565b7ff0c57e16840df040f15088dc2f81fe391c3923bec73e23a9662efc9c229c6a008054600160401b810460ff16159067ffffffffffffffff166000811580156109d05750825b905060008267ffffffffffffffff1660011480156109ed5750303b155b9050811580156109fb575080155b15610a195760405163f92ee8a960e01b815260040160405180910390fd5b845467ffffffffffffffff191660011785558315610a4357845460ff60401b1916600160401b1785555b610a4b611211565b8315610a9157845460ff60401b19168555604051600181527fc7f505b2f371ae2175ee4913f4499e1f2633a7b5936321eed1cdaeb6115181d29060200160405180910390a15b5050505050565b6000610aa583338461122a565b6001600160a01b0380851660009081526001602090815260408083209385168352929052205490915060ff16610b01576040516308397b2160e21b81526001600160a01b0380851660048301528216602482015260440161061a565b6001600160a01b03838116600081815260016020908152604080832094861680845294825291829020805460ff1916905581519283528201929092527f5876cde84e6f82f5a4cdfa52a64969265511b5dd1c5fa44f44b50affba48a5b391015b60405180910390a1505050565b60005b8281101561073a57610ba9848483818110610b8e57610b8e6118e4565b9050602002016020810190610ba3919061153a565b83610a98565b600101610b71565b6001600160a01b03821660009081526020819052604081205460ff166002811115610bde57610bde6117d0565b03610c07576040516364d9e14360e11b81526001600160a01b038316600482015260240161061a565b6000610c1483338461122a565b6001600160a01b0380851660009081526001602090815260408083209385168352929052205490915060ff1615610c715760405163960c006b60e01b81526001600160a01b0380851660048301528216602482015260440161061a565b6001600160a01b03838116600081815260016020818152604080842095871680855295825292839020805460ff191690921790915581519283528201929092527f99d2b755eb38920131acb332adf086ea38d15009f223c21f3aa978d6ab2347869101610b61565b33600090815260008051602061198a833981519152602081905260409091205460ff16610d185760405162461bcd60e51b815260040161061a9061186c565b6000610d2333610e57565b90506000836002811115610d3957610d396117d0565b03610d585782604051627d61b960e91b815260040161061a9190611808565b6001600160a01b03811660009081526020819052604081205460ff166002811115610d8557610d856117d0565b14610dae576040516354d67cef60e01b81526001600160a01b038216600482015260240161061a565b6001600160a01b0381166000908152602081905260409020805484919060ff19166001836002811115610de357610de36117d0565b02179055507f19b790254812cc22008ac5e91a508888a4c781c009f9e61bb2329251515cf5d18184604051610b619291906118fa565b610e21611145565b6001600160a01b038116610e4b57604051631e4fbdf760e01b81526000600482015260240161061a565b610e54816111a0565b50565b6000816001600160a01b0316636a3edf286040518163ffffffff1660e01b8152600401602060405180830381865afa158015610e97573d6000803e3d6000fd5b505050506040513d601f19601f8201168201806040525081019061076a9190611917565b6000826001600160a01b031663134e18f46040518163ffffffff1660e01b8152600401602060405180830381865afa158015610efb573d6000803e3d6000fd5b505050506040513d601f19601f82011682018060405250810190610f1f9190611917565b604051633c3ad79560e21b81526001600160a01b038481166004830152919091169063f0eb5e5490602401602060405180830381865afa158015610f67573d6000803e3d6000fd5b505050506040513d601f19601f82011682018060405250810190610f8b9190611917565b9392505050565b306001600160a01b037f000000000000000000000000000000000000000000000000000000000000000016148061101957507f00000000000000000000000000000000000000000000000000000000000000006001600160a01b031661100d60008051602061196a833981519152546001600160a01b031690565b6001600160a01b031614155b156109885760405163703e46dd60e11b815260040160405180910390fd5b610e54611145565b816001600160a01b03166352d1902d6040518163ffffffff1660e01b8152600401602060405180830381865afa925050508015611099575060408051601f3d908101601f1916820190925261109691810190611934565b60015b6110c157604051634c9c8ce360e01b81526001600160a01b038316600482015260240161061a565b60008051602061196a83398151915281146110f257604051632a87526960e21b81526004810182905260240161061a565b6107af8383611293565b306001600160a01b037f000000000000000000000000000000000000000000000000000000000000000016146109885760405163703e46dd60e11b815260040160405180910390fd5b336111777f9016d09d72d40fdae2fd8ceac6b6234c7706214fd39c1cd1e609a0528c199300546001600160a01b031690565b6001600160a01b0316146109885760405163118cdaa760e01b815233600482015260240161061a565b7f9016d09d72d40fdae2fd8ceac6b6234c7706214fd39c1cd1e609a0528c19930080546001600160a01b031981166001600160a01b03848116918217845560405192169182907f8be0079c531659141344cd1fd0a4f28419497f9722a3daafe3b4186f6b6457e090600090a3505050565b6112196112e9565b61122233611332565b610988611343565b60008082600181111561123f5761123f6117d0565b0361124b575081610f8b565b60006112578585610ebb565b90506001600160a01b0381166105d357604051631003b1a960e31b81526001600160a01b0380871660048301528516602482015260440161061a565b61129c8261134b565b6040516001600160a01b038316907fbc7cd75a20ee27fd9adebab32041f755214dbc6bffa90cc0225b39da2e5c2d3b90600090a28051156112e1576107af82826113b0565b610955611426565b7ff0c57e16840df040f15088dc2f81fe391c3923bec73e23a9662efc9c229c6a0054600160401b900460ff1661098857604051631afcd79f60e31b815260040160405180910390fd5b61133a6112e9565b610e5481611445565b6109886112e9565b806001600160a01b03163b60000361138157604051634c9c8ce360e01b81526001600160a01b038216600482015260240161061a565b60008051602061196a83398151915280546001600160a01b0319166001600160a01b0392909216919091179055565b6060600080846001600160a01b0316846040516113cd919061194d565b600060405180830381855af49150503d8060008114611408576040519150601f19603f3d011682016040523d82523d6000602084013e61140d565b606091505b509150915061141d85838361144d565b95945050505050565b34156109885760405163b398979f60e01b815260040160405180910390fd5b610e216112e9565b6060826114625761145d826114a9565b610f8b565b815115801561147957506001600160a01b0384163b155b156114a257604051639996b31560e01b81526001600160a01b038516600482015260240161061a565b5080610f8b565b8051156114b95780518082602001fd5b60405163d6bda27560e01b815260040160405180910390fd5b6001600160a01b0381168114610e5457600080fd5b600080600080608085870312156114fd57600080fd5b8435611508816114d2565b93506020850135611518816114d2565b925060408501359150606085013561152f816114d2565b939692955090935050565b60006020828403121561154c57600080fd5b8135610f8b816114d2565b60005b8381101561157257818101518382015260200161155a565b50506000910152565b602081526000825180602084015261159a816040850160208701611557565b601f01601f19169190910160400192915050565b6000806000606084860312156115c357600080fd5b83356115ce816114d2565b925060208401356115de816114d2565b929592945050506040919091013590565b6000806040838503121561160257600080fd5b823561160d816114d2565b9150602083013561161d816114d2565b809150509250929050565b6000806040838503121561163b57600080fd5b8235611646816114d2565b946020939093013593505050565b80356002811061166357600080fd5b919050565b60008060006040848603121561167d57600080fd5b833567ffffffffffffffff81111561169457600080fd5b8401601f810186136116a557600080fd5b803567ffffffffffffffff8111156116bc57600080fd5b8660208260051b84010111156116d157600080fd5b6020918201945092506116e5908501611654565b90509250925092565b634e487b7160e01b600052604160045260246000fd5b6000806040838503121561171757600080fd5b8235611722816114d2565b9150602083013567ffffffffffffffff81111561173e57600080fd5b8301601f8101851361174f57600080fd5b803567ffffffffffffffff811115611769576117696116ee565b604051601f8201601f19908116603f0116810167ffffffffffffffff81118282101715611798576117986116ee565b6040528181528282016020018710156117b057600080fd5b816020840160208301376000602083830101528093505050509250929050565b634e487b7160e01b600052602160045260246000fd5b6003811061180457634e487b7160e01b600052602160045260246000fd5b9052565b6020810161076a82846117e6565b6000806040838503121561182957600080fd5b8235611834816114d2565b915061184260208401611654565b90509250929050565b60006020828403121561185d57600080fd5b813560038110610f8b57600080fd5b6020808252601e908201527f6f6e6c7920626f756e6420636f6d706c69616e63652063616e2063616c6c0000604082015260600190565b60208082526021908201527f6f6e6c7920636f6d706c69616e636520636f6e74726163742063616e2063616c6040820152601b60fa1b606082015260800190565b634e487b7160e01b600052603260045260246000fd5b6001600160a01b038316815260408101610f8b60208301846117e6565b60006020828403121561192957600080fd5b8151610f8b816114d2565b60006020828403121561194657600080fd5b5051919050565b6000825161195f818460208701611557565b919091019291505056fe360894a13ba1a3210667c828492db98dca3e2076cc3735a920a3ca505d382bbcf6cc97de1266c180cd39f3b311632644143ce7873d2927755382ad4b39e8ae00a26469706673582212206e4eae44ae2d78317a29e648c414f9804af0c5e6ed3bbaa6912f25ad87bfa61964736f6c634300081c0033","linkReferences":{}},"methodIdentifiers":{"UPGRADE_INTERFACE_VERSION()":"ad3cb1cc","batchListTokens(address[],uint8)":"37298f2a","batchUnlistTokens(address[],uint8)":"a599bf18","bindCompliance(address)":"4a932544","canComplianceBind(address)":"bcc21053","configureToken(uint8)":"b94ce674","getInvestorListingStatus(address,address)":"3697b04b","getTokenListingType(address)":"6ce21a48","initialize()":"8129fc1c","isComplianceBound(address)":"4cf4d295","isPlugAndPlay()":"e6f5e807","listToken(address,uint8)":"afb0bd6b","moduleBurnAction(address,uint256)":"372491a2","moduleCheck(address,address,uint256,address)":"013b7ce4","moduleMintAction(address,uint256)":"f104a8c9","moduleTransferAction(address,address,uint256)":"2cb7e1ec","name()":"06fdde03","owner()":"8da5cb5b","proxiableUUID()":"52d1902d","renounceOwnership()":"715018a6","transferOwnership(address)":"f2fde38b","unbindCompliance(address)":"0694a5fb","unlistToken(address,uint8)":"8d904d31","upgradeToAndCall(address,bytes)":"4f1ef286"},"id":43}