{"abi":[{"type":"function","name":"UPGRADE_INTERFACE_VERSION","inputs":[],"outputs":[{"name":"","type":"string","internalType":"string"}],"stateMutability":"view"},{"type":"function","name":"addAllowedCountry","inputs":[{"name":"_country","type":"uint16","internalType":"uint16"}],"outputs":[],"stateMutability":"nonpayable"},{"type":"function","name":"batchAllowCountries","inputs":[{"name":"_countries","type":"uint16[]","internalType":"uint16[]"}],"outputs":[],"stateMutability":"nonpayable"},{"type":"function","name":"batchDisallowCountries","inputs":[{"name":"_countries","type":"uint16[]","internalType":"uint16[]"}],"outputs":[],"stateMutability":"nonpayable"},{"type":"function","name":"bindCompliance","inputs":[{"name":"_compliance","type":"address","internalType":"address"}],"outputs":[],"stateMutability":"nonpayable"},{"type":"function","name":"canComplianceBind","inputs":[{"name":"","type":"address","internalType":"address"}],"outputs":[{"name":"","type":"bool","internalType":"bool"}],"stateMutability":"view"},{"type":"function","name":"getNewField","inputs":[],"outputs":[{"name":"","type":"uint256","internalType":"uint256"}],"stateMutability":"view"},{"type":"function","name":"initialize","inputs":[],"outputs":[],"stateMutability":"nonpayable"},{"type":"function","name":"isComplianceBound","inputs":[{"name":"_compliance","type":"address","internalType":"address"}],"outputs":[{"name":"","type":"bool","internalType":"bool"}],"stateMutability":"view"},{"type":"function","name":"isCountryAllowed","inputs":[{"name":"_compliance","type":"address","internalType":"address"},{"name":"_country","type":"uint16","internalType":"uint16"}],"outputs":[{"name":"","type":"bool","internalType":"bool"}],"stateMutability":"view"},{"type":"function","name":"isPlugAndPlay","inputs":[],"outputs":[{"name":"","type":"bool","internalType":"bool"}],"stateMutability":"pure"},{"type":"function","name":"moduleBurnAction","inputs":[{"name":"_from","type":"address","internalType":"address"},{"name":"_value","type":"uint256","internalType":"uint256"}],"outputs":[],"stateMutability":"nonpayable"},{"type":"function","name":"moduleCheck","inputs":[{"name":"","type":"address","internalType":"address"},{"name":"_to","type":"address","internalType":"address"},{"name":"","type":"uint256","internalType":"uint256"},{"name":"_compliance","type":"address","internalType":"address"}],"outputs":[{"name":"","type":"bool","internalType":"bool"}],"stateMutability":"view"},{"type":"function","name":"moduleMintAction","inputs":[{"name":"_to","type":"address","internalType":"address"},{"name":"_value","type":"uint256","internalType":"uint256"}],"outputs":[],"stateMutability":"nonpayable"},{"type":"function","name":"moduleTransferAction","inputs":[{"name":"_from","type":"address","internalType":"address"},{"name":"_to","type":"address","internalType":"address"},{"name":"_value","type":"uint256","internalType":"uint256"}],"outputs":[],"stateMutability":"nonpayable"},{"type":"function","name":"name","inputs":[],"outputs":[{"name":"_name","type":"string","internalType":"string"}],"stateMutability":"pure"},{"type":"function","name":"owner","inputs":[],"outputs":[{"name":"","type":"address","internalType":"address"}],"stateMutability":"view"},{"type":"function","name":"proxiableUUID","inputs":[],"outputs":[{"name":"","type":"bytes32","internalType":"bytes32"}],"stateMutability":"view"},{"type":"function","name":"removeAllowedCountry","inputs":[{"name":"_country","type":"uint16","internalType":"uint16"}],"outputs":[],"stateMutability":"nonpayable"},{"type":"function","name":"renounceOwnership","inputs":[],"outputs":[],"stateMutability":"nonpayable"},{"type":"function","name":"setNewField","inputs":[{"name":"value","type":"uint256","internalType":"uint256"}],"outputs":[],"stateMutability":"nonpayable"},{"type":"function","name":"transferOwnership","inputs":[{"name":"newOwner","type":"address","internalType":"address"}],"outputs":[],"stateMutability":"nonpayable"},{"type":"function","name":"unbindCompliance","inputs":[{"name":"_compliance","type":"address","internalType":"address"}],"outputs":[],"stateMutability":"nonpayable"},{"type":"function","name":"upgradeToAndCall","inputs":[{"name":"newImplementation","type":"address","internalType":"address"},{"name":"data","type":"bytes","internalType":"bytes"}],"outputs":[],"stateMutability":"payable"},{"type":"event","name":"ComplianceBound","inputs":[{"name":"_compliance","type":"address","indexed":true,"internalType":"address"}],"anonymous":false},{"type":"event","name":"ComplianceUnbound","inputs":[{"name":"_compliance","type":"address","indexed":true,"internalType":"address"}],"anonymous":false},{"type":"event","name":"CountryAllowed","inputs":[{"name":"_compliance","type":"address","indexed":false,"internalType":"address"},{"name":"_country","type":"uint16","indexed":false,"internalType":"uint16"}],"anonymous":false},{"type":"event","name":"CountryUnallowed","inputs":[{"name":"_compliance","type":"address","indexed":false,"internalType":"address"},{"name":"_country","type":"uint16","indexed":false,"internalType":"uint16"}],"anonymous":false},{"type":"event","name":"Initialized","inputs":[{"name":"version","type":"uint64","indexed":false,"internalType":"uint64"}],"anonymous":false},{"type":"event","name":"OwnershipTransferred","inputs":[{"name":"previousOwner","type":"address","indexed":true,"internalType":"address"},{"name":"newOwner","type":"address","indexed":true,"internalType":"address"}],"anonymous":false},{"type":"event","name":"Upgraded","inputs":[{"name":"implementation","type":"address","indexed":true,"internalType":"address"}],"anonymous":false},{"type":"error","name":"AddressEmptyCode","inputs":[{"name":"target","type":"address","internalType":"address"}]},{"type":"error","name":"CountryAlreadyAllowed","inputs":[{"name":"_compliance","type":"address","internalType":"address"},{"name":"_country","type":"uint16","internalType":"uint16"}]},{"type":"error","name":"CountryNotAllowed","inputs":[{"name":"_compliance","type":"address","internalType":"address"},{"name":"_country","type":"uint16","internalType":"uint16"}]},{"type":"error","name":"ERC1967InvalidImplementation","inputs":[{"name":"implementation","type":"address","internalType":"address"}]},{"type":"error","name":"ERC1967NonPayable","inputs":[]},{"type":"error","name":"FailedCall","inputs":[]},{"type":"error","name":"InvalidInitialization","inputs":[]},{"type":"error","name":"NotInitializing","inputs":[]},{"type":"error","name":"OwnableInvalidOwner","inputs":[{"name":"owner","type":"address","internalType":"address"}]},{"type":"error","name":"OwnableUnauthorizedAccount","inputs":[{"name":"account","type":"address","internalType":"address"}]},{"type":"error","name":"UUPSUnauthorizedCallContext","inputs":[]},{"type":"error","name":"UUPSUnsupportedProxiableUUID","inputs":[{"name":"slot","type":"bytes32","internalType":"bytes32"}]}],"bytecode":{"object":"0x60a060405230608052348015601357600080fd5b5060805161182d61003d60003960008181610eb001528181610ed9015261101a015261182d6000f3fe60806040526004361061014b5760003560e01c8063715018a6116100b6578063bcc210531161006f578063bcc2105314610428578063c08e150214610449578063d68b52d614610469578063e6f5e80714610489578063f104a8c914610255578063f2fde38b1461049d57600080fd5b8063715018a614610346578063771c52811461035b5780638129fc1c1461037b578063817544c3146103905780638da5cb5b146103b0578063ad3cb1cc146103f757600080fd5b80634a932544116101085780634a932544146102755780634cf4d295146102955780634f1ef286146102db5780634f44425e146102ee57806352d1902d1461030e578063562a1f431461033157600080fd5b8063013b7ce4146101505780630694a5fb1461018557806306fdde03146101a75780630f4f0904146101eb5780632cb7e1ec14610235578063372491a214610255575b600080fd5b34801561015c57600080fd5b5061017061016b366004611391565b6104bd565b60405190151581526020015b60405180910390f35b34801561019157600080fd5b506101a56101a03660046113e4565b610500565b005b3480156101b357600080fd5b50604080518082019091526012815271436f756e747279416c6c6f774d6f64756c6560701b60208201525b60405161017c9190611425565b3480156101f757600080fd5b50610170610206366004611468565b6001600160a01b03821660009081526020818152604080832061ffff8516845290915290205460ff1692915050565b34801561024157600080fd5b506101a56102503660046114a1565b610620565b34801561026157600080fd5b506101a56102703660046114e2565b610665565b34801561028157600080fd5b506101a56102903660046113e4565b6106a9565b3480156102a157600080fd5b506101706102b03660046113e4565b6001600160a01b031660009081526000805160206117d8833981519152602052604090205460ff1690565b6101a56102e9366004611524565b6107ec565b3480156102fa57600080fd5b506101a56103093660046115f0565b61080b565b34801561031a57600080fd5b506103236108f3565b60405190815260200161017c565b34801561033d57600080fd5b50600154610323565b34801561035257600080fd5b506101a5610910565b34801561036757600080fd5b506101a561037636600461160d565b610924565b34801561038757600080fd5b506101a5610a31565b34801561039c57600080fd5b506101a56103ab3660046115f0565b610b3f565b3480156103bc57600080fd5b507f9016d09d72d40fdae2fd8ceac6b6234c7706214fd39c1cd1e609a0528c199300546040516001600160a01b03909116815260200161017c565b34801561040357600080fd5b506101de604051806040016040528060058152602001640352e302e360dc1b81525081565b34801561043457600080fd5b506101706104433660046113e4565b50600190565b34801561045557600080fd5b506101a561046436600461160d565b610c17565b34801561047557600080fd5b506101a5610484366004611684565b610d22565b34801561049557600080fd5b506001610170565b3480156104a957600080fd5b506101a56104b83660046113e4565b610d2f565b6000806104ca8386610d6d565b6001600160a01b03841660009081526020818152604080832061ffff8516845290915290205490915060ff169695505050505050565b3360009081526000805160206117d8833981519152602081905260409091205460ff166105485760405162461bcd60e51b815260040161053f9061169d565b60405180910390fd5b6000805160206117d88339815191526001600160a01b0383166105ad5760405162461bcd60e51b815260206004820152601f60248201527f696e76616c696420617267756d656e74202d207a65726f206164647265737300604482015260640161053f565b336001600160a01b038416146105d55760405162461bcd60e51b815260040161053f906116d4565b6001600160a01b038316600081815260208390526040808220805460ff19169055517f408b49d9be1c914c52a0227e18a077e5a892dddf32a26cfa94a5d9708fad77189190a2505050565b3360009081526000805160206117d8833981519152602081905260409091205460ff1661065f5760405162461bcd60e51b815260040161053f9061169d565b50505050565b3360009081526000805160206117d8833981519152602081905260409091205460ff166106a45760405162461bcd60e51b815260040161053f9061169d565b505050565b6000805160206117d88339815191526001600160a01b03821661070e5760405162461bcd60e51b815260206004820152601f60248201527f696e76616c696420617267756d656e74202d207a65726f206164647265737300604482015260640161053f565b6001600160a01b03821660009081526020829052604090205460ff16156107775760405162461bcd60e51b815260206004820152601860248201527f636f6d706c69616e636520616c726561647920626f756e640000000000000000604482015260640161053f565b336001600160a01b0383161461079f5760405162461bcd60e51b815260040161053f906116d4565b6001600160a01b038216600081815260208390526040808220805460ff19166001179055517f1f7b76c58fb697eb53c6c7c1becb96911516a136e24d7ced386b2355358b75a39190a25050565b6107f4610ea5565b6107fd82610f4a565b6108078282610f52565b5050565b3360009081526000805160206117d8833981519152602081905260409091205460ff1661084a5760405162461bcd60e51b815260040161053f9061169d565b3360009081526020818152604080832061ffff8616845290915290205460ff16151560010361089057338260405163af6d613560e01b815260040161053f929190611715565b3360008181526020818152604080832061ffff8716845290915290819020805460ff19166001179055517f48c279381632bf87fca2680865a7384b6eb20716fd96b882b305a2198930a074916108e7918590611715565b60405180910390a15050565b60006108fd61100f565b506000805160206117b883398151915290565b610918611058565b61092260006110b3565b565b3360009081526000805160206117d8833981519152602081905260409091205460ff166109635760405162461bcd60e51b815260040161053f9061169d565b60005b8281101561065f5733600090815260208190526040812060019186868581811061099257610992611732565b90506020020160208101906109a791906115f0565b61ffff1681526020810191909152604001600020805460ff19169115159190911790557f48c279381632bf87fca2680865a7384b6eb20716fd96b882b305a2198930a074338585848181106109fe576109fe611732565b9050602002016020810190610a1391906115f0565b604051610a21929190611715565b60405180910390a1600101610966565b7ff0c57e16840df040f15088dc2f81fe391c3923bec73e23a9662efc9c229c6a008054600160401b810460ff16159067ffffffffffffffff16600081158015610a775750825b905060008267ffffffffffffffff166001148015610a945750303b155b905081158015610aa2575080155b15610ac05760405163f92ee8a960e01b815260040160405180910390fd5b845467ffffffffffffffff191660011785558315610aea57845460ff60401b1916600160401b1785555b610af2611124565b8315610b3857845460ff60401b19168555604051600181527fc7f505b2f371ae2175ee4913f4499e1f2633a7b5936321eed1cdaeb6115181d29060200160405180910390a15b5050505050565b3360009081526000805160206117d8833981519152602081905260409091205460ff16610b7e5760405162461bcd60e51b815260040161053f9061169d565b3360009081526020818152604080832061ffff8616845290915281205460ff1615159003610bc357338260405163236a687560e11b815260040161053f929190611715565b3360008181526020818152604080832061ffff8716845290915290819020805460ff19169055517f35c7374bcb82f2355cb703c8ab6162f87fe83b99618bdb78c6d19b07ddf060a2916108e7918590611715565b3360009081526000805160206117d8833981519152602081905260409091205460ff16610c565760405162461bcd60e51b815260040161053f9061169d565b60005b8281101561065f5733600090815260208190526040812081868685818110610c8357610c83611732565b9050602002016020810190610c9891906115f0565b61ffff1681526020810191909152604001600020805460ff19169115159190911790557f35c7374bcb82f2355cb703c8ab6162f87fe83b99618bdb78c6d19b07ddf060a233858584818110610cef57610cef611732565b9050602002016020810190610d0491906115f0565b604051610d12929190611715565b60405180910390a1600101610c59565b610d2a611058565b600155565b610d37611058565b6001600160a01b038116610d6157604051631e4fbdf760e01b81526000600482015260240161053f565b610d6a816110b3565b50565b6000826001600160a01b0316636a3edf286040518163ffffffff1660e01b8152600401602060405180830381865afa158015610dad573d6000803e3d6000fd5b505050506040513d601f19601f82011682018060405250810190610dd19190611748565b6001600160a01b031663134e18f46040518163ffffffff1660e01b8152600401602060405180830381865afa158015610e0e573d6000803e3d6000fd5b505050506040513d601f19601f82011682018060405250810190610e329190611748565b604051637e42683b60e01b81526001600160a01b0384811660048301529190911690637e42683b90602401602060405180830381865afa158015610e7a573d6000803e3d6000fd5b505050506040513d601f19601f82011682018060405250810190610e9e9190611765565b9392505050565b306001600160a01b037f0000000000000000000000000000000000000000000000000000000000000000161480610f2c57507f00000000000000000000000000000000000000000000000000000000000000006001600160a01b0316610f206000805160206117b8833981519152546001600160a01b031690565b6001600160a01b031614155b156109225760405163703e46dd60e11b815260040160405180910390fd5b610d6a611058565b816001600160a01b03166352d1902d6040518163ffffffff1660e01b8152600401602060405180830381865afa925050508015610fac575060408051601f3d908101601f19168201909252610fa991810190611782565b60015b610fd457604051634c9c8ce360e01b81526001600160a01b038316600482015260240161053f565b6000805160206117b8833981519152811461100557604051632a87526960e21b81526004810182905260240161053f565b6106a4838361113d565b306001600160a01b037f000000000000000000000000000000000000000000000000000000000000000016146109225760405163703e46dd60e11b815260040160405180910390fd5b3361108a7f9016d09d72d40fdae2fd8ceac6b6234c7706214fd39c1cd1e609a0528c199300546001600160a01b031690565b6001600160a01b0316146109225760405163118cdaa760e01b815233600482015260240161053f565b7f9016d09d72d40fdae2fd8ceac6b6234c7706214fd39c1cd1e609a0528c19930080546001600160a01b031981166001600160a01b03848116918217845560405192169182907f8be0079c531659141344cd1fd0a4f28419497f9722a3daafe3b4186f6b6457e090600090a3505050565b61112c611193565b611135336111dc565b6109226111ed565b611146826111f5565b6040516001600160a01b038316907fbc7cd75a20ee27fd9adebab32041f755214dbc6bffa90cc0225b39da2e5c2d3b90600090a280511561118b576106a4828261125a565b6108076112d0565b7ff0c57e16840df040f15088dc2f81fe391c3923bec73e23a9662efc9c229c6a0054600160401b900460ff1661092257604051631afcd79f60e31b815260040160405180910390fd5b6111e4611193565b610d6a816112ef565b610922611193565b806001600160a01b03163b60000361122b57604051634c9c8ce360e01b81526001600160a01b038216600482015260240161053f565b6000805160206117b883398151915280546001600160a01b0319166001600160a01b0392909216919091179055565b6060600080846001600160a01b031684604051611277919061179b565b600060405180830381855af49150503d80600081146112b2576040519150601f19603f3d011682016040523d82523d6000602084013e6112b7565b606091505b50915091506112c78583836112f7565b95945050505050565b34156109225760405163b398979f60e01b815260040160405180910390fd5b610d37611193565b60608261130c5761130782611353565b610e9e565b815115801561132357506001600160a01b0384163b155b1561134c57604051639996b31560e01b81526001600160a01b038516600482015260240161053f565b5092915050565b8051156113635780518082602001fd5b60405163d6bda27560e01b815260040160405180910390fd5b6001600160a01b0381168114610d6a57600080fd5b600080600080608085870312156113a757600080fd5b84356113b28161137c565b935060208501356113c28161137c565b92506040850135915060608501356113d98161137c565b939692955090935050565b6000602082840312156113f657600080fd5b8135610e9e8161137c565b60005b8381101561141c578181015183820152602001611404565b50506000910152565b6020815260008251806020840152611444816040850160208701611401565b601f01601f19169190910160400192915050565b61ffff81168114610d6a57600080fd5b6000806040838503121561147b57600080fd5b82356114868161137c565b9150602083013561149681611458565b809150509250929050565b6000806000606084860312156114b657600080fd5b83356114c18161137c565b925060208401356114d18161137c565b929592945050506040919091013590565b600080604083850312156114f557600080fd5b82356115008161137c565b946020939093013593505050565b634e487b7160e01b600052604160045260246000fd5b6000806040838503121561153757600080fd5b82356115428161137c565b9150602083013567ffffffffffffffff81111561155e57600080fd5b8301601f8101851361156f57600080fd5b803567ffffffffffffffff8111156115895761158961150e565b604051601f8201601f19908116603f0116810167ffffffffffffffff811182821017156115b8576115b861150e565b6040528181528282016020018710156115d057600080fd5b816020840160208301376000602083830101528093505050509250929050565b60006020828403121561160257600080fd5b8135610e9e81611458565b6000806020838503121561162057600080fd5b823567ffffffffffffffff81111561163757600080fd5b8301601f8101851361164857600080fd5b803567ffffffffffffffff81111561165f57600080fd5b8560208260051b840101111561167457600080fd5b6020919091019590945092505050565b60006020828403121561169657600080fd5b5035919050565b6020808252601e908201527f6f6e6c7920626f756e6420636f6d706c69616e63652063616e2063616c6c0000604082015260600190565b60208082526021908201527f6f6e6c7920636f6d706c69616e636520636f6e74726163742063616e2063616c6040820152601b60fa1b606082015260800190565b6001600160a01b0392909216825261ffff16602082015260400190565b634e487b7160e01b600052603260045260246000fd5b60006020828403121561175a57600080fd5b8151610e9e8161137c565b60006020828403121561177757600080fd5b8151610e9e81611458565b60006020828403121561179457600080fd5b5051919050565b600082516117ad818460208701611401565b919091019291505056fe360894a13ba1a3210667c828492db98dca3e2076cc3735a920a3ca505d382bbcf6cc97de1266c180cd39f3b311632644143ce7873d2927755382ad4b39e8ae00a2646970667358221220b8a7eaecee52a31b9e6a4d80a00c88dd6e1702a23d955e77f7f9d2b3e7de309164736f6c634300081c0033","linkReferences":{}},"methodIdentifiers":{"UPGRADE_INTERFACE_VERSION()":"ad3cb1cc","addAllowedCountry(uint16)":"4f44425e","batchAllowCountries(uint16[])":"771c5281","batchDisallowCountries(uint16[])":"c08e1502","bindCompliance(address)":"4a932544","canComplianceBind(address)":"bcc21053","getNewField()":"562a1f43","initialize()":"8129fc1c","isComplianceBound(address)":"4cf4d295","isCountryAllowed(address,uint16)":"0f4f0904","isPlugAndPlay()":"e6f5e807","moduleBurnAction(address,uint256)":"372491a2","moduleCheck(address,address,uint256,address)":"013b7ce4","moduleMintAction(address,uint256)":"f104a8c9","moduleTransferAction(address,address,uint256)":"2cb7e1ec","name()":"06fdde03","owner()":"8da5cb5b","proxiableUUID()":"52d1902d","removeAllowedCountry(uint16)":"817544c3","renounceOwnership()":"715018a6","setNewField(uint256)":"d68b52d6","transferOwnership(address)":"f2fde38b","unbindCompliance(address)":"0694a5fb","upgradeToAndCall(address,bytes)":"4f1ef286"},"id":7}