{"abi":[{"type":"function","name":"UPGRADE_INTERFACE_VERSION","inputs":[],"outputs":[{"name":"","type":"string","internalType":"string"}],"stateMutability":"view"},{"type":"function","name":"batchPreSetModuleState","inputs":[{"name":"_compliance","type":"address","internalType":"address"},{"name":"_id","type":"address[]","internalType":"address[]"},{"name":"_balance","type":"uint256[]","internalType":"uint256[]"}],"outputs":[],"stateMutability":"nonpayable"},{"type":"function","name":"bindCompliance","inputs":[{"name":"_compliance","type":"address","internalType":"address"}],"outputs":[],"stateMutability":"nonpayable"},{"type":"function","name":"canComplianceBind","inputs":[{"name":"_compliance","type":"address","internalType":"address"}],"outputs":[{"name":"","type":"bool","internalType":"bool"}],"stateMutability":"view"},{"type":"function","name":"getIDBalance","inputs":[{"name":"_compliance","type":"address","internalType":"address"},{"name":"_identity","type":"address","internalType":"address"}],"outputs":[{"name":"","type":"uint256","internalType":"uint256"}],"stateMutability":"view"},{"type":"function","name":"initialize","inputs":[],"outputs":[],"stateMutability":"nonpayable"},{"type":"function","name":"isComplianceBound","inputs":[{"name":"_compliance","type":"address","internalType":"address"}],"outputs":[{"name":"","type":"bool","internalType":"bool"}],"stateMutability":"view"},{"type":"function","name":"isPlugAndPlay","inputs":[],"outputs":[{"name":"","type":"bool","internalType":"bool"}],"stateMutability":"pure"},{"type":"function","name":"moduleBurnAction","inputs":[{"name":"_from","type":"address","internalType":"address"},{"name":"_value","type":"uint256","internalType":"uint256"}],"outputs":[],"stateMutability":"nonpayable"},{"type":"function","name":"moduleCheck","inputs":[{"name":"","type":"address","internalType":"address"},{"name":"_to","type":"address","internalType":"address"},{"name":"_value","type":"uint256","internalType":"uint256"},{"name":"_compliance","type":"address","internalType":"address"}],"outputs":[{"name":"","type":"bool","internalType":"bool"}],"stateMutability":"view"},{"type":"function","name":"moduleMintAction","inputs":[{"name":"_to","type":"address","internalType":"address"},{"name":"_value","type":"uint256","internalType":"uint256"}],"outputs":[],"stateMutability":"nonpayable"},{"type":"function","name":"moduleTransferAction","inputs":[{"name":"_from","type":"address","internalType":"address"},{"name":"_to","type":"address","internalType":"address"},{"name":"_value","type":"uint256","internalType":"uint256"}],"outputs":[],"stateMutability":"nonpayable"},{"type":"function","name":"name","inputs":[],"outputs":[{"name":"_name","type":"string","internalType":"string"}],"stateMutability":"pure"},{"type":"function","name":"owner","inputs":[],"outputs":[{"name":"","type":"address","internalType":"address"}],"stateMutability":"view"},{"type":"function","name":"preSetModuleState","inputs":[{"name":"_compliance","type":"address","internalType":"address"},{"name":"_id","type":"address","internalType":"address"},{"name":"_balance","type":"uint256","internalType":"uint256"}],"outputs":[],"stateMutability":"nonpayable"},{"type":"function","name":"presetCompleted","inputs":[{"name":"_compliance","type":"address","internalType":"address"}],"outputs":[],"stateMutability":"nonpayable"},{"type":"function","name":"proxiableUUID","inputs":[],"outputs":[{"name":"","type":"bytes32","internalType":"bytes32"}],"stateMutability":"view"},{"type":"function","name":"renounceOwnership","inputs":[],"outputs":[],"stateMutability":"nonpayable"},{"type":"function","name":"setMaxBalance","inputs":[{"name":"_max","type":"uint256","internalType":"uint256"}],"outputs":[],"stateMutability":"nonpayable"},{"type":"function","name":"transferOwnership","inputs":[{"name":"newOwner","type":"address","internalType":"address"}],"outputs":[],"stateMutability":"nonpayable"},{"type":"function","name":"unbindCompliance","inputs":[{"name":"_compliance","type":"address","internalType":"address"}],"outputs":[],"stateMutability":"nonpayable"},{"type":"function","name":"upgradeToAndCall","inputs":[{"name":"newImplementation","type":"address","internalType":"address"},{"name":"data","type":"bytes","internalType":"bytes"}],"outputs":[],"stateMutability":"payable"},{"type":"event","name":"ComplianceBound","inputs":[{"name":"_compliance","type":"address","indexed":true,"internalType":"address"}],"anonymous":false},{"type":"event","name":"ComplianceUnbound","inputs":[{"name":"_compliance","type":"address","indexed":true,"internalType":"address"}],"anonymous":false},{"type":"event","name":"IDBalancePreSet","inputs":[{"name":"_compliance","type":"address","indexed":true,"internalType":"address"},{"name":"_id","type":"address","indexed":true,"internalType":"address"},{"name":"_balance","type":"uint256","indexed":false,"internalType":"uint256"}],"anonymous":false},{"type":"event","name":"Initialized","inputs":[{"name":"version","type":"uint64","indexed":false,"internalType":"uint64"}],"anonymous":false},{"type":"event","name":"MaxBalanceSet","inputs":[{"name":"_compliance","type":"address","indexed":true,"internalType":"address"},{"name":"_maxBalance","type":"uint256","indexed":true,"internalType":"uint256"}],"anonymous":false},{"type":"event","name":"OwnershipTransferred","inputs":[{"name":"previousOwner","type":"address","indexed":true,"internalType":"address"},{"name":"newOwner","type":"address","indexed":true,"internalType":"address"}],"anonymous":false},{"type":"event","name":"PresetCompleted","inputs":[{"name":"_compliance","type":"address","indexed":true,"internalType":"address"}],"anonymous":false},{"type":"event","name":"Upgraded","inputs":[{"name":"implementation","type":"address","indexed":true,"internalType":"address"}],"anonymous":false},{"type":"error","name":"AddressEmptyCode","inputs":[{"name":"target","type":"address","internalType":"address"}]},{"type":"error","name":"ERC1967InvalidImplementation","inputs":[{"name":"implementation","type":"address","internalType":"address"}]},{"type":"error","name":"ERC1967NonPayable","inputs":[]},{"type":"error","name":"FailedCall","inputs":[]},{"type":"error","name":"InvalidInitialization","inputs":[]},{"type":"error","name":"InvalidPresetValues","inputs":[{"name":"_compliance","type":"address","internalType":"address"},{"name":"_id","type":"address[]","internalType":"address[]"},{"name":"_balance","type":"uint256[]","internalType":"uint256[]"}]},{"type":"error","name":"MaxBalanceExceeded","inputs":[{"name":"_compliance","type":"address","internalType":"address"},{"name":"_value","type":"uint256","internalType":"uint256"}]},{"type":"error","name":"NotInitializing","inputs":[]},{"type":"error","name":"OnlyComplianceOwnerCanCall","inputs":[{"name":"_compliance","type":"address","internalType":"address"}]},{"type":"error","name":"OwnableInvalidOwner","inputs":[{"name":"owner","type":"address","internalType":"address"}]},{"type":"error","name":"OwnableUnauthorizedAccount","inputs":[{"name":"account","type":"address","internalType":"address"}]},{"type":"error","name":"TokenAlreadyBound","inputs":[{"name":"_compliance","type":"address","internalType":"address"}]},{"type":"error","name":"UUPSUnauthorizedCallContext","inputs":[]},{"type":"error","name":"UUPSUnsupportedProxiableUUID","inputs":[{"name":"slot","type":"bytes32","internalType":"bytes32"}]}],"bytecode":{"object":"0x60a060405230608052348015601357600080fd5b50608051611db261003d600039600081816112f10152818161131a015261145b0152611db26000f3fe6080604052600436106101355760003560e01c80638da5cb5b116100ab578063cc203f751161006f578063cc203f75146103b1578063dd50b74c146103d1578063e6f5e807146103f1578063f104a8c914610405578063f2fde38b14610425578063f7c4722c1461044557600080fd5b80638da5cb5b146102d95780638f27c0eb146103205780639d51d9b714610340578063ad3cb1cc14610360578063bcc210531461039157600080fd5b80634a932544116100fd5780634a932544146102135780634cf4d295146102335780634f1ef2861461027957806352d1902d1461028c578063715018a6146102af5780638129fc1c146102c457600080fd5b8063013b7ce41461013a5780630694a5fb1461016f57806306fdde03146101915780632cb7e1ec146101d3578063372491a2146101f3575b600080fd5b34801561014657600080fd5b5061015a610155366004611833565b610465565b60405190151581526020015b60405180910390f35b34801561017b57600080fd5b5061018f61018a366004611886565b6104f6565b005b34801561019d57600080fd5b5060408051808201909152601081526f4d617842616c616e63654d6f64756c6560801b60208201525b60405161016691906118c7565b3480156101df57600080fd5b5061018f6101ee3660046118fa565b610616565b3480156101ff57600080fd5b5061018f61020e36600461193b565b610741565b34801561021f57600080fd5b5061018f61022e366004611886565b6107cf565b34801561023f57600080fd5b5061015a61024e366004611886565b6001600160a01b03166000908152600080516020611d5d833981519152602052604090205460ff1690565b61018f61028736600461197d565b610912565b34801561029857600080fd5b506102a1610931565b604051908152602001610166565b3480156102bb57600080fd5b5061018f61094e565b3480156102d057600080fd5b5061018f610962565b3480156102e557600080fd5b507f9016d09d72d40fdae2fd8ceac6b6234c7706214fd39c1cd1e609a0528c199300546040516001600160a01b039091168152602001610166565b34801561032c57600080fd5b5061018f61033b366004611a95565b610a70565b34801561034c57600080fd5b5061018f61035b366004611b1d565b610c5b565b34801561036c57600080fd5b506101c6604051806040016040528060058152602001640352e302e360dc1b81525081565b34801561039d57600080fd5b5061015a6103ac366004611886565b610cd8565b3480156103bd57600080fd5b506102a16103cc366004611b36565b610de9565b3480156103dd57600080fd5b5061018f6103ec366004611886565b610e16565b3480156103fd57600080fd5b50600061015a565b34801561041157600080fd5b5061018f61042036600461193b565b610f00565b34801561043157600080fd5b5061018f610440366004611886565b610fe3565b34801561045157600080fd5b5061018f6104603660046118fa565b611021565b6001600160a01b03811660009081526001602052604081205483111561048d575060006104ee565b60006104998386611160565b6001600160a01b0380851660009081526001602090815260408083205460028352818420948616845293909152902054919250906104d8908690611b85565b11156104e85760009150506104ee565b60019150505b949350505050565b336000908152600080516020611d5d833981519152602081905260409091205460ff1661053e5760405162461bcd60e51b815260040161053590611b98565b60405180910390fd5b600080516020611d5d8339815191526001600160a01b0383166105a35760405162461bcd60e51b815260206004820152601f60248201527f696e76616c696420617267756d656e74202d207a65726f2061646472657373006044820152606401610535565b336001600160a01b038416146105cb5760405162461bcd60e51b815260040161053590611bcf565b6001600160a01b038316600081815260208390526040808220805460ff19169055517f408b49d9be1c914c52a0227e18a077e5a892dddf32a26cfa94a5d9708fad77189190a2505050565b336000908152600080516020611d5d833981519152602081905260409091205460ff166106555760405162461bcd60e51b815260040161053590611b98565b60006106613386611160565b9050600061066f3386611160565b3360009081526002602090815260408083206001600160a01b03851684529091528120805492935086929091906106a7908490611b85565b90915550503360009081526002602090815260408083206001600160a01b0386168452909152812080548692906106df908490611c10565b909155505033600090815260016020908152604080832054600283528184206001600160a01b038616855290925290912054111561073957604051630d9ada5960e21b815233600482015260248101859052604401610535565b505050505050565b336000908152600080516020611d5d833981519152602081905260409091205460ff166107805760405162461bcd60e51b815260040161053590611b98565b600061078c3385611160565b3360009081526002602090815260408083206001600160a01b03851684529091528120805492935085929091906107c4908490611c10565b909155505050505050565b600080516020611d5d8339815191526001600160a01b0382166108345760405162461bcd60e51b815260206004820152601f60248201527f696e76616c696420617267756d656e74202d207a65726f2061646472657373006044820152606401610535565b6001600160a01b03821660009081526020829052604090205460ff161561089d5760405162461bcd60e51b815260206004820152601860248201527f636f6d706c69616e636520616c726561647920626f756e6400000000000000006044820152606401610535565b336001600160a01b038316146108c55760405162461bcd60e51b815260040161053590611bcf565b6001600160a01b038216600081815260208390526040808220805460ff19166001179055517f1f7b76c58fb697eb53c6c7c1becb96911516a136e24d7ced386b2355358b75a39190a25050565b61091a6112e6565b6109238261138b565b61092d8282611393565b5050565b600061093b611450565b50600080516020611d3d83398151915290565b610956611499565b61096060006114f4565b565b7ff0c57e16840df040f15088dc2f81fe391c3923bec73e23a9662efc9c229c6a008054600160401b810460ff16159067ffffffffffffffff166000811580156109a85750825b905060008267ffffffffffffffff1660011480156109c55750303b155b9050811580156109d3575080155b156109f15760405163f92ee8a960e01b815260040160405180910390fd5b845467ffffffffffffffff191660011785558315610a1b57845460ff60401b1916600160401b1785555b610a23611565565b8315610a6957845460ff60401b19168555604051600181527fc7f505b2f371ae2175ee4913f4499e1f2633a7b5936321eed1cdaeb6115181d29060200160405180910390a15b5050505050565b821580610a7d5750828114155b15610aa557848484848460405163355c2bfd60e11b8152600401610535959493929190611c23565b336001600160a01b0316856001600160a01b0316638da5cb5b6040518163ffffffff1660e01b8152600401602060405180830381865afa158015610aed573d6000803e3d6000fd5b505050506040513d601f19601f82011682018060405250810190610b119190611cb2565b6001600160a01b031614610b435760405163e8649dab60e01b81526001600160a01b0386166004820152602401610535565b60405163a446d49f60e01b81523060048201526001600160a01b0386169063a446d49f90602401602060405180830381865afa158015610b87573d6000803e3d6000fd5b505050506040513d601f19601f82011682018060405250810190610bab9190611ccf565b15610bd45760405163346a0c0160e21b81526001600160a01b0386166004820152602401610535565b60005b83811015610c3057610c2886868684818110610bf557610bf5611cf1565b9050602002016020810190610c0a9190611886565b858585818110610c1c57610c1c611cf1565b9050602002013561157e565b600101610bd7565b5050506001600160a01b039092166000908152602081905260409020805460ff191660011790555050565b336000908152600080516020611d5d833981519152602081905260409091205460ff16610c9a5760405162461bcd60e51b815260040161053590611b98565b33600081815260016020526040808220859055518492917f8bec153ee727d17f3f63aa27cbb6bd64eb978b88821b30002a4b5517aeb10cec91a35050565b6001600160a01b03811660009081526020819052604081205460ff1615610d0157506001919050565b6000826001600160a01b0316636a3edf286040518163ffffffff1660e01b8152600401602060405180830381865afa158015610d41573d6000803e3d6000fd5b505050506040513d601f19601f82011682018060405250810190610d659190611cb2565b90506000816001600160a01b03166318160ddd6040518163ffffffff1660e01b8152600401602060405180830381865afa158015610da7573d6000803e3d6000fd5b505050506040513d601f19601f82011682018060405250810190610dcb9190611d07565b905080600003610ddf575060019392505050565b5060009392505050565b6001600160a01b038083166000908152600260209081526040808320938516835292905220545b92915050565b336001600160a01b0316816001600160a01b0316638da5cb5b6040518163ffffffff1660e01b8152600401602060405180830381865afa158015610e5e573d6000803e3d6000fd5b505050506040513d601f19601f82011682018060405250810190610e829190611cb2565b6001600160a01b031614610eb45760405163e8649dab60e01b81526001600160a01b0382166004820152602401610535565b6001600160a01b038116600081815260208190526040808220805460ff19166001179055517f40bfb91138c8514efd65a280ed9f436317a8e93584e42ef52b3b863e68bd500f9190a250565b336000908152600080516020611d5d833981519152602081905260409091205460ff16610f3f5760405162461bcd60e51b815260040161053590611b98565b6000610f4b3385611160565b3360009081526002602090815260408083206001600160a01b0385168452909152812080549293508592909190610f83908490611b85565b909155505033600090815260016020908152604080832054600283528184206001600160a01b0386168552909252909120541115610fdd57604051630d9ada5960e21b815233600482015260248101849052604401610535565b50505050565b610feb611499565b6001600160a01b03811661101557604051631e4fbdf760e01b815260006004820152602401610535565b61101e816114f4565b50565b336001600160a01b0316836001600160a01b0316638da5cb5b6040518163ffffffff1660e01b8152600401602060405180830381865afa158015611069573d6000803e3d6000fd5b505050506040513d601f19601f8201168201806040525081019061108d9190611cb2565b6001600160a01b0316146110bf5760405163e8649dab60e01b81526001600160a01b0384166004820152602401610535565b60405163a446d49f60e01b81523060048201526001600160a01b0384169063a446d49f90602401602060405180830381865afa158015611103573d6000803e3d6000fd5b505050506040513d601f19601f820116820180604052508101906111279190611ccf565b156111505760405163346a0c0160e21b81526001600160a01b0384166004820152602401610535565b61115b83838361157e565b505050565b600080836001600160a01b0316636a3edf286040518163ffffffff1660e01b8152600401602060405180830381865afa1580156111a1573d6000803e3d6000fd5b505050506040513d601f19601f820116820180604052508101906111c59190611cb2565b6001600160a01b031663134e18f46040518163ffffffff1660e01b8152600401602060405180830381865afa158015611202573d6000803e3d6000fd5b505050506040513d601f19601f820116820180604052508101906112269190611cb2565b604051633c3ad79560e21b81526001600160a01b038581166004830152919091169063f0eb5e5490602401602060405180830381865afa15801561126e573d6000803e3d6000fd5b505050506040513d601f19601f820116820180604052508101906112929190611cb2565b90506001600160a01b0381166112df5760405162461bcd60e51b81526020600482015260126024820152711a59195b9d1a5d1e481b9bdd08199bdd5b9960721b6044820152606401610535565b9392505050565b306001600160a01b037f000000000000000000000000000000000000000000000000000000000000000016148061136d57507f00000000000000000000000000000000000000000000000000000000000000006001600160a01b0316611361600080516020611d3d833981519152546001600160a01b031690565b6001600160a01b031614155b156109605760405163703e46dd60e11b815260040160405180910390fd5b61101e611499565b816001600160a01b03166352d1902d6040518163ffffffff1660e01b8152600401602060405180830381865afa9250505080156113ed575060408051601f3d908101601f191682019092526113ea91810190611d07565b60015b61141557604051634c9c8ce360e01b81526001600160a01b0383166004820152602401610535565b600080516020611d3d833981519152811461144657604051632a87526960e21b815260048101829052602401610535565b61115b83836115df565b306001600160a01b037f000000000000000000000000000000000000000000000000000000000000000016146109605760405163703e46dd60e11b815260040160405180910390fd5b336114cb7f9016d09d72d40fdae2fd8ceac6b6234c7706214fd39c1cd1e609a0528c199300546001600160a01b031690565b6001600160a01b0316146109605760405163118cdaa760e01b8152336004820152602401610535565b7f9016d09d72d40fdae2fd8ceac6b6234c7706214fd39c1cd1e609a0528c19930080546001600160a01b031981166001600160a01b03848116918217845560405192169182907f8be0079c531659141344cd1fd0a4f28419497f9722a3daafe3b4186f6b6457e090600090a3505050565b61156d611635565b6115763361167e565b61096061168f565b6001600160a01b0383811660008181526002602090815260408083209487168084529482529182902085905590518481527f0a777417e1c0a4b24c5f556b0c3dd522c37b99b2c3ca4bf9fea2fa1293c660c9910160405180910390a3505050565b6115e882611697565b6040516001600160a01b038316907fbc7cd75a20ee27fd9adebab32041f755214dbc6bffa90cc0225b39da2e5c2d3b90600090a280511561162d5761115b82826116fc565b61092d611772565b7ff0c57e16840df040f15088dc2f81fe391c3923bec73e23a9662efc9c229c6a0054600160401b900460ff1661096057604051631afcd79f60e31b815260040160405180910390fd5b611686611635565b61101e81611791565b610960611635565b806001600160a01b03163b6000036116cd57604051634c9c8ce360e01b81526001600160a01b0382166004820152602401610535565b600080516020611d3d83398151915280546001600160a01b0319166001600160a01b0392909216919091179055565b6060600080846001600160a01b0316846040516117199190611d20565b600060405180830381855af49150503d8060008114611754576040519150601f19603f3d011682016040523d82523d6000602084013e611759565b606091505b5091509150611769858383611799565b95945050505050565b34156109605760405163b398979f60e01b815260040160405180910390fd5b610feb611635565b6060826117ae576117a9826117f5565b6112df565b81511580156117c557506001600160a01b0384163b155b156117ee57604051639996b31560e01b81526001600160a01b0385166004820152602401610535565b5092915050565b8051156118055780518082602001fd5b60405163d6bda27560e01b815260040160405180910390fd5b6001600160a01b038116811461101e57600080fd5b6000806000806080858703121561184957600080fd5b84356118548161181e565b935060208501356118648161181e565b925060408501359150606085013561187b8161181e565b939692955090935050565b60006020828403121561189857600080fd5b81356112df8161181e565b60005b838110156118be5781810151838201526020016118a6565b50506000910152565b60208152600082518060208401526118e68160408501602087016118a3565b601f01601f19169190910160400192915050565b60008060006060848603121561190f57600080fd5b833561191a8161181e565b9250602084013561192a8161181e565b929592945050506040919091013590565b6000806040838503121561194e57600080fd5b82356119598161181e565b946020939093013593505050565b634e487b7160e01b600052604160045260246000fd5b6000806040838503121561199057600080fd5b823561199b8161181e565b9150602083013567ffffffffffffffff8111156119b757600080fd5b8301601f810185136119c857600080fd5b803567ffffffffffffffff8111156119e2576119e2611967565b604051601f8201601f19908116603f0116810167ffffffffffffffff81118282101715611a1157611a11611967565b604052818152828201602001871015611a2957600080fd5b816020840160208301376000602083830101528093505050509250929050565b60008083601f840112611a5b57600080fd5b50813567ffffffffffffffff811115611a7357600080fd5b6020830191508360208260051b8501011115611a8e57600080fd5b9250929050565b600080600080600060608688031215611aad57600080fd5b8535611ab88161181e565b9450602086013567ffffffffffffffff811115611ad457600080fd5b611ae088828901611a49565b909550935050604086013567ffffffffffffffff811115611b0057600080fd5b611b0c88828901611a49565b969995985093965092949392505050565b600060208284031215611b2f57600080fd5b5035919050565b60008060408385031215611b4957600080fd5b8235611b548161181e565b91506020830135611b648161181e565b809150509250929050565b634e487b7160e01b600052601160045260246000fd5b80820180821115610e1057610e10611b6f565b6020808252601e908201527f6f6e6c7920626f756e6420636f6d706c69616e63652063616e2063616c6c0000604082015260600190565b60208082526021908201527f6f6e6c7920636f6d706c69616e636520636f6e74726163742063616e2063616c6040820152601b60fa1b606082015260800190565b81810381811115610e1057610e10611b6f565b6001600160a01b0386168152606060208201819052810184905260008560808301825b87811015611c76578235611c598161181e565b6001600160a01b0316825260209283019290910190600101611c46565b5083810360408501528481526001600160fb1b03851115611c9657600080fd5b8460051b91508186602083013701602001979650505050505050565b600060208284031215611cc457600080fd5b81516112df8161181e565b600060208284031215611ce157600080fd5b815180151581146112df57600080fd5b634e487b7160e01b600052603260045260246000fd5b600060208284031215611d1957600080fd5b5051919050565b60008251611d328184602087016118a3565b919091019291505056fe360894a13ba1a3210667c828492db98dca3e2076cc3735a920a3ca505d382bbcf6cc97de1266c180cd39f3b311632644143ce7873d2927755382ad4b39e8ae00a2646970667358221220c4f0777d59ed6d664f2c70b848f7065f54410deeb368ddaad857387ddc7a634064736f6c634300081c0033","linkReferences":{}},"methodIdentifiers":{"UPGRADE_INTERFACE_VERSION()":"ad3cb1cc","batchPreSetModuleState(address,address[],uint256[])":"8f27c0eb","bindCompliance(address)":"4a932544","canComplianceBind(address)":"bcc21053","getIDBalance(address,address)":"cc203f75","initialize()":"8129fc1c","isComplianceBound(address)":"4cf4d295","isPlugAndPlay()":"e6f5e807","moduleBurnAction(address,uint256)":"372491a2","moduleCheck(address,address,uint256,address)":"013b7ce4","moduleMintAction(address,uint256)":"f104a8c9","moduleTransferAction(address,address,uint256)":"2cb7e1ec","name()":"06fdde03","owner()":"8da5cb5b","preSetModuleState(address,address,uint256)":"f7c4722c","presetCompleted(address)":"dd50b74c","proxiableUUID()":"52d1902d","renounceOwnership()":"715018a6","setMaxBalance(uint256)":"9d51d9b7","transferOwnership(address)":"f2fde38b","unbindCompliance(address)":"0694a5fb","upgradeToAndCall(address,bytes)":"4f1ef286"},"id":38}