{"abi":[{"type":"constructor","inputs":[{"name":"_implementationAuthority","type":"address","internalType":"address"},{"name":"_identityRegistry","type":"address","internalType":"address"},{"name":"_compliance","type":"address","internalType":"address"},{"name":"_name","type":"string","internalType":"string"},{"name":"_symbol","type":"string","internalType":"string"},{"name":"_decimals","type":"uint8","internalType":"uint8"},{"name":"_onchainID","type":"address","internalType":"address"}],"stateMutability":"nonpayable"},{"type":"fallback","stateMutability":"payable"},{"type":"function","name":"implementationAuthority","inputs":[],"outputs":[{"name":"","type":"address","internalType":"address"}],"stateMutability":"view"}],"bytecode":{"object":"0x608060405234801561001057600080fd5b5060405161059138038061059183398101604081905261002f9161028b565b600080546001600160a01b0319166001600160a01b03891690811782556040805163557887a160e11b8152905163aaf10f42916004808201926020929091908290030181865afa158015610087573d6000803e3d6000fd5b505050506040513d601f19601f820116820180604052508101906100ab9190610350565b90506000816001600160a01b03168888888888886040516024016100d49695949392919061039e565b60408051601f198184030181529181526020820180516001600160e01b0316633e46d86760e21b179052516101099190610403565b600060405180830381855af49150503d8060008114610144576040519150601f19603f3d011682016040523d82523d6000602084013e610149565b606091505b505090508061019e5760405162461bcd60e51b815260206004820152601660248201527f496e697469616c697a6174696f6e206661696c65642e00000000000000000000604482015260640160405180910390fd5b50505050505050505061041f565b80516001600160a01b03811681146101c357600080fd5b919050565b634e487b7160e01b600052604160045260246000fd5b60005b838110156101f95781810151838201526020016101e1565b50506000910152565b600082601f83011261021357600080fd5b81516001600160401b0381111561022c5761022c6101c8565b604051601f8201601f19908116603f011681016001600160401b038111828210171561025a5761025a6101c8565b60405281815283820160200185101561027257600080fd5b6102838260208301602087016101de565b949350505050565b600080600080600080600060e0888a0312156102a657600080fd5b6102af886101ac565b96506102bd602089016101ac565b95506102cb604089016101ac565b60608901519095506001600160401b038111156102e757600080fd5b6102f38a828b01610202565b60808a015190955090506001600160401b0381111561031157600080fd5b61031d8a828b01610202565b93505060a088015160ff8116811461033457600080fd5b915061034260c089016101ac565b905092959891949750929550565b60006020828403121561036257600080fd5b61036b826101ac565b9392505050565b6000815180845261038a8160208601602086016101de565b601f01601f19169290920160200192915050565b6001600160a01b0387811682528616602082015260c0604082018190526000906103ca90830187610372565b82810360608401526103dc8187610372565b60ff95909516608084015250506001600160a01b039190911660a090910152949350505050565b600082516104158184602087016101de565b9190910192915050565b6101638061042e6000396000f3fe60806040526004361061001e5760003560e01c80632307f882146100c1575b60008060009054906101000a90046001600160a01b03166001600160a01b031663aaf10f426040518163ffffffff1660e01b8152600401602060405180830381865afa158015610072573d6000803e3d6000fd5b505050506040513d601f19601f8201168201806040525081019061009691906100fd565b90503660008037600080366000846127105a03f43d806000803e8180156100bc57816000f35b816000fd5b3480156100cd57600080fd5b506000546100e1906001600160a01b031681565b6040516001600160a01b03909116815260200160405180910390f35b60006020828403121561010f57600080fd5b81516001600160a01b038116811461012657600080fd5b939250505056fea2646970667358221220170f7d006ff4faee47bddec782ec08c078855705b628438edb6d8af23e9e87a064736f6c634300081c0033","linkReferences":{}},"methodIdentifiers":{"implementationAuthority()":"2307f882"},"id":9}